{
  "_format": "hh-sol-artifact-1",
  "contractName": "Dns",
  "sourceName": "contracts/Dns.sol",
  "abi": [
    {
      "inputs": [],
      "stateMutability": "nonpayable",
      "type": "constructor"
    },
    {
      "anonymous": false,
      "inputs": [
        {
          "indexed": true,
          "internalType": "address",
          "name": "owner",
          "type": "address"
        },
        {
          "indexed": true,
          "internalType": "address",
          "name": "approved",
          "type": "address"
        },
        {
          "indexed": true,
          "internalType": "uint256",
          "name": "tokenId",
          "type": "uint256"
        }
      ],
      "name": "Approval",
      "type": "event"
    },
    {
      "anonymous": false,
      "inputs": [
        {
          "indexed": true,
          "internalType": "address",
          "name": "owner",
          "type": "address"
        },
        {
          "indexed": true,
          "internalType": "address",
          "name": "operator",
          "type": "address"
        },
        {
          "indexed": false,
          "internalType": "bool",
          "name": "approved",
          "type": "bool"
        }
      ],
      "name": "ApprovalForAll",
      "type": "event"
    },
    {
      "anonymous": false,
      "inputs": [
        {
          "indexed": false,
          "internalType": "string",
          "name": "name",
          "type": "string"
        }
      ],
      "name": "AuctionEnded",
      "type": "event"
    },
    {
      "anonymous": false,
      "inputs": [
        {
          "indexed": false,
          "internalType": "string",
          "name": "name",
          "type": "string"
        }
      ],
      "name": "AuctionStarted",
      "type": "event"
    },
    {
      "anonymous": false,
      "inputs": [
        {
          "indexed": false,
          "internalType": "address",
          "name": "bidder",
          "type": "address"
        },
        {
          "indexed": false,
          "internalType": "string",
          "name": "name",
          "type": "string"
        }
      ],
      "name": "BidMade",
      "type": "event"
    },
    {
      "anonymous": false,
      "inputs": [
        {
          "indexed": false,
          "internalType": "address",
          "name": "bidder",
          "type": "address"
        },
        {
          "indexed": false,
          "internalType": "string",
          "name": "name",
          "type": "string"
        },
        {
          "indexed": false,
          "internalType": "uint256",
          "name": "value",
          "type": "uint256"
        },
        {
          "indexed": false,
          "internalType": "bool",
          "name": "revealed",
          "type": "bool"
        }
      ],
      "name": "BidRevealed",
      "type": "event"
    },
    {
      "anonymous": false,
      "inputs": [
        {
          "indexed": true,
          "internalType": "string",
          "name": "name",
          "type": "string"
        },
        {
          "indexed": true,
          "internalType": "address",
          "name": "owner",
          "type": "address"
        }
      ],
      "name": "DomainRegistered",
      "type": "event"
    },
    {
      "anonymous": false,
      "inputs": [
        {
          "indexed": true,
          "internalType": "address",
          "name": "from",
          "type": "address"
        },
        {
          "indexed": true,
          "internalType": "address",
          "name": "to",
          "type": "address"
        },
        {
          "indexed": true,
          "internalType": "uint256",
          "name": "tokenId",
          "type": "uint256"
        }
      ],
      "name": "Transfer",
      "type": "event"
    },
    {
      "inputs": [
        {
          "internalType": "address",
          "name": "to",
          "type": "address"
        },
        {
          "internalType": "uint256",
          "name": "tokenId",
          "type": "uint256"
        }
      ],
      "name": "approve",
      "outputs": [],
      "stateMutability": "nonpayable",
      "type": "function"
    },
    {
      "inputs": [
        {
          "internalType": "string",
          "name": "",
          "type": "string"
        }
      ],
      "name": "auctions",
      "outputs": [
        {
          "internalType": "uint256",
          "name": "biddingEnd",
          "type": "uint256"
        },
        {
          "internalType": "uint256",
          "name": "revealEnd",
          "type": "uint256"
        },
        {
          "internalType": "string",
          "name": "name",
          "type": "string"
        },
        {
          "internalType": "uint256",
          "name": "auctionId",
          "type": "uint256"
        },
        {
          "internalType": "uint256",
          "name": "highestBid",
          "type": "uint256"
        },
        {
          "internalType": "address",
          "name": "highestBidder",
          "type": "address"
        }
      ],
      "stateMutability": "view",
      "type": "function"
    },
    {
      "inputs": [
        {
          "internalType": "uint256",
          "name": "",
          "type": "uint256"
        }
      ],
      "name": "auctionsArray",
      "outputs": [
        {
          "internalType": "uint256",
          "name": "biddingEnd",
          "type": "uint256"
        },
        {
          "internalType": "uint256",
          "name": "revealEnd",
          "type": "uint256"
        },
        {
          "internalType": "string",
          "name": "name",
          "type": "string"
        },
        {
          "internalType": "uint256",
          "name": "auctionId",
          "type": "uint256"
        },
        {
          "internalType": "uint256",
          "name": "highestBid",
          "type": "uint256"
        },
        {
          "internalType": "address",
          "name": "highestBidder",
          "type": "address"
        }
      ],
      "stateMutability": "view",
      "type": "function"
    },
    {
      "inputs": [
        {
          "internalType": "address",
          "name": "owner",
          "type": "address"
        }
      ],
      "name": "balanceOf",
      "outputs": [
        {
          "internalType": "uint256",
          "name": "",
          "type": "uint256"
        }
      ],
      "stateMutability": "view",
      "type": "function"
    },
    {
      "inputs": [
        {
          "internalType": "bytes",
          "name": "bytecode",
          "type": "bytes"
        },
        {
          "internalType": "uint256",
          "name": "_salt",
          "type": "uint256"
        },
        {
          "internalType": "string",
          "name": "_name",
          "type": "string"
        }
      ],
      "name": "bid",
      "outputs": [],
      "stateMutability": "payable",
      "type": "function"
    },
    {
      "inputs": [
        {
          "internalType": "string",
          "name": "",
          "type": "string"
        },
        {
          "internalType": "uint256",
          "name": "",
          "type": "uint256"
        }
      ],
      "name": "biddingsForAuctions",
      "outputs": [
        {
          "internalType": "string",
          "name": "name",
          "type": "string"
        },
        {
          "internalType": "address",
          "name": "bidder",
          "type": "address"
        },
        {
          "internalType": "bool",
          "name": "revealed",
          "type": "bool"
        },
        {
          "internalType": "uint256",
          "name": "revealedBid",
          "type": "uint256"
        }
      ],
      "stateMutability": "view",
      "type": "function"
    },
    {
      "inputs": [
        {
          "internalType": "bytes",
          "name": "bytecode",
          "type": "bytes"
        },
        {
          "internalType": "uint256",
          "name": "salt",
          "type": "uint256"
        },
        {
          "internalType": "string",
          "name": "_name",
          "type": "string"
        }
      ],
      "name": "check",
      "outputs": [],
      "stateMutability": "nonpayable",
      "type": "function"
    },
    {
      "inputs": [
        {
          "internalType": "string",
          "name": "",
          "type": "string"
        }
      ],
      "name": "domainsToEthAddr",
      "outputs": [
        {
          "internalType": "address",
          "name": "",
          "type": "address"
        }
      ],
      "stateMutability": "view",
      "type": "function"
    },
    {
      "inputs": [
        {
          "internalType": "address",
          "name": "",
          "type": "address"
        },
        {
          "internalType": "uint256",
          "name": "",
          "type": "uint256"
        }
      ],
      "name": "ethAddrToDomain",
      "outputs": [
        {
          "internalType": "string",
          "name": "domainName",
          "type": "string"
        },
        {
          "internalType": "address",
          "name": "contractAddress",
          "type": "address"
        }
      ],
      "stateMutability": "view",
      "type": "function"
    },
    {
      "inputs": [
        {
          "internalType": "bytes",
          "name": "bytecode",
          "type": "bytes"
        },
        {
          "internalType": "uint256",
          "name": "_salt",
          "type": "uint256"
        }
      ],
      "name": "getAddress",
      "outputs": [
        {
          "internalType": "address",
          "name": "",
          "type": "address"
        }
      ],
      "stateMutability": "view",
      "type": "function"
    },
    {
      "inputs": [
        {
          "internalType": "uint256",
          "name": "tokenId",
          "type": "uint256"
        }
      ],
      "name": "getApproved",
      "outputs": [
        {
          "internalType": "address",
          "name": "",
          "type": "address"
        }
      ],
      "stateMutability": "view",
      "type": "function"
    },
    {
      "inputs": [],
      "name": "getAuctions",
      "outputs": [
        {
          "components": [
            {
              "internalType": "uint256",
              "name": "biddingEnd",
              "type": "uint256"
            },
            {
              "internalType": "uint256",
              "name": "revealEnd",
              "type": "uint256"
            },
            {
              "internalType": "string",
              "name": "name",
              "type": "string"
            },
            {
              "internalType": "uint256",
              "name": "auctionId",
              "type": "uint256"
            },
            {
              "internalType": "uint256",
              "name": "highestBid",
              "type": "uint256"
            },
            {
              "internalType": "address",
              "name": "highestBidder",
              "type": "address"
            }
          ],
          "internalType": "struct IDns.Auction[]",
          "name": "",
          "type": "tuple[]"
        }
      ],
      "stateMutability": "view",
      "type": "function"
    },
    {
      "inputs": [],
      "name": "getBalance",
      "outputs": [
        {
          "internalType": "uint256",
          "name": "",
          "type": "uint256"
        }
      ],
      "stateMutability": "view",
      "type": "function"
    },
    {
      "inputs": [
        {
          "internalType": "string",
          "name": "_name",
          "type": "string"
        },
        {
          "internalType": "address",
          "name": "user",
          "type": "address"
        }
      ],
      "name": "getBidding",
      "outputs": [
        {
          "components": [
            {
              "internalType": "string",
              "name": "name",
              "type": "string"
            },
            {
              "internalType": "address",
              "name": "bidder",
              "type": "address"
            },
            {
              "internalType": "bool",
              "name": "revealed",
              "type": "bool"
            },
            {
              "internalType": "uint256",
              "name": "revealedBid",
              "type": "uint256"
            }
          ],
          "internalType": "struct IDns.Bid",
          "name": "",
          "type": "tuple"
        }
      ],
      "stateMutability": "view",
      "type": "function"
    },
    {
      "inputs": [
        {
          "internalType": "address",
          "name": "_user",
          "type": "address"
        }
      ],
      "name": "getBiddings",
      "outputs": [
        {
          "components": [
            {
              "internalType": "string",
              "name": "name",
              "type": "string"
            },
            {
              "internalType": "address",
              "name": "bidder",
              "type": "address"
            },
            {
              "internalType": "bool",
              "name": "revealed",
              "type": "bool"
            },
            {
              "internalType": "uint256",
              "name": "revealedBid",
              "type": "uint256"
            }
          ],
          "internalType": "struct IDns.Bid[]",
          "name": "",
          "type": "tuple[]"
        }
      ],
      "stateMutability": "view",
      "type": "function"
    },
    {
      "inputs": [
        {
          "internalType": "address",
          "name": "_owner",
          "type": "address"
        },
        {
          "internalType": "string",
          "name": "_name",
          "type": "string"
        }
      ],
      "name": "getBytecode",
      "outputs": [
        {
          "internalType": "bytes",
          "name": "",
          "type": "bytes"
        }
      ],
      "stateMutability": "pure",
      "type": "function"
    },
    {
      "inputs": [
        {
          "internalType": "address",
          "name": "ownerAddress",
          "type": "address"
        }
      ],
      "name": "getDomains",
      "outputs": [
        {
          "components": [
            {
              "internalType": "string",
              "name": "domainName",
              "type": "string"
            },
            {
              "internalType": "address",
              "name": "contractAddress",
              "type": "address"
            }
          ],
          "internalType": "struct IDns.EthDomain[]",
          "name": "",
          "type": "tuple[]"
        }
      ],
      "stateMutability": "view",
      "type": "function"
    },
    {
      "inputs": [
        {
          "internalType": "address",
          "name": "owner",
          "type": "address"
        },
        {
          "internalType": "address",
          "name": "operator",
          "type": "address"
        }
      ],
      "name": "isApprovedForAll",
      "outputs": [
        {
          "internalType": "bool",
          "name": "",
          "type": "bool"
        }
      ],
      "stateMutability": "view",
      "type": "function"
    },
    {
      "inputs": [
        {
          "internalType": "address",
          "name": "",
          "type": "address"
        },
        {
          "internalType": "uint256",
          "name": "",
          "type": "uint256"
        }
      ],
      "name": "myBiddings",
      "outputs": [
        {
          "internalType": "string",
          "name": "name",
          "type": "string"
        },
        {
          "internalType": "address",
          "name": "bidder",
          "type": "address"
        },
        {
          "internalType": "bool",
          "name": "revealed",
          "type": "bool"
        },
        {
          "internalType": "uint256",
          "name": "revealedBid",
          "type": "uint256"
        }
      ],
      "stateMutability": "view",
      "type": "function"
    },
    {
      "inputs": [],
      "name": "name",
      "outputs": [
        {
          "internalType": "string",
          "name": "",
          "type": "string"
        }
      ],
      "stateMutability": "view",
      "type": "function"
    },
    {
      "inputs": [],
      "name": "owner",
      "outputs": [
        {
          "internalType": "address",
          "name": "",
          "type": "address"
        }
      ],
      "stateMutability": "view",
      "type": "function"
    },
    {
      "inputs": [
        {
          "internalType": "uint256",
          "name": "tokenId",
          "type": "uint256"
        }
      ],
      "name": "ownerOf",
      "outputs": [
        {
          "internalType": "address",
          "name": "",
          "type": "address"
        }
      ],
      "stateMutability": "view",
      "type": "function"
    },
    {
      "inputs": [
        {
          "internalType": "string",
          "name": "name",
          "type": "string"
        },
        {
          "internalType": "address",
          "name": "_owner",
          "type": "address"
        }
      ],
      "name": "registerName",
      "outputs": [
        {
          "internalType": "address",
          "name": "domainEthAddr",
          "type": "address"
        }
      ],
      "stateMutability": "nonpayable",
      "type": "function"
    },
    {
      "inputs": [
        {
          "internalType": "address",
          "name": "ownerAddress",
          "type": "address"
        },
        {
          "internalType": "string",
          "name": "name",
          "type": "string"
        }
      ],
      "name": "resolveAddress",
      "outputs": [
        {
          "internalType": "address",
          "name": "",
          "type": "address"
        }
      ],
      "stateMutability": "view",
      "type": "function"
    },
    {
      "inputs": [
        {
          "internalType": "address",
          "name": "from",
          "type": "address"
        },
        {
          "internalType": "address",
          "name": "to",
          "type": "address"
        },
        {
          "internalType": "uint256",
          "name": "tokenId",
          "type": "uint256"
        }
      ],
      "name": "safeTransferFrom",
      "outputs": [],
      "stateMutability": "nonpayable",
      "type": "function"
    },
    {
      "inputs": [
        {
          "internalType": "address",
          "name": "from",
          "type": "address"
        },
        {
          "internalType": "address",
          "name": "to",
          "type": "address"
        },
        {
          "internalType": "uint256",
          "name": "tokenId",
          "type": "uint256"
        },
        {
          "internalType": "bytes",
          "name": "_data",
          "type": "bytes"
        }
      ],
      "name": "safeTransferFrom",
      "outputs": [],
      "stateMutability": "nonpayable",
      "type": "function"
    },
    {
      "inputs": [
        {
          "internalType": "address",
          "name": "operator",
          "type": "address"
        },
        {
          "internalType": "bool",
          "name": "approved",
          "type": "bool"
        }
      ],
      "name": "setApprovalForAll",
      "outputs": [],
      "stateMutability": "nonpayable",
      "type": "function"
    },
    {
      "inputs": [
        {
          "internalType": "string",
          "name": "_name",
          "type": "string"
        },
        {
          "internalType": "uint256",
          "name": "_bidDuration",
          "type": "uint256"
        },
        {
          "internalType": "uint256",
          "name": "_revealDuration",
          "type": "uint256"
        }
      ],
      "name": "startAuction",
      "outputs": [],
      "stateMutability": "nonpayable",
      "type": "function"
    },
    {
      "inputs": [
        {
          "internalType": "bytes4",
          "name": "interfaceId",
          "type": "bytes4"
        }
      ],
      "name": "supportsInterface",
      "outputs": [
        {
          "internalType": "bool",
          "name": "",
          "type": "bool"
        }
      ],
      "stateMutability": "view",
      "type": "function"
    },
    {
      "inputs": [],
      "name": "symbol",
      "outputs": [
        {
          "internalType": "string",
          "name": "",
          "type": "string"
        }
      ],
      "stateMutability": "view",
      "type": "function"
    },
    {
      "inputs": [
        {
          "internalType": "uint256",
          "name": "tokenId",
          "type": "uint256"
        }
      ],
      "name": "tokenURI",
      "outputs": [
        {
          "internalType": "string",
          "name": "",
          "type": "string"
        }
      ],
      "stateMutability": "view",
      "type": "function"
    },
    {
      "inputs": [
        {
          "internalType": "address",
          "name": "from",
          "type": "address"
        },
        {
          "internalType": "address",
          "name": "to",
          "type": "address"
        },
        {
          "internalType": "uint256",
          "name": "tokenId",
          "type": "uint256"
        }
      ],
      "name": "transferFrom",
      "outputs": [],
      "stateMutability": "nonpayable",
      "type": "function"
    },
    {
      "stateMutability": "payable",
      "type": "receive"
    }
  ],
  "bytecode": "0x60806040526000600d553480156200001657600080fd5b50604080518082018252601481527f4e545520646f6d61696e207265676973747261720000000000000000000000006020808301918252835180850190945260038452624e545560e81b908401528151919291620000779160009162000164565b5080516200008d90600190602084019062000164565b5050600680546001600160a01b031916331790555060408051808201909152601d81527f4e545520646f6d61696e20726567697374726172206465706c6f796564000000602080830191909152620000ef9190620021df620000f5821b17901c565b6200029d565b62000140816040516024016200010c91906200020a565b60408051601f198184030181529190526020810180516001600160e01b0390811663104c13eb60e21b179091526200014316565b50565b80516a636f6e736f6c652e6c6f67602083016000808483855afa5050505050565b828054620001729062000260565b90600052602060002090601f016020900481019282620001965760008555620001e1565b82601f10620001b157805160ff1916838001178555620001e1565b82800160010185558215620001e1579182015b82811115620001e1578251825591602001919060010190620001c4565b50620001ef929150620001f3565b5090565b5b80821115620001ef5760008155600101620001f4565b6000602080835283518082850152825b8181101562000238578581018301518582016040015282016200021a565b818111156200024a5783604083870101525b50601f01601f1916929092016040019392505050565b600181811c908216806200027557607f821691505b602082108114156200029757634e487b7160e01b600052602260045260246000fd5b50919050565b61430180620002ad6000396000f3fe6080604052600436106200020e5760003560e01c80638da5cb5b1162000117578063ba2dd51f11620000a1578063d7c06919116200006c578063d7c0691914620006ae578063e6116a5914620006d5578063e80d842c14620006fa578063e985e9c5146200072e57600080fd5b8063ba2dd51f14620005f9578063c32618a71462000630578063c4c311941462000655578063c87b56dd146200068957600080fd5b8063a22cb46511620000e2578063a22cb4651462000531578063a693e4cb1462000556578063b76b1618146200059b578063b88d4fde14620005d457600080fd5b80638da5cb5b14620004ad57806394ca2cb514620004cf57806395d89b4114620004f457806399726b10146200050c57600080fd5b80632ac63f9911620001995780635a98374511620001645780635a983745146200040a5780636352211e146200043e57806370a0823114620004635780637b59af16146200048857600080fd5b80632ac63f99146200037657806342842e0e146200039b5780634f15aeb814620003c057806353e2045314620003e557600080fd5b8063081812fc11620001da578063081812fc14620002cf578063095ea7b3146200030d57806312065fe0146200033257806323b872dd146200035157600080fd5b80621d741e146200021b57806301ffc9a714620002595780630369567f146200028f57806306fdde0314620002a857600080fd5b366200021657005b600080fd5b3480156200022857600080fd5b50620002406200023a36600462002da1565b6200077b565b60405162000250929190620033e3565b60405180910390f35b3480156200026657600080fd5b506200027e6200027836600462002dcf565b62000856565b604051901515815260200162000250565b620002a6620002a036600462002e54565b620008aa565b005b348015620002b557600080fd5b50620002c062000910565b6040516200025091906200339f565b348015620002dc57600080fd5b50620002f4620002ee3660046200306c565b620009aa565b6040516001600160a01b03909116815260200162000250565b3480156200031a57600080fd5b50620002a66200032c36600462002da1565b62000a45565b3480156200033f57600080fd5b50475b60405190815260200162000250565b3480156200035e57600080fd5b50620002a66200037036600462002c61565b62000b66565b3480156200038357600080fd5b50620002a66200039536600462002ec5565b62000b9e565b348015620003a857600080fd5b50620002a6620003ba36600462002c61565b62000f01565b348015620003cd57600080fd5b50620002c0620003df36600462002d4d565b62000f1e565b348015620003f257600080fd5b50620002f46200040436600462002d4d565b62000f98565b3480156200041757600080fd5b506200042f6200042936600462002be6565b62001174565b604051620002509190620032c6565b3480156200044b57600080fd5b50620002f46200045d3660046200306c565b620012bb565b3480156200047057600080fd5b50620003426200048236600462002be6565b62001334565b3480156200049557600080fd5b50620002f4620004a736600462002ff7565b620013bd565b348015620004ba57600080fd5b50600654620002f4906001600160a01b031681565b348015620004dc57600080fd5b50620002f4620004ee36600462002e0d565b62001542565b3480156200050157600080fd5b50620002c06200159e565b3480156200051957600080fd5b50620002a66200052b36600462002e54565b620015af565b3480156200053e57600080fd5b50620002a66200055036600462002d18565b620019d0565b3480156200056357600080fd5b50620002f46200057536600462002f44565b80516020818301810180516007825292820191909301209152546001600160a01b031681565b348015620005a857600080fd5b50620005c0620005ba36600462002f44565b620019e1565b604051620002509695949392919062003501565b348015620005e157600080fd5b50620002a6620005f336600462002ca6565b62001abc565b3480156200060657600080fd5b506200061e6200061836600462003042565b62001afb565b6040516200025094939291906200340f565b3480156200063d57600080fd5b506200061e6200064f36600462002da1565b62001bf8565b3480156200066257600080fd5b506200067a6200067436600462002ff7565b62001c15565b604051620002509190620034ec565b3480156200069657600080fd5b50620002c0620006a83660046200306c565b62001e57565b348015620006bb57600080fd5b50620006c662001f48565b6040516200025091906200321b565b348015620006e257600080fd5b50620005c0620006f43660046200306c565b62002084565b3480156200070757600080fd5b506200071f6200071936600462002be6565b620020c6565b6040516200025091906200332b565b3480156200073b57600080fd5b506200027e6200074d36600462002c24565b6001600160a01b03918216600090815260056020908152604080832093909416825291909152205460ff1690565b600860205281600052604060002081815481106200079857600080fd5b906000526020600020906002020160009150915050806000018054620007be9062003623565b80601f0160208091040260200160405190810160405280929190818152602001828054620007ec9062003623565b80156200083d5780601f1062000811576101008083540402835291602001916200083d565b820191906000526020600020905b8154815290600101906020018083116200081f57829003601f168201915b505050600190930154919250506001600160a01b031682565b60006001600160e01b031982166380ac58cd60e01b14806200088857506001600160e01b03198216635b5e139f60e01b145b80620008a457506301ffc9a760e01b6001600160e01b03198316145b92915050565b60008284516020860134f59050803b620008c357600080fd5b620008cf338362002229565b7f92eb767245ca8829c6919f3fab91e97b9e2cc7f3e2f71ed25b74e5e23bffc6fe338360405162000902929190620031b7565b60405180910390a150505050565b606060008054620009219062003623565b80601f01602080910402602001604051908101604052809291908181526020018280546200094f9062003623565b8015620009a05780601f106200097457610100808354040283529160200191620009a0565b820191906000526020600020905b8154815290600101906020018083116200098257829003601f168201915b5050505050905090565b6000818152600260205260408120546001600160a01b031662000a295760405162461bcd60e51b815260206004820152602c60248201527f4552433732313a20617070726f76656420717565727920666f72206e6f6e657860448201526b34b9ba32b73a103a37b5b2b760a11b60648201526084015b60405180910390fd5b506000908152600460205260409020546001600160a01b031690565b600062000a5282620012bb565b9050806001600160a01b0316836001600160a01b0316141562000ac25760405162461bcd60e51b815260206004820152602160248201527f4552433732313a20617070726f76616c20746f2063757272656e74206f776e656044820152603960f91b606482015260840162000a20565b336001600160a01b038216148062000ae1575062000ae181336200074d565b62000b555760405162461bcd60e51b815260206004820152603860248201527f4552433732313a20617070726f76652063616c6c6572206973206e6f74206f7760448201527f6e6572206e6f7220617070726f76656420666f7220616c6c0000000000000000606482015260840162000a20565b62000b61838362002390565b505050565b62000b72338262002400565b62000b915760405162461bcd60e51b815260040162000a20906200349b565b62000b61838383620024ff565b6009848460405162000bb29291906200314a565b90815260200160405180910390206003015460001462000c155760405162461bcd60e51b815260206004820152601f60248201527f41756374696f6e20666f72207468697320616c72656164792065786973747300604482015260640162000a20565b60006001600160a01b03166007858560405162000c349291906200314a565b908152604051908190036020019020546001600160a01b03161462000ca65760405162461bcd60e51b815260206004820152602160248201527f5468697320646f6d61696e206e616d6520697320616c7265616479206f776e656044820152601960fa1b606482015260840162000a20565b600d805490600062000cb88362003660565b919050555060006040518060c00160405280844262000cd89190620035a8565b81526020018362000cea8642620035a8565b62000cf69190620035a8565b815260200186868080601f01602080910402602001604051908101604052809392919081815260200183838082843760009201829052509385525050600d54602084015250604080830182905260609092015251909150819060099062000d6190889088906200314a565b90815260200160405180910390206000820151816000015560208201518160010155604082015181600201908051906020019062000da192919062002acd565b50606082015160038201556080820151600482015560a090910151600590910180546001600160a01b0319166001600160a01b03909216919091179055600a805460018101825560009190915281517fc65a7bb8d6351c1cf70c95a316cc6a92839c986682d98bc35f958f4883f9d2a860069092029182019081556020808401517fc65a7bb8d6351c1cf70c95a316cc6a92839c986682d98bc35f958f4883f9d2a984015560408401518051859462000e81937fc65a7bb8d6351c1cf70c95a316cc6a92839c986682d98bc35f958f4883f9d2aa90910192019062002acd565b50606082015160038201556080820151600482015560a090910151600590910180546001600160a01b0319166001600160a01b039092169190911790556040517f50aa32fed87143a12f31f64ad9199a4cdc7b35635008b92f753d4c66dafdb4239062000ef29087908790620033b4565b60405180910390a15050505050565b62000b618383836040518060200160405280600081525062001abc565b606060006040518060200162000f349062002b5c565b6020820181038252601f19601f82011660405250905080848460405160200162000f60929190620031b7565b60408051601f198184030181529082905262000f80929160200162003117565b60405160208183030381529060405291505092915050565b6000805b6001600160a01b0384166000908152600860205260409020548110156200116a576001600160a01b038416600090815260086020526040812080548390811062000ff657634e487b7160e01b600052603260045260246000fd5b90600052602060002090600202016000018054620010149062003623565b80601f0160208091040260200160405190810160405280929190818152602001828054620010429062003623565b8015620010935780601f10620010675761010080835404028352916020019162001093565b820191906000526020600020905b8154815290600101906020018083116200107557829003601f168201915b5050505050905083604051602001620010ad91906200315a565b6040516020818303038152906040528051906020012081604051602001620010d691906200315a565b60405160208183030381529060405280519060200120141562001154576001600160a01b03851660009081526008602052604090208054839081106200112c57634e487b7160e01b600052603260045260246000fd5b60009182526020909120600160029092020101546001600160a01b03169250620008a4915050565b5080620011618162003660565b91505062000f9c565b5060009392505050565b6001600160a01b0381166000908152600c60209081526040808320805482518185028101850190935280835260609492939192909184015b82821015620012b05783829060005260206000209060030201604051806080016040529081600082018054620011e29062003623565b80601f0160208091040260200160405190810160405280929190818152602001828054620012109062003623565b8015620012615780601f10620012355761010080835404028352916020019162001261565b820191906000526020600020905b8154815290600101906020018083116200124357829003601f168201915b50505091835250506001828101546001600160a01b038116602080850191909152600160a01b90910460ff161515604084015260029093015460609092019190915291835292019101620011ac565b505050509050919050565b6000818152600260205260408120546001600160a01b031680620008a45760405162461bcd60e51b815260206004820152602960248201527f4552433732313a206f776e657220717565727920666f72206e6f6e657869737460448201526832b73a103a37b5b2b760b91b606482015260840162000a20565b60006001600160a01b038216620013a15760405162461bcd60e51b815260206004820152602a60248201527f4552433732313a2062616c616e636520717565727920666f7220746865207a65604482015269726f206164647265737360b01b606482015260840162000a20565b506001600160a01b031660009081526003602052604090205490565b60008260006001600160a01b0316600782604051620013dd91906200315a565b908152604051908190036020019020546001600160a01b0316146200140157600080fd5b60008484604051620014139062002b6a565b62001420929190620033e3565b604051809103906000f0801580156200143d573d6000803e3d6000fd5b509050809250836007866040516200145691906200315a565b908152604080516020928190038301812080546001600160a01b0319166001600160a01b03958616179055808201825288815286841683820152928716600090815260088352908120805460018101825590825290829020835180518594600290940290920192620014ce9284929091019062002acd565b5060209190910151600190910180546001600160a01b0319166001600160a01b0392831617905560405190861690620015099088906200315a565b604051908190038120907f70f2ff07e8136617cdfb0433423063c9dd697c507560d7860cce09fa86874a1290600090a350505092915050565b8151602092830120604080516001600160f81b0319818601523060601b6bffffffffffffffffffffffff191660218201526035810193909352605580840192909252805180840390920182526075909201909152805191012090565b606060018054620009219062003623565b6000600b82604051620015c391906200315a565b90815260200160405180910390209050600080620015e2868662001542565b905060008190506000816001600160a01b031663f496d8826040518163ffffffff1660e01b815260040160206040518083038186803b1580156200162557600080fd5b505afa1580156200163a573d6000803e3d6000fd5b505050506040513d601f19601f8201168201806040525081019062001660919062002c05565b90506000826001600160a01b03166306fdde036040518163ffffffff1660e01b815260040160006040518083038186803b1580156200169e57600080fd5b505afa158015620016b3573d6000803e3d6000fd5b505050506040513d6000823e601f3d908101601f19168201604052620016dd919081019062002f7b565b90506000836001600160a01b03166312065fe06040518163ffffffff1660e01b815260040160206040518083038186803b1580156200171b57600080fd5b505afa15801562001730573d6000803e3d6000fd5b505050506040513d601f19601f8201168201806040525081019062001756919062003085565b90506001600160a01b0383163314620017ac5760405162461bcd60e51b815260206004820152601760248201527611985a5b1959081d1bc81d995c9a599e4818dbdb5b5a5d604a1b604482015260640162000a20565b87604051602001620017bf91906200315a565b6040516020818303038152906040528051906020012082604051602001620017e891906200315a565b6040516020818303038152906040528051906020012014620018475760405162461bcd60e51b815260206004820152601760248201527611985a5b1959081d1bc81d995c9a599e4818dbdb5b5a5d604a1b604482015260640162000a20565b60005b8754811015620019c357336001600160a01b03168882815481106200187f57634e487b7160e01b600052603260045260246000fd5b60009182526020909120600160039092020101546001600160a01b03161415620019ae57878181548110620018c457634e487b7160e01b600052603260045260246000fd5b6000918252602082206001600390920201908101805460ff60a01b1916600160a01b1790556002810184905560408051633ccfd60b60e01b815290519199506001600160a01b03881692633ccfd60b9260048084019382900301818387803b1580156200193057600080fd5b505af115801562001945573d6000803e3d6000fd5b505050506200195a89338960020154620026ab565b50600287015460018801546040517fe7b9400614ae8d3fb96a8ed036e790d12c0466fe2df292c92a44c602bb1c20d592620019a5928892889291600160a01b900460ff1690620031dd565b60405180910390a15b80620019ba8162003660565b9150506200184a565b5050505050505050505050565b620019dd33838362002758565b5050565b80516020818301810180516009825292820191909301209152805460018201546002830180549293919262001a169062003623565b80601f016020809104026020016040519081016040528092919081815260200182805462001a449062003623565b801562001a955780601f1062001a695761010080835404028352916020019162001a95565b820191906000526020600020905b81548152906001019060200180831162001a7757829003601f168201915b5050505060038301546004840154600590940154929390929091506001600160a01b031686565b62001ac8338362002400565b62001ae75760405162461bcd60e51b815260040162000a20906200349b565b62001af58484848462002829565b50505050565b8151602081840181018051600b82529282019185019190912091905280548290811062001b2757600080fd5b90600052602060002090600302016000915091505080600001805462001b4d9062003623565b80601f016020809104026020016040519081016040528092919081815260200182805462001b7b9062003623565b801562001bcc5780601f1062001ba05761010080835404028352916020019162001bcc565b820191906000526020600020905b81548152906001019060200180831162001bae57829003601f168201915b50505050600183015460029093015491926001600160a01b03811692600160a01b90910460ff16915084565b600c602052816000526040600020818154811062001b2757600080fd5b6040805160808101825260608082526000602083018190529282018390528101919091526000600b8460405162001c4d91906200315a565b9081526020016040518091039020805480602002602001604051908101604052809291908181526020016000905b8282101562001d7f578382906000526020600020906003020160405180608001604052908160008201805462001cb19062003623565b80601f016020809104026020016040519081016040528092919081815260200182805462001cdf9062003623565b801562001d305780601f1062001d045761010080835404028352916020019162001d30565b820191906000526020600020905b81548152906001019060200180831162001d1257829003601f168201915b50505091835250506001828101546001600160a01b038116602080850191909152600160a01b90910460ff16151560408401526002909301546060909201919091529183529201910162001c7b565b50505050905060005b815181101562001e2157836001600160a01b031682828151811062001dbd57634e487b7160e01b600052603260045260246000fd5b6020026020010151602001516001600160a01b0316141562001e0c5781818151811062001dfa57634e487b7160e01b600052603260045260246000fd5b602002602001015192505050620008a4565b8062001e188162003660565b91505062001d88565b5060405162461bcd60e51b8152602060048201526009602482015268139bdd08199bdd5b9960ba1b604482015260640162000a20565b6000818152600260205260409020546060906001600160a01b031662001ed85760405162461bcd60e51b815260206004820152602f60248201527f4552433732314d657461646174613a2055524920717565727920666f72206e6f60448201526e3732bc34b9ba32b73a103a37b5b2b760891b606482015260840162000a20565b600062001ef060408051602081019091526000815290565b9050600081511162001f12576040518060200160405280600081525062001f41565b8062001f1e8462002863565b60405160200162001f3192919062003117565b6040516020818303038152906040525b9392505050565b6060600a805480602002602001604051908101604052809291908181526020016000905b828210156200207b57838290600052602060002090600602016040518060c0016040529081600082015481526020016001820154815260200160028201805462001fb69062003623565b80601f016020809104026020016040519081016040528092919081815260200182805462001fe49062003623565b8015620020355780601f10620020095761010080835404028352916020019162002035565b820191906000526020600020905b8154815290600101906020018083116200201757829003601f168201915b50505091835250506003820154602080830191909152600483015460408301526005909201546001600160a01b0316606090910152908252600192909201910162001f6c565b50505050905090565b600a81815481106200209557600080fd5b906000526020600020906006020160009150905080600001549080600101549080600201805462001a169062003623565b6001600160a01b0381166000908152600860209081526040808320805482518185028101850190935280835260609492939192909184015b82821015620012b05783829060005260206000209060020201604051806040016040529081600082018054620021349062003623565b80601f0160208091040260200160405190810160405280929190818152602001828054620021629062003623565b8015620021b35780601f106200218757610100808354040283529160200191620021b3565b820191906000526020600020905b8154815290600101906020018083116200219557829003601f168201915b50505091835250506001918201546001600160a01b0316602091820152918352929092019101620020fe565b6200222681604051602401620021f691906200339f565b60408051601f198184030181529190526020810180516001600160e01b031663104c13eb60e21b17905262002991565b50565b6001600160a01b0382166000818152600c6020908152604080832081516080810183528681528084019590955290840183905260608401839052805460018101825590835291819020835180516003909402909101926200228e928492019062002acd565b5060208201516001820180546040808601511515600160a01b026001600160a81b03199092166001600160a01b039094169390931717905560609092015160029091015551600b90620022e39083906200315a565b9081526040805191829003602090810183206080840183528484526001600160a01b038616848301526000928401839052606084018390528054600181018255908352918190208351805160039094029091019262002346928492019062002acd565b50602082015160018201805460408501511515600160a01b026001600160a81b03199091166001600160a01b03909316929092179190911790556060909101516002909101555050565b600081815260046020526040902080546001600160a01b0319166001600160a01b0384169081179091558190620023c782620012bb565b6001600160a01b03167f8c5be1e5ebec7d5bd14f71427d1e84f3dd0314c0f7b2291e5b200ac8c7c3b92560405160405180910390a45050565b6000818152600260205260408120546001600160a01b03166200247b5760405162461bcd60e51b815260206004820152602c60248201527f4552433732313a206f70657261746f7220717565727920666f72206e6f6e657860448201526b34b9ba32b73a103a37b5b2b760a11b606482015260840162000a20565b60006200248883620012bb565b9050806001600160a01b0316846001600160a01b03161480620024c65750836001600160a01b0316620024bb84620009aa565b6001600160a01b0316145b80620024f757506001600160a01b0380821660009081526005602090815260408083209388168352929052205460ff165b949350505050565b826001600160a01b03166200251482620012bb565b6001600160a01b0316146200257e5760405162461bcd60e51b815260206004820152602960248201527f4552433732313a207472616e73666572206f6620746f6b656e2074686174206960448201526839903737ba1037bbb760b91b606482015260840162000a20565b6001600160a01b038216620025e25760405162461bcd60e51b8152602060048201526024808201527f4552433732313a207472616e7366657220746f20746865207a65726f206164646044820152637265737360e01b606482015260840162000a20565b620025ef60008262002390565b6001600160a01b03831660009081526003602052604081208054600192906200261a908490620035da565b90915550506001600160a01b03821660009081526003602052604081208054600192906200264a908490620035a8565b909155505060008181526002602052604080822080546001600160a01b0319166001600160a01b0386811691821790925591518493918716917fddf252ad1be2c89b69c2b068fc378daa952ba7f163c4a11628f55a4df523b3ef91a4505050565b6000600984604051620026bf91906200315a565b9081526020016040518091039020600401548211620026e15750600062001f41565b81600985604051620026f491906200315a565b908152602001604051809103902060040181905550826009856040516200271c91906200315a565b90815260405190819003602001902060050180546001600160a01b03929092166001600160a01b03199092169190911790555060019392505050565b816001600160a01b0316836001600160a01b03161415620027bc5760405162461bcd60e51b815260206004820152601960248201527f4552433732313a20617070726f766520746f2063616c6c657200000000000000604482015260640162000a20565b6001600160a01b03838116600081815260056020908152604080832094871680845294825291829020805460ff191686151590811790915591519182527f17307eab39ab6107e8899845ad3d59bd9653f200f220920489ca2b5937696c31910160405180910390a3505050565b62002836848484620024ff565b6200284484848484620029b2565b62001af55760405162461bcd60e51b815260040162000a209062003449565b606081620028885750506040805180820190915260018152600360fc1b602082015290565b8160005b8115620028b857806200289f8162003660565b9150620028b09050600a83620035c3565b91506200288c565b60008167ffffffffffffffff811115620028e257634e487b7160e01b600052604160045260246000fd5b6040519080825280601f01601f1916602001820160405280156200290d576020820181803683370190505b5090505b8415620024f75762002925600183620035da565b915062002934600a866200367e565b62002941906030620035a8565b60f81b8183815181106200296557634e487b7160e01b600052603260045260246000fd5b60200101906001600160f81b031916908160001a90535062002989600a86620035c3565b945062002911565b80516a636f6e736f6c652e6c6f67602083016000808483855afa5050505050565b60006001600160a01b0384163b1562002ac257604051630a85bd0160e11b81526001600160a01b0385169063150b7a0290620029f990339089908890889060040162003178565b602060405180830381600087803b15801562002a1457600080fd5b505af192505050801562002a47575060408051601f3d908101601f1916820190925262002a449181019062002dee565b60015b62002aa7573d80801562002a78576040519150601f19603f3d011682016040523d82523d6000602084013e62002a7d565b606091505b50805162002a9f5760405162461bcd60e51b815260040162000a209062003449565b805181602001fd5b6001600160e01b031916630a85bd0160e11b149050620024f7565b506001949350505050565b82805462002adb9062003623565b90600052602060002090601f01602090048101928262002aff576000855562002b4a565b82601f1062002b1a57805160ff191683800117855562002b4a565b8280016001018555821562002b4a579182015b8281111562002b4a57825182559160200191906001019062002b2d565b5062002b5892915062002b78565b5090565b6104ee806200370583390190565b6106d98062003bf383390190565b5b8082111562002b58576000815560010162002b79565b600082601f83011262002ba0578081fd5b813562002bb762002bb1826200357d565b62003549565b81815284602083860101111562002bcc578283fd5b816020850160208301379081016020019190915292915050565b60006020828403121562002bf8578081fd5b813562001f4181620036d7565b60006020828403121562002c17578081fd5b815162001f4181620036d7565b6000806040838503121562002c37578081fd5b823562002c4481620036d7565b9150602083013562002c5681620036d7565b809150509250929050565b60008060006060848603121562002c76578081fd5b833562002c8381620036d7565b9250602084013562002c9581620036d7565b929592945050506040919091013590565b6000806000806080858703121562002cbc578081fd5b843562002cc981620036d7565b9350602085013562002cdb81620036d7565b925060408501359150606085013567ffffffffffffffff81111562002cfe578182fd5b62002d0c8782880162002b8f565b91505092959194509250565b6000806040838503121562002d2b578182fd5b823562002d3881620036d7565b91506020830135801515811462002c56578182fd5b6000806040838503121562002d60578182fd5b823562002d6d81620036d7565b9150602083013567ffffffffffffffff81111562002d89578182fd5b62002d978582860162002b8f565b9150509250929050565b6000806040838503121562002db4578182fd5b823562002dc181620036d7565b946020939093013593505050565b60006020828403121562002de1578081fd5b813562001f4181620036ed565b60006020828403121562002e00578081fd5b815162001f4181620036ed565b6000806040838503121562002e20578081fd5b823567ffffffffffffffff81111562002e37578182fd5b62002e458582860162002b8f565b95602094909401359450505050565b60008060006060848603121562002e69578081fd5b833567ffffffffffffffff8082111562002e81578283fd5b62002e8f8783880162002b8f565b945060208601359350604086013591508082111562002eac578283fd5b5062002ebb8682870162002b8f565b9150509250925092565b6000806000806060858703121562002edb578182fd5b843567ffffffffffffffff8082111562002ef3578384fd5b818701915087601f83011262002f07578384fd5b81358181111562002f16578485fd5b88602082850101111562002f28578485fd5b6020928301999098509187013596604001359550909350505050565b60006020828403121562002f56578081fd5b813567ffffffffffffffff81111562002f6d578182fd5b620024f78482850162002b8f565b60006020828403121562002f8d578081fd5b815167ffffffffffffffff81111562002fa4578182fd5b8201601f8101841362002fb5578182fd5b805162002fc662002bb1826200357d565b81815285602083850101111562002fdb578384fd5b62002fee826020830160208601620035f4565b95945050505050565b600080604083850312156200300a578182fd5b823567ffffffffffffffff81111562003021578283fd5b6200302f8582860162002b8f565b925050602083013562002c5681620036d7565b6000806040838503121562003055578182fd5b823567ffffffffffffffff81111562002e37578283fd5b6000602082840312156200307e578081fd5b5035919050565b60006020828403121562003097578081fd5b5051919050565b60008151808452620030b8816020860160208601620035f4565b601f01601f19169290920160200192915050565b6000815160808452620030e360808501826200309e565b6020848101516001600160a01b03169086015260408085015115159086015260609384015193909401929092525090919050565b600083516200312b818460208801620035f4565b83519083019062003141818360208801620035f4565b01949350505050565b8183823760009101908152919050565b600082516200316e818460208701620035f4565b9190910192915050565b6001600160a01b0385811682528416602082015260408101839052608060608201819052600090620031ad908301846200309e565b9695505050505050565b6001600160a01b0383168152604060208201819052600090620024f7908301846200309e565b6001600160a01b038516815260806020820181905260009062003203908301866200309e565b60408301949094525090151560609091015292915050565b60006020808301818452808551808352604092508286019150828160051b870101848801865b83811015620032b857603f19898403018552815160c08151855288820151898601528782015181898701526200327a828701826200309e565b606084810151908801526080808501519088015260a0938401516001600160a01b031693909601929092525050938601939086019060010162003241565b509098975050505050505050565b6000602080830181845280855180835260408601915060408160051b8701019250838701855b828110156200331e57603f198886030184526200330b858351620030cc565b94509285019290850190600101620032ec565b5092979650505050505050565b60006020808301818452808551808352604092508286019150828160051b870101848801865b83811015620032b857888303603f190185528151805187855262003378888601826200309e565b918901516001600160a01b0316948901949094529487019492509086019060010162003351565b60208152600062001f4160208301846200309e565b60208152816020820152818360408301376000818301604090810191909152601f909201601f19160101919050565b604081526000620033f860408301856200309e565b905060018060a01b03831660208301529392505050565b6080815260006200342460808301876200309e565b6001600160a01b03959095166020830152509115156040830152606090910152919050565b60208082526032908201527f4552433732313a207472616e7366657220746f206e6f6e20455243373231526560408201527131b2b4bb32b91034b6b83632b6b2b73a32b960711b606082015260800190565b60208082526031908201527f4552433732313a207472616e736665722063616c6c6572206973206e6f74206f6040820152701ddb995c881b9bdc88185c1c1c9bdd9959607a1b606082015260800190565b60208152600062001f416020830184620030cc565b86815285602082015260c0604082015260006200352260c08301876200309e565b60608301959095525060808101929092526001600160a01b031660a0909101529392505050565b604051601f8201601f1916810167ffffffffffffffff81118282101715620035755762003575620036c1565b604052919050565b600067ffffffffffffffff8211156200359a576200359a620036c1565b50601f01601f191660200190565b60008219821115620035be57620035be62003695565b500190565b600082620035d557620035d5620036ab565b500490565b600082821015620035ef57620035ef62003695565b500390565b60005b8381101562003611578181015183820152602001620035f7565b8381111562001af55750506000910152565b600181811c908216806200363857607f821691505b602082108114156200365a57634e487b7160e01b600052602260045260246000fd5b50919050565b600060001982141562003677576200367762003695565b5060010190565b600082620036905762003690620036ab565b500690565b634e487b7160e01b600052601160045260246000fd5b634e487b7160e01b600052601260045260246000fd5b634e487b7160e01b600052604160045260246000fd5b6001600160a01b03811681146200222657600080fd5b6001600160e01b0319811681146200222657600080fdfe60806040526040516104ee3803806104ee833981016040819052610022916100f1565b600080546001600160a01b0319166001600160a01b0384161790558051610050906001906020840190610058565b50505061022d565b828054610064906101dc565b90600052602060002090601f01602090048101928261008657600085556100cc565b82601f1061009f57805160ff19168380011785556100cc565b828001600101855582156100cc579182015b828111156100cc5782518255916020019190600101906100b1565b506100d89291506100dc565b5090565b5b808211156100d857600081556001016100dd565b60008060408385031215610103578182fd5b82516001600160a01b0381168114610119578283fd5b602084810151919350906001600160401b0380821115610137578384fd5b818601915086601f83011261014a578384fd5b81518181111561015c5761015c610217565b604051601f8201601f19908116603f0116810190838211818310171561018457610184610217565b81604052828152898684870101111561019b578687fd5b8693505b828410156101bc578484018601518185018701529285019261019f565b828411156101cc57868684830101525b8096505050505050509250929050565b600181811c908216806101f057607f821691505b6020821081141561021157634e487b7160e01b600052602260045260246000fd5b50919050565b634e487b7160e01b600052604160045260246000fd5b6102b28061023c6000396000f3fe608060405234801561001057600080fd5b506004361061004c5760003560e01c806306fdde031461005157806312065fe01461006f5780633ccfd60b1461007d578063f496d88214610087575b600080fd5b6100596100b2565b60405161006691906101ee565b60405180910390f35b604051478152602001610066565b610085610140565b005b60005461009a906001600160a01b031681565b6040516001600160a01b039091168152602001610066565b600180546100bf90610241565b80601f01602080910402602001604051908101604052809291908181526020018280546100eb90610241565b80156101385780601f1061010d57610100808354040283529160200191610138565b820191906000526020600020905b81548152906001019060200180831161011b57829003601f168201915b505050505081565b604051600090339047908381818185875af1925050503d8060008114610182576040519150601f19603f3d011682016040523d82523d6000602084013e610187565b606091505b50509050806101eb5760405162461bcd60e51b815260206004820152602660248201527f4661696c656420746f2073656e64204574686572206261636b20746f207468656044820152651037bbb732b960d11b606482015260840160405180910390fd5b50565b6000602080835283518082850152825b8181101561021a578581018301518582016040015282016101fe565b8181111561022b5783604083870101525b50601f01601f1916929092016040019392505050565b600181811c9082168061025557607f821691505b6020821081141561027657634e487b7160e01b600052602260045260246000fd5b5091905056fea2646970667358221220268c70ac1dcbed0e36dc77a229f71210a643bfa8b6a5c5c9f7bda33e2da41c8e64736f6c63430008040033608060405234801561001057600080fd5b506040516106d93803806106d983398101604081905261002f9161011a565b600080546001600160a01b0319166001600160a01b038316179055815161005d906001906020850190610065565b505050610247565b828054610071906101f6565b90600052602060002090601f01602090048101928261009357600085556100d9565b82601f106100ac57805160ff19168380011785556100d9565b828001600101855582156100d9579182015b828111156100d95782518255916020019190600101906100be565b506100e59291506100e9565b5090565b5b808211156100e557600081556001016100ea565b80516001600160a01b038116811461011557600080fd5b919050565b6000806040838503121561012c578182fd5b82516001600160401b0380821115610142578384fd5b818501915085601f830112610155578384fd5b81518181111561016757610167610231565b604051601f8201601f19908116603f0116810190838211818310171561018f5761018f610231565b816040528281526020935088848487010111156101aa578687fd5b8691505b828210156101cb57848201840151818301850152908301906101ae565b828211156101db57868484830101525b95506101eb9150508582016100fe565b925050509250929050565b600181811c9082168061020a57607f821691505b6020821081141561022b57634e487b7160e01b600052602260045260246000fd5b50919050565b634e487b7160e01b600052604160045260246000fd5b610483806102566000396000f3fe6080604052600436106100565760003560e01c806312065fe01461005f578063598526861461007f5780638da5cb5b14610087578063ad38fba5146100bf578063d4cbd6a7146100ef578063f2fde38b146100f757005b3661005d57005b005b34801561006b57600080fd5b506040514781526020015b60405180910390f35b61005d610117565b34801561009357600080fd5b506000546100a7906001600160a01b031681565b6040516001600160a01b039091168152602001610076565b3480156100cb57600080fd5b506100df6100da3660046103b7565b61014c565b6040519015158152602001610076565b6100df61028d565b34801561010357600080fd5b506100df610112366004610396565b610330565b6000546001600160a01b0316331461014a5760405162461bcd60e51b8152600401610141906103e0565b60405180910390fd5b565b600080546001600160a01b031633146101775760405162461bcd60e51b8152600401610141906103e0565b81478111156101c85760405162461bcd60e51b815260206004820152601860248201527f496e76616c696420616d6f756e7420617661696c61626c6500000000000000006044820152606401610141565b836001600160a01b0381166102115760405162461bcd60e51b815260206004820152600f60248201526e496e76616c6964206164647265737360881b6044820152606401610141565b6000856001600160a01b03168560405160006040518083038185875af1925050503d806000811461025e576040519150601f19603f3d011682016040523d82523d6000602084013e610263565b606091505b50509050806102845760405162461bcd60e51b815260040161014190610407565b95945050505050565b600080546001600160a01b031633146102b85760405162461bcd60e51b8152600401610141906103e0565b600080546040516001600160a01b039091169047908381818185875af1925050503d8060008114610305576040519150601f19603f3d011682016040523d82523d6000602084013e61030a565b606091505b505090508061032b5760405162461bcd60e51b815260040161014190610407565b905090565b600080546001600160a01b0316331461035b5760405162461bcd60e51b8152600401610141906103e0565b50600080546001600160a01b0319166001600160a01b03831617905560015b919050565b80356001600160a01b038116811461037a57600080fd5b6000602082840312156103a7578081fd5b6103b08261037f565b9392505050565b600080604083850312156103c9578081fd5b6103d28361037f565b946020939093013593505050565b6020808252600d908201526c24b73b30b634b21037bbb732b960991b604082015260600190565b60208082526026908201527f4661696c656420746f2073656e64204574686572206261636b20746f207468656040820152651037bbb732b960d11b60608201526080019056fea2646970667358221220b1fc7afb7644e7db6f2c57c56e55c3246991f6abda9d94522200294b4411decc64736f6c63430008040033a264697066735822122014c4e6bcc72d8277365e7688deec505488d309a27feffd4fda4869b95af8321d64736f6c63430008040033",
  "linkReferences": {},
  "deployedLinkReferences": {}
}