{
  "_format": "hh-sol-artifact-1",
  "contractName": "Dns",
  "sourceName": "contracts/Dns.sol",
  "abi": [
    {
      "inputs": [],
      "stateMutability": "nonpayable",
      "type": "constructor"
    },
    {
      "anonymous": false,
      "inputs": [
        {
          "indexed": false,
          "internalType": "string",
          "name": "name",
          "type": "string"
        },
        {
          "indexed": false,
          "internalType": "address",
          "name": "winner",
          "type": "address"
        }
      ],
      "name": "AuctionEnded",
      "type": "event"
    },
    {
      "anonymous": false,
      "inputs": [
        {
          "indexed": false,
          "internalType": "string",
          "name": "name",
          "type": "string"
        }
      ],
      "name": "AuctionStarted",
      "type": "event"
    },
    {
      "anonymous": false,
      "inputs": [
        {
          "indexed": false,
          "internalType": "address",
          "name": "bidder",
          "type": "address"
        },
        {
          "indexed": false,
          "internalType": "string",
          "name": "name",
          "type": "string"
        }
      ],
      "name": "BidMade",
      "type": "event"
    },
    {
      "anonymous": false,
      "inputs": [
        {
          "indexed": false,
          "internalType": "address",
          "name": "bidder",
          "type": "address"
        },
        {
          "indexed": false,
          "internalType": "string",
          "name": "name",
          "type": "string"
        },
        {
          "indexed": false,
          "internalType": "uint256",
          "name": "value",
          "type": "uint256"
        },
        {
          "indexed": false,
          "internalType": "bool",
          "name": "revealed",
          "type": "bool"
        }
      ],
      "name": "BidRevealed",
      "type": "event"
    },
    {
      "anonymous": false,
      "inputs": [
        {
          "indexed": false,
          "internalType": "uint256",
          "name": "id",
          "type": "uint256"
        },
        {
          "indexed": true,
          "internalType": "string",
          "name": "name",
          "type": "string"
        },
        {
          "indexed": true,
          "internalType": "address",
          "name": "owner",
          "type": "address"
        }
      ],
      "name": "DomainRegistered",
      "type": "event"
    },
    {
      "anonymous": false,
      "inputs": [
        {
          "indexed": false,
          "internalType": "address",
          "name": "sender",
          "type": "address"
        },
        {
          "indexed": false,
          "internalType": "string",
          "name": "receiver",
          "type": "string"
        },
        {
          "indexed": false,
          "internalType": "uint256",
          "name": "amount",
          "type": "uint256"
        }
      ],
      "name": "SentToDomain",
      "type": "event"
    },
    {
      "anonymous": false,
      "inputs": [
        {
          "indexed": false,
          "internalType": "address",
          "name": "withdrawer",
          "type": "address"
        },
        {
          "indexed": false,
          "internalType": "string",
          "name": "name",
          "type": "string"
        },
        {
          "indexed": false,
          "internalType": "uint256",
          "name": "amount",
          "type": "uint256"
        }
      ],
      "name": "WithdrawnFromDomain",
      "type": "event"
    },
    {
      "inputs": [
        {
          "internalType": "address",
          "name": "",
          "type": "address"
        },
        {
          "internalType": "uint256",
          "name": "",
          "type": "uint256"
        }
      ],
      "name": "addrToDomainId",
      "outputs": [
        {
          "internalType": "uint256",
          "name": "",
          "type": "uint256"
        }
      ],
      "stateMutability": "view",
      "type": "function"
    },
    {
      "inputs": [
        {
          "internalType": "uint256",
          "name": "",
          "type": "uint256"
        }
      ],
      "name": "auctions",
      "outputs": [
        {
          "internalType": "uint256",
          "name": "biddingEnd",
          "type": "uint256"
        },
        {
          "internalType": "uint256",
          "name": "revealEnd",
          "type": "uint256"
        },
        {
          "internalType": "string",
          "name": "name",
          "type": "string"
        },
        {
          "internalType": "uint256",
          "name": "auctionId",
          "type": "uint256"
        },
        {
          "internalType": "uint256",
          "name": "highestBid",
          "type": "uint256"
        },
        {
          "internalType": "address",
          "name": "highestBidder",
          "type": "address"
        },
        {
          "internalType": "uint256",
          "name": "start",
          "type": "uint256"
        },
        {
          "internalType": "bool",
          "name": "ended",
          "type": "bool"
        }
      ],
      "stateMutability": "view",
      "type": "function"
    },
    {
      "inputs": [
        {
          "internalType": "bytes",
          "name": "bytecode",
          "type": "bytes"
        },
        {
          "internalType": "uint256",
          "name": "_salt",
          "type": "uint256"
        },
        {
          "internalType": "string",
          "name": "_name",
          "type": "string"
        }
      ],
      "name": "bid",
      "outputs": [],
      "stateMutability": "payable",
      "type": "function"
    },
    {
      "inputs": [
        {
          "internalType": "bytes",
          "name": "bytecode",
          "type": "bytes"
        },
        {
          "internalType": "uint256",
          "name": "_salt",
          "type": "uint256"
        },
        {
          "internalType": "string",
          "name": "_name",
          "type": "string"
        }
      ],
      "name": "check",
      "outputs": [],
      "stateMutability": "nonpayable",
      "type": "function"
    },
    {
      "inputs": [],
      "name": "checkAuctionsToEnd",
      "outputs": [],
      "stateMutability": "nonpayable",
      "type": "function"
    },
    {
      "inputs": [
        {
          "internalType": "string",
          "name": "_name",
          "type": "string"
        }
      ],
      "name": "checkIfAuctionExists",
      "outputs": [
        {
          "internalType": "bool",
          "name": "",
          "type": "bool"
        }
      ],
      "stateMutability": "view",
      "type": "function"
    },
    {
      "inputs": [
        {
          "internalType": "uint256",
          "name": "",
          "type": "uint256"
        }
      ],
      "name": "domains",
      "outputs": [
        {
          "internalType": "string",
          "name": "domainName",
          "type": "string"
        },
        {
          "internalType": "address",
          "name": "owner",
          "type": "address"
        },
        {
          "internalType": "uint256",
          "name": "balance",
          "type": "uint256"
        },
        {
          "internalType": "uint256",
          "name": "value",
          "type": "uint256"
        }
      ],
      "stateMutability": "view",
      "type": "function"
    },
    {
      "inputs": [
        {
          "internalType": "string",
          "name": "_name",
          "type": "string"
        }
      ],
      "name": "endAuction",
      "outputs": [],
      "stateMutability": "nonpayable",
      "type": "function"
    },
    {
      "inputs": [
        {
          "internalType": "bytes",
          "name": "bytecode",
          "type": "bytes"
        },
        {
          "internalType": "uint256",
          "name": "_salt",
          "type": "uint256"
        }
      ],
      "name": "getAddress",
      "outputs": [
        {
          "internalType": "address",
          "name": "",
          "type": "address"
        }
      ],
      "stateMutability": "view",
      "type": "function"
    },
    {
      "inputs": [],
      "name": "getAllDomains",
      "outputs": [
        {
          "components": [
            {
              "internalType": "string",
              "name": "domainName",
              "type": "string"
            },
            {
              "internalType": "address",
              "name": "owner",
              "type": "address"
            },
            {
              "internalType": "uint256",
              "name": "balance",
              "type": "uint256"
            },
            {
              "internalType": "uint256",
              "name": "value",
              "type": "uint256"
            }
          ],
          "internalType": "struct IDns.EthDomain[]",
          "name": "",
          "type": "tuple[]"
        }
      ],
      "stateMutability": "view",
      "type": "function"
    },
    {
      "inputs": [],
      "name": "getAuctions",
      "outputs": [
        {
          "components": [
            {
              "internalType": "uint256",
              "name": "biddingEnd",
              "type": "uint256"
            },
            {
              "internalType": "uint256",
              "name": "revealEnd",
              "type": "uint256"
            },
            {
              "internalType": "string",
              "name": "name",
              "type": "string"
            },
            {
              "internalType": "uint256",
              "name": "auctionId",
              "type": "uint256"
            },
            {
              "internalType": "uint256",
              "name": "highestBid",
              "type": "uint256"
            },
            {
              "internalType": "address",
              "name": "highestBidder",
              "type": "address"
            },
            {
              "internalType": "uint256",
              "name": "start",
              "type": "uint256"
            },
            {
              "internalType": "bool",
              "name": "ended",
              "type": "bool"
            }
          ],
          "internalType": "struct IDns.Auction[]",
          "name": "",
          "type": "tuple[]"
        }
      ],
      "stateMutability": "view",
      "type": "function"
    },
    {
      "inputs": [],
      "name": "getBalance",
      "outputs": [
        {
          "internalType": "uint256",
          "name": "",
          "type": "uint256"
        }
      ],
      "stateMutability": "view",
      "type": "function"
    },
    {
      "inputs": [
        {
          "internalType": "address",
          "name": "_user",
          "type": "address"
        }
      ],
      "name": "getBiddings",
      "outputs": [
        {
          "components": [
            {
              "internalType": "string",
              "name": "name",
              "type": "string"
            },
            {
              "internalType": "address",
              "name": "bidder",
              "type": "address"
            },
            {
              "internalType": "bool",
              "name": "revealed",
              "type": "bool"
            },
            {
              "internalType": "uint256",
              "name": "revealedBid",
              "type": "uint256"
            },
            {
              "internalType": "uint256",
              "name": "start",
              "type": "uint256"
            },
            {
              "internalType": "uint256",
              "name": "revealStart",
              "type": "uint256"
            },
            {
              "internalType": "uint256",
              "name": "end",
              "type": "uint256"
            }
          ],
          "internalType": "struct IDns.Bid[]",
          "name": "",
          "type": "tuple[]"
        }
      ],
      "stateMutability": "view",
      "type": "function"
    },
    {
      "inputs": [
        {
          "internalType": "address",
          "name": "_owner",
          "type": "address"
        },
        {
          "internalType": "string",
          "name": "_name",
          "type": "string"
        }
      ],
      "name": "getBytecode",
      "outputs": [
        {
          "internalType": "bytes",
          "name": "",
          "type": "bytes"
        }
      ],
      "stateMutability": "pure",
      "type": "function"
    },
    {
      "inputs": [
        {
          "internalType": "address",
          "name": "_user",
          "type": "address"
        }
      ],
      "name": "getMyDomains",
      "outputs": [
        {
          "components": [
            {
              "internalType": "string",
              "name": "domainName",
              "type": "string"
            },
            {
              "internalType": "address",
              "name": "owner",
              "type": "address"
            },
            {
              "internalType": "uint256",
              "name": "balance",
              "type": "uint256"
            },
            {
              "internalType": "uint256",
              "name": "value",
              "type": "uint256"
            }
          ],
          "internalType": "struct IDns.EthDomain[]",
          "name": "",
          "type": "tuple[]"
        }
      ],
      "stateMutability": "view",
      "type": "function"
    },
    {
      "inputs": [
        {
          "internalType": "string",
          "name": "",
          "type": "string"
        }
      ],
      "name": "nameToDomainId",
      "outputs": [
        {
          "internalType": "uint256",
          "name": "",
          "type": "uint256"
        }
      ],
      "stateMutability": "view",
      "type": "function"
    },
    {
      "inputs": [],
      "name": "owner",
      "outputs": [
        {
          "internalType": "address",
          "name": "",
          "type": "address"
        }
      ],
      "stateMutability": "view",
      "type": "function"
    },
    {
      "inputs": [
        {
          "internalType": "string",
          "name": "_name",
          "type": "string"
        },
        {
          "internalType": "address",
          "name": "_owner",
          "type": "address"
        },
        {
          "internalType": "uint256",
          "name": "_value",
          "type": "uint256"
        }
      ],
      "name": "registerName",
      "outputs": [],
      "stateMutability": "nonpayable",
      "type": "function"
    },
    {
      "inputs": [],
      "name": "registryName",
      "outputs": [
        {
          "internalType": "string",
          "name": "",
          "type": "string"
        }
      ],
      "stateMutability": "view",
      "type": "function"
    },
    {
      "inputs": [
        {
          "internalType": "string",
          "name": "_name",
          "type": "string"
        }
      ],
      "name": "resolveDomainName",
      "outputs": [
        {
          "internalType": "address",
          "name": "",
          "type": "address"
        }
      ],
      "stateMutability": "view",
      "type": "function"
    },
    {
      "inputs": [
        {
          "internalType": "string",
          "name": "_name",
          "type": "string"
        }
      ],
      "name": "sendDomain",
      "outputs": [],
      "stateMutability": "payable",
      "type": "function"
    },
    {
      "inputs": [
        {
          "internalType": "string",
          "name": "_name",
          "type": "string"
        },
        {
          "internalType": "uint256",
          "name": "_bidDuration",
          "type": "uint256"
        },
        {
          "internalType": "uint256",
          "name": "_revealDuration",
          "type": "uint256"
        }
      ],
      "name": "startAuction",
      "outputs": [],
      "stateMutability": "nonpayable",
      "type": "function"
    },
    {
      "inputs": [
        {
          "internalType": "string",
          "name": "_name",
          "type": "string"
        },
        {
          "internalType": "uint256",
          "name": "amount",
          "type": "uint256"
        }
      ],
      "name": "withdrawFrmDomain",
      "outputs": [],
      "stateMutability": "nonpayable",
      "type": "function"
    },
    {
      "stateMutability": "payable",
      "type": "receive"
    }
  ],
  "bytecode": "0x60806040523480156200001157600080fd5b5060016000556040805180820190915260148082527f4e545520646f6d61696e2072656769737472617200000000000000000000000060209092019182526200005d9160029162000132565b50600180546001600160a01b0319163317905560408051808201909152601d81527f4e545520646f6d61696e20726567697374726172206465706c6f796564000000602080830191909152620000bd9190620028aa620000c3821b17901c565b6200026b565b6200010e81604051602401620000da9190620001d8565b60408051601f198184030181529190526020810180516001600160e01b0390811663104c13eb60e21b179091526200011116565b50565b80516a636f6e736f6c652e6c6f67602083016000808483855afa5050505050565b82805462000140906200022e565b90600052602060002090601f016020900481019282620001645760008555620001af565b82601f106200017f57805160ff1916838001178555620001af565b82800160010185558215620001af579182015b82811115620001af57825182559160200191906001019062000192565b50620001bd929150620001c1565b5090565b5b80821115620001bd5760008155600101620001c2565b6000602080835283518082850152825b818110156200020657858101830151858201604001528201620001e8565b81811115620002185783604083870101525b50601f01601f1916929092016040019392505050565b600181811c908216806200024357607f821691505b602082108114156200026557634e487b7160e01b600052602260045260246000fd5b50919050565b613d2e806200027b6000396000f3fe6080604052600436106200015f5760003560e01c80635a98374511620000c557806394ca2cb5116200007857806394ca2cb5146200044457806399726b1014620004695780639bc83cfa146200048e578063c90d9b2a14620004b3578063ce2ba9bf14620004ca578063d7c0691914620004ef57600080fd5b80635a983745146200033157806366cf8fab146200036557806374b3553f146200039c5780637cee8c6714620003c1578063849582a414620003fd5780638da5cb5b146200042257600080fd5b80632ac63f99116200011e5780632ac63f991462000237578063340a2df8146200025c57806335ff502e14620002745780634f15aeb814620002aa578063571a26a014620002cf5780635a018e6a146200030a57600080fd5b80630369567f146200016c578063106aa90c146200018557806312065fe014620001bd5780631654d16914620001d25780632a7f0f3114620001f957600080fd5b366200016757005b600080fd5b620001836200017d36600462002e79565b62000516565b005b3480156200019257600080fd5b50620001aa620001a436600462002e05565b62000797565b6040519081526020015b60405180910390f35b348015620001ca57600080fd5b5047620001aa565b348015620001df57600080fd5b50620001ea620007c9565b604051620001b491906200346f565b3480156200020657600080fd5b506200021e6200021836600462002f67565b6200085f565b6040516001600160a01b039091168152602001620001b4565b3480156200024457600080fd5b50620001836200025636600462002ee9565b620008a9565b3480156200026957600080fd5b506200018362000b82565b3480156200028157600080fd5b50620002996200029336600462002f67565b62000e1d565b6040519015158152602001620001b4565b348015620002b757600080fd5b50620001ea620002c936600462002db2565b62000eba565b348015620002dc57600080fd5b50620002f4620002ee3660046200307d565b62000f34565b604051620001b498979695949392919062003566565b3480156200031757600080fd5b506200032262001012565b604051620001b49190620033e6565b3480156200033e57600080fd5b50620003566200035036600462002d74565b620011f6565b604051620001b491906200333d565b3480156200037257600080fd5b506200038a620003843660046200307d565b62001491565b604051620001b49493929190620034df565b348015620003a957600080fd5b5062000322620003bb36600462002d74565b62001555565b348015620003ce57600080fd5b50620001aa620003e036600462002f67565b805160208183018101805160058252928201919093012091525481565b3480156200040a57600080fd5b50620001836200041c36600462002e33565b620017ab565b3480156200042f57600080fd5b506001546200021e906001600160a01b031681565b3480156200045157600080fd5b506200021e6200046336600462002e33565b62001a0e565b3480156200047657600080fd5b50620001836200048836600462002e79565b62001a6a565b3480156200049b57600080fd5b5062000183620004ad36600462003020565b62001fb2565b62000183620004c436600462002f67565b62002189565b348015620004d757600080fd5b5062000183620004e936600462002f67565b620022df565b348015620004fc57600080fd5b50620005076200267d565b604051620001b491906200327b565b8060098160405162000529919062003120565b90815260200160405180910390205460001415620005875760405162461bcd60e51b8152602060048201526016602482015275185d58dd1a5bdb88191bd95cc81b9bdd08195e1a5cdd60521b60448201526064015b60405180910390fd5b813360005b6001600160a01b0382166000908152600c6020526040902054811015620006bd5782604051602001620005c0919062003120565b60405160208183030381529060405280519060200120600d6000600c6000866001600160a01b03166001600160a01b0316815260200190815260200160002084815481106200061f57634e487b7160e01b600052603260045260246000fd5b906000526020600020015481526020019081526020016000206000016040516020016200064d91906200313e565b604051602081830303815290604052805190602001201415620006a85760405162461bcd60e51b815260206004820152601260248201527142696420616c72656164792065786973747360701b60448201526064016200057e565b80620006b481620036c1565b9150506200058c565b5083600a6000600983604051620006d5919062003120565b90815260200160405180910390205481526020019081526020016000206000015442106200070257600080fd5b6200072d6040518060400160405280600781526020016603430b9b432b2160cd1b81525087620028f1565b600086885160208a0134f59050803b6200074657600080fd5b6200075233876200293e565b7f92eb767245ca8829c6919f3fab91e97b9e2cc7f3e2f71ed25b74e5e23bffc6fe338760405162000785929190620031e1565b60405180910390a15050505050505050565b60046020528160005260406000208181548110620007b457600080fd5b90600052602060002001600091509150505481565b60028054620007d89062003684565b80601f0160208091040260200160405190810160405280929190818152602001828054620008069062003684565b8015620008575780601f106200082b5761010080835404028352916020019162000857565b820191906000526020600020905b8154815290600101906020018083116200083957829003601f168201915b505050505081565b60006006600060058460405162000877919062003120565b90815260408051602092819003830190205483529082019290925201600020600101546001600160a01b031692915050565b60098484604051620008bd92919062003110565b9081526020016040518091039020546000146200091d5760405162461bcd60e51b815260206004820152601f60248201527f41756374696f6e20666f72207468697320616c7265616479206578697374730060448201526064016200057e565b600584846040516200093192919062003110565b9081526020016040518091039020546000146200099b5760405162461bcd60e51b815260206004820152602160248201527f5468697320646f6d61696e206e616d6520697320616c7265616479206f776e656044820152601960fa1b60648201526084016200057e565b620009aa600880546001019055565b60006040518061010001604052808442620009c691906200361c565b815260200183620009d886426200361c565b620009e491906200361c565b815260200186868080601f01602080910402602001604051908101604052809392919081815260200183838082843760009201919091525050509082525060200162000a2f60085490565b815260006020820181905260408201819052426060830152608090910152905062000a5960085490565b6009868660405162000a6d92919062003110565b9081526040519081900360200190205562000a9162000a8b60085490565b62002b3a565b80600a600062000aa060085490565b81526020019081526020016000206000820151816000015560208201518160010155604082015181600201908051906020019062000ae092919062002c69565b50606082015160038201556080820151600482015560a08201516005820180546001600160a01b0319166001600160a01b0390921691909117905560c0820151600682015560e0909101516007909101805460ff19169115159190911790556040517f50aa32fed87143a12f31f64ad9199a4cdc7b35635008b92f753d4c66dafdb4239062000b73908790879062003484565b60405180910390a15050505050565b60085462000bc95760405162461bcd60e51b8152602060048201526013602482015272139bc8185d58dd1a5bdb9cc818dc99585d1959606a1b60448201526064016200057e565b62000bd762000a8b60085490565b60015b600854811162000e1a576000818152600a602052604090206001015442108062000c1557506000818152600a602052604090206007015460ff165b1562000d085762000d026040518060400160405280601d81526020017f636f6e74696e75696e6720666f7220746869732061756374696f6e3a20000000815250600a6000848152602001908152602001600020600201805462000c789062003684565b80601f016020809104026020016040519081016040528092919081815260200182805462000ca69062003684565b801562000cf75780601f1062000ccb5761010080835404028352916020019162000cf7565b820191906000526020600020905b81548152906001019060200180831162000cd957829003601f168201915b505050505062002b82565b62000e05565b62000d576040518060400160405280600f81526020016e032b73234b7339030bab1ba34b7b71608d1b815250600a6000848152602001908152602001600020600201805462000c789062003684565b6000818152600a60205260409020600201805462000e05919062000d7b9062003684565b80601f016020809104026020016040519081016040528092919081815260200182805462000da99062003684565b801562000dfa5780601f1062000dce5761010080835404028352916020019162000dfa565b820191906000526020600020905b81548152906001019060200180831162000ddc57829003601f168201915b5050505050620022df565b8062000e1181620036c1565b91505062000bda565b50565b600060015b600854811162000eb1578260405160200162000e3f919062003120565b60408051601f1981840301815282825280516020918201206000858152600a835292909220919262000e769260020191016200313e565b60405160208183030381529060405280519060200120141562000e9c5750600192915050565b8062000ea881620036c1565b91505062000e22565b50600092915050565b606060006040518060200162000ed09062002cf8565b6020820181038252601f19601f82011660405250905080848460405160200162000efc929190620031e1565b60408051601f198184030181529082905262000f1c9291602001620030dd565b60405160208183030381529060405291505092915050565b600a602052600090815260409020805460018201546002830180549293919262000f5e9062003684565b80601f016020809104026020016040519081016040528092919081815260200182805462000f8c9062003684565b801562000fdd5780601f1062000fb15761010080835404028352916020019162000fdd565b820191906000526020600020905b81548152906001019060200180831162000fbf57829003601f168201915b5050506003840154600485015460058601546006870154600790970154959692959194506001600160a01b0316925060ff1688565b606060006200102060035490565b6001600160401b038111156200104657634e487b7160e01b600052604160045260246000fd5b604051908082528060200260200182016040528015620010ae57816020015b6200109a60405180608001604052806060815260200160006001600160a01b0316815260200160008152602001600081525090565b815260200190600190039081620010655790505b509050600060015b6003548111620011ee5760008181526006602052604090819020815160808101909252805482908290620010ea9062003684565b80601f0160208091040260200160405190810160405280929190818152602001828054620011189062003684565b8015620011695780601f106200113d5761010080835404028352916020019162001169565b820191906000526020600020905b8154815290600101906020018083116200114b57829003601f168201915b505050918352505060018201546001600160a01b03166020820152600282015460408201526003909101546060909101528351849084908110620011bd57634e487b7160e01b600052603260045260246000fd5b60200260200101819052508180620011d590620036c1565b9250508080620011e590620036c1565b915050620010b6565b509092915050565b6001600160a01b0381166000908152600c602090815260408083208054825181850281018501909352808352606094938301828280156200125757602002820191906000526020600020905b81548152602001906001019080831162001242575b50505050509050600081516001600160401b038111156200128857634e487b7160e01b600052604160045260246000fd5b6040519080825280602002602001820160405280156200130757816020015b620012f36040518060e001604052806060815260200160006001600160a01b03168152602001600015158152602001600081526020016000815260200160008152602001600081525090565b815260200190600190039081620012a75790505b50905060005b82518110156200148957600d60008483815181106200133c57634e487b7160e01b600052603260045260246000fd5b602002602001015181526020019081526020016000206040518060e00160405290816000820180546200136f9062003684565b80601f01602080910402602001604051908101604052809291908181526020018280546200139d9062003684565b8015620013ee5780601f10620013c257610100808354040283529160200191620013ee565b820191906000526020600020905b815481529060010190602001808311620013d057829003601f168201915b505050918352505060018201546001600160a01b0381166020830152600160a01b900460ff16151560408201526002820154606082015260038201546080820152600482015460a082015260059091015460c09091015282518390839081106200146857634e487b7160e01b600052603260045260246000fd5b602002602001018190525080806200148090620036c1565b9150506200130d565b509392505050565b600660205260009081526040902080548190620014ae9062003684565b80601f0160208091040260200160405190810160405280929190818152602001828054620014dc9062003684565b80156200152d5780601f1062001501576101008083540402835291602001916200152d565b820191906000526020600020905b8154815290600101906020018083116200150f57829003601f168201915b505050506001830154600284015460039094015492936001600160a01b039091169290915084565b6001600160a01b0381166000908152600460209081526040808320805482518185028101850190935280835260609493830182828015620015b657602002820191906000526020600020905b815481526020019060010190808311620015a1575b50505050509050600081516001600160401b03811115620015e757634e487b7160e01b600052604160045260246000fd5b6040519080825280602002602001820160405280156200164f57816020015b6200163b60405180608001604052806060815260200160006001600160a01b0316815260200160008152602001600081525090565b815260200190600190039081620016065790505b50905060005b82518110156200148957600660008483815181106200168457634e487b7160e01b600052603260045260246000fd5b60200260200101518152602001908152602001600020604051806080016040529081600082018054620016b79062003684565b80601f0160208091040260200160405190810160405280929190818152602001828054620016e59062003684565b8015620017365780601f106200170a5761010080835404028352916020019162001736565b820191906000526020600020905b8154815290600101906020018083116200171857829003601f168201915b505050918352505060018201546001600160a01b031660208201526002820154604082015260039091015460609091015282518390839081106200178a57634e487b7160e01b600052603260045260246000fd5b60200260200101819052508080620017a290620036c1565b91505062001655565b60026000541415620018005760405162461bcd60e51b815260206004820152601f60248201527f5265656e7472616e637947756172643a207265656e7472616e742063616c6c0060448201526064016200057e565b60026000556040516005906200181890849062003120565b90815260200160405180910390205460001415620018795760405162461bcd60e51b815260206004820152601a60248201527f446f6d61696e206e616d6520646f6573206e6f7420657869737400000000000060448201526064016200057e565b60006006600060058560405162001891919062003120565b9081526040805160209281900383019020548352908201929092520160002060018101549091506001600160a01b03163314620019115760405162461bcd60e51b815260206004820152601a60248201527f596f7520646f206e6f74206f776e2074686573652066756e647300000000000060448201526064016200057e565b80600201548211156200195c5760405162461bcd60e51b8152602060048201526012602482015271496e73756666696369656e742066756e647360701b60448201526064016200057e565b60008160020154116200196e57600080fd5b8181600201600082825462001984919062003637565b909155505060018101546040516001600160a01b039091169083156108fc029084906000818181858888f19350505050158015620019c6573d6000803e3d6000fd5b507f8b3d8607c1533d2542b181683b1c34dcfa150181c12dc81c1d3e801d5d06813e338484604051620019fc9392919062003207565b60405180910390a15050600160005550565b8151602092830120604080516001600160f81b0319818601523060601b6bffffffffffffffffffffffff191660218201526035810193909352605580840192909252805180840390920182526075909201909152805191012090565b80600a600060098360405162001a81919062003120565b90815260200160405180910390205481526020019081526020016000206000015442101562001aaf57600080fd5b81600a600060098360405162001ac6919062003120565b908152602001604051809103902054815260200190815260200160002060010154421062001af357600080fd5b600062001b206040518060400160405280600781526020016603430b9b432b2160cd1b81525086620028f1565b6000600b8560405162001b34919062003120565b908152604080519182900360209081018320805480830285018301909352828452919083018282801562001b8857602002820191906000526020600020905b81548152602001906001019080831162001b73575b50505050509050600062001b9d888862001a0e565b905060008190506000816001600160a01b031663f496d8826040518163ffffffff1660e01b815260040160206040518083038186803b15801562001be057600080fd5b505afa15801562001bf5573d6000803e3d6000fd5b505050506040513d601f19601f8201168201806040525081019062001c1b919062002d93565b90506000826001600160a01b03166306fdde036040518163ffffffff1660e01b815260040160006040518083038186803b15801562001c5957600080fd5b505afa15801562001c6e573d6000803e3d6000fd5b505050506040513d6000823e601f3d908101601f1916820160405262001c98919081019062002fa5565b90506000836001600160a01b03166312065fe06040518163ffffffff1660e01b815260040160206040518083038186803b15801562001cd657600080fd5b505afa15801562001ceb573d6000803e3d6000fd5b505050506040513d601f19601f8201168201806040525081019062001d11919062003096565b90506001600160a01b038316331462001d675760405162461bcd60e51b815260206004820152601760248201527611985a5b1959081d1bc81d995c9a599e4818dbdb5b5a5d604a1b60448201526064016200057e565b8960405160200162001d7a919062003120565b604051602081830303815290604052805190602001208260405160200162001da3919062003120565b604051602081830303815290604052805190602001201462001e025760405162461bcd60e51b815260206004820152601760248201527611985a5b1959081d1bc81d995c9a599e4818dbdb5b5a5d604a1b60448201526064016200057e565b60005b865181101562001fa357336001600160a01b0316600d600089848151811062001e3e57634e487b7160e01b600052603260045260246000fd5b6020908102919091018101518252810191909152604001600020600101546001600160a01b0316141562001f8e57600d600088838151811062001e9157634e487b7160e01b600052603260045260246000fd5b60200260200101518152602001908152602001600020975060018860010160146101000a81548160ff021916908315150217905550818860020181905550846001600160a01b0316633ccfd60b6040518163ffffffff1660e01b8152600401600060405180830381600087803b15801562001f0b57600080fd5b505af115801562001f20573d6000803e3d6000fd5b5050505062001f358b338a6002015462002bcb565b50600288015460018901546040517fe7b9400614ae8d3fb96a8ed036e790d12c0466fe2df292c92a44c602bb1c20d59262001f80928892889291600160a01b900460ff16906200323d565b60405180910390a162001fa3565b8062001f9a81620036c1565b91505062001e05565b50505050505050505050505050565b8260058160405162001fc5919062003120565b908152602001604051809103902054600014620020255760405162461bcd60e51b815260206004820152601a60248201527f646f6d61696e206e616d6520616c72656164792065786973747300000000000060448201526064016200057e565b6200203084620028aa565b6200203f600380546001019055565b604080516080810182528581526001600160a01b0385166020808301829052600083850181905260608401879052918252600490529190912060035481546001810183556000928352602090922090910155600354600586604051620020a6919062003120565b908152604051908190036020019020558060066000620020c560035490565b8152602080820192909252604001600020825180519192620020ed9284929091019062002c69565b5060208201516001820180546001600160a01b0319166001600160a01b0392831617905560408084015160028401556060909301516003909201919091559051908516906200213e90879062003120565b60405180910390207fc78b0baeb481012ee495f6c7c720a835617068842b0e0131f4e4bb4a8f7e9cdd6200217160035490565b60405190815260200160405180910390a35050505050565b33620021d85760405162461bcd60e51b815260206004820152601e60248201527f5472616e736665722066726f6d20746865207a65726f2061646472657373000060448201526064016200057e565b600581604051620021ea919062003120565b908152602001604051809103902054600014156200224b5760405162461bcd60e51b815260206004820152601a60248201527f446f6d61696e206e616d6520646f6573206e6f7420657869737400000000000060448201526064016200057e565b60006006600060058460405162002263919062003120565b90815260200160405180910390205481526020019081526020016000209050348160020160008282546200229891906200361c565b90915550506040517f4d8625a4c0218499d61251f3c70b223f1810c4c5d8eb24f4c5a6a39f4d045eea90620022d39033908590349062003207565b60405180910390a15050565b6000600a6000600984604051620022f7919062003120565b908152602001604051809103902054815260200190815260200160002090506000600b836040516200232a919062003120565b90815260408051918290036020908101832080548083028501830190935282845291908301828280156200237e57602002820191906000526020600020905b81548152602001906001019080831162002369575b5050505050905060005b81518110156200266a57600d6000838381518110620023b757634e487b7160e01b600052603260045260246000fd5b602090810291909101810151825281019190915260400160002060010154600160a01b900460ff16620023ea5762002655565b600583015482516001600160a01b0390911690600d906000908590859081106200242457634e487b7160e01b600052603260045260246000fd5b6020908102919091018101518252810191909152604001600020600101546001600160a01b0316146200252157600d60008383815181106200247657634e487b7160e01b600052603260045260246000fd5b6020026020010151815260200190815260200160002060010160009054906101000a90046001600160a01b03166001600160a01b03166108fc600d6000858581518110620024d457634e487b7160e01b600052603260045260246000fd5b60200260200101518152602001908152602001600020600201549081150290604051600060405180830381858888f193505050501580156200251a573d6000803e3d6000fd5b5062002655565b6200252c84620028aa565b620025c884600d60008585815181106200255657634e487b7160e01b600052603260045260246000fd5b6020026020010151815260200190815260200160002060010160009054906101000a90046001600160a01b0316600d6000868681518110620025a857634e487b7160e01b600052603260045260246000fd5b602002602001015181526020019081526020016000206002015462001fb2565b7fde7e436f28139dd5690061445b009a314e2687b635f90fdf47ae2bf8d4e6c21584600d60008585815181106200260f57634e487b7160e01b600052603260045260246000fd5b6020026020010151815260200190815260200160002060010160009054906101000a90046001600160a01b03166040516200264c929190620034b3565b60405180910390a15b806200266181620036c1565b91505062002388565b5050600701805460ff1916600117905550565b606060006200268b60085490565b6001600160401b03811115620026b157634e487b7160e01b600052604160045260246000fd5b6040519080825280602002602001820160405280156200273857816020015b62002724604051806101000160405280600081526020016000815260200160608152602001600081526020016000815260200160006001600160a01b03168152602001600081526020016000151581525090565b815260200190600190039081620026d05790505b509050600060015b6008548111620011ee57600a60008281526020019081526020016000206040518061010001604052908160008201548152602001600182015481526020016002820180546200278f9062003684565b80601f0160208091040260200160405190810160405280929190818152602001828054620027bd9062003684565b80156200280e5780601f10620027e2576101008083540402835291602001916200280e565b820191906000526020600020905b815481529060010190602001808311620027f057829003601f168201915b5050509183525050600382015460208201526004820154604082015260058201546001600160a01b031660608201526006820154608082015260079091015460ff16151560a09091015283518490849081106200287b57634e487b7160e01b600052603260045260246000fd5b6020908102919091010152620028936001836200361c565b915080620028a181620036c1565b91505062002740565b62000e1a81604051602401620028c191906200346f565b60408051601f198184030181529190526020810180516001600160e01b031663104c13eb60e21b17905262002c48565b6200293a82826040516024016200290a92919062003542565b60408051601f198184030181529190526020810180516001600160e01b0316632d839cb360e21b17905262002c48565b5050565b6200294d600780546001019055565b6040518060e00160405280828152602001836001600160a01b0316815260200160001515815260200160008152602001600a600060098560405162002993919062003120565b9081526020016040518091039020548152602001908152602001600020600601548152602001600a6000600985604051620029cf919062003120565b9081526020016040518091039020548152602001908152602001600020600001548152602001600a600060098560405162002a0b919062003120565b908152602001604051809103902054815260200190815260200160002060010154815250600d600062002a3d60075490565b815260208082019290925260400160002082518051919262002a659284929091019062002c69565b5060208201516001820180546040808601511515600160a01b026001600160a81b03199092166001600160a01b0390941693909317179055606083015160028301556080830151600383015560a0830151600483015560c09092015160059091015551600b9062002ad890839062003120565b908152602001604051809103902062002af060075490565b815460018101835560009283526020808420909101919091556001600160a01b0384168252600c905260409020600754815460018101835560009283526020909220909101555050565b62000e1a8160405160240162002b5291815260200190565b60408051601f198184030181529190526020810180516001600160e01b031663f82c50f160e01b17905262002c48565b6200293a828260405160240162002b9b92919062003519565b60408051601f198184030181529190526020810180516001600160e01b0316634b5c427760e01b17905262002c48565b600080600a600060098760405162002be4919062003120565b908152602001604051809103902054815260200190815260200160002090508060040154831162002c1a57600091505062002c41565b6004810183905560050180546001600160a01b0319166001600160a01b0385161790555060015b9392505050565b80516a636f6e736f6c652e6c6f67602083016000808483855afa5050505050565b82805462002c779062003684565b90600052602060002090601f01602090048101928262002c9b576000855562002ce6565b82601f1062002cb657805160ff191683800117855562002ce6565b8280016001018555821562002ce6579182015b8281111562002ce657825182559160200191906001019062002cc9565b5062002cf492915062002d06565b5090565b6105d7806200372283390190565b5b8082111562002cf4576000815560010162002d07565b600082601f83011262002d2e578081fd5b813562002d4562002d3f82620035f2565b620035bf565b81815284602083860101111562002d5a578283fd5b816020850160208301379081016020019190915292915050565b60006020828403121562002d86578081fd5b813562002c41816200370b565b60006020828403121562002da5578081fd5b815162002c41816200370b565b6000806040838503121562002dc5578081fd5b823562002dd2816200370b565b915060208301356001600160401b0381111562002ded578182fd5b62002dfb8582860162002d1d565b9150509250929050565b6000806040838503121562002e18578182fd5b823562002e25816200370b565b946020939093013593505050565b6000806040838503121562002e46578182fd5b82356001600160401b0381111562002e5c578283fd5b62002e6a8582860162002d1d565b95602094909401359450505050565b60008060006060848603121562002e8e578081fd5b83356001600160401b038082111562002ea5578283fd5b62002eb38783880162002d1d565b945060208601359350604086013591508082111562002ed0578283fd5b5062002edf8682870162002d1d565b9150509250925092565b6000806000806060858703121562002eff578081fd5b84356001600160401b038082111562002f16578283fd5b818701915087601f83011262002f2a578283fd5b81358181111562002f39578384fd5b88602082850101111562002f4b578384fd5b6020928301999098509187013596604001359550909350505050565b60006020828403121562002f79578081fd5b81356001600160401b0381111562002f8f578182fd5b62002f9d8482850162002d1d565b949350505050565b60006020828403121562002fb7578081fd5b81516001600160401b0381111562002fcd578182fd5b8201601f8101841362002fde578182fd5b805162002fef62002d3f82620035f2565b81815285602083850101111562003004578384fd5b6200301782602083016020860162003651565b95945050505050565b60008060006060848603121562003035578283fd5b83356001600160401b038111156200304b578384fd5b620030598682870162002d1d565b93505060208401356200306c816200370b565b929592945050506040919091013590565b6000602082840312156200308f578081fd5b5035919050565b600060208284031215620030a8578081fd5b5051919050565b60008151808452620030c981602086016020860162003651565b601f01601f19169290920160200192915050565b60008351620030f181846020880162003651565b8351908301906200310781836020880162003651565b01949350505050565b8183823760009101908152919050565b600082516200313481846020870162003651565b9190910192915050565b600080835482600182811c9150808316806200315b57607f831692505b60208084108214156200317c57634e487b7160e01b87526022600452602487fd5b818015620031935760018114620031a557620031d3565b60ff19861689528489019650620031d3565b60008a815260209020885b86811015620031cb5781548b820152908501908301620031b0565b505084890196505b509498975050505050505050565b6001600160a01b038316815260406020820181905260009062002f9d90830184620030af565b6001600160a01b03841681526060602082018190526000906200322d90830185620030af565b9050826040830152949350505050565b6001600160a01b03851681526080602082018190526000906200326390830186620030af565b60408301949094525090151560609091015292915050565b60006020808301818452808551808352604092508286019150828160051b870101848801865b838110156200332f57603f198984030185528151610100815185528882015189860152878201518189870152620032db82870182620030af565b606084810151908801526080808501519088015260a0808501516001600160a01b03169088015260c0808501519088015260e0938401511515939096019290925250509386019390860190600101620032a1565b509098975050505050505050565b60006020808301818452808551808352604092508286019150828160051b870101848801865b838110156200332f57603f19898403018552815160e081518186526200338c82870182620030af565b838b01516001600160a01b0316878c01528984015115158a880152606080850151908801526080808501519088015260a0848101519088015260c09384015193909601929092525050938601939086019060010162003363565b60006020808301818452808551808352604092508286019150828160051b870101848801865b838110156200332f57603f198984030185528151608081518186526200343582870182620030af565b838b01516001600160a01b0316878c0152898401518a8801526060938401519390960192909252505093860193908601906001016200340c565b60208152600062002c416020830184620030af565b60208152816020820152818360408301376000818301604090810191909152601f909201601f19160101919050565b604081526000620034c86040830185620030af565b905060018060a01b03831660208301529392505050565b608081526000620034f46080830187620030af565b6001600160a01b03959095166020830152506040810192909252606090910152919050565b6040815260006200352e6040830185620030af565b8281036020840152620030178185620030af565b604081526000620035576040830185620030af565b90508260208301529392505050565b60006101008a8352896020840152806040840152620035888184018a620030af565b6060840198909852505060808101949094526001600160a01b039290921660a084015260c0830152151560e0909101529392505050565b604051601f8201601f191681016001600160401b0381118282101715620035ea57620035ea620036f5565b604052919050565b60006001600160401b038211156200360e576200360e620036f5565b50601f01601f191660200190565b60008219821115620036325762003632620036df565b500190565b6000828210156200364c576200364c620036df565b500390565b60005b838110156200366e57818101518382015260200162003654565b838111156200367e576000848401525b50505050565b600181811c908216806200369957607f821691505b60208210811415620036bb57634e487b7160e01b600052602260045260246000fd5b50919050565b6000600019821415620036d857620036d8620036df565b5060010190565b634e487b7160e01b600052601160045260246000fd5b634e487b7160e01b600052604160045260246000fd5b6001600160a01b038116811462000e1a57600080fdfe60806040526040516105d73803806105d783398101604081905261002291610108565b6001600081905580546001600160a01b0319166001600160a01b038416179055805161005590600290602084019061006f565b5050600380546001600160a01b0319163317905550610244565b82805461007b906101f3565b90600052602060002090601f01602090048101928261009d57600085556100e3565b82601f106100b657805160ff19168380011785556100e3565b828001600101855582156100e3579182015b828111156100e35782518255916020019190600101906100c8565b506100ef9291506100f3565b5090565b5b808211156100ef57600081556001016100f4565b6000806040838503121561011a578182fd5b82516001600160a01b0381168114610130578283fd5b602084810151919350906001600160401b038082111561014e578384fd5b818601915086601f830112610161578384fd5b8151818111156101735761017361022e565b604051601f8201601f19908116603f0116810190838211818310171561019b5761019b61022e565b8160405282815289868487010111156101b2578687fd5b8693505b828410156101d357848401860151818501870152928501926101b6565b828411156101e357868684830101525b8096505050505050509250929050565b600181811c9082168061020757607f821691505b6020821081141561022857634e487b7160e01b600052602260045260246000fd5b50919050565b634e487b7160e01b600052604160045260246000fd5b610384806102536000396000f3fe608060405234801561001057600080fd5b506004361061004c5760003560e01c806306fdde031461005157806312065fe01461006f5780633ccfd60b1461007d578063f496d88214610087575b600080fd5b6100596100b2565b60405161006691906102c0565b60405180910390f35b604051478152602001610066565b610085610140565b005b60015461009a906001600160a01b031681565b6040516001600160a01b039091168152602001610066565b600280546100bf90610313565b80601f01602080910402602001604051908101604052809291908181526020018280546100eb90610313565b80156101385780601f1061010d57610100808354040283529160200191610138565b820191906000526020600020905b81548152906001019060200180831161011b57829003601f168201915b505050505081565b600260005414156101985760405162461bcd60e51b815260206004820152601f60248201527f5265656e7472616e637947756172643a207265656e7472616e742063616c6c0060448201526064015b60405180910390fd5b60026000556003546001600160a01b031633146102065760405162461bcd60e51b815260206004820152602660248201527f596f752063616e6e6f742077697468647261772066726f6d207468697320636f6044820152651b9d1c9858dd60d21b606482015260840161018f565b6003546040516000916001600160a01b03169047908381818185875af1925050503d8060008114610253576040519150601f19603f3d011682016040523d82523d6000602084013e610258565b606091505b50509050806102b85760405162461bcd60e51b815260206004820152602660248201527f4661696c656420746f2073656e64204574686572206261636b20746f207468656044820152651037bbb732b960d11b606482015260840161018f565b506001600055565b6000602080835283518082850152825b818110156102ec578581018301518582016040015282016102d0565b818111156102fd5783604083870101525b50601f01601f1916929092016040019392505050565b600181811c9082168061032757607f821691505b6020821081141561034857634e487b7160e01b600052602260045260246000fd5b5091905056fea264697066735822122068009251d04c82f39e57971ca10fee27fefdbfbfa250539cf047c57f6f50715e64736f6c63430008040033a2646970667358221220deadb15c47862a8f1f2362a799e3c1f180bac26e617557772189f274269a71fe64736f6c63430008040033",
  "linkReferences": {},
  "deployedLinkReferences": {}
}