{
  "_format": "hh-sol-artifact-1",
  "contractName": "Dns",
  "sourceName": "contracts/Dns.sol",
  "abi": [
    {
      "inputs": [],
      "stateMutability": "nonpayable",
      "type": "constructor"
    },
    {
      "anonymous": false,
      "inputs": [
        {
          "indexed": false,
          "internalType": "string",
          "name": "name",
          "type": "string"
        },
        {
          "indexed": false,
          "internalType": "address",
          "name": "winner",
          "type": "address"
        }
      ],
      "name": "AuctionEnded",
      "type": "event"
    },
    {
      "anonymous": false,
      "inputs": [
        {
          "indexed": false,
          "internalType": "string",
          "name": "name",
          "type": "string"
        }
      ],
      "name": "AuctionStarted",
      "type": "event"
    },
    {
      "anonymous": false,
      "inputs": [
        {
          "indexed": false,
          "internalType": "address",
          "name": "bidder",
          "type": "address"
        },
        {
          "indexed": false,
          "internalType": "string",
          "name": "name",
          "type": "string"
        }
      ],
      "name": "BidMade",
      "type": "event"
    },
    {
      "anonymous": false,
      "inputs": [
        {
          "indexed": false,
          "internalType": "address",
          "name": "bidder",
          "type": "address"
        },
        {
          "indexed": false,
          "internalType": "string",
          "name": "name",
          "type": "string"
        },
        {
          "indexed": false,
          "internalType": "uint256",
          "name": "value",
          "type": "uint256"
        },
        {
          "indexed": false,
          "internalType": "bool",
          "name": "revealed",
          "type": "bool"
        }
      ],
      "name": "BidRevealed",
      "type": "event"
    },
    {
      "anonymous": false,
      "inputs": [
        {
          "indexed": false,
          "internalType": "uint256",
          "name": "id",
          "type": "uint256"
        },
        {
          "indexed": true,
          "internalType": "string",
          "name": "name",
          "type": "string"
        },
        {
          "indexed": true,
          "internalType": "address",
          "name": "owner",
          "type": "address"
        }
      ],
      "name": "DomainRegistered",
      "type": "event"
    },
    {
      "anonymous": false,
      "inputs": [
        {
          "indexed": false,
          "internalType": "address",
          "name": "sender",
          "type": "address"
        },
        {
          "indexed": false,
          "internalType": "string",
          "name": "receiver",
          "type": "string"
        },
        {
          "indexed": false,
          "internalType": "uint256",
          "name": "amount",
          "type": "uint256"
        }
      ],
      "name": "SentToDomain",
      "type": "event"
    },
    {
      "anonymous": false,
      "inputs": [
        {
          "indexed": false,
          "internalType": "address",
          "name": "withdrawer",
          "type": "address"
        },
        {
          "indexed": false,
          "internalType": "string",
          "name": "name",
          "type": "string"
        },
        {
          "indexed": false,
          "internalType": "uint256",
          "name": "amount",
          "type": "uint256"
        }
      ],
      "name": "WithdrawnFromDomain",
      "type": "event"
    },
    {
      "inputs": [
        {
          "internalType": "address",
          "name": "",
          "type": "address"
        },
        {
          "internalType": "uint256",
          "name": "",
          "type": "uint256"
        }
      ],
      "name": "addrToDomainId",
      "outputs": [
        {
          "internalType": "uint256",
          "name": "",
          "type": "uint256"
        }
      ],
      "stateMutability": "view",
      "type": "function"
    },
    {
      "inputs": [
        {
          "internalType": "uint256",
          "name": "",
          "type": "uint256"
        }
      ],
      "name": "auctions",
      "outputs": [
        {
          "internalType": "uint256",
          "name": "biddingEnd",
          "type": "uint256"
        },
        {
          "internalType": "uint256",
          "name": "revealEnd",
          "type": "uint256"
        },
        {
          "internalType": "string",
          "name": "name",
          "type": "string"
        },
        {
          "internalType": "uint256",
          "name": "auctionId",
          "type": "uint256"
        },
        {
          "internalType": "uint256",
          "name": "highestBid",
          "type": "uint256"
        },
        {
          "internalType": "address",
          "name": "highestBidder",
          "type": "address"
        },
        {
          "internalType": "uint256",
          "name": "start",
          "type": "uint256"
        },
        {
          "internalType": "bool",
          "name": "ended",
          "type": "bool"
        }
      ],
      "stateMutability": "view",
      "type": "function"
    },
    {
      "inputs": [
        {
          "internalType": "bytes",
          "name": "bytecode",
          "type": "bytes"
        },
        {
          "internalType": "uint256",
          "name": "_salt",
          "type": "uint256"
        },
        {
          "internalType": "string",
          "name": "_name",
          "type": "string"
        }
      ],
      "name": "bid",
      "outputs": [],
      "stateMutability": "payable",
      "type": "function"
    },
    {
      "inputs": [
        {
          "internalType": "bytes",
          "name": "bytecode",
          "type": "bytes"
        },
        {
          "internalType": "uint256",
          "name": "salt",
          "type": "uint256"
        },
        {
          "internalType": "string",
          "name": "_name",
          "type": "string"
        }
      ],
      "name": "check",
      "outputs": [],
      "stateMutability": "nonpayable",
      "type": "function"
    },
    {
      "inputs": [
        {
          "internalType": "string",
          "name": "_name",
          "type": "string"
        }
      ],
      "name": "checkIfAuctionExists",
      "outputs": [
        {
          "internalType": "bool",
          "name": "",
          "type": "bool"
        }
      ],
      "stateMutability": "view",
      "type": "function"
    },
    {
      "inputs": [
        {
          "internalType": "uint256",
          "name": "",
          "type": "uint256"
        }
      ],
      "name": "domains",
      "outputs": [
        {
          "internalType": "string",
          "name": "domainName",
          "type": "string"
        },
        {
          "internalType": "address",
          "name": "owner",
          "type": "address"
        },
        {
          "internalType": "uint256",
          "name": "balance",
          "type": "uint256"
        },
        {
          "internalType": "uint256",
          "name": "value",
          "type": "uint256"
        }
      ],
      "stateMutability": "view",
      "type": "function"
    },
    {
      "inputs": [
        {
          "internalType": "string",
          "name": "_name",
          "type": "string"
        }
      ],
      "name": "endAuction",
      "outputs": [],
      "stateMutability": "nonpayable",
      "type": "function"
    },
    {
      "inputs": [
        {
          "internalType": "bytes",
          "name": "bytecode",
          "type": "bytes"
        },
        {
          "internalType": "uint256",
          "name": "_salt",
          "type": "uint256"
        }
      ],
      "name": "getAddress",
      "outputs": [
        {
          "internalType": "address",
          "name": "",
          "type": "address"
        }
      ],
      "stateMutability": "view",
      "type": "function"
    },
    {
      "inputs": [],
      "name": "getAllDomains",
      "outputs": [
        {
          "components": [
            {
              "internalType": "string",
              "name": "domainName",
              "type": "string"
            },
            {
              "internalType": "address",
              "name": "owner",
              "type": "address"
            },
            {
              "internalType": "uint256",
              "name": "balance",
              "type": "uint256"
            },
            {
              "internalType": "uint256",
              "name": "value",
              "type": "uint256"
            }
          ],
          "internalType": "struct IDns.EthDomain[]",
          "name": "",
          "type": "tuple[]"
        }
      ],
      "stateMutability": "view",
      "type": "function"
    },
    {
      "inputs": [],
      "name": "getAuctions",
      "outputs": [
        {
          "components": [
            {
              "internalType": "uint256",
              "name": "biddingEnd",
              "type": "uint256"
            },
            {
              "internalType": "uint256",
              "name": "revealEnd",
              "type": "uint256"
            },
            {
              "internalType": "string",
              "name": "name",
              "type": "string"
            },
            {
              "internalType": "uint256",
              "name": "auctionId",
              "type": "uint256"
            },
            {
              "internalType": "uint256",
              "name": "highestBid",
              "type": "uint256"
            },
            {
              "internalType": "address",
              "name": "highestBidder",
              "type": "address"
            },
            {
              "internalType": "uint256",
              "name": "start",
              "type": "uint256"
            },
            {
              "internalType": "bool",
              "name": "ended",
              "type": "bool"
            }
          ],
          "internalType": "struct IDns.Auction[]",
          "name": "",
          "type": "tuple[]"
        }
      ],
      "stateMutability": "view",
      "type": "function"
    },
    {
      "inputs": [],
      "name": "getBalance",
      "outputs": [
        {
          "internalType": "uint256",
          "name": "",
          "type": "uint256"
        }
      ],
      "stateMutability": "view",
      "type": "function"
    },
    {
      "inputs": [
        {
          "internalType": "address",
          "name": "_user",
          "type": "address"
        }
      ],
      "name": "getBiddings",
      "outputs": [
        {
          "components": [
            {
              "internalType": "string",
              "name": "name",
              "type": "string"
            },
            {
              "internalType": "address",
              "name": "bidder",
              "type": "address"
            },
            {
              "internalType": "bool",
              "name": "revealed",
              "type": "bool"
            },
            {
              "internalType": "uint256",
              "name": "revealedBid",
              "type": "uint256"
            },
            {
              "internalType": "uint256",
              "name": "start",
              "type": "uint256"
            },
            {
              "internalType": "uint256",
              "name": "end",
              "type": "uint256"
            }
          ],
          "internalType": "struct IDns.Bid[]",
          "name": "",
          "type": "tuple[]"
        }
      ],
      "stateMutability": "view",
      "type": "function"
    },
    {
      "inputs": [
        {
          "internalType": "address",
          "name": "_owner",
          "type": "address"
        },
        {
          "internalType": "string",
          "name": "_name",
          "type": "string"
        }
      ],
      "name": "getBytecode",
      "outputs": [
        {
          "internalType": "bytes",
          "name": "",
          "type": "bytes"
        }
      ],
      "stateMutability": "pure",
      "type": "function"
    },
    {
      "inputs": [
        {
          "internalType": "address",
          "name": "ownerAddress",
          "type": "address"
        }
      ],
      "name": "getDomains",
      "outputs": [
        {
          "components": [
            {
              "internalType": "string",
              "name": "domainName",
              "type": "string"
            },
            {
              "internalType": "address",
              "name": "owner",
              "type": "address"
            },
            {
              "internalType": "uint256",
              "name": "balance",
              "type": "uint256"
            },
            {
              "internalType": "uint256",
              "name": "value",
              "type": "uint256"
            }
          ],
          "internalType": "struct IDns.EthDomain[]",
          "name": "",
          "type": "tuple[]"
        }
      ],
      "stateMutability": "view",
      "type": "function"
    },
    {
      "inputs": [
        {
          "internalType": "string",
          "name": "",
          "type": "string"
        }
      ],
      "name": "nameToDomainId",
      "outputs": [
        {
          "internalType": "uint256",
          "name": "",
          "type": "uint256"
        }
      ],
      "stateMutability": "view",
      "type": "function"
    },
    {
      "inputs": [],
      "name": "owner",
      "outputs": [
        {
          "internalType": "address",
          "name": "",
          "type": "address"
        }
      ],
      "stateMutability": "view",
      "type": "function"
    },
    {
      "inputs": [
        {
          "internalType": "string",
          "name": "_name",
          "type": "string"
        },
        {
          "internalType": "address",
          "name": "_owner",
          "type": "address"
        },
        {
          "internalType": "uint256",
          "name": "_value",
          "type": "uint256"
        }
      ],
      "name": "registerName",
      "outputs": [],
      "stateMutability": "nonpayable",
      "type": "function"
    },
    {
      "inputs": [],
      "name": "registryName",
      "outputs": [
        {
          "internalType": "string",
          "name": "",
          "type": "string"
        }
      ],
      "stateMutability": "view",
      "type": "function"
    },
    {
      "inputs": [
        {
          "internalType": "string",
          "name": "_name",
          "type": "string"
        }
      ],
      "name": "resolveDomainName",
      "outputs": [
        {
          "internalType": "address",
          "name": "",
          "type": "address"
        }
      ],
      "stateMutability": "view",
      "type": "function"
    },
    {
      "inputs": [
        {
          "internalType": "string",
          "name": "_name",
          "type": "string"
        }
      ],
      "name": "sendDomain",
      "outputs": [],
      "stateMutability": "payable",
      "type": "function"
    },
    {
      "inputs": [
        {
          "internalType": "string",
          "name": "_name",
          "type": "string"
        },
        {
          "internalType": "uint256",
          "name": "_bidDuration",
          "type": "uint256"
        },
        {
          "internalType": "uint256",
          "name": "_revealDuration",
          "type": "uint256"
        }
      ],
      "name": "startAuction",
      "outputs": [],
      "stateMutability": "nonpayable",
      "type": "function"
    },
    {
      "inputs": [
        {
          "internalType": "string",
          "name": "_name",
          "type": "string"
        },
        {
          "internalType": "uint256",
          "name": "amount",
          "type": "uint256"
        }
      ],
      "name": "withdrawFrmDomain",
      "outputs": [],
      "stateMutability": "nonpayable",
      "type": "function"
    },
    {
      "stateMutability": "payable",
      "type": "receive"
    }
  ],
  "bytecode": "0x60806040523480156200001157600080fd5b5060016000556040805180820190915260148082527f4e545520646f6d61696e2072656769737472617200000000000000000000000060209092019182526200005d9160029162000132565b50600180546001600160a01b0319163317905560408051808201909152601d81527f4e545520646f6d61696e20726567697374726172206465706c6f796564000000602080830191909152620000bd9190620023f0620000c3821b17901c565b6200026b565b6200010e81604051602401620000da9190620001d8565b60408051601f198184030181529190526020810180516001600160e01b0390811663104c13eb60e21b179091526200011116565b50565b80516a636f6e736f6c652e6c6f67602083016000808483855afa5050505050565b82805462000140906200022e565b90600052602060002090601f016020900481019282620001645760008555620001af565b82601f106200017f57805160ff1916838001178555620001af565b82800160010185558215620001af579182015b82811115620001af57825182559160200191906001019062000192565b50620001bd929150620001c1565b5090565b5b80821115620001bd5760008155600101620001c2565b6000602080835283518082850152825b818110156200020657858101830151858201604001528201620001e8565b81811115620002185783604083870101525b50601f01601f1916929092016040019392505050565b600181811c908216806200024357607f821691505b602082108114156200026557634e487b7160e01b600052602260045260246000fd5b50919050565b613667806200027b6000396000f3fe608060405260043610620001535760003560e01c806366cf8fab11620000b957806399726b10116200007857806399726b1014620004205780639bc83cfa1462000445578063c90d9b2a146200046a578063ce2ba9bf1462000481578063d7c0691914620004a6578063e80d842c14620004cd57600080fd5b806366cf8fab14620003415780637cee8c671462000378578063849582a414620003b45780638da5cb5b14620003d957806394ca2cb514620003fb57600080fd5b80632ac63f9911620001125780632ac63f99146200022b57806335ff502e14620002505780634f15aeb81462000286578063571a26a014620002ab5780635a018e6a14620002e65780635a983745146200030d57600080fd5b80630369567f1462000160578063106aa90c146200017957806312065fe014620001b15780631654d16914620001c65780632a7f0f3114620001ed57600080fd5b366200015b57005b600080fd5b6200017762000171366004620028f2565b620004f2565b005b3480156200018657600080fd5b506200019e620001983660046200287e565b62000703565b6040519081526020015b60405180910390f35b348015620001be57600080fd5b50476200019e565b348015620001d357600080fd5b50620001de62000735565b604051620001a8919062002ede565b348015620001fa57600080fd5b50620002126200020c366004620029e0565b620007cb565b6040516001600160a01b039091168152602001620001a8565b3480156200023857600080fd5b50620001776200024a36600462002962565b62000815565b3480156200025d57600080fd5b50620002756200026f366004620029e0565b62000aee565b6040519015158152602001620001a8565b3480156200029357600080fd5b50620001de620002a53660046200282b565b62000b8b565b348015620002b857600080fd5b50620002d0620002ca36600462002af6565b62000c05565b604051620001a898979695949392919062002f88565b348015620002f357600080fd5b50620002fe62000ce3565b604051620001a8919062002e55565b3480156200031a57600080fd5b50620003326200032c366004620027ed565b62000ec7565b604051620001a8919062002db6565b3480156200034e57600080fd5b50620003666200036036600462002af6565b62001151565b604051620001a8949392919062002f4e565b3480156200038557600080fd5b506200019e62000397366004620029e0565b805160208183018101805160058252928201919093012091525481565b348015620003c157600080fd5b5062000177620003d3366004620028ac565b62001215565b348015620003e657600080fd5b5060015462000212906001600160a01b031681565b3480156200040857600080fd5b50620002126200041a366004620028ac565b62001429565b3480156200042d57600080fd5b50620001776200043f366004620028f2565b62001485565b3480156200045257600080fd5b50620001776200046436600462002a99565b62001916565b620001776200047b366004620029e0565b62001a9e565b3480156200048e57600080fd5b5062000177620004a0366004620029e0565b62001bf4565b348015620004b357600080fd5b50620004be62001f87565b604051620001a8919062002cf4565b348015620004da57600080fd5b50620002fe620004ec366004620027ed565b620021b4565b8060098160405162000505919062002b99565b90815260200160405180910390205460001415620005635760405162461bcd60e51b8152602060048201526016602482015275185d58dd1a5bdb88191bd95cc81b9bdd08195e1a5cdd60521b60448201526064015b60405180910390fd5b813360005b6001600160a01b0382166000908152600c60205260409020548110156200069957826040516020016200059c919062002b99565b60405160208183030381529060405280519060200120600d6000600c6000866001600160a01b03166001600160a01b031681526020019081526020016000208481548110620005fb57634e487b7160e01b600052603260045260246000fd5b9060005260206000200154815260200190815260200160002060000160405160200162000629919062002bb7565b604051602081830303815290604052805190602001201415620006845760405162461bcd60e51b815260206004820152601260248201527142696420616c72656164792065786973747360701b60448201526064016200055a565b806200069081620030e3565b91505062000568565b5060008587516020890134f59050803b620006b357600080fd5b620006bf33866200243a565b7f92eb767245ca8829c6919f3fab91e97b9e2cc7f3e2f71ed25b74e5e23bffc6fe3386604051620006f292919062002c5a565b60405180910390a150505050505050565b600460205281600052604060002081815481106200072057600080fd5b90600052602060002001600091509150505481565b600280546200074490620030a6565b80601f01602080910402602001604051908101604052809291908181526020018280546200077290620030a6565b8015620007c35780601f106200079757610100808354040283529160200191620007c3565b820191906000526020600020905b815481529060010190602001808311620007a557829003601f168201915b505050505081565b600060066000600584604051620007e3919062002b99565b90815260408051602092819003830190205483529082019290925201600020600101546001600160a01b031692915050565b600984846040516200082992919062002b89565b908152602001604051809103902054600014620008895760405162461bcd60e51b815260206004820152601f60248201527f41756374696f6e20666f72207468697320616c7265616479206578697374730060448201526064016200055a565b600584846040516200089d92919062002b89565b908152602001604051809103902054600014620009075760405162461bcd60e51b815260206004820152602160248201527f5468697320646f6d61696e206e616d6520697320616c7265616479206f776e656044820152601960fa1b60648201526084016200055a565b62000916600880546001019055565b600060405180610100016040528084426200093291906200303e565b8152602001836200094486426200303e565b6200095091906200303e565b815260200186868080601f0160208091040260200160405190810160405280939291908181526020018383808284376000920191909152505050908252506020016200099b60085490565b8152600060208201819052604082018190524260608301526080909101529050620009c560085490565b60098686604051620009d992919062002b89565b90815260405190819003602001902055620009fd620009f760085490565b620025fc565b80600a600062000a0c60085490565b81526020019081526020016000206000820151816000015560208201518160010155604082015181600201908051906020019062000a4c929190620026e2565b50606082015160038201556080820151600482015560a08201516005820180546001600160a01b0319166001600160a01b0390921691909117905560c0820151600682015560e0909101516007909101805460ff19169115159190911790556040517f50aa32fed87143a12f31f64ad9199a4cdc7b35635008b92f753d4c66dafdb4239062000adf908790879062002ef3565b60405180910390a15050505050565b600060015b600854811162000b82578260405160200162000b10919062002b99565b60408051601f1981840301815282825280516020918201206000858152600a835292909220919262000b4792600201910162002bb7565b60405160208183030381529060405280519060200120141562000b6d5750600192915050565b8062000b7981620030e3565b91505062000af3565b50600092915050565b606060006040518060200162000ba19062002771565b6020820181038252601f19601f82011660405250905080848460405160200162000bcd92919062002c5a565b60408051601f198184030181529082905262000bed929160200162002b56565b60405160208183030381529060405291505092915050565b600a602052600090815260409020805460018201546002830180549293919262000c2f90620030a6565b80601f016020809104026020016040519081016040528092919081815260200182805462000c5d90620030a6565b801562000cae5780601f1062000c825761010080835404028352916020019162000cae565b820191906000526020600020905b81548152906001019060200180831162000c9057829003601f168201915b5050506003840154600485015460058601546006870154600790970154959692959194506001600160a01b0316925060ff1688565b6060600062000cf160035490565b6001600160401b0381111562000d1757634e487b7160e01b600052604160045260246000fd5b60405190808252806020026020018201604052801562000d7f57816020015b62000d6b60405180608001604052806060815260200160006001600160a01b0316815260200160008152602001600081525090565b81526020019060019003908162000d365790505b509050600060015b600354811162000ebf576000818152600660205260409081902081516080810190925280548290829062000dbb90620030a6565b80601f016020809104026020016040519081016040528092919081815260200182805462000de990620030a6565b801562000e3a5780601f1062000e0e5761010080835404028352916020019162000e3a565b820191906000526020600020905b81548152906001019060200180831162000e1c57829003601f168201915b505050918352505060018201546001600160a01b0316602082015260028201546040820152600390910154606090910152835184908490811062000e8e57634e487b7160e01b600052603260045260246000fd5b6020026020010181905250818062000ea690620030e3565b925050808062000eb690620030e3565b91505062000d87565b509092915050565b6001600160a01b0381166000908152600c6020908152604080832080548251818502810185019093528083526060949383018282801562000f2857602002820191906000526020600020905b81548152602001906001019080831162000f13575b50505050509050600081516001600160401b0381111562000f5957634e487b7160e01b600052604160045260246000fd5b60405190808252806020026020018201604052801562000fd157816020015b62000fbd6040518060c001604052806060815260200160006001600160a01b031681526020016000151581526020016000815260200160008152602001600081525090565b81526020019060019003908162000f785790505b50905060005b82518110156200114957600d60008483815181106200100657634e487b7160e01b600052603260045260246000fd5b602002602001015181526020019081526020016000206040518060c00160405290816000820180546200103990620030a6565b80601f01602080910402602001604051908101604052809291908181526020018280546200106790620030a6565b8015620010b85780601f106200108c57610100808354040283529160200191620010b8565b820191906000526020600020905b8154815290600101906020018083116200109a57829003601f168201915b505050918352505060018201546001600160a01b0381166020830152600160a01b900460ff1615156040820152600282015460608201526003820154608082015260049091015460a09091015282518390839081106200112857634e487b7160e01b600052603260045260246000fd5b602002602001018190525080806200114090620030e3565b91505062000fd7565b509392505050565b6006602052600090815260409020805481906200116e90620030a6565b80601f01602080910402602001604051908101604052809291908181526020018280546200119c90620030a6565b8015620011ed5780601f10620011c157610100808354040283529160200191620011ed565b820191906000526020600020905b815481529060010190602001808311620011cf57829003601f168201915b505050506001830154600284015460039094015492936001600160a01b039091169290915084565b600260005414156200126a5760405162461bcd60e51b815260206004820152601f60248201527f5265656e7472616e637947756172643a207265656e7472616e742063616c6c0060448201526064016200055a565b60026000556040516005906200128290849062002b99565b90815260200160405180910390205460001415620012e35760405162461bcd60e51b815260206004820152601a60248201527f446f6d61696e206e616d6520646f6573206e6f7420657869737400000000000060448201526064016200055a565b600060066000600585604051620012fb919062002b99565b9081526040805160209281900383019020548352908201929092520160002060018101549091506001600160a01b031633146200137b5760405162461bcd60e51b815260206004820152601a60248201527f596f7520646f206e6f74206f776e2074686573652066756e647300000000000060448201526064016200055a565b8060020154821115620013c65760405162461bcd60e51b8152602060048201526012602482015271496e73756666696369656e742066756e647360701b60448201526064016200055a565b81816002016000828254620013dc919062003059565b90915550506040517f8b3d8607c1533d2542b181683b1c34dcfa150181c12dc81c1d3e801d5d06813e90620014179033908690869062002c80565b60405180910390a15050600160005550565b8151602092830120604080516001600160f81b0319818601523060601b6bffffffffffffffffffffffff191660218201526035810193909352605580840192909252805180840390920182526075909201909152805191012090565b600080600b836040516200149a919062002b99565b9081526040805191829003602090810183208054808302850183019093528284529190830182828015620014ee57602002820191906000526020600020905b815481526020019060010190808311620014d9575b50505050509050600062001503868662001429565b905060008190506000816001600160a01b031663f496d8826040518163ffffffff1660e01b815260040160206040518083038186803b1580156200154657600080fd5b505afa1580156200155b573d6000803e3d6000fd5b505050506040513d601f19601f820116820180604052508101906200158191906200280c565b90506000826001600160a01b03166306fdde036040518163ffffffff1660e01b815260040160006040518083038186803b158015620015bf57600080fd5b505afa158015620015d4573d6000803e3d6000fd5b505050506040513d6000823e601f3d908101601f19168201604052620015fe919081019062002a1e565b90506000836001600160a01b03166312065fe06040518163ffffffff1660e01b815260040160206040518083038186803b1580156200163c57600080fd5b505afa15801562001651573d6000803e3d6000fd5b505050506040513d601f19601f8201168201806040525081019062001677919062002b0f565b90506001600160a01b0383163314620016cd5760405162461bcd60e51b815260206004820152601760248201527611985a5b1959081d1bc81d995c9a599e4818dbdb5b5a5d604a1b60448201526064016200055a565b87604051602001620016e0919062002b99565b604051602081830303815290604052805190602001208260405160200162001709919062002b99565b6040516020818303038152906040528051906020012014620017685760405162461bcd60e51b815260206004820152601760248201527611985a5b1959081d1bc81d995c9a599e4818dbdb5b5a5d604a1b60448201526064016200055a565b60005b86518110156200190957336001600160a01b0316600d6000898481518110620017a457634e487b7160e01b600052603260045260246000fd5b6020908102919091018101518252810191909152604001600020600101546001600160a01b03161415620018f457600d6000888381518110620017f757634e487b7160e01b600052603260045260246000fd5b60200260200101518152602001908152602001600020975060018860010160146101000a81548160ff021916908315150217905550818860020181905550846001600160a01b0316633ccfd60b6040518163ffffffff1660e01b8152600401600060405180830381600087803b1580156200187157600080fd5b505af115801562001886573d6000803e3d6000fd5b505050506200189b89338a6002015462002644565b50600288015460018901546040517fe7b9400614ae8d3fb96a8ed036e790d12c0466fe2df292c92a44c602bb1c20d592620018e6928892889291600160a01b900460ff169062002cb6565b60405180910390a162001909565b806200190081620030e3565b9150506200176b565b5050505050505050505050565b8260058160405162001929919062002b99565b9081526020016040518091039020546000146200194557600080fd5b62001954600380546001019055565b604080516080810182528581526001600160a01b0385166020808301829052600083850181905260608401879052918252600490529190912060035481546001810183556000928352602090922090910155600354600586604051620019bb919062002b99565b908152604051908190036020019020558060066000620019da60035490565b815260208082019290925260400160002082518051919262001a0292849290910190620026e2565b5060208201516001820180546001600160a01b0319166001600160a01b03928316179055604080840151600284015560609093015160039092019190915590519085169062001a5390879062002b99565b60405180910390207fc78b0baeb481012ee495f6c7c720a835617068842b0e0131f4e4bb4a8f7e9cdd62001a8660035490565b60405190815260200160405180910390a35050505050565b3362001aed5760405162461bcd60e51b815260206004820152601e60248201527f5472616e736665722066726f6d20746865207a65726f2061646472657373000060448201526064016200055a565b60058160405162001aff919062002b99565b9081526020016040518091039020546000141562001b605760405162461bcd60e51b815260206004820152601a60248201527f446f6d61696e206e616d6520646f6573206e6f7420657869737400000000000060448201526064016200055a565b60006006600060058460405162001b78919062002b99565b908152602001604051809103902054815260200190815260200160002090503481600201600082825462001bad91906200303e565b90915550506040517f4d8625a4c0218499d61251f3c70b223f1810c4c5d8eb24f4c5a6a39f4d045eea9062001be89033908590349062002c80565b60405180910390a15050565b6000600a600060098460405162001c0c919062002b99565b908152602001604051809103902054815260200190815260200160002090506000600b8360405162001c3f919062002b99565b908152604080519182900360209081018320805480830285018301909352828452919083018282801562001c9357602002820191906000526020600020905b81548152602001906001019080831162001c7e575b5050505050905060005b815181101562001f7457600d600083838151811062001ccc57634e487b7160e01b600052603260045260246000fd5b602090810291909101810151825281019190915260400160002060010154600160a01b900460ff1662001cff5762001f5f565b600583015482516001600160a01b0390911690600d9060009085908590811062001d3957634e487b7160e01b600052603260045260246000fd5b6020908102919091018101518252810191909152604001600020600101546001600160a01b03161462001e3657600d600083838151811062001d8b57634e487b7160e01b600052603260045260246000fd5b6020026020010151815260200190815260200160002060010160009054906101000a90046001600160a01b03166001600160a01b03166108fc600d600085858151811062001de957634e487b7160e01b600052603260045260246000fd5b60200260200101518152602001908152602001600020600201549081150290604051600060405180830381858888f1935050505015801562001e2f573d6000803e3d6000fd5b5062001f5f565b62001ed284600d600085858151811062001e6057634e487b7160e01b600052603260045260246000fd5b6020026020010151815260200190815260200160002060010160009054906101000a90046001600160a01b0316600d600086868151811062001eb257634e487b7160e01b600052603260045260246000fd5b602002602001015181526020019081526020016000206002015462001916565b7fde7e436f28139dd5690061445b009a314e2687b635f90fdf47ae2bf8d4e6c21584600d600085858151811062001f1957634e487b7160e01b600052603260045260246000fd5b6020026020010151815260200190815260200160002060010160009054906101000a90046001600160a01b031660405162001f5692919062002f22565b60405180910390a15b8062001f6b81620030e3565b91505062001c9d565b5050600701805460ff1916600117905550565b6060600062001f9560085490565b6001600160401b0381111562001fbb57634e487b7160e01b600052604160045260246000fd5b6040519080825280602002602001820160405280156200204257816020015b6200202e604051806101000160405280600081526020016000815260200160608152602001600081526020016000815260200160006001600160a01b03168152602001600081526020016000151581525090565b81526020019060019003908162001fda5790505b509050600060015b600854811162000ebf57600a60008281526020019081526020016000206040518061010001604052908160008201548152602001600182015481526020016002820180546200209990620030a6565b80601f0160208091040260200160405190810160405280929190818152602001828054620020c790620030a6565b8015620021185780601f10620020ec5761010080835404028352916020019162002118565b820191906000526020600020905b815481529060010190602001808311620020fa57829003601f168201915b5050509183525050600382015460208201526004820154604082015260058201546001600160a01b031660608201526006820154608082015260079091015460ff16151560a09091015283518490849081106200218557634e487b7160e01b600052603260045260246000fd5b60209081029190910101526200219d6001836200303e565b915080620021ab81620030e3565b9150506200204a565b6001600160a01b0381166000908152600460205260408120546060919081906001600160401b03811115620021f957634e487b7160e01b600052604160045260246000fd5b6040519080825280602002602001820160405280156200226157816020015b6200224d60405180608001604052806060815260200160006001600160a01b0316815260200160008152602001600081525090565b815260200190600190039081620022185790505b50905060005b6001600160a01b03851660009081526004602052604090205481101562001149576001600160a01b03851660009081526004602052604081208054600692919084908110620022c657634e487b7160e01b600052603260045260246000fd5b90600052602060002001548152602001908152602001600020604051806080016040529081600082018054620022fc90620030a6565b80601f01602080910402602001604051908101604052809291908181526020018280546200232a90620030a6565b80156200237b5780601f106200234f576101008083540402835291602001916200237b565b820191906000526020600020905b8154815290600101906020018083116200235d57829003601f168201915b505050918352505060018201546001600160a01b03166020820152600282015460408201526003909101546060909101528251839085908110620023cf57634e487b7160e01b600052603260045260246000fd5b60200260200101819052508080620023e790620030e3565b91505062002267565b620024378160405160240162002407919062002ede565b60408051601f198184030181529190526020810180516001600160e01b031663104c13eb60e21b179052620026c1565b50565b6000600a600060098460405162002452919062002b99565b90815260200160405180910390205481526020019081526020016000206006015490506000600a60006009856040516200248d919062002b99565b9081526020016040518091039020548152602001908152602001600020600101549050620024bf600780546001019055565b6040518060c00160405280848152602001856001600160a01b031681526020016000151581526020016000815260200183815260200182815250600d60006200250760075490565b81526020808201929092526040016000208251805191926200252f92849290910190620026e2565b5060208201516001820180546040808601511515600160a01b026001600160a81b03199092166001600160a01b0390941693909317179055606083015160028301556080830151600383015560a09092015160049091015551600b906200259890859062002b99565b9081526020016040518091039020620025b060075490565b815460018101835560009283526020808420909101919091556001600160a01b0386168252600c9052604090206007548154600181018355600092835260209092209091015550505050565b62002437816040516024016200261491815260200190565b60408051601f198184030181529190526020810180516001600160e01b031663f82c50f160e01b179052620026c1565b600080600a60006009876040516200265d919062002b99565b908152602001604051809103902054815260200190815260200160002090508060040154831162002693576000915050620026ba565b6004810183905560050180546001600160a01b0319166001600160a01b0385161790555060015b9392505050565b80516a636f6e736f6c652e6c6f67602083016000808483855afa5050505050565b828054620026f090620030a6565b90600052602060002090601f0160209004810192826200271457600085556200275f565b82601f106200272f57805160ff19168380011785556200275f565b828001600101855582156200275f579182015b828111156200275f57825182559160200191906001019062002742565b506200276d9291506200277f565b5090565b6104ee806200314483390190565b5b808211156200276d576000815560010162002780565b600082601f830112620027a7578081fd5b8135620027be620027b88262003014565b62002fe1565b818152846020838601011115620027d3578283fd5b816020850160208301379081016020019190915292915050565b600060208284031215620027ff578081fd5b8135620026ba816200312d565b6000602082840312156200281e578081fd5b8151620026ba816200312d565b600080604083850312156200283e578081fd5b82356200284b816200312d565b915060208301356001600160401b0381111562002866578182fd5b620028748582860162002796565b9150509250929050565b6000806040838503121562002891578182fd5b82356200289e816200312d565b946020939093013593505050565b60008060408385031215620028bf578182fd5b82356001600160401b03811115620028d5578283fd5b620028e38582860162002796565b95602094909401359450505050565b60008060006060848603121562002907578081fd5b83356001600160401b03808211156200291e578283fd5b6200292c8783880162002796565b945060208601359350604086013591508082111562002949578283fd5b50620029588682870162002796565b9150509250925092565b6000806000806060858703121562002978578081fd5b84356001600160401b03808211156200298f578283fd5b818701915087601f830112620029a3578283fd5b813581811115620029b2578384fd5b886020828501011115620029c4578384fd5b6020928301999098509187013596604001359550909350505050565b600060208284031215620029f2578081fd5b81356001600160401b0381111562002a08578182fd5b62002a168482850162002796565b949350505050565b60006020828403121562002a30578081fd5b81516001600160401b0381111562002a46578182fd5b8201601f8101841362002a57578182fd5b805162002a68620027b88262003014565b81815285602083850101111562002a7d578384fd5b62002a9082602083016020860162003073565b95945050505050565b60008060006060848603121562002aae578283fd5b83356001600160401b0381111562002ac4578384fd5b62002ad28682870162002796565b935050602084013562002ae5816200312d565b929592945050506040919091013590565b60006020828403121562002b08578081fd5b5035919050565b60006020828403121562002b21578081fd5b5051919050565b6000815180845262002b4281602086016020860162003073565b601f01601f19169290920160200192915050565b6000835162002b6a81846020880162003073565b83519083019062002b8081836020880162003073565b01949350505050565b8183823760009101908152919050565b6000825162002bad81846020870162003073565b9190910192915050565b600080835482600182811c91508083168062002bd457607f831692505b602080841082141562002bf557634e487b7160e01b87526022600452602487fd5b81801562002c0c576001811462002c1e5762002c4c565b60ff1986168952848901965062002c4c565b60008a815260209020885b8681101562002c445781548b82015290850190830162002c29565b505084890196505b509498975050505050505050565b6001600160a01b038316815260406020820181905260009062002a169083018462002b28565b6001600160a01b038416815260606020820181905260009062002ca69083018562002b28565b9050826040830152949350505050565b6001600160a01b038516815260806020820181905260009062002cdc9083018662002b28565b60408301949094525090151560609091015292915050565b60006020808301818452808551808352604092508286019150828160051b870101848801865b8381101562002da857603f19898403018552815161010081518552888201518986015287820151818987015262002d548287018262002b28565b606084810151908801526080808501519088015260a0808501516001600160a01b03169088015260c0808501519088015260e093840151151593909601929092525050938601939086019060010162002d1a565b509098975050505050505050565b60006020808301818452808551808352604092508286019150828160051b870101848801865b8381101562002da857603f19898403018552815160c0815181865262002e058287018262002b28565b8a8401516001600160a01b0316878c01528984015115158a880152606080850151908801526080808501519088015260a09384015193909601929092525050938601939086019060010162002ddc565b60006020808301818452808551808352604092508286019150828160051b870101848801865b8381101562002da857603f1989840301855281516080815181865262002ea48287018262002b28565b838b01516001600160a01b0316878c0152898401518a88015260609384015193909601929092525050938601939086019060010162002e7b565b602081526000620026ba602083018462002b28565b60208152816020820152818360408301376000818301604090810191909152601f909201601f19160101919050565b60408152600062002f37604083018562002b28565b905060018060a01b03831660208301529392505050565b60808152600062002f63608083018762002b28565b6001600160a01b03959095166020830152506040810192909252606090910152919050565b60006101008a835289602084015280604084015262002faa8184018a62002b28565b6060840198909852505060808101949094526001600160a01b039290921660a084015260c0830152151560e0909101529392505050565b604051601f8201601f191681016001600160401b03811182821017156200300c576200300c62003117565b604052919050565b60006001600160401b0382111562003030576200303062003117565b50601f01601f191660200190565b6000821982111562003054576200305462003101565b500190565b6000828210156200306e576200306e62003101565b500390565b60005b838110156200309057818101518382015260200162003076565b83811115620030a0576000848401525b50505050565b600181811c90821680620030bb57607f821691505b60208210811415620030dd57634e487b7160e01b600052602260045260246000fd5b50919050565b6000600019821415620030fa57620030fa62003101565b5060010190565b634e487b7160e01b600052601160045260246000fd5b634e487b7160e01b600052604160045260246000fd5b6001600160a01b03811681146200243757600080fdfe60806040526040516104ee3803806104ee833981016040819052610022916100f1565b600080546001600160a01b0319166001600160a01b0384161790558051610050906001906020840190610058565b50505061022d565b828054610064906101dc565b90600052602060002090601f01602090048101928261008657600085556100cc565b82601f1061009f57805160ff19168380011785556100cc565b828001600101855582156100cc579182015b828111156100cc5782518255916020019190600101906100b1565b506100d89291506100dc565b5090565b5b808211156100d857600081556001016100dd565b60008060408385031215610103578182fd5b82516001600160a01b0381168114610119578283fd5b602084810151919350906001600160401b0380821115610137578384fd5b818601915086601f83011261014a578384fd5b81518181111561015c5761015c610217565b604051601f8201601f19908116603f0116810190838211818310171561018457610184610217565b81604052828152898684870101111561019b578687fd5b8693505b828410156101bc578484018601518185018701529285019261019f565b828411156101cc57868684830101525b8096505050505050509250929050565b600181811c908216806101f057607f821691505b6020821081141561021157634e487b7160e01b600052602260045260246000fd5b50919050565b634e487b7160e01b600052604160045260246000fd5b6102b28061023c6000396000f3fe608060405234801561001057600080fd5b506004361061004c5760003560e01c806306fdde031461005157806312065fe01461006f5780633ccfd60b1461007d578063f496d88214610087575b600080fd5b6100596100b2565b60405161006691906101ee565b60405180910390f35b604051478152602001610066565b610085610140565b005b60005461009a906001600160a01b031681565b6040516001600160a01b039091168152602001610066565b600180546100bf90610241565b80601f01602080910402602001604051908101604052809291908181526020018280546100eb90610241565b80156101385780601f1061010d57610100808354040283529160200191610138565b820191906000526020600020905b81548152906001019060200180831161011b57829003601f168201915b505050505081565b604051600090339047908381818185875af1925050503d8060008114610182576040519150601f19603f3d011682016040523d82523d6000602084013e610187565b606091505b50509050806101eb5760405162461bcd60e51b815260206004820152602660248201527f4661696c656420746f2073656e64204574686572206261636b20746f207468656044820152651037bbb732b960d11b606482015260840160405180910390fd5b50565b6000602080835283518082850152825b8181101561021a578581018301518582016040015282016101fe565b8181111561022b5783604083870101525b50601f01601f1916929092016040019392505050565b600181811c9082168061025557607f821691505b6020821081141561027657634e487b7160e01b600052602260045260246000fd5b5091905056fea2646970667358221220d0f65cf5dbd1f6019ada0b3b3c5a1625e8e8a10c748e5ece3956ed23e2bf8f3164736f6c63430008040033a264697066735822122033175ccbeec3512981b9a00a6f7b8f40cb522ea6de48787275afec44663db0a564736f6c63430008040033",
  "linkReferences": {},
  "deployedLinkReferences": {}
}