{
  "_format": "hh-sol-artifact-1",
  "contractName": "Dns",
  "sourceName": "contracts/Dns.sol",
  "abi": [
    {
      "inputs": [],
      "stateMutability": "nonpayable",
      "type": "constructor"
    },
    {
      "anonymous": false,
      "inputs": [
        {
          "indexed": false,
          "internalType": "string",
          "name": "name",
          "type": "string"
        },
        {
          "indexed": false,
          "internalType": "address",
          "name": "winner",
          "type": "address"
        }
      ],
      "name": "AuctionEnded",
      "type": "event"
    },
    {
      "anonymous": false,
      "inputs": [
        {
          "indexed": false,
          "internalType": "string",
          "name": "name",
          "type": "string"
        }
      ],
      "name": "AuctionStarted",
      "type": "event"
    },
    {
      "anonymous": false,
      "inputs": [
        {
          "indexed": false,
          "internalType": "address",
          "name": "bidder",
          "type": "address"
        },
        {
          "indexed": false,
          "internalType": "string",
          "name": "name",
          "type": "string"
        }
      ],
      "name": "BidMade",
      "type": "event"
    },
    {
      "anonymous": false,
      "inputs": [
        {
          "indexed": false,
          "internalType": "address",
          "name": "bidder",
          "type": "address"
        },
        {
          "indexed": false,
          "internalType": "string",
          "name": "name",
          "type": "string"
        },
        {
          "indexed": false,
          "internalType": "uint256",
          "name": "value",
          "type": "uint256"
        },
        {
          "indexed": false,
          "internalType": "bool",
          "name": "revealed",
          "type": "bool"
        }
      ],
      "name": "BidRevealed",
      "type": "event"
    },
    {
      "anonymous": false,
      "inputs": [
        {
          "indexed": false,
          "internalType": "uint256",
          "name": "id",
          "type": "uint256"
        },
        {
          "indexed": true,
          "internalType": "string",
          "name": "name",
          "type": "string"
        },
        {
          "indexed": true,
          "internalType": "address",
          "name": "owner",
          "type": "address"
        }
      ],
      "name": "DomainRegistered",
      "type": "event"
    },
    {
      "anonymous": false,
      "inputs": [
        {
          "indexed": false,
          "internalType": "address",
          "name": "withdrawer",
          "type": "address"
        },
        {
          "indexed": false,
          "internalType": "string",
          "name": "name",
          "type": "string"
        },
        {
          "indexed": false,
          "internalType": "uint256",
          "name": "amount",
          "type": "uint256"
        }
      ],
      "name": "WithdrawnFromDomain",
      "type": "event"
    },
    {
      "inputs": [
        {
          "internalType": "bytes",
          "name": "bytecode",
          "type": "bytes"
        },
        {
          "internalType": "uint256",
          "name": "_salt",
          "type": "uint256"
        },
        {
          "internalType": "string",
          "name": "_name",
          "type": "string"
        }
      ],
      "name": "bid",
      "outputs": [],
      "stateMutability": "payable",
      "type": "function"
    },
    {
      "inputs": [],
      "name": "checkAuctionsToEnd",
      "outputs": [],
      "stateMutability": "nonpayable",
      "type": "function"
    },
    {
      "inputs": [
        {
          "internalType": "string",
          "name": "_name",
          "type": "string"
        }
      ],
      "name": "checkIfAuctionExists",
      "outputs": [
        {
          "internalType": "bool",
          "name": "",
          "type": "bool"
        }
      ],
      "stateMutability": "view",
      "type": "function"
    },
    {
      "inputs": [
        {
          "internalType": "string",
          "name": "_name",
          "type": "string"
        }
      ],
      "name": "endAuction",
      "outputs": [],
      "stateMutability": "nonpayable",
      "type": "function"
    },
    {
      "inputs": [
        {
          "internalType": "bytes",
          "name": "bytecode",
          "type": "bytes"
        },
        {
          "internalType": "uint256",
          "name": "_salt",
          "type": "uint256"
        }
      ],
      "name": "getAddress",
      "outputs": [
        {
          "internalType": "address",
          "name": "",
          "type": "address"
        }
      ],
      "stateMutability": "view",
      "type": "function"
    },
    {
      "inputs": [],
      "name": "getAllDomains",
      "outputs": [
        {
          "components": [
            {
              "internalType": "string",
              "name": "domainName",
              "type": "string"
            },
            {
              "internalType": "address",
              "name": "owner",
              "type": "address"
            },
            {
              "internalType": "uint256",
              "name": "balance",
              "type": "uint256"
            },
            {
              "internalType": "uint256",
              "name": "value",
              "type": "uint256"
            }
          ],
          "internalType": "struct IDns.EthDomain[]",
          "name": "",
          "type": "tuple[]"
        }
      ],
      "stateMutability": "view",
      "type": "function"
    },
    {
      "inputs": [],
      "name": "getAuctions",
      "outputs": [
        {
          "components": [
            {
              "internalType": "uint256",
              "name": "start",
              "type": "uint256"
            },
            {
              "internalType": "uint256",
              "name": "biddingEnd",
              "type": "uint256"
            },
            {
              "internalType": "uint256",
              "name": "revealEnd",
              "type": "uint256"
            },
            {
              "internalType": "string",
              "name": "name",
              "type": "string"
            },
            {
              "internalType": "uint256",
              "name": "auctionId",
              "type": "uint256"
            },
            {
              "internalType": "uint256",
              "name": "highestBid",
              "type": "uint256"
            },
            {
              "internalType": "address",
              "name": "highestBidder",
              "type": "address"
            },
            {
              "internalType": "bool",
              "name": "ended",
              "type": "bool"
            }
          ],
          "internalType": "struct IDns.Auction[]",
          "name": "",
          "type": "tuple[]"
        }
      ],
      "stateMutability": "view",
      "type": "function"
    },
    {
      "inputs": [],
      "name": "getBalance",
      "outputs": [
        {
          "internalType": "uint256",
          "name": "",
          "type": "uint256"
        }
      ],
      "stateMutability": "view",
      "type": "function"
    },
    {
      "inputs": [
        {
          "internalType": "address",
          "name": "_user",
          "type": "address"
        }
      ],
      "name": "getBiddings",
      "outputs": [
        {
          "components": [
            {
              "internalType": "string",
              "name": "name",
              "type": "string"
            },
            {
              "internalType": "address",
              "name": "bidder",
              "type": "address"
            },
            {
              "internalType": "bool",
              "name": "revealed",
              "type": "bool"
            },
            {
              "internalType": "uint256",
              "name": "revealedBid",
              "type": "uint256"
            },
            {
              "internalType": "uint256",
              "name": "start",
              "type": "uint256"
            },
            {
              "internalType": "uint256",
              "name": "revealStart",
              "type": "uint256"
            },
            {
              "internalType": "uint256",
              "name": "end",
              "type": "uint256"
            }
          ],
          "internalType": "struct IDns.Bid[]",
          "name": "",
          "type": "tuple[]"
        }
      ],
      "stateMutability": "view",
      "type": "function"
    },
    {
      "inputs": [
        {
          "internalType": "address",
          "name": "_owner",
          "type": "address"
        },
        {
          "internalType": "string",
          "name": "_name",
          "type": "string"
        }
      ],
      "name": "getBytecode",
      "outputs": [
        {
          "internalType": "bytes",
          "name": "",
          "type": "bytes"
        }
      ],
      "stateMutability": "pure",
      "type": "function"
    },
    {
      "inputs": [
        {
          "internalType": "address",
          "name": "_user",
          "type": "address"
        }
      ],
      "name": "getMyDomains",
      "outputs": [
        {
          "components": [
            {
              "internalType": "string",
              "name": "domainName",
              "type": "string"
            },
            {
              "internalType": "address",
              "name": "owner",
              "type": "address"
            },
            {
              "internalType": "uint256",
              "name": "balance",
              "type": "uint256"
            },
            {
              "internalType": "uint256",
              "name": "value",
              "type": "uint256"
            }
          ],
          "internalType": "struct IDns.EthDomain[]",
          "name": "",
          "type": "tuple[]"
        }
      ],
      "stateMutability": "view",
      "type": "function"
    },
    {
      "inputs": [],
      "name": "owner",
      "outputs": [
        {
          "internalType": "address",
          "name": "",
          "type": "address"
        }
      ],
      "stateMutability": "view",
      "type": "function"
    },
    {
      "inputs": [
        {
          "internalType": "string",
          "name": "_name",
          "type": "string"
        },
        {
          "internalType": "address",
          "name": "_owner",
          "type": "address"
        },
        {
          "internalType": "uint256",
          "name": "_value",
          "type": "uint256"
        }
      ],
      "name": "registerName",
      "outputs": [],
      "stateMutability": "nonpayable",
      "type": "function"
    },
    {
      "inputs": [],
      "name": "registryName",
      "outputs": [
        {
          "internalType": "string",
          "name": "",
          "type": "string"
        }
      ],
      "stateMutability": "view",
      "type": "function"
    },
    {
      "inputs": [
        {
          "internalType": "string",
          "name": "_name",
          "type": "string"
        }
      ],
      "name": "resolveDomainName",
      "outputs": [
        {
          "internalType": "address",
          "name": "",
          "type": "address"
        }
      ],
      "stateMutability": "view",
      "type": "function"
    },
    {
      "inputs": [
        {
          "internalType": "bytes",
          "name": "bytecode",
          "type": "bytes"
        },
        {
          "internalType": "uint256",
          "name": "_salt",
          "type": "uint256"
        },
        {
          "internalType": "string",
          "name": "_name",
          "type": "string"
        }
      ],
      "name": "reveal",
      "outputs": [],
      "stateMutability": "nonpayable",
      "type": "function"
    },
    {
      "inputs": [
        {
          "internalType": "string",
          "name": "_name",
          "type": "string"
        }
      ],
      "name": "sendDomain",
      "outputs": [],
      "stateMutability": "payable",
      "type": "function"
    },
    {
      "inputs": [
        {
          "internalType": "string",
          "name": "_name",
          "type": "string"
        },
        {
          "internalType": "uint256",
          "name": "_bidDuration",
          "type": "uint256"
        },
        {
          "internalType": "uint256",
          "name": "_revealDuration",
          "type": "uint256"
        }
      ],
      "name": "startAuction",
      "outputs": [],
      "stateMutability": "nonpayable",
      "type": "function"
    },
    {
      "inputs": [
        {
          "internalType": "string",
          "name": "_name",
          "type": "string"
        },
        {
          "internalType": "uint256",
          "name": "amount",
          "type": "uint256"
        }
      ],
      "name": "withdrawFrmDomain",
      "outputs": [],
      "stateMutability": "nonpayable",
      "type": "function"
    },
    {
      "stateMutability": "payable",
      "type": "receive"
    }
  ],
  "bytecode": "0x60a06040523480156200001157600080fd5b50600160008190556040805180820190915260148082527f4e545520646f6d61696e2072656769737472617200000000000000000000000060209092019182526200005e92919062000128565b503360601b60805260408051808201909152601d81527f4e545520646f6d61696e20726567697374726172206465706c6f796564000000602080830191909152620000b39190620023c8620000b9821b17901c565b62000261565b6200010481604051602401620000d09190620001ce565b60408051601f198184030181529190526020810180516001600160e01b0390811663104c13eb60e21b179091526200010716565b50565b80516a636f6e736f6c652e6c6f67602083016000808483855afa5050505050565b828054620001369062000224565b90600052602060002090601f0160209004810192826200015a5760008555620001a5565b82601f106200017557805160ff1916838001178555620001a5565b82800160010185558215620001a5579182015b82811115620001a557825182559160200191906001019062000188565b50620001b3929150620001b7565b5090565b5b80821115620001b35760008155600101620001b8565b6000602080835283518082850152825b81811015620001fc57858101830151858201604001528201620001de565b818111156200020e5783604083870101525b50601f01601f1916929092016040019392505050565b600181811c908216806200023957607f821691505b602082108114156200025b57634e487b7160e01b600052602260045260246000fd5b50919050565b60805160601c6135f762000280600039600061032c01526135f76000f3fe6080604052600436106200012f5760003560e01c80635a98374511620000ad5780639bc83cfa116200006c5780639bc83cfa1462000373578063afd976c01462000398578063c90d9b2a14620003bd578063ce2ba9bf14620003d4578063d7c0691914620003f957600080fd5b80635a983745146200029a57806374b3553f14620002ce578063849582a414620002f35780638da5cb5b146200031857806394ca2cb5146200034e57600080fd5b80632ac63f9911620000fa5780632ac63f9914620001db578063340a2df8146200020057806335ff502e14620002185780634f15aeb8146200024e5780635a018e6a146200027357600080fd5b80630369567f146200013c57806312065fe014620001555780631654d16914620001765780632a7f0f31146200019d57600080fd5b366200013757005b600080fd5b620001536200014d366004620028ce565b62000420565b005b3480156200016257600080fd5b506040514781526020015b60405180910390f35b3480156200018357600080fd5b506200018e620006c1565b6040516200016d919062002e44565b348015620001aa57600080fd5b50620001c2620001bc366004620029bc565b62000757565b6040516001600160a01b0390911681526020016200016d565b348015620001e857600080fd5b5062000153620001fa3660046200293e565b620007a1565b3480156200020d57600080fd5b506200015362000a81565b3480156200022557600080fd5b506200023d62000237366004620029bc565b62000bec565b60405190151581526020016200016d565b3480156200025b57600080fd5b506200018e6200026d36600462002835565b62000c96565b3480156200028057600080fd5b506200028b62000d10565b6040516200016d919062002dbb565b348015620002a757600080fd5b50620002bf620002b9366004620027f7565b62000f00565b6040516200016d919062002d12565b348015620002db57600080fd5b506200028b620002ed366004620027f7565b6200119b565b3480156200030057600080fd5b50620001536200031236600462002888565b620013f1565b3480156200032557600080fd5b50620001c27f000000000000000000000000000000000000000000000000000000000000000081565b3480156200035b57600080fd5b50620001c26200036d36600462002888565b62001617565b3480156200038057600080fd5b50620001536200039236600462002a75565b62001673565b348015620003a557600080fd5b5062000153620003b7366004620028ce565b6200183a565b62000153620003ce366004620029bc565b62001d68565b348015620003e157600080fd5b5062000153620003f3366004620029bc565b62001e80565b3480156200040657600080fd5b50620004116200218c565b6040516200016d919062002c43565b8060088160405162000433919062002b5c565b90815260200160405180910390205460001415620004915760405162461bcd60e51b8152602060048201526016602482015275185d58dd1a5bdb88191bd95cc81b9bdd08195e1a5cdd60521b60448201526064015b60405180910390fd5b60096000600883604051620004a7919062002b5c565b9081526040805160209281900383019020548352908201929092520160002060060154600160a01b900460ff1615620005175760405162461bcd60e51b8152602060048201526011602482015270185d58dd1a5bdb881a185cc8195b991959607a1b604482015260640162000488565b813360005b6001600160a01b0382166000908152600b60205260409020548110156200064d578260405160200162000550919062002b5c565b60405160208183030381529060405280519060200120600c6000600b6000866001600160a01b03166001600160a01b031681526020019081526020016000208481548110620005af57634e487b7160e01b600052603260045260246000fd5b90600052602060002001548152602001908152602001600020600001604051602001620005dd919062002b7a565b604051602081830303815290604052805190602001201415620006385760405162461bcd60e51b815260206004820152601260248201527142696420616c72656164792065786973747360701b604482015260640162000488565b80620006448162002f8a565b9150506200051c565b50836009600060088360405162000665919062002b5c565b90815260200160405180910390205481526020019081526020016000206001015442106200069257600080fd5b600086885160208a0134f59050803b620006ab57600080fd5b620006b7338762002412565b5050505050505050565b60018054620006d09062002f4d565b80601f0160208091040260200160405190810160405280929190818152602001828054620006fe9062002f4d565b80156200074f5780601f1062000723576101008083540402835291602001916200074f565b820191906000526020600020905b8154815290600101906020018083116200073157829003601f168201915b505050505081565b6000600560006004846040516200076f919062002b5c565b90815260408051602092819003830190205483529082019290925201600020600101546001600160a01b031692915050565b83838080601f0160208091040260200160405190810160405280939291908181526020018383808284376000920191909152505060405160049250620007ea9150839062002b5c565b9081526020016040518091039020546000146200084a5760405162461bcd60e51b815260206004820152601a60248201527f646f6d61696e206e616d6520616c726561647920657869737473000000000000604482015260640162000488565b600885856040516200085e92919062002b4c565b908152602001604051809103902054600014620008be5760405162461bcd60e51b815260206004820152601f60248201527f41756374696f6e20666f72207468697320616c72656164792065786973747300604482015260640162000488565b620008cd600780546001019055565b6000620008d960075490565b905060006040518061010001604052804281526020018642620008fd919062002ee5565b8152602001856200090f884262002ee5565b6200091b919062002ee5565b815260200188888080601f0160208091040260200160405190810160405280939291908181526020018383808284376000920182905250938552505050602082018590526040808301829052606083018290526080909201525190915082906008906200098c908a908a9062002b4c565b90815260405190819003602001902055620009a78262002606565b6000828152600960209081526040918290208351815581840151600182015591830151600283015560608301518051849392620009ec926003850192910190620026ec565b506080820151600482015560a0820151600582015560c08201516006909101805460e0909301511515600160a01b026001600160a81b03199093166001600160a01b03909216919091179190911790556040517f50aa32fed87143a12f31f64ad9199a4cdc7b35635008b92f753d4c66dafdb4239062000a70908990899062002e59565b60405180910390a150505050505050565b60075462000ac85760405162461bcd60e51b8152602060048201526013602482015272139bc8185d58dd1a5bdb9cc818dc99585d1959606a1b604482015260640162000488565b600062000ad460075490565b905060015b81811162000be85760008181526009602052604090206002015442108062000b195750600081815260096020526040902060060154600160a01b900460ff165b1562000b255762000bd3565b6000818152600960205260409020600301805462000bd3919062000b499062002f4d565b80601f016020809104026020016040519081016040528092919081815260200182805462000b779062002f4d565b801562000bc85780601f1062000b9c5761010080835404028352916020019162000bc8565b820191906000526020600020905b81548152906001019060200180831162000baa57829003601f168201915b505050505062001e80565b8062000bdf8162002f8a565b91505062000ad9565b5050565b60008062000bf960075490565b905060015b81811162000c8c578360405160200162000c19919062002b5c565b60408051601f19818403018152828252805160209182012060008581526009835292909220919262000c5092600301910162002b7a565b60405160208183030381529060405280519060200120141562000c77575060019392505050565b8062000c838162002f8a565b91505062000bfe565b5060009392505050565b606060006040518060200162000cac906200277b565b6020820181038252601f19601f82011660405250905080848460405160200162000cd892919062002c1d565b60408051601f198184030181529082905262000cf8929160200162002b19565b60405160208183030381529060405291505092915050565b6060600062000d1e60025490565b6001600160401b0381111562000d4457634e487b7160e01b600052604160045260246000fd5b60405190808252806020026020018201604052801562000dac57816020015b62000d9860405180608001604052806060815260200160006001600160a01b0316815260200160008152602001600081525090565b81526020019060019003908162000d635790505b50905060008062000dbc60025490565b905060015b81811162000ef7576000818152600560205260409081902081516080810190925280548290829062000df39062002f4d565b80601f016020809104026020016040519081016040528092919081815260200182805462000e219062002f4d565b801562000e725780601f1062000e465761010080835404028352916020019162000e72565b820191906000526020600020905b81548152906001019060200180831162000e5457829003601f168201915b505050918352505060018201546001600160a01b0316602082015260028201546040820152600390910154606090910152845185908590811062000ec657634e487b7160e01b600052603260045260246000fd5b6020026020010181905250828062000ede9062002f8a565b935050808062000eee9062002f8a565b91505062000dc1565b50919392505050565b6001600160a01b0381166000908152600b6020908152604080832080548251818502810185019093528083526060949383018282801562000f6157602002820191906000526020600020905b81548152602001906001019080831162000f4c575b50505050509050600081516001600160401b0381111562000f9257634e487b7160e01b600052604160045260246000fd5b6040519080825280602002602001820160405280156200101157816020015b62000ffd6040518060e001604052806060815260200160006001600160a01b03168152602001600015158152602001600081526020016000815260200160008152602001600081525090565b81526020019060019003908162000fb15790505b50905060005b82518110156200119357600c60008483815181106200104657634e487b7160e01b600052603260045260246000fd5b602002602001015181526020019081526020016000206040518060e0016040529081600082018054620010799062002f4d565b80601f0160208091040260200160405190810160405280929190818152602001828054620010a79062002f4d565b8015620010f85780601f10620010cc57610100808354040283529160200191620010f8565b820191906000526020600020905b815481529060010190602001808311620010da57829003601f168201915b505050918352505060018201546001600160a01b0381166020830152600160a01b900460ff16151560408201526002820154606082015260038201546080820152600482015460a082015260059091015460c09091015282518390839081106200117257634e487b7160e01b600052603260045260246000fd5b602002602001018190525080806200118a9062002f8a565b91505062001017565b509392505050565b6001600160a01b0381166000908152600360209081526040808320805482518185028101850190935280835260609493830182828015620011fc57602002820191906000526020600020905b815481526020019060010190808311620011e7575b50505050509050600081516001600160401b038111156200122d57634e487b7160e01b600052604160045260246000fd5b6040519080825280602002602001820160405280156200129557816020015b6200128160405180608001604052806060815260200160006001600160a01b0316815260200160008152602001600081525090565b8152602001906001900390816200124c5790505b50905060005b8251811015620011935760056000848381518110620012ca57634e487b7160e01b600052603260045260246000fd5b60200260200101518152602001908152602001600020604051806080016040529081600082018054620012fd9062002f4d565b80601f01602080910402602001604051908101604052809291908181526020018280546200132b9062002f4d565b80156200137c5780601f1062001350576101008083540402835291602001916200137c565b820191906000526020600020905b8154815290600101906020018083116200135e57829003601f168201915b505050918352505060018201546001600160a01b03166020820152600282015460408201526003909101546060909101528251839083908110620013d057634e487b7160e01b600052603260045260246000fd5b60200260200101819052508080620013e89062002f8a565b9150506200129b565b60026000541415620014465760405162461bcd60e51b815260206004820152601f60248201527f5265656e7472616e637947756172643a207265656e7472616e742063616c6c00604482015260640162000488565b60026000556040516004906200145e90849062002b5c565b90815260200160405180910390205460001415620014bf5760405162461bcd60e51b815260206004820152601a60248201527f446f6d61696e206e616d6520646f6573206e6f74206578697374000000000000604482015260640162000488565b600060056000600485604051620014d7919062002b5c565b9081526040805160209281900383019020548352908201929092520160002060018101549091506001600160a01b03163314620015575760405162461bcd60e51b815260206004820152601a60248201527f596f7520646f206e6f74206f776e2074686573652066756e6473000000000000604482015260640162000488565b8060020154821115620015a25760405162461bcd60e51b8152602060048201526012602482015271496e73756666696369656e742066756e647360701b604482015260640162000488565b6000816002015411620015b457600080fd5b81816002016000828254620015ca919062002f00565b909155505060018101546040516001600160a01b039091169083156108fc029084906000818181858888f193505050501580156200160c573d6000803e3d6000fd5b505060016000555050565b8151602092830120604080516001600160f81b0319818601523060601b6bffffffffffffffffffffffff191660218201526035810193909352605580840192909252805180840390920182526075909201909152805191012090565b8260048160405162001686919062002b5c565b908152602001604051809103902054600014620016e65760405162461bcd60e51b815260206004820152601a60248201527f646f6d61696e206e616d6520616c726561647920657869737473000000000000604482015260640162000488565b620016f5600280546001019055565b604080516080810182528581526001600160a01b0385166020820152600091810182905260608101849052906200172b60025490565b6001600160a01b0386166000908152600360209081526040808320805460018101825590845291909220018290555190915081906004906200176f90899062002b5c565b90815260408051602092819003830190209290925560008381526005825291909120835180518593620017a7928492910190620026ec565b5060208201516001820180546001600160a01b0319166001600160a01b039283161790556040808401516002840155606090930151600390920191909155905190861690620017f890889062002b5c565b604051908190038120838252907fc78b0baeb481012ee495f6c7c720a835617068842b0e0131f4e4bb4a8f7e9cdd9060200160405180910390a3505050505050565b806009600060088360405162001851919062002b5c565b9081526020016040518091039020548152602001908152602001600020600101544210156200187f57600080fd5b816009600060088360405162001896919062002b5c565b9081526020016040518091039020548152602001908152602001600020600201544210620018c357600080fd5b600080600a85604051620018d8919062002b5c565b90815260408051918290036020908101832080548083028501830190935282845291908301828280156200192c57602002820191906000526020600020905b81548152602001906001019080831162001917575b50505050509050600062001941888862001617565b905060008190506000816001600160a01b031663f496d8826040518163ffffffff1660e01b815260040160206040518083038186803b1580156200198457600080fd5b505afa15801562001999573d6000803e3d6000fd5b505050506040513d601f19601f82011682018060405250810190620019bf919062002816565b90506000826001600160a01b03166306fdde036040518163ffffffff1660e01b815260040160006040518083038186803b158015620019fd57600080fd5b505afa15801562001a12573d6000803e3d6000fd5b505050506040513d6000823e601f3d908101601f1916820160405262001a3c9190810190620029fa565b90506000836001600160a01b03166312065fe06040518163ffffffff1660e01b815260040160206040518083038186803b15801562001a7a57600080fd5b505afa15801562001a8f573d6000803e3d6000fd5b505050506040513d601f19601f8201168201806040525081019062001ab5919062002ad2565b90506001600160a01b038316331462001b0b5760405162461bcd60e51b815260206004820152601760248201527611985a5b1959081d1bc81d995c9a599e4818dbdb5b5a5d604a1b604482015260640162000488565b8960405160200162001b1e919062002b5c565b604051602081830303815290604052805190602001208260405160200162001b47919062002b5c565b604051602081830303815290604052805190602001201462001ba65760405162461bcd60e51b815260206004820152601760248201527611985a5b1959081d1bc81d995c9a599e4818dbdb5b5a5d604a1b604482015260640162000488565b60005b865181101562001d5957336001600160a01b0316600c600089848151811062001be257634e487b7160e01b600052603260045260246000fd5b6020908102919091018101518252810191909152604001600020600101546001600160a01b0316141562001d4457600c600088838151811062001c3557634e487b7160e01b600052603260045260246000fd5b6020026020010151815260200190815260200160002097508760010160149054906101000a900460ff16151560011515141562001cb55760405162461bcd60e51b815260206004820152601d60248201527f4269642068617320616c7265616479206265656e2072657665616c6564000000604482015260640162000488565b60018801805460ff60a01b1916600160a01b1790556002880182905560408051633ccfd60b60e01b815290516001600160a01b03871691633ccfd60b91600480830192600092919082900301818387803b15801562001d1357600080fd5b505af115801562001d28573d6000803e3d6000fd5b5050505062001d3d8b338a600201546200264e565b5062001d59565b8062001d508162002f8a565b91505062001ba9565b50505050505050505050505050565b3362001db75760405162461bcd60e51b815260206004820152601e60248201527f5472616e736665722066726f6d20746865207a65726f20616464726573730000604482015260640162000488565b60048160405162001dc9919062002b5c565b9081526020016040518091039020546000141562001e2a5760405162461bcd60e51b815260206004820152601a60248201527f446f6d61696e206e616d6520646f6573206e6f74206578697374000000000000604482015260640162000488565b60006005600060048460405162001e42919062002b5c565b908152602001604051809103902054815260200190815260200160002090503481600201600082825462001e77919062002ee5565b90915550505050565b60006009600060088460405162001e98919062002b5c565b908152602001604051809103902054815260200190815260200160002090506000600a8360405162001ecb919062002b5c565b908152604080519182900360209081018320805480830285018301909352828452919083018282801562001f1f57602002820191906000526020600020905b81548152602001906001019080831162001f0a575b5050505050905060005b81518110156200217357600c600083838151811062001f5857634e487b7160e01b600052603260045260246000fd5b602090810291909101810151825281019190915260400160002060010154600160a01b900460ff1662001f8b576200215e565b600683015482516001600160a01b0390911690600c9060009085908590811062001fc557634e487b7160e01b600052603260045260246000fd5b6020908102919091018101518252810191909152604001600020600101546001600160a01b031614620020c257600c60008383815181106200201757634e487b7160e01b600052603260045260246000fd5b6020026020010151815260200190815260200160002060010160009054906101000a90046001600160a01b03166001600160a01b03166108fc600c60008585815181106200207557634e487b7160e01b600052603260045260246000fd5b60200260200101518152602001908152602001600020600201549081150290604051600060405180830381858888f19350505050158015620020bb573d6000803e3d6000fd5b506200215e565b6200215e84600c6000858581518110620020ec57634e487b7160e01b600052603260045260246000fd5b6020026020010151815260200190815260200160002060010160009054906101000a90046001600160a01b0316600c60008686815181106200213e57634e487b7160e01b600052603260045260246000fd5b602002602001015181526020019081526020016000206002015462001673565b806200216a8162002f8a565b91505062001f29565b5050600601805460ff60a01b1916600160a01b17905550565b606060006200219a60075490565b90506000816001600160401b03811115620021c557634e487b7160e01b600052604160045260246000fd5b6040519080825280602002602001820160405280156200224c57816020015b6200223860405180610100016040528060008152602001600081526020016000815260200160608152602001600081526020016000815260200160006001600160a01b031681526020016000151581525090565b815260200190600190039081620021e45790505b509050600060015b838111620023bf576009600082815260200190815260200160002060405180610100016040529081600082015481526020016001820154815260200160028201548152602001600382018054620022ab9062002f4d565b80601f0160208091040260200160405190810160405280929190818152602001828054620022d99062002f4d565b80156200232a5780601f10620022fe576101008083540402835291602001916200232a565b820191906000526020600020905b8154815290600101906020018083116200230c57829003601f168201915b505050918352505060048201546020820152600582015460408201526006909101546001600160a01b0381166060830152600160a01b900460ff16151560809091015283518490849081106200239057634e487b7160e01b600052603260045260246000fd5b6020908102919091010152620023a860018362002ee5565b915080620023b68162002f8a565b91505062002254565b50909392505050565b6200240f81604051602401620023df919062002e44565b60408051601f198184030181529190526020810180516001600160e01b031663104c13eb60e21b179052620026cb565b50565b62002421600680546001019055565b60006200242d60065490565b90506040518060e00160405280838152602001846001600160a01b03168152602001600015158152602001600081526020016009600060088660405162002475919062002b5c565b908152602001604051809103902054815260200190815260200160002060000154815260200160096000600886604051620024b1919062002b5c565b908152602001604051809103902054815260200190815260200160002060010154815260200160096000600886604051620024ed919062002b5c565b908152602001604051809103902054815260200190815260200160002060020154815250600c6000838152602001908152602001600020600082015181600001908051906020019062002542929190620026ec565b5060208201516001820180546040808601511515600160a01b026001600160a81b03199092166001600160a01b0390941693909317179055606083015160028301556080830151600383015560a0830151600483015560c09092015160059091015551600a90620025b590849062002b5c565b908152604080516020928190038301902080546001808201835560009283528483209091018590556001600160a01b03969096168152600b8352908120805495860181558152209092019190915550565b6200240f816040516024016200261e91815260200190565b60408051601f198184030181529190526020810180516001600160e01b031663f82c50f160e01b179052620026cb565b6000806009600060088760405162002667919062002b5c565b90815260200160405180910390205481526020019081526020016000209050806005015483116200269d576000915050620026c4565b6005810183905560060180546001600160a01b0319166001600160a01b0385161790555060015b9392505050565b80516a636f6e736f6c652e6c6f67602083016000808483855afa5050505050565b828054620026fa9062002f4d565b90600052602060002090601f0160209004810192826200271e576000855562002769565b82601f106200273957805160ff191683800117855562002769565b8280016001018555821562002769579182015b82811115620027695782518255916020019190600101906200274c565b506200277792915062002789565b5090565b6105d78062002feb83390190565b5b808211156200277757600081556001016200278a565b600082601f830112620027b1578081fd5b8135620027c8620027c28262002ebb565b62002e88565b818152846020838601011115620027dd578283fd5b816020850160208301379081016020019190915292915050565b60006020828403121562002809578081fd5b8135620026c48162002fd4565b60006020828403121562002828578081fd5b8151620026c48162002fd4565b6000806040838503121562002848578081fd5b8235620028558162002fd4565b915060208301356001600160401b0381111562002870578182fd5b6200287e85828601620027a0565b9150509250929050565b600080604083850312156200289b578182fd5b82356001600160401b03811115620028b1578283fd5b620028bf85828601620027a0565b95602094909401359450505050565b600080600060608486031215620028e3578081fd5b83356001600160401b0380821115620028fa578283fd5b6200290887838801620027a0565b945060208601359350604086013591508082111562002925578283fd5b506200293486828701620027a0565b9150509250925092565b6000806000806060858703121562002954578081fd5b84356001600160401b03808211156200296b578283fd5b818701915087601f8301126200297f578283fd5b8135818111156200298e578384fd5b886020828501011115620029a0578384fd5b6020928301999098509187013596604001359550909350505050565b600060208284031215620029ce578081fd5b81356001600160401b03811115620029e4578182fd5b620029f284828501620027a0565b949350505050565b60006020828403121562002a0c578081fd5b81516001600160401b0381111562002a22578182fd5b8201601f8101841362002a33578182fd5b805162002a44620027c28262002ebb565b81815285602083850101111562002a59578384fd5b62002a6c82602083016020860162002f1a565b95945050505050565b60008060006060848603121562002a8a578283fd5b83356001600160401b0381111562002aa0578384fd5b62002aae86828701620027a0565b935050602084013562002ac18162002fd4565b929592945050506040919091013590565b60006020828403121562002ae4578081fd5b5051919050565b6000815180845262002b0581602086016020860162002f1a565b601f01601f19169290920160200192915050565b6000835162002b2d81846020880162002f1a565b83519083019062002b4381836020880162002f1a565b01949350505050565b8183823760009101908152919050565b6000825162002b7081846020870162002f1a565b9190910192915050565b600080835482600182811c91508083168062002b9757607f831692505b602080841082141562002bb857634e487b7160e01b87526022600452602487fd5b81801562002bcf576001811462002be15762002c0f565b60ff1986168952848901965062002c0f565b60008a815260209020885b8681101562002c075781548b82015290850190830162002bec565b505084890196505b509498975050505050505050565b6001600160a01b0383168152604060208201819052600090620029f29083018462002aeb565b60006020808301818452808551808352604092508286019150828160051b870101848801865b8381101562002d0457603f1989840301855281516101008151855288820151898601528782015188860152606080830151828288015262002cad8388018262002aeb565b6080858101519089015260a0808601519089015260c0808601516001600160a01b03169089015260e094850151801515868a015294909350915062002cef9050565b50958801959350509086019060010162002c69565b509098975050505050505050565b60006020808301818452808551808352604092508286019150828160051b870101848801865b8381101562002d0457603f19898403018552815160e0815181865262002d618287018262002aeb565b838b01516001600160a01b0316878c01528984015115158a880152606080850151908801526080808501519088015260a0848101519088015260c09384015193909601929092525050938601939086019060010162002d38565b60006020808301818452808551808352604092508286019150828160051b870101848801865b8381101562002d0457603f1989840301855281516080815181865262002e0a8287018262002aeb565b838b01516001600160a01b0316878c0152898401518a88015260609384015193909601929092525050938601939086019060010162002de1565b602081526000620026c4602083018462002aeb565b60208152816020820152818360408301376000818301604090810191909152601f909201601f19160101919050565b604051601f8201601f191681016001600160401b038111828210171562002eb35762002eb362002fbe565b604052919050565b60006001600160401b0382111562002ed75762002ed762002fbe565b50601f01601f191660200190565b6000821982111562002efb5762002efb62002fa8565b500190565b60008282101562002f155762002f1562002fa8565b500390565b60005b8381101562002f3757818101518382015260200162002f1d565b8381111562002f47576000848401525b50505050565b600181811c9082168062002f6257607f821691505b6020821081141562002f8457634e487b7160e01b600052602260045260246000fd5b50919050565b600060001982141562002fa15762002fa162002fa8565b5060010190565b634e487b7160e01b600052601160045260246000fd5b634e487b7160e01b600052604160045260246000fd5b6001600160a01b03811681146200240f57600080fdfe60806040526040516105d73803806105d783398101604081905261002291610108565b6001600081905580546001600160a01b0319166001600160a01b038416179055805161005590600290602084019061006f565b5050600380546001600160a01b0319163317905550610244565b82805461007b906101f3565b90600052602060002090601f01602090048101928261009d57600085556100e3565b82601f106100b657805160ff19168380011785556100e3565b828001600101855582156100e3579182015b828111156100e35782518255916020019190600101906100c8565b506100ef9291506100f3565b5090565b5b808211156100ef57600081556001016100f4565b6000806040838503121561011a578182fd5b82516001600160a01b0381168114610130578283fd5b602084810151919350906001600160401b038082111561014e578384fd5b818601915086601f830112610161578384fd5b8151818111156101735761017361022e565b604051601f8201601f19908116603f0116810190838211818310171561019b5761019b61022e565b8160405282815289868487010111156101b2578687fd5b8693505b828410156101d357848401860151818501870152928501926101b6565b828411156101e357868684830101525b8096505050505050509250929050565b600181811c9082168061020757607f821691505b6020821081141561022857634e487b7160e01b600052602260045260246000fd5b50919050565b634e487b7160e01b600052604160045260246000fd5b610384806102536000396000f3fe608060405234801561001057600080fd5b506004361061004c5760003560e01c806306fdde031461005157806312065fe01461006f5780633ccfd60b1461007d578063f496d88214610087575b600080fd5b6100596100b2565b60405161006691906102c0565b60405180910390f35b604051478152602001610066565b610085610140565b005b60015461009a906001600160a01b031681565b6040516001600160a01b039091168152602001610066565b600280546100bf90610313565b80601f01602080910402602001604051908101604052809291908181526020018280546100eb90610313565b80156101385780601f1061010d57610100808354040283529160200191610138565b820191906000526020600020905b81548152906001019060200180831161011b57829003601f168201915b505050505081565b600260005414156101985760405162461bcd60e51b815260206004820152601f60248201527f5265656e7472616e637947756172643a207265656e7472616e742063616c6c0060448201526064015b60405180910390fd5b60026000556003546001600160a01b031633146102065760405162461bcd60e51b815260206004820152602660248201527f596f752063616e6e6f742077697468647261772066726f6d207468697320636f6044820152651b9d1c9858dd60d21b606482015260840161018f565b6003546040516000916001600160a01b03169047908381818185875af1925050503d8060008114610253576040519150601f19603f3d011682016040523d82523d6000602084013e610258565b606091505b50509050806102b85760405162461bcd60e51b815260206004820152602660248201527f4661696c656420746f2073656e64204574686572206261636b20746f207468656044820152651037bbb732b960d11b606482015260840161018f565b506001600055565b6000602080835283518082850152825b818110156102ec578581018301518582016040015282016102d0565b818111156102fd5783604083870101525b50601f01601f1916929092016040019392505050565b600181811c9082168061032757607f821691505b6020821081141561034857634e487b7160e01b600052602260045260246000fd5b5091905056fea2646970667358221220789152e4d62ad6cd7dfe52c056b0e2af54b11d6d4080f435cc323613f67fbd1264736f6c63430008040033a26469706673582212208fbff180ac8cf87fdb34285ba26a2ff24999b3987c3d611af96d267da43f0f0b64736f6c63430008040033",
  "linkReferences": {},
  "deployedLinkReferences": {}
}