{
  "_format": "hh-sol-artifact-1",
  "contractName": "Dns",
  "sourceName": "contracts/Dns.sol",
  "abi": [
    {
      "inputs": [],
      "stateMutability": "nonpayable",
      "type": "constructor"
    },
    {
      "anonymous": false,
      "inputs": [
        {
          "indexed": false,
          "internalType": "string",
          "name": "name",
          "type": "string"
        },
        {
          "indexed": false,
          "internalType": "address",
          "name": "winner",
          "type": "address"
        }
      ],
      "name": "AuctionEnded",
      "type": "event"
    },
    {
      "anonymous": false,
      "inputs": [
        {
          "indexed": false,
          "internalType": "string",
          "name": "name",
          "type": "string"
        }
      ],
      "name": "AuctionStarted",
      "type": "event"
    },
    {
      "anonymous": false,
      "inputs": [
        {
          "indexed": false,
          "internalType": "address",
          "name": "bidder",
          "type": "address"
        },
        {
          "indexed": false,
          "internalType": "string",
          "name": "name",
          "type": "string"
        }
      ],
      "name": "BidMade",
      "type": "event"
    },
    {
      "anonymous": false,
      "inputs": [
        {
          "indexed": false,
          "internalType": "address",
          "name": "bidder",
          "type": "address"
        },
        {
          "indexed": false,
          "internalType": "string",
          "name": "name",
          "type": "string"
        },
        {
          "indexed": false,
          "internalType": "uint256",
          "name": "value",
          "type": "uint256"
        },
        {
          "indexed": false,
          "internalType": "bool",
          "name": "revealed",
          "type": "bool"
        }
      ],
      "name": "BidRevealed",
      "type": "event"
    },
    {
      "anonymous": false,
      "inputs": [
        {
          "indexed": false,
          "internalType": "uint256",
          "name": "id",
          "type": "uint256"
        },
        {
          "indexed": true,
          "internalType": "string",
          "name": "name",
          "type": "string"
        },
        {
          "indexed": true,
          "internalType": "address",
          "name": "owner",
          "type": "address"
        }
      ],
      "name": "DomainRegistered",
      "type": "event"
    },
    {
      "anonymous": false,
      "inputs": [
        {
          "indexed": false,
          "internalType": "address",
          "name": "sender",
          "type": "address"
        },
        {
          "indexed": false,
          "internalType": "string",
          "name": "receiver",
          "type": "string"
        },
        {
          "indexed": false,
          "internalType": "uint256",
          "name": "amount",
          "type": "uint256"
        }
      ],
      "name": "SentToDomain",
      "type": "event"
    },
    {
      "anonymous": false,
      "inputs": [
        {
          "indexed": false,
          "internalType": "address",
          "name": "withdrawer",
          "type": "address"
        },
        {
          "indexed": false,
          "internalType": "string",
          "name": "name",
          "type": "string"
        },
        {
          "indexed": false,
          "internalType": "uint256",
          "name": "amount",
          "type": "uint256"
        }
      ],
      "name": "WithdrawnFromDomain",
      "type": "event"
    },
    {
      "inputs": [
        {
          "internalType": "address",
          "name": "",
          "type": "address"
        },
        {
          "internalType": "uint256",
          "name": "",
          "type": "uint256"
        }
      ],
      "name": "addrToDomainId",
      "outputs": [
        {
          "internalType": "uint256",
          "name": "",
          "type": "uint256"
        }
      ],
      "stateMutability": "view",
      "type": "function"
    },
    {
      "inputs": [
        {
          "internalType": "uint256",
          "name": "",
          "type": "uint256"
        }
      ],
      "name": "auctions",
      "outputs": [
        {
          "internalType": "uint256",
          "name": "biddingEnd",
          "type": "uint256"
        },
        {
          "internalType": "uint256",
          "name": "revealEnd",
          "type": "uint256"
        },
        {
          "internalType": "string",
          "name": "name",
          "type": "string"
        },
        {
          "internalType": "uint256",
          "name": "auctionId",
          "type": "uint256"
        },
        {
          "internalType": "uint256",
          "name": "highestBid",
          "type": "uint256"
        },
        {
          "internalType": "address",
          "name": "highestBidder",
          "type": "address"
        },
        {
          "internalType": "uint256",
          "name": "start",
          "type": "uint256"
        },
        {
          "internalType": "bool",
          "name": "ended",
          "type": "bool"
        }
      ],
      "stateMutability": "view",
      "type": "function"
    },
    {
      "inputs": [
        {
          "internalType": "bytes",
          "name": "bytecode",
          "type": "bytes"
        },
        {
          "internalType": "uint256",
          "name": "_salt",
          "type": "uint256"
        },
        {
          "internalType": "string",
          "name": "_name",
          "type": "string"
        }
      ],
      "name": "bid",
      "outputs": [],
      "stateMutability": "payable",
      "type": "function"
    },
    {
      "inputs": [
        {
          "internalType": "bytes",
          "name": "bytecode",
          "type": "bytes"
        },
        {
          "internalType": "uint256",
          "name": "salt",
          "type": "uint256"
        },
        {
          "internalType": "string",
          "name": "_name",
          "type": "string"
        }
      ],
      "name": "check",
      "outputs": [],
      "stateMutability": "nonpayable",
      "type": "function"
    },
    {
      "inputs": [],
      "name": "checkAuctionsToEnd",
      "outputs": [],
      "stateMutability": "nonpayable",
      "type": "function"
    },
    {
      "inputs": [
        {
          "internalType": "string",
          "name": "_name",
          "type": "string"
        }
      ],
      "name": "checkIfAuctionExists",
      "outputs": [
        {
          "internalType": "bool",
          "name": "",
          "type": "bool"
        }
      ],
      "stateMutability": "view",
      "type": "function"
    },
    {
      "inputs": [
        {
          "internalType": "uint256",
          "name": "",
          "type": "uint256"
        }
      ],
      "name": "domains",
      "outputs": [
        {
          "internalType": "string",
          "name": "domainName",
          "type": "string"
        },
        {
          "internalType": "address",
          "name": "owner",
          "type": "address"
        },
        {
          "internalType": "uint256",
          "name": "balance",
          "type": "uint256"
        },
        {
          "internalType": "uint256",
          "name": "value",
          "type": "uint256"
        }
      ],
      "stateMutability": "view",
      "type": "function"
    },
    {
      "inputs": [
        {
          "internalType": "string",
          "name": "_name",
          "type": "string"
        }
      ],
      "name": "endAuction",
      "outputs": [],
      "stateMutability": "nonpayable",
      "type": "function"
    },
    {
      "inputs": [
        {
          "internalType": "bytes",
          "name": "bytecode",
          "type": "bytes"
        },
        {
          "internalType": "uint256",
          "name": "_salt",
          "type": "uint256"
        }
      ],
      "name": "getAddress",
      "outputs": [
        {
          "internalType": "address",
          "name": "",
          "type": "address"
        }
      ],
      "stateMutability": "view",
      "type": "function"
    },
    {
      "inputs": [],
      "name": "getAllDomains",
      "outputs": [
        {
          "components": [
            {
              "internalType": "string",
              "name": "domainName",
              "type": "string"
            },
            {
              "internalType": "address",
              "name": "owner",
              "type": "address"
            },
            {
              "internalType": "uint256",
              "name": "balance",
              "type": "uint256"
            },
            {
              "internalType": "uint256",
              "name": "value",
              "type": "uint256"
            }
          ],
          "internalType": "struct IDns.EthDomain[]",
          "name": "",
          "type": "tuple[]"
        }
      ],
      "stateMutability": "view",
      "type": "function"
    },
    {
      "inputs": [],
      "name": "getAuctions",
      "outputs": [
        {
          "components": [
            {
              "internalType": "uint256",
              "name": "biddingEnd",
              "type": "uint256"
            },
            {
              "internalType": "uint256",
              "name": "revealEnd",
              "type": "uint256"
            },
            {
              "internalType": "string",
              "name": "name",
              "type": "string"
            },
            {
              "internalType": "uint256",
              "name": "auctionId",
              "type": "uint256"
            },
            {
              "internalType": "uint256",
              "name": "highestBid",
              "type": "uint256"
            },
            {
              "internalType": "address",
              "name": "highestBidder",
              "type": "address"
            },
            {
              "internalType": "uint256",
              "name": "start",
              "type": "uint256"
            },
            {
              "internalType": "bool",
              "name": "ended",
              "type": "bool"
            }
          ],
          "internalType": "struct IDns.Auction[]",
          "name": "",
          "type": "tuple[]"
        }
      ],
      "stateMutability": "view",
      "type": "function"
    },
    {
      "inputs": [],
      "name": "getBalance",
      "outputs": [
        {
          "internalType": "uint256",
          "name": "",
          "type": "uint256"
        }
      ],
      "stateMutability": "view",
      "type": "function"
    },
    {
      "inputs": [
        {
          "internalType": "address",
          "name": "_user",
          "type": "address"
        }
      ],
      "name": "getBiddings",
      "outputs": [
        {
          "components": [
            {
              "internalType": "string",
              "name": "name",
              "type": "string"
            },
            {
              "internalType": "address",
              "name": "bidder",
              "type": "address"
            },
            {
              "internalType": "bool",
              "name": "revealed",
              "type": "bool"
            },
            {
              "internalType": "uint256",
              "name": "revealedBid",
              "type": "uint256"
            },
            {
              "internalType": "uint256",
              "name": "start",
              "type": "uint256"
            },
            {
              "internalType": "uint256",
              "name": "revealEnd",
              "type": "uint256"
            },
            {
              "internalType": "uint256",
              "name": "end",
              "type": "uint256"
            }
          ],
          "internalType": "struct IDns.Bid[]",
          "name": "",
          "type": "tuple[]"
        }
      ],
      "stateMutability": "view",
      "type": "function"
    },
    {
      "inputs": [
        {
          "internalType": "address",
          "name": "_owner",
          "type": "address"
        },
        {
          "internalType": "string",
          "name": "_name",
          "type": "string"
        }
      ],
      "name": "getBytecode",
      "outputs": [
        {
          "internalType": "bytes",
          "name": "",
          "type": "bytes"
        }
      ],
      "stateMutability": "pure",
      "type": "function"
    },
    {
      "inputs": [
        {
          "internalType": "address",
          "name": "ownerAddress",
          "type": "address"
        }
      ],
      "name": "getDomains",
      "outputs": [
        {
          "components": [
            {
              "internalType": "string",
              "name": "domainName",
              "type": "string"
            },
            {
              "internalType": "address",
              "name": "owner",
              "type": "address"
            },
            {
              "internalType": "uint256",
              "name": "balance",
              "type": "uint256"
            },
            {
              "internalType": "uint256",
              "name": "value",
              "type": "uint256"
            }
          ],
          "internalType": "struct IDns.EthDomain[]",
          "name": "",
          "type": "tuple[]"
        }
      ],
      "stateMutability": "view",
      "type": "function"
    },
    {
      "inputs": [
        {
          "internalType": "string",
          "name": "",
          "type": "string"
        }
      ],
      "name": "nameToDomainId",
      "outputs": [
        {
          "internalType": "uint256",
          "name": "",
          "type": "uint256"
        }
      ],
      "stateMutability": "view",
      "type": "function"
    },
    {
      "inputs": [],
      "name": "owner",
      "outputs": [
        {
          "internalType": "address",
          "name": "",
          "type": "address"
        }
      ],
      "stateMutability": "view",
      "type": "function"
    },
    {
      "inputs": [
        {
          "internalType": "string",
          "name": "_name",
          "type": "string"
        },
        {
          "internalType": "address",
          "name": "_owner",
          "type": "address"
        },
        {
          "internalType": "uint256",
          "name": "_value",
          "type": "uint256"
        }
      ],
      "name": "registerName",
      "outputs": [],
      "stateMutability": "nonpayable",
      "type": "function"
    },
    {
      "inputs": [],
      "name": "registryName",
      "outputs": [
        {
          "internalType": "string",
          "name": "",
          "type": "string"
        }
      ],
      "stateMutability": "view",
      "type": "function"
    },
    {
      "inputs": [
        {
          "internalType": "string",
          "name": "_name",
          "type": "string"
        }
      ],
      "name": "resolveDomainName",
      "outputs": [
        {
          "internalType": "address",
          "name": "",
          "type": "address"
        }
      ],
      "stateMutability": "view",
      "type": "function"
    },
    {
      "inputs": [
        {
          "internalType": "string",
          "name": "_name",
          "type": "string"
        }
      ],
      "name": "sendDomain",
      "outputs": [],
      "stateMutability": "payable",
      "type": "function"
    },
    {
      "inputs": [
        {
          "internalType": "string",
          "name": "_name",
          "type": "string"
        },
        {
          "internalType": "uint256",
          "name": "_bidDuration",
          "type": "uint256"
        },
        {
          "internalType": "uint256",
          "name": "_revealDuration",
          "type": "uint256"
        }
      ],
      "name": "startAuction",
      "outputs": [],
      "stateMutability": "nonpayable",
      "type": "function"
    },
    {
      "inputs": [
        {
          "internalType": "string",
          "name": "_name",
          "type": "string"
        },
        {
          "internalType": "uint256",
          "name": "amount",
          "type": "uint256"
        }
      ],
      "name": "withdrawFrmDomain",
      "outputs": [],
      "stateMutability": "nonpayable",
      "type": "function"
    },
    {
      "stateMutability": "payable",
      "type": "receive"
    }
  ],
  "bytecode": "0x60806040523480156200001157600080fd5b5060016000556040805180820190915260148082527f4e545520646f6d61696e2072656769737472617200000000000000000000000060209092019182526200005d9160029162000132565b50600180546001600160a01b0319163317905560408051808201909152601d81527f4e545520646f6d61696e20726567697374726172206465706c6f796564000000602080830191909152620000bd9190620027cd620000c3821b17901c565b6200026b565b6200010e81604051602401620000da9190620001d8565b60408051601f198184030181529190526020810180516001600160e01b0390811663104c13eb60e21b179091526200011116565b50565b80516a636f6e736f6c652e6c6f67602083016000808483855afa5050505050565b82805462000140906200022e565b90600052602060002090601f016020900481019282620001645760008555620001af565b82601f106200017f57805160ff1916838001178555620001af565b82800160010185558215620001af579182015b82811115620001af57825182559160200191906001019062000192565b50620001bd929150620001c1565b5090565b5b80821115620001bd5760008155600101620001c2565b6000602080835283518082850152825b818110156200020657858101830151858201604001528201620001e8565b81811115620002185783604083870101525b50601f01601f1916929092016040019392505050565b600181811c908216806200024357607f821691505b602082108114156200026557634e487b7160e01b600052602260045260246000fd5b50919050565b613afb806200027b6000396000f3fe6080604052600436106200015f5760003560e01c80635a98374511620000c557806399726b10116200007857806399726b1014620004445780639bc83cfa1462000469578063c90d9b2a146200048e578063ce2ba9bf14620004a5578063d7c0691914620004ca578063e80d842c14620004f157600080fd5b80635a983745146200033157806366cf8fab14620003655780637cee8c67146200039c578063849582a414620003d85780638da5cb5b14620003fd57806394ca2cb5146200041f57600080fd5b80632ac63f99116200011e5780632ac63f991462000237578063340a2df8146200025c57806335ff502e14620002745780634f15aeb814620002aa578063571a26a014620002cf5780635a018e6a146200030a57600080fd5b80630369567f146200016c578063106aa90c146200018557806312065fe014620001bd5780631654d16914620001d25780632a7f0f3114620001f957600080fd5b366200016757005b600080fd5b620001836200017d36600462002d53565b62000516565b005b3480156200019257600080fd5b50620001aa620001a436600462002cdf565b6200076c565b6040519081526020015b60405180910390f35b348015620001ca57600080fd5b5047620001aa565b348015620001df57600080fd5b50620001ea6200079e565b604051620001b4919062003349565b3480156200020657600080fd5b506200021e6200021836600462002e41565b62000834565b6040516001600160a01b039091168152602001620001b4565b3480156200024457600080fd5b50620001836200025636600462002dc3565b6200087e565b3480156200026957600080fd5b506200018362000b57565b3480156200028157600080fd5b50620002996200029336600462002e41565b62000df2565b6040519015158152602001620001b4565b348015620002b757600080fd5b50620001ea620002c936600462002c8c565b62000e8f565b348015620002dc57600080fd5b50620002f4620002ee36600462002f57565b62000f09565b604051620001b49897969594939291906200341c565b3480156200031757600080fd5b506200032262000fe7565b604051620001b49190620032c0565b3480156200033e57600080fd5b50620003566200035036600462002c4e565b620011cb565b604051620001b4919062003217565b3480156200037257600080fd5b506200038a6200038436600462002f57565b62001466565b604051620001b49493929190620033b9565b348015620003a957600080fd5b50620001aa620003bb36600462002e41565b805160208183018101805160058252928201919093012091525481565b348015620003e557600080fd5b5062000183620003f736600462002d0d565b6200152a565b3480156200040a57600080fd5b506001546200021e906001600160a01b031681565b3480156200042c57600080fd5b506200021e6200043e36600462002d0d565b6200177b565b3480156200045157600080fd5b50620001836200046336600462002d53565b620017d7565b3480156200047657600080fd5b50620001836200048836600462002efa565b62001cf3565b620001836200049f36600462002e41565b62001e7b565b348015620004b257600080fd5b5062000183620004c436600462002e41565b62001fd1565b348015620004d757600080fd5b50620004e262002364565b604051620001b4919062003155565b348015620004fe57600080fd5b50620003226200051036600462002c4e565b62002591565b8060098160405162000529919062002ffa565b90815260200160405180910390205460001415620005875760405162461bcd60e51b8152602060048201526016602482015275185d58dd1a5bdb88191bd95cc81b9bdd08195e1a5cdd60521b60448201526064015b60405180910390fd5b813360005b6001600160a01b0382166000908152600c6020526040902054811015620006bd5782604051602001620005c0919062002ffa565b60405160208183030381529060405280519060200120600d6000600c6000866001600160a01b03166001600160a01b0316815260200190815260200160002084815481106200061f57634e487b7160e01b600052603260045260246000fd5b906000526020600020015481526020019081526020016000206000016040516020016200064d919062003018565b604051602081830303815290604052805190602001201415620006a85760405162461bcd60e51b815260206004820152601260248201527142696420616c72656164792065786973747360701b60448201526064016200057e565b80620006b48162003577565b9150506200058c565b5083600a6000600983604051620006d5919062002ffa565b90815260200160405180910390205481526020019081526020016000206000015442106200070257600080fd5b600086885160208a0134f59050803b6200071b57600080fd5b62000727338762002814565b7f92eb767245ca8829c6919f3fab91e97b9e2cc7f3e2f71ed25b74e5e23bffc6fe33876040516200075a929190620030bb565b60405180910390a15050505050505050565b600460205281600052604060002081815481106200078957600080fd5b90600052602060002001600091509150505481565b60028054620007ad906200353a565b80601f0160208091040260200160405190810160405280929190818152602001828054620007db906200353a565b80156200082c5780601f1062000800576101008083540402835291602001916200082c565b820191906000526020600020905b8154815290600101906020018083116200080e57829003601f168201915b505050505081565b6000600660006005846040516200084c919062002ffa565b90815260408051602092819003830190205483529082019290925201600020600101546001600160a01b031692915050565b600984846040516200089292919062002fea565b908152602001604051809103902054600014620008f25760405162461bcd60e51b815260206004820152601f60248201527f41756374696f6e20666f72207468697320616c7265616479206578697374730060448201526064016200057e565b600584846040516200090692919062002fea565b908152602001604051809103902054600014620009705760405162461bcd60e51b815260206004820152602160248201527f5468697320646f6d61696e206e616d6520697320616c7265616479206f776e656044820152601960fa1b60648201526084016200057e565b6200097f600880546001019055565b600060405180610100016040528084426200099b9190620034d2565b815260200183620009ad8642620034d2565b620009b99190620034d2565b815260200186868080601f01602080910402602001604051908101604052809392919081815260200183838082843760009201919091525050509082525060200162000a0460085490565b815260006020820181905260408201819052426060830152608090910152905062000a2e60085490565b6009868660405162000a4292919062002fea565b9081526040519081900360200190205562000a6662000a6060085490565b62002a10565b80600a600062000a7560085490565b81526020019081526020016000206000820151816000015560208201518160010155604082015181600201908051906020019062000ab592919062002b43565b50606082015160038201556080820151600482015560a08201516005820180546001600160a01b0319166001600160a01b0390921691909117905560c0820151600682015560e0909101516007909101805460ff19169115159190911790556040517f50aa32fed87143a12f31f64ad9199a4cdc7b35635008b92f753d4c66dafdb4239062000b4890879087906200335e565b60405180910390a15050505050565b60085462000b9e5760405162461bcd60e51b8152602060048201526013602482015272139bc8185d58dd1a5bdb9cc818dc99585d1959606a1b60448201526064016200057e565b62000bac62000a6060085490565b60015b600854811162000def576000818152600a602052604090206001015442108062000bea57506000818152600a602052604090206007015460ff165b1562000cdd5762000cd76040518060400160405280601d81526020017f636f6e74696e75696e6720666f7220746869732061756374696f6e3a20000000815250600a6000848152602001908152602001600020600201805462000c4d906200353a565b80601f016020809104026020016040519081016040528092919081815260200182805462000c7b906200353a565b801562000ccc5780601f1062000ca05761010080835404028352916020019162000ccc565b820191906000526020600020905b81548152906001019060200180831162000cae57829003601f168201915b505050505062002a58565b62000dda565b62000d2c6040518060400160405280600f81526020016e032b73234b7339030bab1ba34b7b71608d1b815250600a6000848152602001908152602001600020600201805462000c4d906200353a565b6000818152600a60205260409020600201805462000dda919062000d50906200353a565b80601f016020809104026020016040519081016040528092919081815260200182805462000d7e906200353a565b801562000dcf5780601f1062000da35761010080835404028352916020019162000dcf565b820191906000526020600020905b81548152906001019060200180831162000db157829003601f168201915b505050505062001fd1565b8062000de68162003577565b91505062000baf565b50565b600060015b600854811162000e86578260405160200162000e14919062002ffa565b60408051601f1981840301815282825280516020918201206000858152600a835292909220919262000e4b92600201910162003018565b60405160208183030381529060405280519060200120141562000e715750600192915050565b8062000e7d8162003577565b91505062000df7565b50600092915050565b606060006040518060200162000ea59062002bd2565b6020820181038252601f19601f82011660405250905080848460405160200162000ed1929190620030bb565b60408051601f198184030181529082905262000ef1929160200162002fb7565b60405160208183030381529060405291505092915050565b600a602052600090815260409020805460018201546002830180549293919262000f33906200353a565b80601f016020809104026020016040519081016040528092919081815260200182805462000f61906200353a565b801562000fb25780601f1062000f865761010080835404028352916020019162000fb2565b820191906000526020600020905b81548152906001019060200180831162000f9457829003601f168201915b5050506003840154600485015460058601546006870154600790970154959692959194506001600160a01b0316925060ff1688565b6060600062000ff560035490565b6001600160401b038111156200101b57634e487b7160e01b600052604160045260246000fd5b6040519080825280602002602001820160405280156200108357816020015b6200106f60405180608001604052806060815260200160006001600160a01b0316815260200160008152602001600081525090565b8152602001906001900390816200103a5790505b509050600060015b6003548111620011c35760008181526006602052604090819020815160808101909252805482908290620010bf906200353a565b80601f0160208091040260200160405190810160405280929190818152602001828054620010ed906200353a565b80156200113e5780601f1062001112576101008083540402835291602001916200113e565b820191906000526020600020905b8154815290600101906020018083116200112057829003601f168201915b505050918352505060018201546001600160a01b031660208201526002820154604082015260039091015460609091015283518490849081106200119257634e487b7160e01b600052603260045260246000fd5b60200260200101819052508180620011aa9062003577565b9250508080620011ba9062003577565b9150506200108b565b509092915050565b6001600160a01b0381166000908152600c602090815260408083208054825181850281018501909352808352606094938301828280156200122c57602002820191906000526020600020905b81548152602001906001019080831162001217575b50505050509050600081516001600160401b038111156200125d57634e487b7160e01b600052604160045260246000fd5b604051908082528060200260200182016040528015620012dc57816020015b620012c86040518060e001604052806060815260200160006001600160a01b03168152602001600015158152602001600081526020016000815260200160008152602001600081525090565b8152602001906001900390816200127c5790505b50905060005b82518110156200145e57600d60008483815181106200131157634e487b7160e01b600052603260045260246000fd5b602002602001015181526020019081526020016000206040518060e001604052908160008201805462001344906200353a565b80601f016020809104026020016040519081016040528092919081815260200182805462001372906200353a565b8015620013c35780601f106200139757610100808354040283529160200191620013c3565b820191906000526020600020905b815481529060010190602001808311620013a557829003601f168201915b505050918352505060018201546001600160a01b0381166020830152600160a01b900460ff16151560408201526002820154606082015260038201546080820152600482015460a082015260059091015460c09091015282518390839081106200143d57634e487b7160e01b600052603260045260246000fd5b60200260200101819052508080620014559062003577565b915050620012e2565b509392505050565b60066020526000908152604090208054819062001483906200353a565b80601f0160208091040260200160405190810160405280929190818152602001828054620014b1906200353a565b8015620015025780601f10620014d65761010080835404028352916020019162001502565b820191906000526020600020905b815481529060010190602001808311620014e457829003601f168201915b505050506001830154600284015460039094015492936001600160a01b039091169290915084565b600260005414156200157f5760405162461bcd60e51b815260206004820152601f60248201527f5265656e7472616e637947756172643a207265656e7472616e742063616c6c0060448201526064016200057e565b60026000556040516005906200159790849062002ffa565b90815260200160405180910390205460001415620015f85760405162461bcd60e51b815260206004820152601a60248201527f446f6d61696e206e616d6520646f6573206e6f7420657869737400000000000060448201526064016200057e565b60006006600060058560405162001610919062002ffa565b9081526040805160209281900383019020548352908201929092520160002060018101549091506001600160a01b03163314620016905760405162461bcd60e51b815260206004820152601a60248201527f596f7520646f206e6f74206f776e2074686573652066756e647300000000000060448201526064016200057e565b8060020154821115620016db5760405162461bcd60e51b8152602060048201526012602482015271496e73756666696369656e742066756e647360701b60448201526064016200057e565b81816002016000828254620016f19190620034ed565b909155505060018101546040516001600160a01b039091169083156108fc029084906000818181858888f1935050505015801562001733573d6000803e3d6000fd5b507f8b3d8607c1533d2542b181683b1c34dcfa150181c12dc81c1d3e801d5d06813e3384846040516200176993929190620030e1565b60405180910390a15050600160005550565b8151602092830120604080516001600160f81b0319818601523060601b6bffffffffffffffffffffffff191660218201526035810193909352605580840192909252805180840390920182526075909201909152805191012090565b80600a6000600983604051620017ee919062002ffa565b9081526020016040518091039020548152602001908152602001600020600001544210156200181c57600080fd5b81600a600060098360405162001833919062002ffa565b90815260200160405180910390205481526020019081526020016000206001015442106200186057600080fd5b600080600b8560405162001875919062002ffa565b9081526040805191829003602090810183208054808302850183019093528284529190830182828015620018c957602002820191906000526020600020905b815481526020019060010190808311620018b4575b505050505090506000620018de88886200177b565b905060008190506000816001600160a01b031663f496d8826040518163ffffffff1660e01b815260040160206040518083038186803b1580156200192157600080fd5b505afa15801562001936573d6000803e3d6000fd5b505050506040513d601f19601f820116820180604052508101906200195c919062002c6d565b90506000826001600160a01b03166306fdde036040518163ffffffff1660e01b815260040160006040518083038186803b1580156200199a57600080fd5b505afa158015620019af573d6000803e3d6000fd5b505050506040513d6000823e601f3d908101601f19168201604052620019d9919081019062002e7f565b90506000836001600160a01b03166312065fe06040518163ffffffff1660e01b815260040160206040518083038186803b15801562001a1757600080fd5b505afa15801562001a2c573d6000803e3d6000fd5b505050506040513d601f19601f8201168201806040525081019062001a52919062002f70565b90506001600160a01b038316331462001aa85760405162461bcd60e51b815260206004820152601760248201527611985a5b1959081d1bc81d995c9a599e4818dbdb5b5a5d604a1b60448201526064016200057e565b8960405160200162001abb919062002ffa565b604051602081830303815290604052805190602001208260405160200162001ae4919062002ffa565b604051602081830303815290604052805190602001201462001b435760405162461bcd60e51b815260206004820152601760248201527611985a5b1959081d1bc81d995c9a599e4818dbdb5b5a5d604a1b60448201526064016200057e565b60005b865181101562001ce457336001600160a01b0316600d600089848151811062001b7f57634e487b7160e01b600052603260045260246000fd5b6020908102919091018101518252810191909152604001600020600101546001600160a01b0316141562001ccf57600d600088838151811062001bd257634e487b7160e01b600052603260045260246000fd5b60200260200101518152602001908152602001600020975060018860010160146101000a81548160ff021916908315150217905550818860020181905550846001600160a01b0316633ccfd60b6040518163ffffffff1660e01b8152600401600060405180830381600087803b15801562001c4c57600080fd5b505af115801562001c61573d6000803e3d6000fd5b5050505062001c768b338a6002015462002aa5565b50600288015460018901546040517fe7b9400614ae8d3fb96a8ed036e790d12c0466fe2df292c92a44c602bb1c20d59262001cc1928892889291600160a01b900460ff169062003117565b60405180910390a162001ce4565b8062001cdb8162003577565b91505062001b46565b50505050505050505050505050565b8260058160405162001d06919062002ffa565b90815260200160405180910390205460001462001d2257600080fd5b62001d31600380546001019055565b604080516080810182528581526001600160a01b038516602080830182905260008385018190526060840187905291825260049052919091206003548154600181018355600092835260209092209091015560035460058660405162001d98919062002ffa565b90815260405190819003602001902055806006600062001db760035490565b815260208082019290925260400160002082518051919262001ddf9284929091019062002b43565b5060208201516001820180546001600160a01b0319166001600160a01b03928316179055604080840151600284015560609093015160039092019190915590519085169062001e3090879062002ffa565b60405180910390207fc78b0baeb481012ee495f6c7c720a835617068842b0e0131f4e4bb4a8f7e9cdd62001e6360035490565b60405190815260200160405180910390a35050505050565b3362001eca5760405162461bcd60e51b815260206004820152601e60248201527f5472616e736665722066726f6d20746865207a65726f2061646472657373000060448201526064016200057e565b60058160405162001edc919062002ffa565b9081526020016040518091039020546000141562001f3d5760405162461bcd60e51b815260206004820152601a60248201527f446f6d61696e206e616d6520646f6573206e6f7420657869737400000000000060448201526064016200057e565b60006006600060058460405162001f55919062002ffa565b908152602001604051809103902054815260200190815260200160002090503481600201600082825462001f8a9190620034d2565b90915550506040517f4d8625a4c0218499d61251f3c70b223f1810c4c5d8eb24f4c5a6a39f4d045eea9062001fc590339085903490620030e1565b60405180910390a15050565b6000600a600060098460405162001fe9919062002ffa565b908152602001604051809103902054815260200190815260200160002090506000600b836040516200201c919062002ffa565b90815260408051918290036020908101832080548083028501830190935282845291908301828280156200207057602002820191906000526020600020905b8154815260200190600101908083116200205b575b5050505050905060005b81518110156200235157600d6000838381518110620020a957634e487b7160e01b600052603260045260246000fd5b602090810291909101810151825281019190915260400160002060010154600160a01b900460ff16620020dc576200233c565b600583015482516001600160a01b0390911690600d906000908590859081106200211657634e487b7160e01b600052603260045260246000fd5b6020908102919091018101518252810191909152604001600020600101546001600160a01b0316146200221357600d60008383815181106200216857634e487b7160e01b600052603260045260246000fd5b6020026020010151815260200190815260200160002060010160009054906101000a90046001600160a01b03166001600160a01b03166108fc600d6000858581518110620021c657634e487b7160e01b600052603260045260246000fd5b60200260200101518152602001908152602001600020600201549081150290604051600060405180830381858888f193505050501580156200220c573d6000803e3d6000fd5b506200233c565b620022af84600d60008585815181106200223d57634e487b7160e01b600052603260045260246000fd5b6020026020010151815260200190815260200160002060010160009054906101000a90046001600160a01b0316600d60008686815181106200228f57634e487b7160e01b600052603260045260246000fd5b602002602001015181526020019081526020016000206002015462001cf3565b7fde7e436f28139dd5690061445b009a314e2687b635f90fdf47ae2bf8d4e6c21584600d6000858581518110620022f657634e487b7160e01b600052603260045260246000fd5b6020026020010151815260200190815260200160002060010160009054906101000a90046001600160a01b0316604051620023339291906200338d565b60405180910390a15b80620023488162003577565b9150506200207a565b5050600701805460ff1916600117905550565b606060006200237260085490565b6001600160401b038111156200239857634e487b7160e01b600052604160045260246000fd5b6040519080825280602002602001820160405280156200241f57816020015b6200240b604051806101000160405280600081526020016000815260200160608152602001600081526020016000815260200160006001600160a01b03168152602001600081526020016000151581525090565b815260200190600190039081620023b75790505b509050600060015b6008548111620011c357600a600082815260200190815260200160002060405180610100016040529081600082015481526020016001820154815260200160028201805462002476906200353a565b80601f0160208091040260200160405190810160405280929190818152602001828054620024a4906200353a565b8015620024f55780601f10620024c957610100808354040283529160200191620024f5565b820191906000526020600020905b815481529060010190602001808311620024d757829003601f168201915b5050509183525050600382015460208201526004820154604082015260058201546001600160a01b031660608201526006820154608082015260079091015460ff16151560a09091015283518490849081106200256257634e487b7160e01b600052603260045260246000fd5b60209081029190910101526200257a600183620034d2565b915080620025888162003577565b91505062002427565b6001600160a01b0381166000908152600460205260408120546060919081906001600160401b03811115620025d657634e487b7160e01b600052604160045260246000fd5b6040519080825280602002602001820160405280156200263e57816020015b6200262a60405180608001604052806060815260200160006001600160a01b0316815260200160008152602001600081525090565b815260200190600190039081620025f55790505b50905060005b6001600160a01b0385166000908152600460205260409020548110156200145e576001600160a01b03851660009081526004602052604081208054600692919084908110620026a357634e487b7160e01b600052603260045260246000fd5b90600052602060002001548152602001908152602001600020604051806080016040529081600082018054620026d9906200353a565b80601f016020809104026020016040519081016040528092919081815260200182805462002707906200353a565b8015620027585780601f106200272c5761010080835404028352916020019162002758565b820191906000526020600020905b8154815290600101906020018083116200273a57829003601f168201915b505050918352505060018201546001600160a01b03166020820152600282015460408201526003909101546060909101528251839085908110620027ac57634e487b7160e01b600052603260045260246000fd5b60200260200101819052508080620027c49062003577565b91505062002644565b62000def81604051602401620027e4919062003349565b60408051601f198184030181529190526020810180516001600160e01b031663104c13eb60e21b17905262002b22565b62002823600780546001019055565b6040518060e00160405280828152602001836001600160a01b0316815260200160001515815260200160008152602001600a600060098560405162002869919062002ffa565b9081526020016040518091039020548152602001908152602001600020600601548152602001600a6000600985604051620028a5919062002ffa565b9081526020016040518091039020548152602001908152602001600020600001548152602001600a6000600985604051620028e1919062002ffa565b908152602001604051809103902054815260200190815260200160002060010154815250600d60006200291360075490565b81526020808201929092526040016000208251805191926200293b9284929091019062002b43565b5060208201516001820180546040808601511515600160a01b026001600160a81b03199092166001600160a01b0390941693909317179055606083015160028301556080830151600383015560a0830151600483015560c09092015160059091015551600b90620029ae90839062002ffa565b9081526020016040518091039020620029c660075490565b815460018101835560009283526020808420909101919091556001600160a01b0384168252600c905260409020600754815460018101835560009283526020909220909101555050565b62000def8160405160240162002a2891815260200190565b60408051601f198184030181529190526020810180516001600160e01b031663f82c50f160e01b17905262002b22565b62002aa1828260405160240162002a71929190620033f3565b60408051601f198184030181529190526020810180516001600160e01b0316634b5c427760e01b17905262002b22565b5050565b600080600a600060098760405162002abe919062002ffa565b908152602001604051809103902054815260200190815260200160002090508060040154831162002af457600091505062002b1b565b6004810183905560050180546001600160a01b0319166001600160a01b0385161790555060015b9392505050565b80516a636f6e736f6c652e6c6f67602083016000808483855afa5050505050565b82805462002b51906200353a565b90600052602060002090601f01602090048101928262002b75576000855562002bc0565b82601f1062002b9057805160ff191683800117855562002bc0565b8280016001018555821562002bc0579182015b8281111562002bc057825182559160200191906001019062002ba3565b5062002bce92915062002be0565b5090565b6104ee80620035d883390190565b5b8082111562002bce576000815560010162002be1565b600082601f83011262002c08578081fd5b813562002c1f62002c1982620034a8565b62003475565b81815284602083860101111562002c34578283fd5b816020850160208301379081016020019190915292915050565b60006020828403121562002c60578081fd5b813562002b1b81620035c1565b60006020828403121562002c7f578081fd5b815162002b1b81620035c1565b6000806040838503121562002c9f578081fd5b823562002cac81620035c1565b915060208301356001600160401b0381111562002cc7578182fd5b62002cd58582860162002bf7565b9150509250929050565b6000806040838503121562002cf2578182fd5b823562002cff81620035c1565b946020939093013593505050565b6000806040838503121562002d20578182fd5b82356001600160401b0381111562002d36578283fd5b62002d448582860162002bf7565b95602094909401359450505050565b60008060006060848603121562002d68578081fd5b83356001600160401b038082111562002d7f578283fd5b62002d8d8783880162002bf7565b945060208601359350604086013591508082111562002daa578283fd5b5062002db98682870162002bf7565b9150509250925092565b6000806000806060858703121562002dd9578081fd5b84356001600160401b038082111562002df0578283fd5b818701915087601f83011262002e04578283fd5b81358181111562002e13578384fd5b88602082850101111562002e25578384fd5b6020928301999098509187013596604001359550909350505050565b60006020828403121562002e53578081fd5b81356001600160401b0381111562002e69578182fd5b62002e778482850162002bf7565b949350505050565b60006020828403121562002e91578081fd5b81516001600160401b0381111562002ea7578182fd5b8201601f8101841362002eb8578182fd5b805162002ec962002c1982620034a8565b81815285602083850101111562002ede578384fd5b62002ef182602083016020860162003507565b95945050505050565b60008060006060848603121562002f0f578283fd5b83356001600160401b0381111562002f25578384fd5b62002f338682870162002bf7565b935050602084013562002f4681620035c1565b929592945050506040919091013590565b60006020828403121562002f69578081fd5b5035919050565b60006020828403121562002f82578081fd5b5051919050565b6000815180845262002fa381602086016020860162003507565b601f01601f19169290920160200192915050565b6000835162002fcb81846020880162003507565b83519083019062002fe181836020880162003507565b01949350505050565b8183823760009101908152919050565b600082516200300e81846020870162003507565b9190910192915050565b600080835482600182811c9150808316806200303557607f831692505b60208084108214156200305657634e487b7160e01b87526022600452602487fd5b8180156200306d57600181146200307f57620030ad565b60ff19861689528489019650620030ad565b60008a815260209020885b86811015620030a55781548b8201529085019083016200308a565b505084890196505b509498975050505050505050565b6001600160a01b038316815260406020820181905260009062002e779083018462002f89565b6001600160a01b0384168152606060208201819052600090620031079083018562002f89565b9050826040830152949350505050565b6001600160a01b03851681526080602082018190526000906200313d9083018662002f89565b60408301949094525090151560609091015292915050565b60006020808301818452808551808352604092508286019150828160051b870101848801865b838110156200320957603f198984030185528151610100815185528882015189860152878201518189870152620031b58287018262002f89565b606084810151908801526080808501519088015260a0808501516001600160a01b03169088015260c0808501519088015260e09384015115159390960192909252505093860193908601906001016200317b565b509098975050505050505050565b60006020808301818452808551808352604092508286019150828160051b870101848801865b838110156200320957603f19898403018552815160e08151818652620032668287018262002f89565b838b01516001600160a01b0316878c01528984015115158a880152606080850151908801526080808501519088015260a0848101519088015260c0938401519390960192909252505093860193908601906001016200323d565b60006020808301818452808551808352604092508286019150828160051b870101848801865b838110156200320957603f198984030185528151608081518186526200330f8287018262002f89565b838b01516001600160a01b0316878c0152898401518a880152606093840151939096019290925250509386019390860190600101620032e6565b60208152600062002b1b602083018462002f89565b60208152816020820152818360408301376000818301604090810191909152601f909201601f19160101919050565b604081526000620033a2604083018562002f89565b905060018060a01b03831660208301529392505050565b608081526000620033ce608083018762002f89565b6001600160a01b03959095166020830152506040810192909252606090910152919050565b60408152600062003408604083018562002f89565b828103602084015262002ef1818562002f89565b60006101008a83528960208401528060408401526200343e8184018a62002f89565b6060840198909852505060808101949094526001600160a01b039290921660a084015260c0830152151560e0909101529392505050565b604051601f8201601f191681016001600160401b0381118282101715620034a057620034a0620035ab565b604052919050565b60006001600160401b03821115620034c457620034c4620035ab565b50601f01601f191660200190565b60008219821115620034e857620034e862003595565b500190565b60008282101562003502576200350262003595565b500390565b60005b83811015620035245781810151838201526020016200350a565b8381111562003534576000848401525b50505050565b600181811c908216806200354f57607f821691505b602082108114156200357157634e487b7160e01b600052602260045260246000fd5b50919050565b60006000198214156200358e576200358e62003595565b5060010190565b634e487b7160e01b600052601160045260246000fd5b634e487b7160e01b600052604160045260246000fd5b6001600160a01b038116811462000def57600080fdfe60806040526040516104ee3803806104ee833981016040819052610022916100f1565b600080546001600160a01b0319166001600160a01b0384161790558051610050906001906020840190610058565b50505061022d565b828054610064906101dc565b90600052602060002090601f01602090048101928261008657600085556100cc565b82601f1061009f57805160ff19168380011785556100cc565b828001600101855582156100cc579182015b828111156100cc5782518255916020019190600101906100b1565b506100d89291506100dc565b5090565b5b808211156100d857600081556001016100dd565b60008060408385031215610103578182fd5b82516001600160a01b0381168114610119578283fd5b602084810151919350906001600160401b0380821115610137578384fd5b818601915086601f83011261014a578384fd5b81518181111561015c5761015c610217565b604051601f8201601f19908116603f0116810190838211818310171561018457610184610217565b81604052828152898684870101111561019b578687fd5b8693505b828410156101bc578484018601518185018701529285019261019f565b828411156101cc57868684830101525b8096505050505050509250929050565b600181811c908216806101f057607f821691505b6020821081141561021157634e487b7160e01b600052602260045260246000fd5b50919050565b634e487b7160e01b600052604160045260246000fd5b6102b28061023c6000396000f3fe608060405234801561001057600080fd5b506004361061004c5760003560e01c806306fdde031461005157806312065fe01461006f5780633ccfd60b1461007d578063f496d88214610087575b600080fd5b6100596100b2565b60405161006691906101ee565b60405180910390f35b604051478152602001610066565b610085610140565b005b60005461009a906001600160a01b031681565b6040516001600160a01b039091168152602001610066565b600180546100bf90610241565b80601f01602080910402602001604051908101604052809291908181526020018280546100eb90610241565b80156101385780601f1061010d57610100808354040283529160200191610138565b820191906000526020600020905b81548152906001019060200180831161011b57829003601f168201915b505050505081565b604051600090339047908381818185875af1925050503d8060008114610182576040519150601f19603f3d011682016040523d82523d6000602084013e610187565b606091505b50509050806101eb5760405162461bcd60e51b815260206004820152602660248201527f4661696c656420746f2073656e64204574686572206261636b20746f207468656044820152651037bbb732b960d11b606482015260840160405180910390fd5b50565b6000602080835283518082850152825b8181101561021a578581018301518582016040015282016101fe565b8181111561022b5783604083870101525b50601f01601f1916929092016040019392505050565b600181811c9082168061025557607f821691505b6020821081141561027657634e487b7160e01b600052602260045260246000fd5b5091905056fea2646970667358221220d0f65cf5dbd1f6019ada0b3b3c5a1625e8e8a10c748e5ece3956ed23e2bf8f3164736f6c63430008040033a26469706673582212200972d53a822ae22e5096086f9de95c33488516cfdc43cd0e303481bd51a3118e64736f6c63430008040033",
  "linkReferences": {},
  "deployedLinkReferences": {}
}