{
  "_format": "hh-sol-artifact-1",
  "contractName": "Dns",
  "sourceName": "contracts/Dns.sol",
  "abi": [
    {
      "inputs": [],
      "stateMutability": "nonpayable",
      "type": "constructor"
    },
    {
      "anonymous": false,
      "inputs": [
        {
          "indexed": false,
          "internalType": "string",
          "name": "name",
          "type": "string"
        },
        {
          "indexed": false,
          "internalType": "address",
          "name": "winner",
          "type": "address"
        }
      ],
      "name": "AuctionEnded",
      "type": "event"
    },
    {
      "anonymous": false,
      "inputs": [
        {
          "indexed": false,
          "internalType": "string",
          "name": "name",
          "type": "string"
        }
      ],
      "name": "AuctionStarted",
      "type": "event"
    },
    {
      "anonymous": false,
      "inputs": [
        {
          "indexed": false,
          "internalType": "address",
          "name": "bidder",
          "type": "address"
        },
        {
          "indexed": false,
          "internalType": "string",
          "name": "name",
          "type": "string"
        }
      ],
      "name": "BidMade",
      "type": "event"
    },
    {
      "anonymous": false,
      "inputs": [
        {
          "indexed": false,
          "internalType": "address",
          "name": "bidder",
          "type": "address"
        },
        {
          "indexed": false,
          "internalType": "string",
          "name": "name",
          "type": "string"
        },
        {
          "indexed": false,
          "internalType": "uint256",
          "name": "value",
          "type": "uint256"
        },
        {
          "indexed": false,
          "internalType": "bool",
          "name": "revealed",
          "type": "bool"
        }
      ],
      "name": "BidRevealed",
      "type": "event"
    },
    {
      "anonymous": false,
      "inputs": [
        {
          "indexed": false,
          "internalType": "uint256",
          "name": "id",
          "type": "uint256"
        },
        {
          "indexed": true,
          "internalType": "string",
          "name": "name",
          "type": "string"
        },
        {
          "indexed": true,
          "internalType": "address",
          "name": "owner",
          "type": "address"
        }
      ],
      "name": "DomainRegistered",
      "type": "event"
    },
    {
      "anonymous": false,
      "inputs": [
        {
          "indexed": false,
          "internalType": "address",
          "name": "sender",
          "type": "address"
        },
        {
          "indexed": false,
          "internalType": "string",
          "name": "receiver",
          "type": "string"
        },
        {
          "indexed": false,
          "internalType": "uint256",
          "name": "amount",
          "type": "uint256"
        }
      ],
      "name": "SentToDomain",
      "type": "event"
    },
    {
      "anonymous": false,
      "inputs": [
        {
          "indexed": false,
          "internalType": "address",
          "name": "withdrawer",
          "type": "address"
        },
        {
          "indexed": false,
          "internalType": "string",
          "name": "name",
          "type": "string"
        },
        {
          "indexed": false,
          "internalType": "uint256",
          "name": "amount",
          "type": "uint256"
        }
      ],
      "name": "WithdrawnFromDomain",
      "type": "event"
    },
    {
      "inputs": [
        {
          "internalType": "address",
          "name": "",
          "type": "address"
        },
        {
          "internalType": "uint256",
          "name": "",
          "type": "uint256"
        }
      ],
      "name": "addrToDomainId",
      "outputs": [
        {
          "internalType": "uint256",
          "name": "",
          "type": "uint256"
        }
      ],
      "stateMutability": "view",
      "type": "function"
    },
    {
      "inputs": [
        {
          "internalType": "uint256",
          "name": "",
          "type": "uint256"
        }
      ],
      "name": "auctions",
      "outputs": [
        {
          "internalType": "uint256",
          "name": "biddingEnd",
          "type": "uint256"
        },
        {
          "internalType": "uint256",
          "name": "revealEnd",
          "type": "uint256"
        },
        {
          "internalType": "string",
          "name": "name",
          "type": "string"
        },
        {
          "internalType": "uint256",
          "name": "auctionId",
          "type": "uint256"
        },
        {
          "internalType": "uint256",
          "name": "highestBid",
          "type": "uint256"
        },
        {
          "internalType": "address",
          "name": "highestBidder",
          "type": "address"
        },
        {
          "internalType": "uint256",
          "name": "start",
          "type": "uint256"
        },
        {
          "internalType": "uint256",
          "name": "end",
          "type": "uint256"
        }
      ],
      "stateMutability": "view",
      "type": "function"
    },
    {
      "inputs": [
        {
          "internalType": "bytes",
          "name": "bytecode",
          "type": "bytes"
        },
        {
          "internalType": "uint256",
          "name": "_salt",
          "type": "uint256"
        },
        {
          "internalType": "string",
          "name": "_name",
          "type": "string"
        }
      ],
      "name": "bid",
      "outputs": [],
      "stateMutability": "payable",
      "type": "function"
    },
    {
      "inputs": [
        {
          "internalType": "bytes",
          "name": "bytecode",
          "type": "bytes"
        },
        {
          "internalType": "uint256",
          "name": "salt",
          "type": "uint256"
        },
        {
          "internalType": "string",
          "name": "_name",
          "type": "string"
        }
      ],
      "name": "check",
      "outputs": [],
      "stateMutability": "nonpayable",
      "type": "function"
    },
    {
      "inputs": [
        {
          "internalType": "string",
          "name": "_name",
          "type": "string"
        }
      ],
      "name": "checkIfAuctionExists",
      "outputs": [
        {
          "internalType": "bool",
          "name": "",
          "type": "bool"
        }
      ],
      "stateMutability": "view",
      "type": "function"
    },
    {
      "inputs": [
        {
          "internalType": "uint256",
          "name": "",
          "type": "uint256"
        }
      ],
      "name": "domains",
      "outputs": [
        {
          "internalType": "string",
          "name": "domainName",
          "type": "string"
        },
        {
          "internalType": "address",
          "name": "owner",
          "type": "address"
        },
        {
          "internalType": "uint256",
          "name": "balance",
          "type": "uint256"
        },
        {
          "internalType": "uint256",
          "name": "value",
          "type": "uint256"
        }
      ],
      "stateMutability": "view",
      "type": "function"
    },
    {
      "inputs": [
        {
          "internalType": "string",
          "name": "_name",
          "type": "string"
        }
      ],
      "name": "endAuction",
      "outputs": [],
      "stateMutability": "nonpayable",
      "type": "function"
    },
    {
      "inputs": [
        {
          "internalType": "bytes",
          "name": "bytecode",
          "type": "bytes"
        },
        {
          "internalType": "uint256",
          "name": "_salt",
          "type": "uint256"
        }
      ],
      "name": "getAddress",
      "outputs": [
        {
          "internalType": "address",
          "name": "",
          "type": "address"
        }
      ],
      "stateMutability": "view",
      "type": "function"
    },
    {
      "inputs": [],
      "name": "getAuctions",
      "outputs": [
        {
          "components": [
            {
              "internalType": "uint256",
              "name": "biddingEnd",
              "type": "uint256"
            },
            {
              "internalType": "uint256",
              "name": "revealEnd",
              "type": "uint256"
            },
            {
              "internalType": "string",
              "name": "name",
              "type": "string"
            },
            {
              "internalType": "uint256",
              "name": "auctionId",
              "type": "uint256"
            },
            {
              "internalType": "uint256",
              "name": "highestBid",
              "type": "uint256"
            },
            {
              "internalType": "address",
              "name": "highestBidder",
              "type": "address"
            },
            {
              "internalType": "uint256",
              "name": "start",
              "type": "uint256"
            },
            {
              "internalType": "uint256",
              "name": "end",
              "type": "uint256"
            }
          ],
          "internalType": "struct IDns.Auction[]",
          "name": "",
          "type": "tuple[]"
        }
      ],
      "stateMutability": "view",
      "type": "function"
    },
    {
      "inputs": [],
      "name": "getBalance",
      "outputs": [
        {
          "internalType": "uint256",
          "name": "",
          "type": "uint256"
        }
      ],
      "stateMutability": "view",
      "type": "function"
    },
    {
      "inputs": [
        {
          "internalType": "address",
          "name": "_user",
          "type": "address"
        }
      ],
      "name": "getBiddings",
      "outputs": [
        {
          "components": [
            {
              "internalType": "string",
              "name": "name",
              "type": "string"
            },
            {
              "internalType": "address",
              "name": "bidder",
              "type": "address"
            },
            {
              "internalType": "bool",
              "name": "revealed",
              "type": "bool"
            },
            {
              "internalType": "uint256",
              "name": "revealedBid",
              "type": "uint256"
            },
            {
              "internalType": "uint256",
              "name": "start",
              "type": "uint256"
            },
            {
              "internalType": "uint256",
              "name": "end",
              "type": "uint256"
            }
          ],
          "internalType": "struct IDns.Bid[]",
          "name": "",
          "type": "tuple[]"
        }
      ],
      "stateMutability": "view",
      "type": "function"
    },
    {
      "inputs": [
        {
          "internalType": "address",
          "name": "_owner",
          "type": "address"
        },
        {
          "internalType": "string",
          "name": "_name",
          "type": "string"
        }
      ],
      "name": "getBytecode",
      "outputs": [
        {
          "internalType": "bytes",
          "name": "",
          "type": "bytes"
        }
      ],
      "stateMutability": "pure",
      "type": "function"
    },
    {
      "inputs": [
        {
          "internalType": "address",
          "name": "ownerAddress",
          "type": "address"
        }
      ],
      "name": "getDomains",
      "outputs": [
        {
          "components": [
            {
              "internalType": "string",
              "name": "domainName",
              "type": "string"
            },
            {
              "internalType": "address",
              "name": "owner",
              "type": "address"
            },
            {
              "internalType": "uint256",
              "name": "balance",
              "type": "uint256"
            },
            {
              "internalType": "uint256",
              "name": "value",
              "type": "uint256"
            }
          ],
          "internalType": "struct IDns.EthDomain[]",
          "name": "",
          "type": "tuple[]"
        }
      ],
      "stateMutability": "view",
      "type": "function"
    },
    {
      "inputs": [
        {
          "internalType": "string",
          "name": "",
          "type": "string"
        }
      ],
      "name": "nameToDomainId",
      "outputs": [
        {
          "internalType": "uint256",
          "name": "",
          "type": "uint256"
        }
      ],
      "stateMutability": "view",
      "type": "function"
    },
    {
      "inputs": [],
      "name": "owner",
      "outputs": [
        {
          "internalType": "address",
          "name": "",
          "type": "address"
        }
      ],
      "stateMutability": "view",
      "type": "function"
    },
    {
      "inputs": [
        {
          "internalType": "string",
          "name": "_name",
          "type": "string"
        },
        {
          "internalType": "address",
          "name": "_owner",
          "type": "address"
        },
        {
          "internalType": "uint256",
          "name": "_value",
          "type": "uint256"
        }
      ],
      "name": "registerName",
      "outputs": [],
      "stateMutability": "nonpayable",
      "type": "function"
    },
    {
      "inputs": [],
      "name": "registryName",
      "outputs": [
        {
          "internalType": "string",
          "name": "",
          "type": "string"
        }
      ],
      "stateMutability": "view",
      "type": "function"
    },
    {
      "inputs": [
        {
          "internalType": "string",
          "name": "_name",
          "type": "string"
        }
      ],
      "name": "sendDomain",
      "outputs": [],
      "stateMutability": "payable",
      "type": "function"
    },
    {
      "inputs": [
        {
          "internalType": "string",
          "name": "_name",
          "type": "string"
        },
        {
          "internalType": "uint256",
          "name": "_bidDuration",
          "type": "uint256"
        },
        {
          "internalType": "uint256",
          "name": "_revealDuration",
          "type": "uint256"
        }
      ],
      "name": "startAuction",
      "outputs": [],
      "stateMutability": "nonpayable",
      "type": "function"
    },
    {
      "inputs": [
        {
          "internalType": "string",
          "name": "_name",
          "type": "string"
        },
        {
          "internalType": "uint256",
          "name": "amount",
          "type": "uint256"
        }
      ],
      "name": "withdrawFrmDomain",
      "outputs": [],
      "stateMutability": "nonpayable",
      "type": "function"
    },
    {
      "stateMutability": "payable",
      "type": "receive"
    }
  ],
  "bytecode": "0x60806040523480156200001157600080fd5b506040805180820190915260148082527f4e545520646f6d61696e20726567697374726172000000000000000000000000602090920191825262000058916001916200012d565b50600080546001600160a01b0319163317905560408051808201909152601d81527f4e545520646f6d61696e20726567697374726172206465706c6f796564000000602080830191909152620000b8919062001fd9620000be821b17901c565b62000266565b6200010981604051602401620000d59190620001d3565b60408051601f198184030181529190526020810180516001600160e01b0390811663104c13eb60e21b179091526200010c16565b50565b80516a636f6e736f6c652e6c6f67602083016000808483855afa5050505050565b8280546200013b9062000229565b90600052602060002090601f0160209004810192826200015f5760008555620001aa565b82601f106200017a57805160ff1916838001178555620001aa565b82800160010185558215620001aa579182015b82811115620001aa5782518255916020019190600101906200018d565b50620001b8929150620001bc565b5090565b5b80821115620001b85760008155600101620001bd565b6000602080835283518082850152825b818110156200020157858101830151858201604001528201620001e3565b81811115620002135783604083870101525b50601f01601f1916929092016040019392505050565b600181811c908216806200023e57607f821691505b602082108114156200026057634e487b7160e01b600052602260045260246000fd5b50919050565b6132bd80620002766000396000f3fe6080604052600436106200013b5760003560e01c80637cee8c6711620000ad5780639bc83cfa116200006c5780639bc83cfa14620003e1578063c90d9b2a1462000406578063ce2ba9bf146200041d578063d7c069191462000442578063e80d842c146200046957600080fd5b80637cee8c6714620002fb578063849582a414620003375780638da5cb5b146200035c57806394ca2cb5146200039757806399726b1014620003bc57600080fd5b806335ff502e11620000fa57806335ff502e14620001fa5780634f15aeb81462000230578063571a26a014620002555780635a983745146200029057806366cf8fab14620002c457600080fd5b80630369567f1462000148578063106aa90c146200016157806312065fe014620001995780631654d16914620001ae5780632ac63f9914620001d557600080fd5b366200014357005b600080fd5b6200015f6200015936600462002549565b6200049d565b005b3480156200016e57600080fd5b506200018662000180366004620024d4565b62000573565b6040519081526020015b60405180910390f35b348015620001a657600080fd5b504762000186565b348015620001bb57600080fd5b50620001c6620005a5565b60405162000190919062002b38565b348015620001e257600080fd5b506200015f620001f4366004620025ba565b6200063b565b3480156200020757600080fd5b506200021f6200021936600462002639565b62000927565b604051901515815260200162000190565b3480156200023d57600080fd5b50620001c66200024f36600462002480565b620009c4565b3480156200026257600080fd5b506200027a6200027436600462002752565b62000a3e565b6040516200019098979695949392919062002be2565b3480156200029d57600080fd5b50620002b5620002af36600462002442565b62000b19565b60405162000190919062002a10565b348015620002d157600080fd5b50620002e9620002e336600462002752565b62000da4565b60405162000190949392919062002ba8565b3480156200030857600080fd5b50620001866200031a36600462002639565b805160208183018101805160048252928201919093012091525481565b3480156200034457600080fd5b506200015f6200035636600462002502565b62000e68565b3480156200036957600080fd5b506000546200037e906001600160a01b031681565b6040516001600160a01b03909116815260200162000190565b348015620003a457600080fd5b506200037e620003b636600462002502565b6200101c565b348015620003c957600080fd5b506200015f620003db36600462002549565b62001078565b348015620003ee57600080fd5b506200015f62000400366004620026f4565b62001509565b6200015f6200041736600462002639565b62001691565b3480156200042a57600080fd5b506200015f6200043c36600462002639565b620017e7565b3480156200044f57600080fd5b506200045a62001b6d565b60405162000190919062002950565b3480156200047657600080fd5b506200048e6200048836600462002442565b62001d9c565b60405162000190919062002aaf565b600881604051620004af9190620027f5565b908152602001604051809103902054600014156200050d5760405162461bcd60e51b8152602060048201526016602482015275185d58dd1a5bdb88191bd95cc81b9bdd08195e1a5cdd60521b60448201526064015b60405180910390fd5b60008284516020860134f59050803b6200052657600080fd5b62000532338362002023565b7f92eb767245ca8829c6919f3fab91e97b9e2cc7f3e2f71ed25b74e5e23bffc6fe338360405162000565929190620028b6565b60405180910390a150505050565b600360205281600052604060002081815481106200059057600080fd5b90600052602060002001600091509150505481565b60018054620005b49062002cfc565b80601f0160208091040260200160405190810160405280929190818152602001828054620005e29062002cfc565b8015620006335780601f10620006075761010080835404028352916020019162000633565b820191906000526020600020905b8154815290600101906020018083116200061557829003601f168201915b505050505081565b600884846040516200064f929190620027e5565b908152602001604051809103902054600014620006af5760405162461bcd60e51b815260206004820152601f60248201527f41756374696f6e20666f72207468697320616c72656164792065786973747300604482015260640162000504565b60048484604051620006c3929190620027e5565b9081526020016040518091039020546000146200072d5760405162461bcd60e51b815260206004820152602160248201527f5468697320646f6d61696e206e616d6520697320616c7265616479206f776e656044820152601960fa1b606482015260840162000504565b6200073c600780546001019055565b6000604051806101000160405280844262000758919062002c98565b8152602001836200076a864262002c98565b62000776919062002c98565b815260200186868080601f016020809104026020016040519081016040528093929190818152602001838380828437600092019190915250505090825250602001620007c160075490565b81526020016000815260200160006001600160a01b03168152602001428152602001838542620007f2919062002c98565b620007fe919062002c98565b905290506200080c60075490565b6008868660405162000820929190620027e5565b90815260405190819003602001902055620008446200083e60075490565b62002251565b80600960006200085360075490565b8152602001908152602001600020600082015181600001556020820151816001015560408201518160020190805190602001906200089392919062002337565b50606082015160038201556080820151600482015560a08201516005820180546001600160a01b0319166001600160a01b0390921691909117905560c0820151600682015560e0909101516007909101556040517f50aa32fed87143a12f31f64ad9199a4cdc7b35635008b92f753d4c66dafdb4239062000918908790879062002b4d565b60405180910390a15050505050565b600060015b6007548111620009bb5782604051602001620009499190620027f5565b60408051601f1981840301815282825280516020918201206000858152600983529290922091926200098092600201910162002813565b604051602081830303815290604052805190602001201415620009a65750600192915050565b80620009b28162002d39565b9150506200092c565b50600092915050565b6060600060405180602001620009da90620023c6565b6020820181038252601f19601f82011660405250905080848460405160200162000a06929190620028b6565b60408051601f198184030181529082905262000a269291602001620027b2565b60405160208183030381529060405291505092915050565b6009602052600090815260409020805460018201546002830180549293919262000a689062002cfc565b80601f016020809104026020016040519081016040528092919081815260200182805462000a969062002cfc565b801562000ae75780601f1062000abb5761010080835404028352916020019162000ae7565b820191906000526020600020905b81548152906001019060200180831162000ac957829003601f168201915b5050506003840154600485015460058601546006870154600790970154959692959194506001600160a01b0316925088565b6001600160a01b0381166000908152600b6020908152604080832080548251818502810185019093528083526060949383018282801562000b7a57602002820191906000526020600020905b81548152602001906001019080831162000b65575b505050505090506000815167ffffffffffffffff81111562000bac57634e487b7160e01b600052604160045260246000fd5b60405190808252806020026020018201604052801562000c2457816020015b62000c106040518060c001604052806060815260200160006001600160a01b031681526020016000151581526020016000815260200160008152602001600081525090565b81526020019060019003908162000bcb5790505b50905060005b825181101562000d9c57600c600084838151811062000c5957634e487b7160e01b600052603260045260246000fd5b602002602001015181526020019081526020016000206040518060c001604052908160008201805462000c8c9062002cfc565b80601f016020809104026020016040519081016040528092919081815260200182805462000cba9062002cfc565b801562000d0b5780601f1062000cdf5761010080835404028352916020019162000d0b565b820191906000526020600020905b81548152906001019060200180831162000ced57829003601f168201915b505050918352505060018201546001600160a01b0381166020830152600160a01b900460ff1615156040820152600282015460608201526003820154608082015260049091015460a090910152825183908390811062000d7b57634e487b7160e01b600052603260045260246000fd5b6020026020010181905250808062000d939062002d39565b91505062000c2a565b509392505050565b60056020526000908152604090208054819062000dc19062002cfc565b80601f016020809104026020016040519081016040528092919081815260200182805462000def9062002cfc565b801562000e405780601f1062000e145761010080835404028352916020019162000e40565b820191906000526020600020905b81548152906001019060200180831162000e2257829003601f168201915b505050506001830154600284015460039094015492936001600160a01b039091169290915084565b60048260405162000e7a9190620027f5565b9081526020016040518091039020546000141562000edb5760405162461bcd60e51b815260206004820152601a60248201527f446f6d61696e206e616d6520646f6573206e6f74206578697374000000000000604482015260640162000504565b60006005600060048560405162000ef39190620027f5565b9081526040805160209281900383019020548352908201929092520160002060018101549091506001600160a01b0316331462000f735760405162461bcd60e51b815260206004820152601a60248201527f596f7520646f206e6f74206f776e2074686573652066756e6473000000000000604482015260640162000504565b806002015482111562000fbe5760405162461bcd60e51b8152602060048201526012602482015271496e73756666696369656e742066756e647360701b604482015260640162000504565b8181600201600082825462000fd4919062002cb3565b90915550506040517f8b3d8607c1533d2542b181683b1c34dcfa150181c12dc81c1d3e801d5d06813e906200100f90339086908690620028dc565b60405180910390a1505050565b8151602092830120604080516001600160f81b0319818601523060601b6bffffffffffffffffffffffff191660218201526035810193909352605580840192909252805180840390920182526075909201909152805191012090565b600080600a836040516200108d9190620027f5565b9081526040805191829003602090810183208054808302850183019093528284529190830182828015620010e157602002820191906000526020600020905b815481526020019060010190808311620010cc575b505050505090506000620010f686866200101c565b905060008190506000816001600160a01b031663f496d8826040518163ffffffff1660e01b815260040160206040518083038186803b1580156200113957600080fd5b505afa1580156200114e573d6000803e3d6000fd5b505050506040513d601f19601f8201168201806040525081019062001174919062002461565b90506000826001600160a01b03166306fdde036040518163ffffffff1660e01b815260040160006040518083038186803b158015620011b257600080fd5b505afa158015620011c7573d6000803e3d6000fd5b505050506040513d6000823e601f3d908101601f19168201604052620011f1919081019062002678565b90506000836001600160a01b03166312065fe06040518163ffffffff1660e01b815260040160206040518083038186803b1580156200122f57600080fd5b505afa15801562001244573d6000803e3d6000fd5b505050506040513d601f19601f820116820180604052508101906200126a91906200276b565b90506001600160a01b0383163314620012c05760405162461bcd60e51b815260206004820152601760248201527611985a5b1959081d1bc81d995c9a599e4818dbdb5b5a5d604a1b604482015260640162000504565b87604051602001620012d39190620027f5565b6040516020818303038152906040528051906020012082604051602001620012fc9190620027f5565b60405160208183030381529060405280519060200120146200135b5760405162461bcd60e51b815260206004820152601760248201527611985a5b1959081d1bc81d995c9a599e4818dbdb5b5a5d604a1b604482015260640162000504565b60005b8651811015620014fc57336001600160a01b0316600c60008984815181106200139757634e487b7160e01b600052603260045260246000fd5b6020908102919091018101518252810191909152604001600020600101546001600160a01b03161415620014e757600c6000888381518110620013ea57634e487b7160e01b600052603260045260246000fd5b60200260200101518152602001908152602001600020975060018860010160146101000a81548160ff021916908315150217905550818860020181905550846001600160a01b0316633ccfd60b6040518163ffffffff1660e01b8152600401600060405180830381600087803b1580156200146457600080fd5b505af115801562001479573d6000803e3d6000fd5b505050506200148e89338a6002015462002299565b50600288015460018901546040517fe7b9400614ae8d3fb96a8ed036e790d12c0466fe2df292c92a44c602bb1c20d592620014d9928892889291600160a01b900460ff169062002912565b60405180910390a1620014fc565b80620014f38162002d39565b9150506200135e565b5050505050505050505050565b826004816040516200151c9190620027f5565b9081526020016040518091039020546000146200153857600080fd5b62001547600280546001019055565b604080516080810182528581526001600160a01b0385166020808301829052600083850181905260608401879052918252600390529190912060025481546001810183556000928352602090922090910155600254600486604051620015ae9190620027f5565b908152604051908190036020019020558060056000620015cd60025490565b8152602080820192909252604001600020825180519192620015f59284929091019062002337565b5060208201516001820180546001600160a01b0319166001600160a01b03928316179055604080840151600284015560609093015160039092019190915590519085169062001646908790620027f5565b60405180910390207fc78b0baeb481012ee495f6c7c720a835617068842b0e0131f4e4bb4a8f7e9cdd6200167960025490565b60405190815260200160405180910390a35050505050565b33620016e05760405162461bcd60e51b815260206004820152601e60248201527f5472616e736665722066726f6d20746865207a65726f20616464726573730000604482015260640162000504565b600481604051620016f29190620027f5565b90815260200160405180910390205460001415620017535760405162461bcd60e51b815260206004820152601a60248201527f446f6d61696e206e616d6520646f6573206e6f74206578697374000000000000604482015260640162000504565b6000600560006004846040516200176b9190620027f5565b9081526020016040518091039020548152602001908152602001600020905034816002016000828254620017a0919062002c98565b90915550506040517f4d8625a4c0218499d61251f3c70b223f1810c4c5d8eb24f4c5a6a39f4d045eea90620017db90339085903490620028dc565b60405180910390a15050565b600060096000600884604051620017ff9190620027f5565b908152602001604051809103902054815260200190815260200160002090506000600a83604051620018329190620027f5565b90815260408051918290036020908101832080548083028501830190935282845291908301828280156200188657602002820191906000526020600020905b81548152602001906001019080831162001871575b5050505050905060005b815181101562001b6757600c6000838381518110620018bf57634e487b7160e01b600052603260045260246000fd5b602090810291909101810151825281019190915260400160002060010154600160a01b900460ff16620018f25762001b52565b600583015482516001600160a01b0390911690600c906000908590859081106200192c57634e487b7160e01b600052603260045260246000fd5b6020908102919091018101518252810191909152604001600020600101546001600160a01b03161462001a2957600c60008383815181106200197e57634e487b7160e01b600052603260045260246000fd5b6020026020010151815260200190815260200160002060010160009054906101000a90046001600160a01b03166001600160a01b03166108fc600c6000858581518110620019dc57634e487b7160e01b600052603260045260246000fd5b60200260200101518152602001908152602001600020600201549081150290604051600060405180830381858888f1935050505015801562001a22573d6000803e3d6000fd5b5062001b52565b62001ac584600c600085858151811062001a5357634e487b7160e01b600052603260045260246000fd5b6020026020010151815260200190815260200160002060010160009054906101000a90046001600160a01b0316600c600086868151811062001aa557634e487b7160e01b600052603260045260246000fd5b602002602001015181526020019081526020016000206002015462001509565b7fde7e436f28139dd5690061445b009a314e2687b635f90fdf47ae2bf8d4e6c21584600c600085858151811062001b0c57634e487b7160e01b600052603260045260246000fd5b6020026020010151815260200190815260200160002060010160009054906101000a90046001600160a01b031660405162001b4992919062002b7c565b60405180910390a15b8062001b5e8162002d39565b91505062001890565b50505050565b6060600062001b7b60075490565b67ffffffffffffffff81111562001ba257634e487b7160e01b600052604160045260246000fd5b60405190808252806020026020018201604052801562001c2757816020015b62001c13604051806101000160405280600081526020016000815260200160608152602001600081526020016000815260200160006001600160a01b0316815260200160008152602001600081525090565b81526020019060019003908162001bc15790505b509050600060015b600754811162001d94576009600082815260200190815260200160002060405180610100016040529081600082015481526020016001820154815260200160028201805462001c7e9062002cfc565b80601f016020809104026020016040519081016040528092919081815260200182805462001cac9062002cfc565b801562001cfd5780601f1062001cd15761010080835404028352916020019162001cfd565b820191906000526020600020905b81548152906001019060200180831162001cdf57829003601f168201915b5050509183525050600382015460208201526004820154604082015260058201546001600160a01b031660608201526006820154608082015260079091015460a090910152835184908490811062001d6557634e487b7160e01b600052603260045260246000fd5b602090810291909101015262001d7d60018362002c98565b91508062001d8b8162002d39565b91505062001c2f565b509092915050565b6001600160a01b03811660009081526003602052604081205460609190819067ffffffffffffffff81111562001de257634e487b7160e01b600052604160045260246000fd5b60405190808252806020026020018201604052801562001e4a57816020015b62001e3660405180608001604052806060815260200160006001600160a01b0316815260200160008152602001600081525090565b81526020019060019003908162001e015790505b50905060005b6001600160a01b03851660009081526003602052604090205481101562000d9c576001600160a01b0385166000908152600360205260408120805460059291908490811062001eaf57634e487b7160e01b600052603260045260246000fd5b9060005260206000200154815260200190815260200160002060405180608001604052908160008201805462001ee59062002cfc565b80601f016020809104026020016040519081016040528092919081815260200182805462001f139062002cfc565b801562001f645780601f1062001f385761010080835404028352916020019162001f64565b820191906000526020600020905b81548152906001019060200180831162001f4657829003601f168201915b505050918352505060018201546001600160a01b0316602082015260028201546040820152600390910154606090910152825183908590811062001fb857634e487b7160e01b600052603260045260246000fd5b6020026020010181905250808062001fd09062002d39565b91505062001e50565b620020208160405160240162001ff0919062002b38565b60408051601f198184030181529190526020810180516001600160e01b031663104c13eb60e21b17905262002316565b50565b600881604051620020359190620027f5565b908152602001604051809103902054600014156200208f5760405162461bcd60e51b8152602060048201526016602482015275185d58dd1a5bdb88191bd95cc81b9bdd08195e1a5cdd60521b604482015260640162000504565b600060096000600884604051620020a79190620027f5565b9081526020016040518091039020548152602001908152602001600020600601549050600060096000600885604051620020e29190620027f5565b908152602001604051809103902054815260200190815260200160002060070154905062002114600680546001019055565b6040518060c00160405280848152602001856001600160a01b031681526020016000151581526020016000815260200183815260200182815250600c60006200215c60065490565b8152602080820192909252604001600020825180519192620021849284929091019062002337565b5060208201516001820180546040808601511515600160a01b026001600160a81b03199092166001600160a01b0390941693909317179055606083015160028301556080830151600383015560a09092015160049091015551600a90620021ed908590620027f5565b90815260200160405180910390206200220560065490565b815460018101835560009283526020808420909101919091556001600160a01b0386168252600b9052604090206006548154600181018355600092835260209092209091015550505050565b62002020816040516024016200226991815260200190565b60408051601f198184030181529190526020810180516001600160e01b031663f82c50f160e01b17905262002316565b60008060096000600887604051620022b29190620027f5565b9081526020016040518091039020548152602001908152602001600020905080600401548311620022e85760009150506200230f565b6004810183905560050180546001600160a01b0319166001600160a01b0385161790555060015b9392505050565b80516a636f6e736f6c652e6c6f67602083016000808483855afa5050505050565b828054620023459062002cfc565b90600052602060002090601f016020900481019282620023695760008555620023b4565b82601f106200238457805160ff1916838001178555620023b4565b82800160010185558215620023b4579182015b82811115620023b457825182559160200191906001019062002397565b50620023c2929150620023d4565b5090565b6104ee8062002d9a83390190565b5b80821115620023c25760008155600101620023d5565b600082601f830112620023fc578081fd5b8135620024136200240d8262002c6d565b62002c39565b81815284602083860101111562002428578283fd5b816020850160208301379081016020019190915292915050565b60006020828403121562002454578081fd5b81356200230f8162002d83565b60006020828403121562002473578081fd5b81516200230f8162002d83565b6000806040838503121562002493578081fd5b8235620024a08162002d83565b9150602083013567ffffffffffffffff811115620024bc578182fd5b620024ca85828601620023eb565b9150509250929050565b60008060408385031215620024e7578182fd5b8235620024f48162002d83565b946020939093013593505050565b6000806040838503121562002515578182fd5b823567ffffffffffffffff8111156200252c578283fd5b6200253a85828601620023eb565b95602094909401359450505050565b6000806000606084860312156200255e578081fd5b833567ffffffffffffffff8082111562002576578283fd5b6200258487838801620023eb565b9450602086013593506040860135915080821115620025a1578283fd5b50620025b086828701620023eb565b9150509250925092565b60008060008060608587031215620025d0578081fd5b843567ffffffffffffffff80821115620025e8578283fd5b818701915087601f830112620025fc578283fd5b8135818111156200260b578384fd5b8860208285010111156200261d578384fd5b6020928301999098509187013596604001359550909350505050565b6000602082840312156200264b578081fd5b813567ffffffffffffffff81111562002662578182fd5b6200267084828501620023eb565b949350505050565b6000602082840312156200268a578081fd5b815167ffffffffffffffff811115620026a1578182fd5b8201601f81018413620026b2578182fd5b8051620026c36200240d8262002c6d565b818152856020838501011115620026d8578384fd5b620026eb82602083016020860162002ccd565b95945050505050565b60008060006060848603121562002709578283fd5b833567ffffffffffffffff81111562002720578384fd5b6200272e86828701620023eb565b9350506020840135620027418162002d83565b929592945050506040919091013590565b60006020828403121562002764578081fd5b5035919050565b6000602082840312156200277d578081fd5b5051919050565b600081518084526200279e81602086016020860162002ccd565b601f01601f19169290920160200192915050565b60008351620027c681846020880162002ccd565b835190830190620027dc81836020880162002ccd565b01949350505050565b8183823760009101908152919050565b600082516200280981846020870162002ccd565b9190910192915050565b600080835482600182811c9150808316806200283057607f831692505b60208084108214156200285157634e487b7160e01b87526022600452602487fd5b8180156200286857600181146200287a57620028a8565b60ff19861689528489019650620028a8565b60008a815260209020885b86811015620028a05781548b82015290850190830162002885565b505084890196505b509498975050505050505050565b6001600160a01b0383168152604060208201819052600090620026709083018462002784565b6001600160a01b0384168152606060208201819052600090620029029083018562002784565b9050826040830152949350505050565b6001600160a01b0385168152608060208201819052600090620029389083018662002784565b60408301949094525090151560609091015292915050565b60006020808301818452808551808352604092508286019150828160051b870101848801865b8381101562002a0257603f198984030185528151610100815185528882015189860152878201518189870152620029b08287018262002784565b606084810151908801526080808501519088015260a0808501516001600160a01b03169088015260c0808501519088015260e09384015193909601929092525050938601939086019060010162002976565b509098975050505050505050565b60006020808301818452808551808352604092508286019150828160051b870101848801865b8381101562002a0257603f19898403018552815160c0815181865262002a5f8287018262002784565b8a8401516001600160a01b0316878c01528984015115158a880152606080850151908801526080808501519088015260a09384015193909601929092525050938601939086019060010162002a36565b60006020808301818452808551808352604092508286019150828160051b870101848801865b8381101562002a0257603f1989840301855281516080815181865262002afe8287018262002784565b838b01516001600160a01b0316878c0152898401518a88015260609384015193909601929092525050938601939086019060010162002ad5565b6020815260006200230f602083018462002784565b60208152816020820152818360408301376000818301604090810191909152601f909201601f19160101919050565b60408152600062002b91604083018562002784565b905060018060a01b03831660208301529392505050565b60808152600062002bbd608083018762002784565b6001600160a01b03959095166020830152506040810192909252606090910152919050565b60006101008a835289602084015280604084015262002c048184018a62002784565b6060840198909852505060808101949094526001600160a01b039290921660a084015260c083015260e0909101529392505050565b604051601f8201601f1916810167ffffffffffffffff8111828210171562002c655762002c6562002d6d565b604052919050565b600067ffffffffffffffff82111562002c8a5762002c8a62002d6d565b50601f01601f191660200190565b6000821982111562002cae5762002cae62002d57565b500190565b60008282101562002cc85762002cc862002d57565b500390565b60005b8381101562002cea57818101518382015260200162002cd0565b8381111562001b675750506000910152565b600181811c9082168062002d1157607f821691505b6020821081141562002d3357634e487b7160e01b600052602260045260246000fd5b50919050565b600060001982141562002d505762002d5062002d57565b5060010190565b634e487b7160e01b600052601160045260246000fd5b634e487b7160e01b600052604160045260246000fd5b6001600160a01b03811681146200202057600080fdfe60806040526040516104ee3803806104ee833981016040819052610022916100f1565b600080546001600160a01b0319166001600160a01b0384161790558051610050906001906020840190610058565b50505061022d565b828054610064906101dc565b90600052602060002090601f01602090048101928261008657600085556100cc565b82601f1061009f57805160ff19168380011785556100cc565b828001600101855582156100cc579182015b828111156100cc5782518255916020019190600101906100b1565b506100d89291506100dc565b5090565b5b808211156100d857600081556001016100dd565b60008060408385031215610103578182fd5b82516001600160a01b0381168114610119578283fd5b602084810151919350906001600160401b0380821115610137578384fd5b818601915086601f83011261014a578384fd5b81518181111561015c5761015c610217565b604051601f8201601f19908116603f0116810190838211818310171561018457610184610217565b81604052828152898684870101111561019b578687fd5b8693505b828410156101bc578484018601518185018701529285019261019f565b828411156101cc57868684830101525b8096505050505050509250929050565b600181811c908216806101f057607f821691505b6020821081141561021157634e487b7160e01b600052602260045260246000fd5b50919050565b634e487b7160e01b600052604160045260246000fd5b6102b28061023c6000396000f3fe608060405234801561001057600080fd5b506004361061004c5760003560e01c806306fdde031461005157806312065fe01461006f5780633ccfd60b1461007d578063f496d88214610087575b600080fd5b6100596100b2565b60405161006691906101ee565b60405180910390f35b604051478152602001610066565b610085610140565b005b60005461009a906001600160a01b031681565b6040516001600160a01b039091168152602001610066565b600180546100bf90610241565b80601f01602080910402602001604051908101604052809291908181526020018280546100eb90610241565b80156101385780601f1061010d57610100808354040283529160200191610138565b820191906000526020600020905b81548152906001019060200180831161011b57829003601f168201915b505050505081565b604051600090339047908381818185875af1925050503d8060008114610182576040519150601f19603f3d011682016040523d82523d6000602084013e610187565b606091505b50509050806101eb5760405162461bcd60e51b815260206004820152602660248201527f4661696c656420746f2073656e64204574686572206261636b20746f207468656044820152651037bbb732b960d11b606482015260840160405180910390fd5b50565b6000602080835283518082850152825b8181101561021a578581018301518582016040015282016101fe565b8181111561022b5783604083870101525b50601f01601f1916929092016040019392505050565b600181811c9082168061025557607f821691505b6020821081141561027657634e487b7160e01b600052602260045260246000fd5b5091905056fea2646970667358221220268c70ac1dcbed0e36dc77a229f71210a643bfa8b6a5c5c9f7bda33e2da41c8e64736f6c63430008040033a2646970667358221220ca0d2e19f403c236d697048434e8cd25fcd2992ed66588d42d15e7b3ed7c11b964736f6c63430008040033",
  "linkReferences": {},
  "deployedLinkReferences": {}
}