{
  "_format": "hh-sol-artifact-1",
  "contractName": "Dns",
  "sourceName": "contracts/Dns.sol",
  "abi": [
    {
      "inputs": [],
      "stateMutability": "nonpayable",
      "type": "constructor"
    },
    {
      "anonymous": false,
      "inputs": [
        {
          "indexed": false,
          "internalType": "string",
          "name": "name",
          "type": "string"
        },
        {
          "indexed": false,
          "internalType": "address",
          "name": "winner",
          "type": "address"
        }
      ],
      "name": "AuctionEnded",
      "type": "event"
    },
    {
      "anonymous": false,
      "inputs": [
        {
          "indexed": false,
          "internalType": "string",
          "name": "name",
          "type": "string"
        }
      ],
      "name": "AuctionStarted",
      "type": "event"
    },
    {
      "anonymous": false,
      "inputs": [
        {
          "indexed": false,
          "internalType": "address",
          "name": "bidder",
          "type": "address"
        },
        {
          "indexed": false,
          "internalType": "string",
          "name": "name",
          "type": "string"
        }
      ],
      "name": "BidMade",
      "type": "event"
    },
    {
      "anonymous": false,
      "inputs": [
        {
          "indexed": false,
          "internalType": "address",
          "name": "bidder",
          "type": "address"
        },
        {
          "indexed": false,
          "internalType": "string",
          "name": "name",
          "type": "string"
        },
        {
          "indexed": false,
          "internalType": "uint256",
          "name": "value",
          "type": "uint256"
        },
        {
          "indexed": false,
          "internalType": "bool",
          "name": "revealed",
          "type": "bool"
        }
      ],
      "name": "BidRevealed",
      "type": "event"
    },
    {
      "anonymous": false,
      "inputs": [
        {
          "indexed": false,
          "internalType": "uint256",
          "name": "id",
          "type": "uint256"
        },
        {
          "indexed": true,
          "internalType": "string",
          "name": "name",
          "type": "string"
        },
        {
          "indexed": true,
          "internalType": "address",
          "name": "owner",
          "type": "address"
        }
      ],
      "name": "DomainRegistered",
      "type": "event"
    },
    {
      "anonymous": false,
      "inputs": [
        {
          "indexed": false,
          "internalType": "address",
          "name": "withdrawer",
          "type": "address"
        },
        {
          "indexed": false,
          "internalType": "string",
          "name": "name",
          "type": "string"
        },
        {
          "indexed": false,
          "internalType": "uint256",
          "name": "amount",
          "type": "uint256"
        }
      ],
      "name": "WithdrawnFromDomain",
      "type": "event"
    },
    {
      "inputs": [
        {
          "internalType": "bytes",
          "name": "bytecode",
          "type": "bytes"
        },
        {
          "internalType": "uint256",
          "name": "_salt",
          "type": "uint256"
        },
        {
          "internalType": "string",
          "name": "_name",
          "type": "string"
        }
      ],
      "name": "bid",
      "outputs": [],
      "stateMutability": "payable",
      "type": "function"
    },
    {
      "inputs": [
        {
          "internalType": "bytes",
          "name": "bytecode",
          "type": "bytes"
        },
        {
          "internalType": "uint256",
          "name": "_salt",
          "type": "uint256"
        },
        {
          "internalType": "string",
          "name": "_name",
          "type": "string"
        }
      ],
      "name": "check",
      "outputs": [],
      "stateMutability": "nonpayable",
      "type": "function"
    },
    {
      "inputs": [],
      "name": "checkAuctionsToEnd",
      "outputs": [],
      "stateMutability": "nonpayable",
      "type": "function"
    },
    {
      "inputs": [
        {
          "internalType": "string",
          "name": "_name",
          "type": "string"
        }
      ],
      "name": "checkIfAuctionExists",
      "outputs": [
        {
          "internalType": "bool",
          "name": "",
          "type": "bool"
        }
      ],
      "stateMutability": "view",
      "type": "function"
    },
    {
      "inputs": [
        {
          "internalType": "string",
          "name": "_name",
          "type": "string"
        }
      ],
      "name": "endAuction",
      "outputs": [],
      "stateMutability": "nonpayable",
      "type": "function"
    },
    {
      "inputs": [
        {
          "internalType": "bytes",
          "name": "bytecode",
          "type": "bytes"
        },
        {
          "internalType": "uint256",
          "name": "_salt",
          "type": "uint256"
        }
      ],
      "name": "getAddress",
      "outputs": [
        {
          "internalType": "address",
          "name": "",
          "type": "address"
        }
      ],
      "stateMutability": "view",
      "type": "function"
    },
    {
      "inputs": [],
      "name": "getAllDomains",
      "outputs": [
        {
          "components": [
            {
              "internalType": "string",
              "name": "domainName",
              "type": "string"
            },
            {
              "internalType": "address",
              "name": "owner",
              "type": "address"
            },
            {
              "internalType": "uint256",
              "name": "balance",
              "type": "uint256"
            },
            {
              "internalType": "uint256",
              "name": "value",
              "type": "uint256"
            }
          ],
          "internalType": "struct IDns.EthDomain[]",
          "name": "",
          "type": "tuple[]"
        }
      ],
      "stateMutability": "view",
      "type": "function"
    },
    {
      "inputs": [],
      "name": "getAuctions",
      "outputs": [
        {
          "components": [
            {
              "internalType": "uint256",
              "name": "biddingEnd",
              "type": "uint256"
            },
            {
              "internalType": "uint256",
              "name": "revealEnd",
              "type": "uint256"
            },
            {
              "internalType": "string",
              "name": "name",
              "type": "string"
            },
            {
              "internalType": "uint256",
              "name": "auctionId",
              "type": "uint256"
            },
            {
              "internalType": "uint256",
              "name": "highestBid",
              "type": "uint256"
            },
            {
              "internalType": "address",
              "name": "highestBidder",
              "type": "address"
            },
            {
              "internalType": "uint256",
              "name": "start",
              "type": "uint256"
            },
            {
              "internalType": "bool",
              "name": "ended",
              "type": "bool"
            }
          ],
          "internalType": "struct IDns.Auction[]",
          "name": "",
          "type": "tuple[]"
        }
      ],
      "stateMutability": "view",
      "type": "function"
    },
    {
      "inputs": [],
      "name": "getBalance",
      "outputs": [
        {
          "internalType": "uint256",
          "name": "",
          "type": "uint256"
        }
      ],
      "stateMutability": "view",
      "type": "function"
    },
    {
      "inputs": [
        {
          "internalType": "address",
          "name": "_user",
          "type": "address"
        }
      ],
      "name": "getBiddings",
      "outputs": [
        {
          "components": [
            {
              "internalType": "string",
              "name": "name",
              "type": "string"
            },
            {
              "internalType": "address",
              "name": "bidder",
              "type": "address"
            },
            {
              "internalType": "bool",
              "name": "revealed",
              "type": "bool"
            },
            {
              "internalType": "uint256",
              "name": "revealedBid",
              "type": "uint256"
            },
            {
              "internalType": "uint256",
              "name": "start",
              "type": "uint256"
            },
            {
              "internalType": "uint256",
              "name": "revealStart",
              "type": "uint256"
            },
            {
              "internalType": "uint256",
              "name": "end",
              "type": "uint256"
            }
          ],
          "internalType": "struct IDns.Bid[]",
          "name": "",
          "type": "tuple[]"
        }
      ],
      "stateMutability": "view",
      "type": "function"
    },
    {
      "inputs": [
        {
          "internalType": "address",
          "name": "_owner",
          "type": "address"
        },
        {
          "internalType": "string",
          "name": "_name",
          "type": "string"
        }
      ],
      "name": "getBytecode",
      "outputs": [
        {
          "internalType": "bytes",
          "name": "",
          "type": "bytes"
        }
      ],
      "stateMutability": "pure",
      "type": "function"
    },
    {
      "inputs": [
        {
          "internalType": "address",
          "name": "_user",
          "type": "address"
        }
      ],
      "name": "getMyDomains",
      "outputs": [
        {
          "components": [
            {
              "internalType": "string",
              "name": "domainName",
              "type": "string"
            },
            {
              "internalType": "address",
              "name": "owner",
              "type": "address"
            },
            {
              "internalType": "uint256",
              "name": "balance",
              "type": "uint256"
            },
            {
              "internalType": "uint256",
              "name": "value",
              "type": "uint256"
            }
          ],
          "internalType": "struct IDns.EthDomain[]",
          "name": "",
          "type": "tuple[]"
        }
      ],
      "stateMutability": "view",
      "type": "function"
    },
    {
      "inputs": [],
      "name": "owner",
      "outputs": [
        {
          "internalType": "address",
          "name": "",
          "type": "address"
        }
      ],
      "stateMutability": "view",
      "type": "function"
    },
    {
      "inputs": [
        {
          "internalType": "string",
          "name": "_name",
          "type": "string"
        },
        {
          "internalType": "address",
          "name": "_owner",
          "type": "address"
        },
        {
          "internalType": "uint256",
          "name": "_value",
          "type": "uint256"
        }
      ],
      "name": "registerName",
      "outputs": [],
      "stateMutability": "nonpayable",
      "type": "function"
    },
    {
      "inputs": [],
      "name": "registryName",
      "outputs": [
        {
          "internalType": "string",
          "name": "",
          "type": "string"
        }
      ],
      "stateMutability": "view",
      "type": "function"
    },
    {
      "inputs": [
        {
          "internalType": "string",
          "name": "_name",
          "type": "string"
        }
      ],
      "name": "resolveDomainName",
      "outputs": [
        {
          "internalType": "address",
          "name": "",
          "type": "address"
        }
      ],
      "stateMutability": "view",
      "type": "function"
    },
    {
      "inputs": [
        {
          "internalType": "string",
          "name": "_name",
          "type": "string"
        }
      ],
      "name": "sendDomain",
      "outputs": [],
      "stateMutability": "payable",
      "type": "function"
    },
    {
      "inputs": [
        {
          "internalType": "string",
          "name": "_name",
          "type": "string"
        },
        {
          "internalType": "uint256",
          "name": "_bidDuration",
          "type": "uint256"
        },
        {
          "internalType": "uint256",
          "name": "_revealDuration",
          "type": "uint256"
        }
      ],
      "name": "startAuction",
      "outputs": [],
      "stateMutability": "nonpayable",
      "type": "function"
    },
    {
      "inputs": [
        {
          "internalType": "string",
          "name": "_name",
          "type": "string"
        },
        {
          "internalType": "uint256",
          "name": "amount",
          "type": "uint256"
        }
      ],
      "name": "withdrawFrmDomain",
      "outputs": [],
      "stateMutability": "nonpayable",
      "type": "function"
    },
    {
      "stateMutability": "payable",
      "type": "receive"
    }
  ],
  "bytecode": "0x60a06040523480156200001157600080fd5b50600160008190556040805180820190915260148082527f4e545520646f6d61696e2072656769737472617200000000000000000000000060209092019182526200005e92919062000128565b503360601b60805260408051808201909152601d81527f4e545520646f6d61696e20726567697374726172206465706c6f796564000000602080830191909152620000b391906200230b620000b9821b17901c565b62000261565b6200010481604051602401620000d09190620001ce565b60408051601f198184030181529190526020810180516001600160e01b0390811663104c13eb60e21b179091526200010716565b50565b80516a636f6e736f6c652e6c6f67602083016000808483855afa5050505050565b828054620001369062000224565b90600052602060002090601f0160209004810192826200015a5760008555620001a5565b82601f106200017557805160ff1916838001178555620001a5565b82800160010185558215620001a5579182015b82811115620001a557825182559160200191906001019062000188565b50620001b3929150620001b7565b5090565b5b80821115620001b35760008155600101620001b8565b6000602080835283518082850152825b81811015620001fc57858101830151858201604001528201620001de565b818111156200020e5783604083870101525b50601f01601f1916929092016040019392505050565b600181811c908216806200023957607f821691505b602082108114156200025b57634e487b7160e01b600052602260045260246000fd5b50919050565b60805160601c61352d62000280600039600061032c015261352d6000f3fe6080604052600436106200012f5760003560e01c80635a98374511620000ad57806399726b10116200006c57806399726b1014620003735780639bc83cfa1462000398578063c90d9b2a14620003bd578063ce2ba9bf14620003d4578063d7c0691914620003f957600080fd5b80635a983745146200029a57806374b3553f14620002ce578063849582a414620002f35780638da5cb5b146200031857806394ca2cb5146200034e57600080fd5b80632ac63f9911620000fa5780632ac63f9914620001db578063340a2df8146200020057806335ff502e14620002185780634f15aeb8146200024e5780635a018e6a146200027357600080fd5b80630369567f146200013c57806312065fe014620001555780631654d16914620001765780632a7f0f31146200019d57600080fd5b366200013757005b600080fd5b620001536200014d36600462002811565b62000420565b005b3480156200016257600080fd5b506040514781526020015b60405180910390f35b3480156200018357600080fd5b506200018e6200063b565b6040516200016d919062002d7a565b348015620001aa57600080fd5b50620001c2620001bc366004620028ff565b620006d1565b6040516001600160a01b0390911681526020016200016d565b348015620001e857600080fd5b5062000153620001fa36600462002881565b6200071b565b3480156200020d57600080fd5b5062000153620009d4565b3480156200022557600080fd5b506200023d62000237366004620028ff565b62000b38565b60405190151581526020016200016d565b3480156200025b57600080fd5b506200018e6200026d36600462002778565b62000be2565b3480156200028057600080fd5b506200028b62000c5c565b6040516200016d919062002cf1565b348015620002a757600080fd5b50620002bf620002b93660046200273a565b62000e4c565b6040516200016d919062002c48565b348015620002db57600080fd5b506200028b620002ed3660046200273a565b620010e7565b3480156200030057600080fd5b506200015362000312366004620027cb565b6200133d565b3480156200032557600080fd5b50620001c27f000000000000000000000000000000000000000000000000000000000000000081565b3480156200035b57600080fd5b50620001c26200036d366004620027cb565b62001563565b3480156200038057600080fd5b50620001536200039236600462002811565b620015bf565b348015620003a557600080fd5b5062000153620003b7366004620029b8565b62001aed565b62000153620003ce366004620028ff565b62001cb4565b348015620003e157600080fd5b5062000153620003f3366004620028ff565b62001dcc565b3480156200040657600080fd5b5062000411620020d2565b6040516200016d919062002b86565b8060088160405162000433919062002a9f565b90815260200160405180910390205460001415620004915760405162461bcd60e51b8152602060048201526016602482015275185d58dd1a5bdb88191bd95cc81b9bdd08195e1a5cdd60521b60448201526064015b60405180910390fd5b813360005b6001600160a01b0382166000908152600b6020526040902054811015620005c75782604051602001620004ca919062002a9f565b60405160208183030381529060405280519060200120600c6000600b6000866001600160a01b03166001600160a01b0316815260200190815260200160002084815481106200052957634e487b7160e01b600052603260045260246000fd5b9060005260206000200154815260200190815260200160002060000160405160200162000557919062002abd565b604051602081830303815290604052805190602001201415620005b25760405162461bcd60e51b815260206004820152601260248201527142696420616c72656164792065786973747360701b604482015260640162000488565b80620005be8162002ec0565b91505062000496565b508360096000600883604051620005df919062002a9f565b90815260200160405180910390205481526020019081526020016000206000015442106200060c57600080fd5b600086885160208a0134f59050803b6200062557600080fd5b62000631338762002355565b5050505050505050565b600180546200064a9062002e83565b80601f0160208091040260200160405190810160405280929190818152602001828054620006789062002e83565b8015620006c95780601f106200069d57610100808354040283529160200191620006c9565b820191906000526020600020905b815481529060010190602001808311620006ab57829003601f168201915b505050505081565b600060056000600484604051620006e9919062002a9f565b90815260408051602092819003830190205483529082019290925201600020600101546001600160a01b031692915050565b600884846040516200072f92919062002a8f565b9081526020016040518091039020546000146200078f5760405162461bcd60e51b815260206004820152601f60248201527f41756374696f6e20666f72207468697320616c72656164792065786973747300604482015260640162000488565b60048484604051620007a392919062002a8f565b9081526020016040518091039020546000146200080d5760405162461bcd60e51b815260206004820152602160248201527f5468697320646f6d61696e206e616d6520697320616c7265616479206f776e656044820152601960fa1b606482015260840162000488565b6200081c600780546001019055565b60006200082860075490565b90506000604051806101000160405280854262000846919062002e1b565b81526020018462000858874262002e1b565b62000864919062002e1b565b815260200187878080601f01602080910402602001604051908101604052809392919081815260200183838082843760009201829052509385525050506020820185905260408083018290526060830182905242608084015260a090920152519091508290600890620008db908990899062002a8f565b90815260405190819003602001902055620008f68262002549565b60008281526009602090815260409182902083518155818401516001820155918301518051849392620009319260028501929101906200262f565b50606082015160038201556080820151600482015560a08201516005820180546001600160a01b0319166001600160a01b0390921691909117905560c0820151600682015560e0909101516007909101805460ff19169115159190911790556040517f50aa32fed87143a12f31f64ad9199a4cdc7b35635008b92f753d4c66dafdb42390620009c4908890889062002d8f565b60405180910390a1505050505050565b60075462000a1b5760405162461bcd60e51b8152602060048201526013602482015272139bc8185d58dd1a5bdb9cc818dc99585d1959606a1b604482015260640162000488565b600062000a2760075490565b905060015b81811162000b345760008181526009602052604090206001015442108062000a65575060008181526009602052604090206007015460ff165b1562000a715762000b1f565b6000818152600960205260409020600201805462000b1f919062000a959062002e83565b80601f016020809104026020016040519081016040528092919081815260200182805462000ac39062002e83565b801562000b145780601f1062000ae85761010080835404028352916020019162000b14565b820191906000526020600020905b81548152906001019060200180831162000af657829003601f168201915b505050505062001dcc565b8062000b2b8162002ec0565b91505062000a2c565b5050565b60008062000b4560075490565b905060015b81811162000bd8578360405160200162000b65919062002a9f565b60408051601f19818403018152828252805160209182012060008581526009835292909220919262000b9c92600201910162002abd565b60405160208183030381529060405280519060200120141562000bc3575060019392505050565b8062000bcf8162002ec0565b91505062000b4a565b5060009392505050565b606060006040518060200162000bf890620026be565b6020820181038252601f19601f82011660405250905080848460405160200162000c2492919062002b60565b60408051601f198184030181529082905262000c44929160200162002a5c565b60405160208183030381529060405291505092915050565b6060600062000c6a60025490565b6001600160401b0381111562000c9057634e487b7160e01b600052604160045260246000fd5b60405190808252806020026020018201604052801562000cf857816020015b62000ce460405180608001604052806060815260200160006001600160a01b0316815260200160008152602001600081525090565b81526020019060019003908162000caf5790505b50905060008062000d0860025490565b905060015b81811162000e43576000818152600560205260409081902081516080810190925280548290829062000d3f9062002e83565b80601f016020809104026020016040519081016040528092919081815260200182805462000d6d9062002e83565b801562000dbe5780601f1062000d925761010080835404028352916020019162000dbe565b820191906000526020600020905b81548152906001019060200180831162000da057829003601f168201915b505050918352505060018201546001600160a01b0316602082015260028201546040820152600390910154606090910152845185908590811062000e1257634e487b7160e01b600052603260045260246000fd5b6020026020010181905250828062000e2a9062002ec0565b935050808062000e3a9062002ec0565b91505062000d0d565b50919392505050565b6001600160a01b0381166000908152600b6020908152604080832080548251818502810185019093528083526060949383018282801562000ead57602002820191906000526020600020905b81548152602001906001019080831162000e98575b50505050509050600081516001600160401b0381111562000ede57634e487b7160e01b600052604160045260246000fd5b60405190808252806020026020018201604052801562000f5d57816020015b62000f496040518060e001604052806060815260200160006001600160a01b03168152602001600015158152602001600081526020016000815260200160008152602001600081525090565b81526020019060019003908162000efd5790505b50905060005b8251811015620010df57600c600084838151811062000f9257634e487b7160e01b600052603260045260246000fd5b602002602001015181526020019081526020016000206040518060e001604052908160008201805462000fc59062002e83565b80601f016020809104026020016040519081016040528092919081815260200182805462000ff39062002e83565b8015620010445780601f10620010185761010080835404028352916020019162001044565b820191906000526020600020905b8154815290600101906020018083116200102657829003601f168201915b505050918352505060018201546001600160a01b0381166020830152600160a01b900460ff16151560408201526002820154606082015260038201546080820152600482015460a082015260059091015460c0909101528251839083908110620010be57634e487b7160e01b600052603260045260246000fd5b60200260200101819052508080620010d69062002ec0565b91505062000f63565b509392505050565b6001600160a01b03811660009081526003602090815260408083208054825181850281018501909352808352606094938301828280156200114857602002820191906000526020600020905b81548152602001906001019080831162001133575b50505050509050600081516001600160401b038111156200117957634e487b7160e01b600052604160045260246000fd5b604051908082528060200260200182016040528015620011e157816020015b620011cd60405180608001604052806060815260200160006001600160a01b0316815260200160008152602001600081525090565b815260200190600190039081620011985790505b50905060005b8251811015620010df57600560008483815181106200121657634e487b7160e01b600052603260045260246000fd5b60200260200101518152602001908152602001600020604051806080016040529081600082018054620012499062002e83565b80601f0160208091040260200160405190810160405280929190818152602001828054620012779062002e83565b8015620012c85780601f106200129c57610100808354040283529160200191620012c8565b820191906000526020600020905b815481529060010190602001808311620012aa57829003601f168201915b505050918352505060018201546001600160a01b031660208201526002820154604082015260039091015460609091015282518390839081106200131c57634e487b7160e01b600052603260045260246000fd5b60200260200101819052508080620013349062002ec0565b915050620011e7565b60026000541415620013925760405162461bcd60e51b815260206004820152601f60248201527f5265656e7472616e637947756172643a207265656e7472616e742063616c6c00604482015260640162000488565b6002600055604051600490620013aa90849062002a9f565b908152602001604051809103902054600014156200140b5760405162461bcd60e51b815260206004820152601a60248201527f446f6d61696e206e616d6520646f6573206e6f74206578697374000000000000604482015260640162000488565b60006005600060048560405162001423919062002a9f565b9081526040805160209281900383019020548352908201929092520160002060018101549091506001600160a01b03163314620014a35760405162461bcd60e51b815260206004820152601a60248201527f596f7520646f206e6f74206f776e2074686573652066756e6473000000000000604482015260640162000488565b8060020154821115620014ee5760405162461bcd60e51b8152602060048201526012602482015271496e73756666696369656e742066756e647360701b604482015260640162000488565b60008160020154116200150057600080fd5b8181600201600082825462001516919062002e36565b909155505060018101546040516001600160a01b039091169083156108fc029084906000818181858888f1935050505015801562001558573d6000803e3d6000fd5b505060016000555050565b8151602092830120604080516001600160f81b0319818601523060601b6bffffffffffffffffffffffff191660218201526035810193909352605580840192909252805180840390920182526075909201909152805191012090565b8060096000600883604051620015d6919062002a9f565b9081526020016040518091039020548152602001908152602001600020600001544210156200160457600080fd5b81600960006008836040516200161b919062002a9f565b90815260200160405180910390205481526020019081526020016000206001015442106200164857600080fd5b600080600a856040516200165d919062002a9f565b9081526040805191829003602090810183208054808302850183019093528284529190830182828015620016b157602002820191906000526020600020905b8154815260200190600101908083116200169c575b505050505090506000620016c6888862001563565b905060008190506000816001600160a01b031663f496d8826040518163ffffffff1660e01b815260040160206040518083038186803b1580156200170957600080fd5b505afa1580156200171e573d6000803e3d6000fd5b505050506040513d601f19601f8201168201806040525081019062001744919062002759565b90506000826001600160a01b03166306fdde036040518163ffffffff1660e01b815260040160006040518083038186803b1580156200178257600080fd5b505afa15801562001797573d6000803e3d6000fd5b505050506040513d6000823e601f3d908101601f19168201604052620017c191908101906200293d565b90506000836001600160a01b03166312065fe06040518163ffffffff1660e01b815260040160206040518083038186803b158015620017ff57600080fd5b505afa15801562001814573d6000803e3d6000fd5b505050506040513d601f19601f820116820180604052508101906200183a919062002a15565b90506001600160a01b0383163314620018905760405162461bcd60e51b815260206004820152601760248201527611985a5b1959081d1bc81d995c9a599e4818dbdb5b5a5d604a1b604482015260640162000488565b89604051602001620018a3919062002a9f565b6040516020818303038152906040528051906020012082604051602001620018cc919062002a9f565b60405160208183030381529060405280519060200120146200192b5760405162461bcd60e51b815260206004820152601760248201527611985a5b1959081d1bc81d995c9a599e4818dbdb5b5a5d604a1b604482015260640162000488565b60005b865181101562001ade57336001600160a01b0316600c60008984815181106200196757634e487b7160e01b600052603260045260246000fd5b6020908102919091018101518252810191909152604001600020600101546001600160a01b0316141562001ac957600c6000888381518110620019ba57634e487b7160e01b600052603260045260246000fd5b6020026020010151815260200190815260200160002097508760010160149054906101000a900460ff16151560011515141562001a3a5760405162461bcd60e51b815260206004820152601d60248201527f4269642068617320616c7265616479206265656e2072657665616c6564000000604482015260640162000488565b60018801805460ff60a01b1916600160a01b1790556002880182905560408051633ccfd60b60e01b815290516001600160a01b03871691633ccfd60b91600480830192600092919082900301818387803b15801562001a9857600080fd5b505af115801562001aad573d6000803e3d6000fd5b5050505062001ac28b338a6002015462002591565b5062001ade565b8062001ad58162002ec0565b9150506200192e565b50505050505050505050505050565b8260048160405162001b00919062002a9f565b90815260200160405180910390205460001462001b605760405162461bcd60e51b815260206004820152601a60248201527f646f6d61696e206e616d6520616c726561647920657869737473000000000000604482015260640162000488565b62001b6f600280546001019055565b604080516080810182528581526001600160a01b03851660208201526000918101829052606081018490529062001ba560025490565b6001600160a01b03861660009081526003602090815260408083208054600181018255908452919092200182905551909150819060049062001be990899062002a9f565b9081526040805160209281900383019020929092556000838152600582529190912083518051859362001c219284929101906200262f565b5060208201516001820180546001600160a01b0319166001600160a01b03928316179055604080840151600284015560609093015160039092019190915590519086169062001c7290889062002a9f565b604051908190038120838252907fc78b0baeb481012ee495f6c7c720a835617068842b0e0131f4e4bb4a8f7e9cdd9060200160405180910390a3505050505050565b3362001d035760405162461bcd60e51b815260206004820152601e60248201527f5472616e736665722066726f6d20746865207a65726f20616464726573730000604482015260640162000488565b60048160405162001d15919062002a9f565b9081526020016040518091039020546000141562001d765760405162461bcd60e51b815260206004820152601a60248201527f446f6d61696e206e616d6520646f6573206e6f74206578697374000000000000604482015260640162000488565b60006005600060048460405162001d8e919062002a9f565b908152602001604051809103902054815260200190815260200160002090503481600201600082825462001dc3919062002e1b565b90915550505050565b60006009600060088460405162001de4919062002a9f565b908152602001604051809103902054815260200190815260200160002090506000600a8360405162001e17919062002a9f565b908152604080519182900360209081018320805480830285018301909352828452919083018282801562001e6b57602002820191906000526020600020905b81548152602001906001019080831162001e56575b5050505050905060005b8151811015620020bf57600c600083838151811062001ea457634e487b7160e01b600052603260045260246000fd5b602090810291909101810151825281019190915260400160002060010154600160a01b900460ff1662001ed757620020aa565b600583015482516001600160a01b0390911690600c9060009085908590811062001f1157634e487b7160e01b600052603260045260246000fd5b6020908102919091018101518252810191909152604001600020600101546001600160a01b0316146200200e57600c600083838151811062001f6357634e487b7160e01b600052603260045260246000fd5b6020026020010151815260200190815260200160002060010160009054906101000a90046001600160a01b03166001600160a01b03166108fc600c600085858151811062001fc157634e487b7160e01b600052603260045260246000fd5b60200260200101518152602001908152602001600020600201549081150290604051600060405180830381858888f1935050505015801562002007573d6000803e3d6000fd5b50620020aa565b620020aa84600c60008585815181106200203857634e487b7160e01b600052603260045260246000fd5b6020026020010151815260200190815260200160002060010160009054906101000a90046001600160a01b0316600c60008686815181106200208a57634e487b7160e01b600052603260045260246000fd5b602002602001015181526020019081526020016000206002015462001aed565b80620020b68162002ec0565b91505062001e75565b5050600701805460ff1916600117905550565b60606000620020e060075490565b90506000816001600160401b038111156200210b57634e487b7160e01b600052604160045260246000fd5b6040519080825280602002602001820160405280156200219257816020015b6200217e604051806101000160405280600081526020016000815260200160608152602001600081526020016000815260200160006001600160a01b03168152602001600081526020016000151581525090565b8152602001906001900390816200212a5790505b509050600060015b838111620023025760096000828152602001908152602001600020604051806101000160405290816000820154815260200160018201548152602001600282018054620021e79062002e83565b80601f0160208091040260200160405190810160405280929190818152602001828054620022159062002e83565b8015620022665780601f106200223a5761010080835404028352916020019162002266565b820191906000526020600020905b8154815290600101906020018083116200224857829003601f168201915b5050509183525050600382015460208201526004820154604082015260058201546001600160a01b031660608201526006820154608082015260079091015460ff16151560a0909101528351849084908110620022d357634e487b7160e01b600052603260045260246000fd5b6020908102919091010152620022eb60018362002e1b565b915080620022f98162002ec0565b9150506200219a565b50909392505050565b620023528160405160240162002322919062002d7a565b60408051601f198184030181529190526020810180516001600160e01b031663104c13eb60e21b1790526200260e565b50565b62002364600680546001019055565b60006200237060065490565b90506040518060e00160405280838152602001846001600160a01b031681526020016000151581526020016000815260200160096000600886604051620023b8919062002a9f565b908152602001604051809103902054815260200190815260200160002060060154815260200160096000600886604051620023f4919062002a9f565b90815260200160405180910390205481526020019081526020016000206000015481526020016009600060088660405162002430919062002a9f565b908152602001604051809103902054815260200190815260200160002060010154815250600c60008381526020019081526020016000206000820151816000019080519060200190620024859291906200262f565b5060208201516001820180546040808601511515600160a01b026001600160a81b03199092166001600160a01b0390941693909317179055606083015160028301556080830151600383015560a0830151600483015560c09092015160059091015551600a90620024f890849062002a9f565b908152604080516020928190038301902080546001808201835560009283528483209091018590556001600160a01b03969096168152600b8352908120805495860181558152209092019190915550565b62002352816040516024016200256191815260200190565b60408051601f198184030181529190526020810180516001600160e01b031663f82c50f160e01b1790526200260e565b60008060096000600887604051620025aa919062002a9f565b9081526020016040518091039020548152602001908152602001600020905080600401548311620025e057600091505062002607565b6004810183905560050180546001600160a01b0319166001600160a01b0385161790555060015b9392505050565b80516a636f6e736f6c652e6c6f67602083016000808483855afa5050505050565b8280546200263d9062002e83565b90600052602060002090601f016020900481019282620026615760008555620026ac565b82601f106200267c57805160ff1916838001178555620026ac565b82800160010185558215620026ac579182015b82811115620026ac5782518255916020019190600101906200268f565b50620026ba929150620026cc565b5090565b6105d78062002f2183390190565b5b80821115620026ba5760008155600101620026cd565b600082601f830112620026f4578081fd5b81356200270b620027058262002df1565b62002dbe565b81815284602083860101111562002720578283fd5b816020850160208301379081016020019190915292915050565b6000602082840312156200274c578081fd5b8135620026078162002f0a565b6000602082840312156200276b578081fd5b8151620026078162002f0a565b600080604083850312156200278b578081fd5b8235620027988162002f0a565b915060208301356001600160401b03811115620027b3578182fd5b620027c185828601620026e3565b9150509250929050565b60008060408385031215620027de578182fd5b82356001600160401b03811115620027f4578283fd5b6200280285828601620026e3565b95602094909401359450505050565b60008060006060848603121562002826578081fd5b83356001600160401b03808211156200283d578283fd5b6200284b87838801620026e3565b945060208601359350604086013591508082111562002868578283fd5b506200287786828701620026e3565b9150509250925092565b6000806000806060858703121562002897578081fd5b84356001600160401b0380821115620028ae578283fd5b818701915087601f830112620028c2578283fd5b813581811115620028d1578384fd5b886020828501011115620028e3578384fd5b6020928301999098509187013596604001359550909350505050565b60006020828403121562002911578081fd5b81356001600160401b0381111562002927578182fd5b6200293584828501620026e3565b949350505050565b6000602082840312156200294f578081fd5b81516001600160401b0381111562002965578182fd5b8201601f8101841362002976578182fd5b805162002987620027058262002df1565b8181528560208385010111156200299c578384fd5b620029af82602083016020860162002e50565b95945050505050565b600080600060608486031215620029cd578283fd5b83356001600160401b03811115620029e3578384fd5b620029f186828701620026e3565b935050602084013562002a048162002f0a565b929592945050506040919091013590565b60006020828403121562002a27578081fd5b5051919050565b6000815180845262002a4881602086016020860162002e50565b601f01601f19169290920160200192915050565b6000835162002a7081846020880162002e50565b83519083019062002a8681836020880162002e50565b01949350505050565b8183823760009101908152919050565b6000825162002ab381846020870162002e50565b9190910192915050565b600080835482600182811c91508083168062002ada57607f831692505b602080841082141562002afb57634e487b7160e01b87526022600452602487fd5b81801562002b12576001811462002b245762002b52565b60ff1986168952848901965062002b52565b60008a815260209020885b8681101562002b4a5781548b82015290850190830162002b2f565b505084890196505b509498975050505050505050565b6001600160a01b0383168152604060208201819052600090620029359083018462002a2e565b60006020808301818452808551808352604092508286019150828160051b870101848801865b8381101562002c3a57603f19898403018552815161010081518552888201518986015287820151818987015262002be68287018262002a2e565b606084810151908801526080808501519088015260a0808501516001600160a01b03169088015260c0808501519088015260e093840151151593909601929092525050938601939086019060010162002bac565b509098975050505050505050565b60006020808301818452808551808352604092508286019150828160051b870101848801865b8381101562002c3a57603f19898403018552815160e0815181865262002c978287018262002a2e565b838b01516001600160a01b0316878c01528984015115158a880152606080850151908801526080808501519088015260a0848101519088015260c09384015193909601929092525050938601939086019060010162002c6e565b60006020808301818452808551808352604092508286019150828160051b870101848801865b8381101562002c3a57603f1989840301855281516080815181865262002d408287018262002a2e565b838b01516001600160a01b0316878c0152898401518a88015260609384015193909601929092525050938601939086019060010162002d17565b60208152600062002607602083018462002a2e565b60208152816020820152818360408301376000818301604090810191909152601f909201601f19160101919050565b604051601f8201601f191681016001600160401b038111828210171562002de95762002de962002ef4565b604052919050565b60006001600160401b0382111562002e0d5762002e0d62002ef4565b50601f01601f191660200190565b6000821982111562002e315762002e3162002ede565b500190565b60008282101562002e4b5762002e4b62002ede565b500390565b60005b8381101562002e6d57818101518382015260200162002e53565b8381111562002e7d576000848401525b50505050565b600181811c9082168062002e9857607f821691505b6020821081141562002eba57634e487b7160e01b600052602260045260246000fd5b50919050565b600060001982141562002ed75762002ed762002ede565b5060010190565b634e487b7160e01b600052601160045260246000fd5b634e487b7160e01b600052604160045260246000fd5b6001600160a01b03811681146200235257600080fdfe60806040526040516105d73803806105d783398101604081905261002291610108565b6001600081905580546001600160a01b0319166001600160a01b038416179055805161005590600290602084019061006f565b5050600380546001600160a01b0319163317905550610244565b82805461007b906101f3565b90600052602060002090601f01602090048101928261009d57600085556100e3565b82601f106100b657805160ff19168380011785556100e3565b828001600101855582156100e3579182015b828111156100e35782518255916020019190600101906100c8565b506100ef9291506100f3565b5090565b5b808211156100ef57600081556001016100f4565b6000806040838503121561011a578182fd5b82516001600160a01b0381168114610130578283fd5b602084810151919350906001600160401b038082111561014e578384fd5b818601915086601f830112610161578384fd5b8151818111156101735761017361022e565b604051601f8201601f19908116603f0116810190838211818310171561019b5761019b61022e565b8160405282815289868487010111156101b2578687fd5b8693505b828410156101d357848401860151818501870152928501926101b6565b828411156101e357868684830101525b8096505050505050509250929050565b600181811c9082168061020757607f821691505b6020821081141561022857634e487b7160e01b600052602260045260246000fd5b50919050565b634e487b7160e01b600052604160045260246000fd5b610384806102536000396000f3fe608060405234801561001057600080fd5b506004361061004c5760003560e01c806306fdde031461005157806312065fe01461006f5780633ccfd60b1461007d578063f496d88214610087575b600080fd5b6100596100b2565b60405161006691906102c0565b60405180910390f35b604051478152602001610066565b610085610140565b005b60015461009a906001600160a01b031681565b6040516001600160a01b039091168152602001610066565b600280546100bf90610313565b80601f01602080910402602001604051908101604052809291908181526020018280546100eb90610313565b80156101385780601f1061010d57610100808354040283529160200191610138565b820191906000526020600020905b81548152906001019060200180831161011b57829003601f168201915b505050505081565b600260005414156101985760405162461bcd60e51b815260206004820152601f60248201527f5265656e7472616e637947756172643a207265656e7472616e742063616c6c0060448201526064015b60405180910390fd5b60026000556003546001600160a01b031633146102065760405162461bcd60e51b815260206004820152602660248201527f596f752063616e6e6f742077697468647261772066726f6d207468697320636f6044820152651b9d1c9858dd60d21b606482015260840161018f565b6003546040516000916001600160a01b03169047908381818185875af1925050503d8060008114610253576040519150601f19603f3d011682016040523d82523d6000602084013e610258565b606091505b50509050806102b85760405162461bcd60e51b815260206004820152602660248201527f4661696c656420746f2073656e64204574686572206261636b20746f207468656044820152651037bbb732b960d11b606482015260840161018f565b506001600055565b6000602080835283518082850152825b818110156102ec578581018301518582016040015282016102d0565b818111156102fd5783604083870101525b50601f01601f1916929092016040019392505050565b600181811c9082168061032757607f821691505b6020821081141561034857634e487b7160e01b600052602260045260246000fd5b5091905056fea264697066735822122068009251d04c82f39e57971ca10fee27fefdbfbfa250539cf047c57f6f50715e64736f6c63430008040033a264697066735822122009792bed02cb34b400bdb3510af4df8d0b51c9128692009fca122a4c96d5164664736f6c63430008040033",
  "linkReferences": {},
  "deployedLinkReferences": {}
}