{
  "_format": "hh-sol-artifact-1",
  "contractName": "Dns",
  "sourceName": "contracts/Dns.sol",
  "abi": [
    {
      "inputs": [],
      "stateMutability": "nonpayable",
      "type": "constructor"
    },
    {
      "anonymous": false,
      "inputs": [
        {
          "indexed": false,
          "internalType": "string",
          "name": "name",
          "type": "string"
        },
        {
          "indexed": false,
          "internalType": "address",
          "name": "winner",
          "type": "address"
        }
      ],
      "name": "AuctionEnded",
      "type": "event"
    },
    {
      "anonymous": false,
      "inputs": [
        {
          "indexed": false,
          "internalType": "string",
          "name": "name",
          "type": "string"
        }
      ],
      "name": "AuctionStarted",
      "type": "event"
    },
    {
      "anonymous": false,
      "inputs": [
        {
          "indexed": false,
          "internalType": "address",
          "name": "bidder",
          "type": "address"
        },
        {
          "indexed": false,
          "internalType": "string",
          "name": "name",
          "type": "string"
        }
      ],
      "name": "BidMade",
      "type": "event"
    },
    {
      "anonymous": false,
      "inputs": [
        {
          "indexed": false,
          "internalType": "address",
          "name": "bidder",
          "type": "address"
        },
        {
          "indexed": false,
          "internalType": "string",
          "name": "name",
          "type": "string"
        },
        {
          "indexed": false,
          "internalType": "uint256",
          "name": "value",
          "type": "uint256"
        },
        {
          "indexed": false,
          "internalType": "bool",
          "name": "revealed",
          "type": "bool"
        }
      ],
      "name": "BidRevealed",
      "type": "event"
    },
    {
      "anonymous": false,
      "inputs": [
        {
          "indexed": false,
          "internalType": "uint256",
          "name": "id",
          "type": "uint256"
        },
        {
          "indexed": true,
          "internalType": "string",
          "name": "name",
          "type": "string"
        },
        {
          "indexed": true,
          "internalType": "address",
          "name": "owner",
          "type": "address"
        }
      ],
      "name": "DomainRegistered",
      "type": "event"
    },
    {
      "anonymous": false,
      "inputs": [
        {
          "indexed": false,
          "internalType": "address",
          "name": "sender",
          "type": "address"
        },
        {
          "indexed": false,
          "internalType": "string",
          "name": "receiver",
          "type": "string"
        },
        {
          "indexed": false,
          "internalType": "uint256",
          "name": "amount",
          "type": "uint256"
        }
      ],
      "name": "SentToDomain",
      "type": "event"
    },
    {
      "anonymous": false,
      "inputs": [
        {
          "indexed": false,
          "internalType": "address",
          "name": "withdrawer",
          "type": "address"
        },
        {
          "indexed": false,
          "internalType": "string",
          "name": "name",
          "type": "string"
        },
        {
          "indexed": false,
          "internalType": "uint256",
          "name": "amount",
          "type": "uint256"
        }
      ],
      "name": "WithdrawnFromDomain",
      "type": "event"
    },
    {
      "inputs": [
        {
          "internalType": "address",
          "name": "",
          "type": "address"
        },
        {
          "internalType": "uint256",
          "name": "",
          "type": "uint256"
        }
      ],
      "name": "addrToDomainId",
      "outputs": [
        {
          "internalType": "uint256",
          "name": "",
          "type": "uint256"
        }
      ],
      "stateMutability": "view",
      "type": "function"
    },
    {
      "inputs": [
        {
          "internalType": "uint256",
          "name": "",
          "type": "uint256"
        }
      ],
      "name": "auctions",
      "outputs": [
        {
          "internalType": "uint256",
          "name": "biddingEnd",
          "type": "uint256"
        },
        {
          "internalType": "uint256",
          "name": "revealEnd",
          "type": "uint256"
        },
        {
          "internalType": "string",
          "name": "name",
          "type": "string"
        },
        {
          "internalType": "uint256",
          "name": "auctionId",
          "type": "uint256"
        },
        {
          "internalType": "uint256",
          "name": "highestBid",
          "type": "uint256"
        },
        {
          "internalType": "address",
          "name": "highestBidder",
          "type": "address"
        },
        {
          "internalType": "uint256",
          "name": "start",
          "type": "uint256"
        },
        {
          "internalType": "bool",
          "name": "ended",
          "type": "bool"
        }
      ],
      "stateMutability": "view",
      "type": "function"
    },
    {
      "inputs": [
        {
          "internalType": "bytes",
          "name": "bytecode",
          "type": "bytes"
        },
        {
          "internalType": "uint256",
          "name": "_salt",
          "type": "uint256"
        },
        {
          "internalType": "string",
          "name": "_name",
          "type": "string"
        }
      ],
      "name": "bid",
      "outputs": [],
      "stateMutability": "payable",
      "type": "function"
    },
    {
      "inputs": [
        {
          "internalType": "bytes",
          "name": "bytecode",
          "type": "bytes"
        },
        {
          "internalType": "uint256",
          "name": "salt",
          "type": "uint256"
        },
        {
          "internalType": "string",
          "name": "_name",
          "type": "string"
        }
      ],
      "name": "check",
      "outputs": [],
      "stateMutability": "nonpayable",
      "type": "function"
    },
    {
      "inputs": [],
      "name": "checkAuctionsToEnd",
      "outputs": [],
      "stateMutability": "nonpayable",
      "type": "function"
    },
    {
      "inputs": [
        {
          "internalType": "string",
          "name": "_name",
          "type": "string"
        }
      ],
      "name": "checkIfAuctionExists",
      "outputs": [
        {
          "internalType": "bool",
          "name": "",
          "type": "bool"
        }
      ],
      "stateMutability": "view",
      "type": "function"
    },
    {
      "inputs": [
        {
          "internalType": "uint256",
          "name": "",
          "type": "uint256"
        }
      ],
      "name": "domains",
      "outputs": [
        {
          "internalType": "string",
          "name": "domainName",
          "type": "string"
        },
        {
          "internalType": "address",
          "name": "owner",
          "type": "address"
        },
        {
          "internalType": "uint256",
          "name": "balance",
          "type": "uint256"
        },
        {
          "internalType": "uint256",
          "name": "value",
          "type": "uint256"
        }
      ],
      "stateMutability": "view",
      "type": "function"
    },
    {
      "inputs": [
        {
          "internalType": "string",
          "name": "_name",
          "type": "string"
        }
      ],
      "name": "endAuction",
      "outputs": [],
      "stateMutability": "nonpayable",
      "type": "function"
    },
    {
      "inputs": [
        {
          "internalType": "bytes",
          "name": "bytecode",
          "type": "bytes"
        },
        {
          "internalType": "uint256",
          "name": "_salt",
          "type": "uint256"
        }
      ],
      "name": "getAddress",
      "outputs": [
        {
          "internalType": "address",
          "name": "",
          "type": "address"
        }
      ],
      "stateMutability": "view",
      "type": "function"
    },
    {
      "inputs": [],
      "name": "getAllDomains",
      "outputs": [
        {
          "components": [
            {
              "internalType": "string",
              "name": "domainName",
              "type": "string"
            },
            {
              "internalType": "address",
              "name": "owner",
              "type": "address"
            },
            {
              "internalType": "uint256",
              "name": "balance",
              "type": "uint256"
            },
            {
              "internalType": "uint256",
              "name": "value",
              "type": "uint256"
            }
          ],
          "internalType": "struct IDns.EthDomain[]",
          "name": "",
          "type": "tuple[]"
        }
      ],
      "stateMutability": "view",
      "type": "function"
    },
    {
      "inputs": [],
      "name": "getAuctions",
      "outputs": [
        {
          "components": [
            {
              "internalType": "uint256",
              "name": "biddingEnd",
              "type": "uint256"
            },
            {
              "internalType": "uint256",
              "name": "revealEnd",
              "type": "uint256"
            },
            {
              "internalType": "string",
              "name": "name",
              "type": "string"
            },
            {
              "internalType": "uint256",
              "name": "auctionId",
              "type": "uint256"
            },
            {
              "internalType": "uint256",
              "name": "highestBid",
              "type": "uint256"
            },
            {
              "internalType": "address",
              "name": "highestBidder",
              "type": "address"
            },
            {
              "internalType": "uint256",
              "name": "start",
              "type": "uint256"
            },
            {
              "internalType": "bool",
              "name": "ended",
              "type": "bool"
            }
          ],
          "internalType": "struct IDns.Auction[]",
          "name": "",
          "type": "tuple[]"
        }
      ],
      "stateMutability": "view",
      "type": "function"
    },
    {
      "inputs": [],
      "name": "getBalance",
      "outputs": [
        {
          "internalType": "uint256",
          "name": "",
          "type": "uint256"
        }
      ],
      "stateMutability": "view",
      "type": "function"
    },
    {
      "inputs": [
        {
          "internalType": "address",
          "name": "_user",
          "type": "address"
        }
      ],
      "name": "getBiddings",
      "outputs": [
        {
          "components": [
            {
              "internalType": "string",
              "name": "name",
              "type": "string"
            },
            {
              "internalType": "address",
              "name": "bidder",
              "type": "address"
            },
            {
              "internalType": "bool",
              "name": "revealed",
              "type": "bool"
            },
            {
              "internalType": "uint256",
              "name": "revealedBid",
              "type": "uint256"
            },
            {
              "internalType": "uint256",
              "name": "start",
              "type": "uint256"
            },
            {
              "internalType": "uint256",
              "name": "end",
              "type": "uint256"
            }
          ],
          "internalType": "struct IDns.Bid[]",
          "name": "",
          "type": "tuple[]"
        }
      ],
      "stateMutability": "view",
      "type": "function"
    },
    {
      "inputs": [
        {
          "internalType": "address",
          "name": "_owner",
          "type": "address"
        },
        {
          "internalType": "string",
          "name": "_name",
          "type": "string"
        }
      ],
      "name": "getBytecode",
      "outputs": [
        {
          "internalType": "bytes",
          "name": "",
          "type": "bytes"
        }
      ],
      "stateMutability": "pure",
      "type": "function"
    },
    {
      "inputs": [
        {
          "internalType": "address",
          "name": "ownerAddress",
          "type": "address"
        }
      ],
      "name": "getDomains",
      "outputs": [
        {
          "components": [
            {
              "internalType": "string",
              "name": "domainName",
              "type": "string"
            },
            {
              "internalType": "address",
              "name": "owner",
              "type": "address"
            },
            {
              "internalType": "uint256",
              "name": "balance",
              "type": "uint256"
            },
            {
              "internalType": "uint256",
              "name": "value",
              "type": "uint256"
            }
          ],
          "internalType": "struct IDns.EthDomain[]",
          "name": "",
          "type": "tuple[]"
        }
      ],
      "stateMutability": "view",
      "type": "function"
    },
    {
      "inputs": [
        {
          "internalType": "string",
          "name": "",
          "type": "string"
        }
      ],
      "name": "nameToDomainId",
      "outputs": [
        {
          "internalType": "uint256",
          "name": "",
          "type": "uint256"
        }
      ],
      "stateMutability": "view",
      "type": "function"
    },
    {
      "inputs": [],
      "name": "owner",
      "outputs": [
        {
          "internalType": "address",
          "name": "",
          "type": "address"
        }
      ],
      "stateMutability": "view",
      "type": "function"
    },
    {
      "inputs": [
        {
          "internalType": "string",
          "name": "_name",
          "type": "string"
        },
        {
          "internalType": "address",
          "name": "_owner",
          "type": "address"
        },
        {
          "internalType": "uint256",
          "name": "_value",
          "type": "uint256"
        }
      ],
      "name": "registerName",
      "outputs": [],
      "stateMutability": "nonpayable",
      "type": "function"
    },
    {
      "inputs": [],
      "name": "registryName",
      "outputs": [
        {
          "internalType": "string",
          "name": "",
          "type": "string"
        }
      ],
      "stateMutability": "view",
      "type": "function"
    },
    {
      "inputs": [
        {
          "internalType": "string",
          "name": "_name",
          "type": "string"
        }
      ],
      "name": "resolveDomainName",
      "outputs": [
        {
          "internalType": "address",
          "name": "",
          "type": "address"
        }
      ],
      "stateMutability": "view",
      "type": "function"
    },
    {
      "inputs": [
        {
          "internalType": "string",
          "name": "_name",
          "type": "string"
        }
      ],
      "name": "sendDomain",
      "outputs": [],
      "stateMutability": "payable",
      "type": "function"
    },
    {
      "inputs": [
        {
          "internalType": "string",
          "name": "_name",
          "type": "string"
        },
        {
          "internalType": "uint256",
          "name": "_bidDuration",
          "type": "uint256"
        },
        {
          "internalType": "uint256",
          "name": "_revealDuration",
          "type": "uint256"
        }
      ],
      "name": "startAuction",
      "outputs": [],
      "stateMutability": "nonpayable",
      "type": "function"
    },
    {
      "inputs": [
        {
          "internalType": "string",
          "name": "_name",
          "type": "string"
        },
        {
          "internalType": "uint256",
          "name": "amount",
          "type": "uint256"
        }
      ],
      "name": "withdrawFrmDomain",
      "outputs": [],
      "stateMutability": "nonpayable",
      "type": "function"
    },
    {
      "stateMutability": "payable",
      "type": "receive"
    }
  ],
  "bytecode": "0x60806040523480156200001157600080fd5b5060016000556040805180820190915260148082527f4e545520646f6d61696e2072656769737472617200000000000000000000000060209092019182526200005d9160029162000132565b50600180546001600160a01b0319163317905560408051808201909152601d81527f4e545520646f6d61696e20726567697374726172206465706c6f796564000000602080830191909152620000bd91906200261e620000c3821b17901c565b6200026b565b6200010e81604051602401620000da9190620001d8565b60408051601f198184030181529190526020810180516001600160e01b0390811663104c13eb60e21b179091526200011116565b50565b80516a636f6e736f6c652e6c6f67602083016000808483855afa5050505050565b82805462000140906200022e565b90600052602060002090601f016020900481019282620001645760008555620001af565b82601f106200017f57805160ff1916838001178555620001af565b82800160010185558215620001af579182015b82811115620001af57825182559160200191906001019062000192565b50620001bd929150620001c1565b5090565b5b80821115620001bd5760008155600101620001c2565b6000602080835283518082850152825b818110156200020657858101830151858201604001528201620001e8565b81811115620002185783604083870101525b50601f01601f1916929092016040019392505050565b600181811c908216806200024357607f821691505b602082108114156200026557634e487b7160e01b600052602260045260246000fd5b50919050565b613892806200027b6000396000f3fe6080604052600436106200015f5760003560e01c80635a98374511620000c557806399726b10116200007857806399726b1014620004445780639bc83cfa1462000469578063c90d9b2a146200048e578063ce2ba9bf14620004a5578063d7c0691914620004ca578063e80d842c14620004f157600080fd5b80635a983745146200033157806366cf8fab14620003655780637cee8c67146200039c578063849582a414620003d85780638da5cb5b14620003fd57806394ca2cb5146200041f57600080fd5b80632ac63f99116200011e5780632ac63f991462000237578063340a2df8146200025c57806335ff502e14620002745780634f15aeb814620002aa578063571a26a014620002cf5780635a018e6a146200030a57600080fd5b80630369567f146200016c578063106aa90c146200018557806312065fe014620001bd5780631654d16914620001d25780632a7f0f3114620001f957600080fd5b366200016757005b600080fd5b620001836200017d36600462002b1d565b62000516565b005b3480156200019257600080fd5b50620001aa620001a436600462002aa9565b6200076c565b6040519081526020015b60405180910390f35b348015620001ca57600080fd5b5047620001aa565b348015620001df57600080fd5b50620001ea6200079e565b604051620001b4919062003109565b3480156200020657600080fd5b506200021e6200021836600462002c0b565b62000834565b6040516001600160a01b039091168152602001620001b4565b3480156200024457600080fd5b50620001836200025636600462002b8d565b6200087e565b3480156200026957600080fd5b506200018362000b57565b3480156200028157600080fd5b50620002996200029336600462002c0b565b62000c91565b6040519015158152602001620001b4565b348015620002b757600080fd5b50620001ea620002c936600462002a56565b62000d2e565b348015620002dc57600080fd5b50620002f4620002ee36600462002d21565b62000da8565b604051620001b4989796959493929190620031b3565b3480156200031757600080fd5b506200032262000e86565b604051620001b4919062003080565b3480156200033e57600080fd5b50620003566200035036600462002a18565b6200106a565b604051620001b4919062002fe1565b3480156200037257600080fd5b506200038a6200038436600462002d21565b620012f4565b604051620001b4949392919062003179565b348015620003a957600080fd5b50620001aa620003bb36600462002c0b565b805160208183018101805160058252928201919093012091525481565b348015620003e557600080fd5b5062000183620003f736600462002ad7565b620013b8565b3480156200040a57600080fd5b506001546200021e906001600160a01b031681565b3480156200042c57600080fd5b506200021e6200043e36600462002ad7565b620015cc565b3480156200045157600080fd5b50620001836200046336600462002b1d565b62001628565b3480156200047657600080fd5b50620001836200048836600462002cc4565b62001b44565b620001836200049f36600462002c0b565b62001ccc565b348015620004b257600080fd5b5062000183620004c436600462002c0b565b62001e22565b348015620004d757600080fd5b50620004e2620021b5565b604051620001b4919062002f1f565b348015620004fe57600080fd5b50620003226200051036600462002a18565b620023e2565b8060098160405162000529919062002dc4565b90815260200160405180910390205460001415620005875760405162461bcd60e51b8152602060048201526016602482015275185d58dd1a5bdb88191bd95cc81b9bdd08195e1a5cdd60521b60448201526064015b60405180910390fd5b813360005b6001600160a01b0382166000908152600c6020526040902054811015620006bd5782604051602001620005c0919062002dc4565b60405160208183030381529060405280519060200120600d6000600c6000866001600160a01b03166001600160a01b0316815260200190815260200160002084815481106200061f57634e487b7160e01b600052603260045260246000fd5b906000526020600020015481526020019081526020016000206000016040516020016200064d919062002de2565b604051602081830303815290604052805190602001201415620006a85760405162461bcd60e51b815260206004820152601260248201527142696420616c72656164792065786973747360701b60448201526064016200057e565b80620006b4816200330e565b9150506200058c565b5083600a6000600983604051620006d5919062002dc4565b90815260200160405180910390205481526020019081526020016000206000015442106200070257600080fd5b600086885160208a0134f59050803b6200071b57600080fd5b62000727338762002665565b7f92eb767245ca8829c6919f3fab91e97b9e2cc7f3e2f71ed25b74e5e23bffc6fe33876040516200075a92919062002e85565b60405180910390a15050505050505050565b600460205281600052604060002081815481106200078957600080fd5b90600052602060002001600091509150505481565b60028054620007ad90620032d1565b80601f0160208091040260200160405190810160405280929190818152602001828054620007db90620032d1565b80156200082c5780601f1062000800576101008083540402835291602001916200082c565b820191906000526020600020905b8154815290600101906020018083116200080e57829003601f168201915b505050505081565b6000600660006005846040516200084c919062002dc4565b90815260408051602092819003830190205483529082019290925201600020600101546001600160a01b031692915050565b600984846040516200089292919062002db4565b908152602001604051809103902054600014620008f25760405162461bcd60e51b815260206004820152601f60248201527f41756374696f6e20666f72207468697320616c7265616479206578697374730060448201526064016200057e565b600584846040516200090692919062002db4565b908152602001604051809103902054600014620009705760405162461bcd60e51b815260206004820152602160248201527f5468697320646f6d61696e206e616d6520697320616c7265616479206f776e656044820152601960fa1b60648201526084016200057e565b6200097f600880546001019055565b600060405180610100016040528084426200099b919062003269565b815260200183620009ad864262003269565b620009b9919062003269565b815260200186868080601f01602080910402602001604051908101604052809392919081815260200183838082843760009201919091525050509082525060200162000a0460085490565b815260006020820181905260408201819052426060830152608090910152905062000a2e60085490565b6009868660405162000a4292919062002db4565b9081526040519081900360200190205562000a6662000a6060085490565b62002827565b80600a600062000a7560085490565b81526020019081526020016000206000820151816000015560208201518160010155604082015181600201908051906020019062000ab59291906200290d565b50606082015160038201556080820151600482015560a08201516005820180546001600160a01b0319166001600160a01b0390921691909117905560c0820151600682015560e0909101516007909101805460ff19169115159190911790556040517f50aa32fed87143a12f31f64ad9199a4cdc7b35635008b92f753d4c66dafdb4239062000b4890879087906200311e565b60405180910390a15050505050565b60085462000b9e5760405162461bcd60e51b8152602060048201526013602482015272139bc8185d58dd1a5bdb9cc818dc99585d1959606a1b60448201526064016200057e565b60015b600854811162000c8e576000818152600a602052604090206001015442101562000bcb5762000c79565b6000818152600a60205260409020600201805462000c79919062000bef90620032d1565b80601f016020809104026020016040519081016040528092919081815260200182805462000c1d90620032d1565b801562000c6e5780601f1062000c425761010080835404028352916020019162000c6e565b820191906000526020600020905b81548152906001019060200180831162000c5057829003601f168201915b505050505062001e22565b8062000c85816200330e565b91505062000ba1565b50565b600060015b600854811162000d25578260405160200162000cb3919062002dc4565b60408051601f1981840301815282825280516020918201206000858152600a835292909220919262000cea92600201910162002de2565b60405160208183030381529060405280519060200120141562000d105750600192915050565b8062000d1c816200330e565b91505062000c96565b50600092915050565b606060006040518060200162000d44906200299c565b6020820181038252601f19601f82011660405250905080848460405160200162000d7092919062002e85565b60408051601f198184030181529082905262000d90929160200162002d81565b60405160208183030381529060405291505092915050565b600a602052600090815260409020805460018201546002830180549293919262000dd290620032d1565b80601f016020809104026020016040519081016040528092919081815260200182805462000e0090620032d1565b801562000e515780601f1062000e255761010080835404028352916020019162000e51565b820191906000526020600020905b81548152906001019060200180831162000e3357829003601f168201915b5050506003840154600485015460058601546006870154600790970154959692959194506001600160a01b0316925060ff1688565b6060600062000e9460035490565b6001600160401b0381111562000eba57634e487b7160e01b600052604160045260246000fd5b60405190808252806020026020018201604052801562000f2257816020015b62000f0e60405180608001604052806060815260200160006001600160a01b0316815260200160008152602001600081525090565b81526020019060019003908162000ed95790505b509050600060015b600354811162001062576000818152600660205260409081902081516080810190925280548290829062000f5e90620032d1565b80601f016020809104026020016040519081016040528092919081815260200182805462000f8c90620032d1565b801562000fdd5780601f1062000fb15761010080835404028352916020019162000fdd565b820191906000526020600020905b81548152906001019060200180831162000fbf57829003601f168201915b505050918352505060018201546001600160a01b031660208201526002820154604082015260039091015460609091015283518490849081106200103157634e487b7160e01b600052603260045260246000fd5b6020026020010181905250818062001049906200330e565b925050808062001059906200330e565b91505062000f2a565b509092915050565b6001600160a01b0381166000908152600c60209081526040808320805482518185028101850190935280835260609493830182828015620010cb57602002820191906000526020600020905b815481526020019060010190808311620010b6575b50505050509050600081516001600160401b03811115620010fc57634e487b7160e01b600052604160045260246000fd5b6040519080825280602002602001820160405280156200117457816020015b620011606040518060c001604052806060815260200160006001600160a01b031681526020016000151581526020016000815260200160008152602001600081525090565b8152602001906001900390816200111b5790505b50905060005b8251811015620012ec57600d6000848381518110620011a957634e487b7160e01b600052603260045260246000fd5b602002602001015181526020019081526020016000206040518060c0016040529081600082018054620011dc90620032d1565b80601f01602080910402602001604051908101604052809291908181526020018280546200120a90620032d1565b80156200125b5780601f106200122f576101008083540402835291602001916200125b565b820191906000526020600020905b8154815290600101906020018083116200123d57829003601f168201915b505050918352505060018201546001600160a01b0381166020830152600160a01b900460ff1615156040820152600282015460608201526003820154608082015260049091015460a0909101528251839083908110620012cb57634e487b7160e01b600052603260045260246000fd5b60200260200101819052508080620012e3906200330e565b9150506200117a565b509392505050565b6006602052600090815260409020805481906200131190620032d1565b80601f01602080910402602001604051908101604052809291908181526020018280546200133f90620032d1565b8015620013905780601f10620013645761010080835404028352916020019162001390565b820191906000526020600020905b8154815290600101906020018083116200137257829003601f168201915b505050506001830154600284015460039094015492936001600160a01b039091169290915084565b600260005414156200140d5760405162461bcd60e51b815260206004820152601f60248201527f5265656e7472616e637947756172643a207265656e7472616e742063616c6c0060448201526064016200057e565b60026000556040516005906200142590849062002dc4565b90815260200160405180910390205460001415620014865760405162461bcd60e51b815260206004820152601a60248201527f446f6d61696e206e616d6520646f6573206e6f7420657869737400000000000060448201526064016200057e565b6000600660006005856040516200149e919062002dc4565b9081526040805160209281900383019020548352908201929092520160002060018101549091506001600160a01b031633146200151e5760405162461bcd60e51b815260206004820152601a60248201527f596f7520646f206e6f74206f776e2074686573652066756e647300000000000060448201526064016200057e565b8060020154821115620015695760405162461bcd60e51b8152602060048201526012602482015271496e73756666696369656e742066756e647360701b60448201526064016200057e565b818160020160008282546200157f919062003284565b90915550506040517f8b3d8607c1533d2542b181683b1c34dcfa150181c12dc81c1d3e801d5d06813e90620015ba9033908690869062002eab565b60405180910390a15050600160005550565b8151602092830120604080516001600160f81b0319818601523060601b6bffffffffffffffffffffffff191660218201526035810193909352605580840192909252805180840390920182526075909201909152805191012090565b80600a60006009836040516200163f919062002dc4565b9081526020016040518091039020548152602001908152602001600020600001544210156200166d57600080fd5b81600a600060098360405162001684919062002dc4565b9081526020016040518091039020548152602001908152602001600020600101544210620016b157600080fd5b600080600b85604051620016c6919062002dc4565b90815260408051918290036020908101832080548083028501830190935282845291908301828280156200171a57602002820191906000526020600020905b81548152602001906001019080831162001705575b5050505050905060006200172f8888620015cc565b905060008190506000816001600160a01b031663f496d8826040518163ffffffff1660e01b815260040160206040518083038186803b1580156200177257600080fd5b505afa15801562001787573d6000803e3d6000fd5b505050506040513d601f19601f82011682018060405250810190620017ad919062002a37565b90506000826001600160a01b03166306fdde036040518163ffffffff1660e01b815260040160006040518083038186803b158015620017eb57600080fd5b505afa15801562001800573d6000803e3d6000fd5b505050506040513d6000823e601f3d908101601f191682016040526200182a919081019062002c49565b90506000836001600160a01b03166312065fe06040518163ffffffff1660e01b815260040160206040518083038186803b1580156200186857600080fd5b505afa1580156200187d573d6000803e3d6000fd5b505050506040513d601f19601f82011682018060405250810190620018a3919062002d3a565b90506001600160a01b0383163314620018f95760405162461bcd60e51b815260206004820152601760248201527611985a5b1959081d1bc81d995c9a599e4818dbdb5b5a5d604a1b60448201526064016200057e565b896040516020016200190c919062002dc4565b604051602081830303815290604052805190602001208260405160200162001935919062002dc4565b6040516020818303038152906040528051906020012014620019945760405162461bcd60e51b815260206004820152601760248201527611985a5b1959081d1bc81d995c9a599e4818dbdb5b5a5d604a1b60448201526064016200057e565b60005b865181101562001b3557336001600160a01b0316600d6000898481518110620019d057634e487b7160e01b600052603260045260246000fd5b6020908102919091018101518252810191909152604001600020600101546001600160a01b0316141562001b2057600d600088838151811062001a2357634e487b7160e01b600052603260045260246000fd5b60200260200101518152602001908152602001600020975060018860010160146101000a81548160ff021916908315150217905550818860020181905550846001600160a01b0316633ccfd60b6040518163ffffffff1660e01b8152600401600060405180830381600087803b15801562001a9d57600080fd5b505af115801562001ab2573d6000803e3d6000fd5b5050505062001ac78b338a600201546200286f565b50600288015460018901546040517fe7b9400614ae8d3fb96a8ed036e790d12c0466fe2df292c92a44c602bb1c20d59262001b12928892889291600160a01b900460ff169062002ee1565b60405180910390a162001b35565b8062001b2c816200330e565b91505062001997565b50505050505050505050505050565b8260058160405162001b57919062002dc4565b90815260200160405180910390205460001462001b7357600080fd5b62001b82600380546001019055565b604080516080810182528581526001600160a01b038516602080830182905260008385018190526060840187905291825260049052919091206003548154600181018355600092835260209092209091015560035460058660405162001be9919062002dc4565b90815260405190819003602001902055806006600062001c0860035490565b815260208082019290925260400160002082518051919262001c30928492909101906200290d565b5060208201516001820180546001600160a01b0319166001600160a01b03928316179055604080840151600284015560609093015160039092019190915590519085169062001c8190879062002dc4565b60405180910390207fc78b0baeb481012ee495f6c7c720a835617068842b0e0131f4e4bb4a8f7e9cdd62001cb460035490565b60405190815260200160405180910390a35050505050565b3362001d1b5760405162461bcd60e51b815260206004820152601e60248201527f5472616e736665722066726f6d20746865207a65726f2061646472657373000060448201526064016200057e565b60058160405162001d2d919062002dc4565b9081526020016040518091039020546000141562001d8e5760405162461bcd60e51b815260206004820152601a60248201527f446f6d61696e206e616d6520646f6573206e6f7420657869737400000000000060448201526064016200057e565b60006006600060058460405162001da6919062002dc4565b908152602001604051809103902054815260200190815260200160002090503481600201600082825462001ddb919062003269565b90915550506040517f4d8625a4c0218499d61251f3c70b223f1810c4c5d8eb24f4c5a6a39f4d045eea9062001e169033908590349062002eab565b60405180910390a15050565b6000600a600060098460405162001e3a919062002dc4565b908152602001604051809103902054815260200190815260200160002090506000600b8360405162001e6d919062002dc4565b908152604080519182900360209081018320805480830285018301909352828452919083018282801562001ec157602002820191906000526020600020905b81548152602001906001019080831162001eac575b5050505050905060005b8151811015620021a257600d600083838151811062001efa57634e487b7160e01b600052603260045260246000fd5b602090810291909101810151825281019190915260400160002060010154600160a01b900460ff1662001f2d576200218d565b600583015482516001600160a01b0390911690600d9060009085908590811062001f6757634e487b7160e01b600052603260045260246000fd5b6020908102919091018101518252810191909152604001600020600101546001600160a01b0316146200206457600d600083838151811062001fb957634e487b7160e01b600052603260045260246000fd5b6020026020010151815260200190815260200160002060010160009054906101000a90046001600160a01b03166001600160a01b03166108fc600d60008585815181106200201757634e487b7160e01b600052603260045260246000fd5b60200260200101518152602001908152602001600020600201549081150290604051600060405180830381858888f193505050501580156200205d573d6000803e3d6000fd5b506200218d565b6200210084600d60008585815181106200208e57634e487b7160e01b600052603260045260246000fd5b6020026020010151815260200190815260200160002060010160009054906101000a90046001600160a01b0316600d6000868681518110620020e057634e487b7160e01b600052603260045260246000fd5b602002602001015181526020019081526020016000206002015462001b44565b7fde7e436f28139dd5690061445b009a314e2687b635f90fdf47ae2bf8d4e6c21584600d60008585815181106200214757634e487b7160e01b600052603260045260246000fd5b6020026020010151815260200190815260200160002060010160009054906101000a90046001600160a01b0316604051620021849291906200314d565b60405180910390a15b8062002199816200330e565b91505062001ecb565b5050600701805460ff1916600117905550565b60606000620021c360085490565b6001600160401b03811115620021e957634e487b7160e01b600052604160045260246000fd5b6040519080825280602002602001820160405280156200227057816020015b6200225c604051806101000160405280600081526020016000815260200160608152602001600081526020016000815260200160006001600160a01b03168152602001600081526020016000151581525090565b815260200190600190039081620022085790505b509050600060015b60085481116200106257600a6000828152602001908152602001600020604051806101000160405290816000820154815260200160018201548152602001600282018054620022c790620032d1565b80601f0160208091040260200160405190810160405280929190818152602001828054620022f590620032d1565b8015620023465780601f106200231a5761010080835404028352916020019162002346565b820191906000526020600020905b8154815290600101906020018083116200232857829003601f168201915b5050509183525050600382015460208201526004820154604082015260058201546001600160a01b031660608201526006820154608082015260079091015460ff16151560a0909101528351849084908110620023b357634e487b7160e01b600052603260045260246000fd5b6020908102919091010152620023cb60018362003269565b915080620023d9816200330e565b91505062002278565b6001600160a01b0381166000908152600460205260408120546060919081906001600160401b038111156200242757634e487b7160e01b600052604160045260246000fd5b6040519080825280602002602001820160405280156200248f57816020015b6200247b60405180608001604052806060815260200160006001600160a01b0316815260200160008152602001600081525090565b815260200190600190039081620024465790505b50905060005b6001600160a01b038516600090815260046020526040902054811015620012ec576001600160a01b03851660009081526004602052604081208054600692919084908110620024f457634e487b7160e01b600052603260045260246000fd5b906000526020600020015481526020019081526020016000206040518060800160405290816000820180546200252a90620032d1565b80601f01602080910402602001604051908101604052809291908181526020018280546200255890620032d1565b8015620025a95780601f106200257d57610100808354040283529160200191620025a9565b820191906000526020600020905b8154815290600101906020018083116200258b57829003601f168201915b505050918352505060018201546001600160a01b03166020820152600282015460408201526003909101546060909101528251839085908110620025fd57634e487b7160e01b600052603260045260246000fd5b6020026020010181905250808062002615906200330e565b91505062002495565b62000c8e8160405160240162002635919062003109565b60408051601f198184030181529190526020810180516001600160e01b031663104c13eb60e21b179052620028ec565b6000600a60006009846040516200267d919062002dc4565b90815260200160405180910390205481526020019081526020016000206006015490506000600a6000600985604051620026b8919062002dc4565b9081526020016040518091039020548152602001908152602001600020600101549050620026ea600780546001019055565b6040518060c00160405280848152602001856001600160a01b031681526020016000151581526020016000815260200183815260200182815250600d60006200273260075490565b81526020808201929092526040016000208251805191926200275a928492909101906200290d565b5060208201516001820180546040808601511515600160a01b026001600160a81b03199092166001600160a01b0390941693909317179055606083015160028301556080830151600383015560a09092015160049091015551600b90620027c390859062002dc4565b9081526020016040518091039020620027db60075490565b815460018101835560009283526020808420909101919091556001600160a01b0386168252600c9052604090206007548154600181018355600092835260209092209091015550505050565b62000c8e816040516024016200283f91815260200190565b60408051601f198184030181529190526020810180516001600160e01b031663f82c50f160e01b179052620028ec565b600080600a600060098760405162002888919062002dc4565b9081526020016040518091039020548152602001908152602001600020905080600401548311620028be576000915050620028e5565b6004810183905560050180546001600160a01b0319166001600160a01b0385161790555060015b9392505050565b80516a636f6e736f6c652e6c6f67602083016000808483855afa5050505050565b8280546200291b90620032d1565b90600052602060002090601f0160209004810192826200293f57600085556200298a565b82601f106200295a57805160ff19168380011785556200298a565b828001600101855582156200298a579182015b828111156200298a5782518255916020019190600101906200296d565b5062002998929150620029aa565b5090565b6104ee806200336f83390190565b5b80821115620029985760008155600101620029ab565b600082601f830112620029d2578081fd5b8135620029e9620029e3826200323f565b6200320c565b818152846020838601011115620029fe578283fd5b816020850160208301379081016020019190915292915050565b60006020828403121562002a2a578081fd5b8135620028e58162003358565b60006020828403121562002a49578081fd5b8151620028e58162003358565b6000806040838503121562002a69578081fd5b823562002a768162003358565b915060208301356001600160401b0381111562002a91578182fd5b62002a9f85828601620029c1565b9150509250929050565b6000806040838503121562002abc578182fd5b823562002ac98162003358565b946020939093013593505050565b6000806040838503121562002aea578182fd5b82356001600160401b0381111562002b00578283fd5b62002b0e85828601620029c1565b95602094909401359450505050565b60008060006060848603121562002b32578081fd5b83356001600160401b038082111562002b49578283fd5b62002b5787838801620029c1565b945060208601359350604086013591508082111562002b74578283fd5b5062002b8386828701620029c1565b9150509250925092565b6000806000806060858703121562002ba3578081fd5b84356001600160401b038082111562002bba578283fd5b818701915087601f83011262002bce578283fd5b81358181111562002bdd578384fd5b88602082850101111562002bef578384fd5b6020928301999098509187013596604001359550909350505050565b60006020828403121562002c1d578081fd5b81356001600160401b0381111562002c33578182fd5b62002c4184828501620029c1565b949350505050565b60006020828403121562002c5b578081fd5b81516001600160401b0381111562002c71578182fd5b8201601f8101841362002c82578182fd5b805162002c93620029e3826200323f565b81815285602083850101111562002ca8578384fd5b62002cbb8260208301602086016200329e565b95945050505050565b60008060006060848603121562002cd9578283fd5b83356001600160401b0381111562002cef578384fd5b62002cfd86828701620029c1565b935050602084013562002d108162003358565b929592945050506040919091013590565b60006020828403121562002d33578081fd5b5035919050565b60006020828403121562002d4c578081fd5b5051919050565b6000815180845262002d6d8160208601602086016200329e565b601f01601f19169290920160200192915050565b6000835162002d958184602088016200329e565b83519083019062002dab8183602088016200329e565b01949350505050565b8183823760009101908152919050565b6000825162002dd88184602087016200329e565b9190910192915050565b600080835482600182811c91508083168062002dff57607f831692505b602080841082141562002e2057634e487b7160e01b87526022600452602487fd5b81801562002e37576001811462002e495762002e77565b60ff1986168952848901965062002e77565b60008a815260209020885b8681101562002e6f5781548b82015290850190830162002e54565b505084890196505b509498975050505050505050565b6001600160a01b038316815260406020820181905260009062002c419083018462002d53565b6001600160a01b038416815260606020820181905260009062002ed19083018562002d53565b9050826040830152949350505050565b6001600160a01b038516815260806020820181905260009062002f079083018662002d53565b60408301949094525090151560609091015292915050565b60006020808301818452808551808352604092508286019150828160051b870101848801865b8381101562002fd357603f19898403018552815161010081518552888201518986015287820151818987015262002f7f8287018262002d53565b606084810151908801526080808501519088015260a0808501516001600160a01b03169088015260c0808501519088015260e093840151151593909601929092525050938601939086019060010162002f45565b509098975050505050505050565b60006020808301818452808551808352604092508286019150828160051b870101848801865b8381101562002fd357603f19898403018552815160c08151818652620030308287018262002d53565b8a8401516001600160a01b0316878c01528984015115158a880152606080850151908801526080808501519088015260a09384015193909601929092525050938601939086019060010162003007565b60006020808301818452808551808352604092508286019150828160051b870101848801865b8381101562002fd357603f19898403018552815160808151818652620030cf8287018262002d53565b838b01516001600160a01b0316878c0152898401518a880152606093840151939096019290925250509386019390860190600101620030a6565b602081526000620028e5602083018462002d53565b60208152816020820152818360408301376000818301604090810191909152601f909201601f19160101919050565b60408152600062003162604083018562002d53565b905060018060a01b03831660208301529392505050565b6080815260006200318e608083018762002d53565b6001600160a01b03959095166020830152506040810192909252606090910152919050565b60006101008a8352896020840152806040840152620031d58184018a62002d53565b6060840198909852505060808101949094526001600160a01b039290921660a084015260c0830152151560e0909101529392505050565b604051601f8201601f191681016001600160401b038111828210171562003237576200323762003342565b604052919050565b60006001600160401b038211156200325b576200325b62003342565b50601f01601f191660200190565b600082198211156200327f576200327f6200332c565b500190565b6000828210156200329957620032996200332c565b500390565b60005b83811015620032bb578181015183820152602001620032a1565b83811115620032cb576000848401525b50505050565b600181811c90821680620032e657607f821691505b602082108114156200330857634e487b7160e01b600052602260045260246000fd5b50919050565b60006000198214156200332557620033256200332c565b5060010190565b634e487b7160e01b600052601160045260246000fd5b634e487b7160e01b600052604160045260246000fd5b6001600160a01b038116811462000c8e57600080fdfe60806040526040516104ee3803806104ee833981016040819052610022916100f1565b600080546001600160a01b0319166001600160a01b0384161790558051610050906001906020840190610058565b50505061022d565b828054610064906101dc565b90600052602060002090601f01602090048101928261008657600085556100cc565b82601f1061009f57805160ff19168380011785556100cc565b828001600101855582156100cc579182015b828111156100cc5782518255916020019190600101906100b1565b506100d89291506100dc565b5090565b5b808211156100d857600081556001016100dd565b60008060408385031215610103578182fd5b82516001600160a01b0381168114610119578283fd5b602084810151919350906001600160401b0380821115610137578384fd5b818601915086601f83011261014a578384fd5b81518181111561015c5761015c610217565b604051601f8201601f19908116603f0116810190838211818310171561018457610184610217565b81604052828152898684870101111561019b578687fd5b8693505b828410156101bc578484018601518185018701529285019261019f565b828411156101cc57868684830101525b8096505050505050509250929050565b600181811c908216806101f057607f821691505b6020821081141561021157634e487b7160e01b600052602260045260246000fd5b50919050565b634e487b7160e01b600052604160045260246000fd5b6102b28061023c6000396000f3fe608060405234801561001057600080fd5b506004361061004c5760003560e01c806306fdde031461005157806312065fe01461006f5780633ccfd60b1461007d578063f496d88214610087575b600080fd5b6100596100b2565b60405161006691906101ee565b60405180910390f35b604051478152602001610066565b610085610140565b005b60005461009a906001600160a01b031681565b6040516001600160a01b039091168152602001610066565b600180546100bf90610241565b80601f01602080910402602001604051908101604052809291908181526020018280546100eb90610241565b80156101385780601f1061010d57610100808354040283529160200191610138565b820191906000526020600020905b81548152906001019060200180831161011b57829003601f168201915b505050505081565b604051600090339047908381818185875af1925050503d8060008114610182576040519150601f19603f3d011682016040523d82523d6000602084013e610187565b606091505b50509050806101eb5760405162461bcd60e51b815260206004820152602660248201527f4661696c656420746f2073656e64204574686572206261636b20746f207468656044820152651037bbb732b960d11b606482015260840160405180910390fd5b50565b6000602080835283518082850152825b8181101561021a578581018301518582016040015282016101fe565b8181111561022b5783604083870101525b50601f01601f1916929092016040019392505050565b600181811c9082168061025557607f821691505b6020821081141561027657634e487b7160e01b600052602260045260246000fd5b5091905056fea2646970667358221220d0f65cf5dbd1f6019ada0b3b3c5a1625e8e8a10c748e5ece3956ed23e2bf8f3164736f6c63430008040033a2646970667358221220388445a3c6d72d88048e73a567ff6acd9285912e3e2848837536fdbd3633881964736f6c63430008040033",
  "linkReferences": {},
  "deployedLinkReferences": {}
}