{
  "_format": "hh-sol-artifact-1",
  "contractName": "Dns",
  "sourceName": "contracts/Dns.sol",
  "abi": [
    {
      "inputs": [],
      "stateMutability": "nonpayable",
      "type": "constructor"
    },
    {
      "anonymous": false,
      "inputs": [
        {
          "indexed": true,
          "internalType": "address",
          "name": "owner",
          "type": "address"
        },
        {
          "indexed": true,
          "internalType": "address",
          "name": "approved",
          "type": "address"
        },
        {
          "indexed": true,
          "internalType": "uint256",
          "name": "tokenId",
          "type": "uint256"
        }
      ],
      "name": "Approval",
      "type": "event"
    },
    {
      "anonymous": false,
      "inputs": [
        {
          "indexed": true,
          "internalType": "address",
          "name": "owner",
          "type": "address"
        },
        {
          "indexed": true,
          "internalType": "address",
          "name": "operator",
          "type": "address"
        },
        {
          "indexed": false,
          "internalType": "bool",
          "name": "approved",
          "type": "bool"
        }
      ],
      "name": "ApprovalForAll",
      "type": "event"
    },
    {
      "anonymous": false,
      "inputs": [
        {
          "indexed": false,
          "internalType": "string",
          "name": "name",
          "type": "string"
        }
      ],
      "name": "AuctionEnded",
      "type": "event"
    },
    {
      "anonymous": false,
      "inputs": [
        {
          "indexed": false,
          "internalType": "string",
          "name": "name",
          "type": "string"
        }
      ],
      "name": "AuctionStarted",
      "type": "event"
    },
    {
      "anonymous": false,
      "inputs": [
        {
          "indexed": false,
          "internalType": "address",
          "name": "bidder",
          "type": "address"
        },
        {
          "indexed": false,
          "internalType": "string",
          "name": "name",
          "type": "string"
        }
      ],
      "name": "BidMade",
      "type": "event"
    },
    {
      "anonymous": false,
      "inputs": [
        {
          "indexed": false,
          "internalType": "address",
          "name": "bidder",
          "type": "address"
        },
        {
          "indexed": false,
          "internalType": "string",
          "name": "name",
          "type": "string"
        },
        {
          "indexed": false,
          "internalType": "uint256",
          "name": "value",
          "type": "uint256"
        },
        {
          "indexed": false,
          "internalType": "bool",
          "name": "revealed",
          "type": "bool"
        }
      ],
      "name": "BidRevealed",
      "type": "event"
    },
    {
      "anonymous": false,
      "inputs": [
        {
          "indexed": true,
          "internalType": "string",
          "name": "name",
          "type": "string"
        },
        {
          "indexed": true,
          "internalType": "address",
          "name": "owner",
          "type": "address"
        }
      ],
      "name": "DomainRegistered",
      "type": "event"
    },
    {
      "anonymous": false,
      "inputs": [
        {
          "indexed": true,
          "internalType": "address",
          "name": "from",
          "type": "address"
        },
        {
          "indexed": true,
          "internalType": "address",
          "name": "to",
          "type": "address"
        },
        {
          "indexed": true,
          "internalType": "uint256",
          "name": "tokenId",
          "type": "uint256"
        }
      ],
      "name": "Transfer",
      "type": "event"
    },
    {
      "inputs": [
        {
          "internalType": "address",
          "name": "to",
          "type": "address"
        },
        {
          "internalType": "uint256",
          "name": "tokenId",
          "type": "uint256"
        }
      ],
      "name": "approve",
      "outputs": [],
      "stateMutability": "nonpayable",
      "type": "function"
    },
    {
      "inputs": [
        {
          "internalType": "string",
          "name": "",
          "type": "string"
        }
      ],
      "name": "auctions",
      "outputs": [
        {
          "internalType": "uint256",
          "name": "biddingEnd",
          "type": "uint256"
        },
        {
          "internalType": "uint256",
          "name": "revealEnd",
          "type": "uint256"
        },
        {
          "internalType": "string",
          "name": "name",
          "type": "string"
        },
        {
          "internalType": "uint256",
          "name": "auctionId",
          "type": "uint256"
        },
        {
          "internalType": "uint256",
          "name": "highestBid",
          "type": "uint256"
        },
        {
          "internalType": "address",
          "name": "highestBidder",
          "type": "address"
        },
        {
          "internalType": "uint256",
          "name": "start",
          "type": "uint256"
        },
        {
          "internalType": "uint256",
          "name": "end",
          "type": "uint256"
        }
      ],
      "stateMutability": "view",
      "type": "function"
    },
    {
      "inputs": [
        {
          "internalType": "uint256",
          "name": "",
          "type": "uint256"
        }
      ],
      "name": "auctionsArray",
      "outputs": [
        {
          "internalType": "uint256",
          "name": "biddingEnd",
          "type": "uint256"
        },
        {
          "internalType": "uint256",
          "name": "revealEnd",
          "type": "uint256"
        },
        {
          "internalType": "string",
          "name": "name",
          "type": "string"
        },
        {
          "internalType": "uint256",
          "name": "auctionId",
          "type": "uint256"
        },
        {
          "internalType": "uint256",
          "name": "highestBid",
          "type": "uint256"
        },
        {
          "internalType": "address",
          "name": "highestBidder",
          "type": "address"
        },
        {
          "internalType": "uint256",
          "name": "start",
          "type": "uint256"
        },
        {
          "internalType": "uint256",
          "name": "end",
          "type": "uint256"
        }
      ],
      "stateMutability": "view",
      "type": "function"
    },
    {
      "inputs": [
        {
          "internalType": "address",
          "name": "owner",
          "type": "address"
        }
      ],
      "name": "balanceOf",
      "outputs": [
        {
          "internalType": "uint256",
          "name": "",
          "type": "uint256"
        }
      ],
      "stateMutability": "view",
      "type": "function"
    },
    {
      "inputs": [
        {
          "internalType": "bytes",
          "name": "bytecode",
          "type": "bytes"
        },
        {
          "internalType": "uint256",
          "name": "_salt",
          "type": "uint256"
        },
        {
          "internalType": "string",
          "name": "_name",
          "type": "string"
        }
      ],
      "name": "bid",
      "outputs": [],
      "stateMutability": "payable",
      "type": "function"
    },
    {
      "inputs": [
        {
          "internalType": "string",
          "name": "",
          "type": "string"
        },
        {
          "internalType": "uint256",
          "name": "",
          "type": "uint256"
        }
      ],
      "name": "biddingsForAuctions",
      "outputs": [
        {
          "internalType": "string",
          "name": "name",
          "type": "string"
        },
        {
          "internalType": "address",
          "name": "bidder",
          "type": "address"
        },
        {
          "internalType": "bool",
          "name": "revealed",
          "type": "bool"
        },
        {
          "internalType": "uint256",
          "name": "revealedBid",
          "type": "uint256"
        },
        {
          "internalType": "uint256",
          "name": "start",
          "type": "uint256"
        },
        {
          "internalType": "uint256",
          "name": "end",
          "type": "uint256"
        }
      ],
      "stateMutability": "view",
      "type": "function"
    },
    {
      "inputs": [
        {
          "internalType": "bytes",
          "name": "bytecode",
          "type": "bytes"
        },
        {
          "internalType": "uint256",
          "name": "salt",
          "type": "uint256"
        },
        {
          "internalType": "string",
          "name": "_name",
          "type": "string"
        }
      ],
      "name": "check",
      "outputs": [],
      "stateMutability": "nonpayable",
      "type": "function"
    },
    {
      "inputs": [
        {
          "internalType": "string",
          "name": "name",
          "type": "string"
        }
      ],
      "name": "checkIfAuctionExists",
      "outputs": [
        {
          "internalType": "bool",
          "name": "",
          "type": "bool"
        }
      ],
      "stateMutability": "view",
      "type": "function"
    },
    {
      "inputs": [
        {
          "internalType": "string",
          "name": "",
          "type": "string"
        }
      ],
      "name": "domainsToEthAddr",
      "outputs": [
        {
          "internalType": "address",
          "name": "",
          "type": "address"
        }
      ],
      "stateMutability": "view",
      "type": "function"
    },
    {
      "inputs": [
        {
          "internalType": "address",
          "name": "",
          "type": "address"
        },
        {
          "internalType": "uint256",
          "name": "",
          "type": "uint256"
        }
      ],
      "name": "ethAddrToDomain",
      "outputs": [
        {
          "internalType": "string",
          "name": "domainName",
          "type": "string"
        },
        {
          "internalType": "address",
          "name": "contractAddress",
          "type": "address"
        }
      ],
      "stateMutability": "view",
      "type": "function"
    },
    {
      "inputs": [
        {
          "internalType": "bytes",
          "name": "bytecode",
          "type": "bytes"
        },
        {
          "internalType": "uint256",
          "name": "_salt",
          "type": "uint256"
        }
      ],
      "name": "getAddress",
      "outputs": [
        {
          "internalType": "address",
          "name": "",
          "type": "address"
        }
      ],
      "stateMutability": "view",
      "type": "function"
    },
    {
      "inputs": [
        {
          "internalType": "uint256",
          "name": "tokenId",
          "type": "uint256"
        }
      ],
      "name": "getApproved",
      "outputs": [
        {
          "internalType": "address",
          "name": "",
          "type": "address"
        }
      ],
      "stateMutability": "view",
      "type": "function"
    },
    {
      "inputs": [],
      "name": "getAuctions",
      "outputs": [
        {
          "components": [
            {
              "internalType": "uint256",
              "name": "biddingEnd",
              "type": "uint256"
            },
            {
              "internalType": "uint256",
              "name": "revealEnd",
              "type": "uint256"
            },
            {
              "internalType": "string",
              "name": "name",
              "type": "string"
            },
            {
              "internalType": "uint256",
              "name": "auctionId",
              "type": "uint256"
            },
            {
              "internalType": "uint256",
              "name": "highestBid",
              "type": "uint256"
            },
            {
              "internalType": "address",
              "name": "highestBidder",
              "type": "address"
            },
            {
              "internalType": "uint256",
              "name": "start",
              "type": "uint256"
            },
            {
              "internalType": "uint256",
              "name": "end",
              "type": "uint256"
            }
          ],
          "internalType": "struct IDns.Auction[]",
          "name": "",
          "type": "tuple[]"
        }
      ],
      "stateMutability": "view",
      "type": "function"
    },
    {
      "inputs": [],
      "name": "getBalance",
      "outputs": [
        {
          "internalType": "uint256",
          "name": "",
          "type": "uint256"
        }
      ],
      "stateMutability": "view",
      "type": "function"
    },
    {
      "inputs": [
        {
          "internalType": "string",
          "name": "_name",
          "type": "string"
        },
        {
          "internalType": "address",
          "name": "user",
          "type": "address"
        }
      ],
      "name": "getBidding",
      "outputs": [
        {
          "components": [
            {
              "internalType": "string",
              "name": "name",
              "type": "string"
            },
            {
              "internalType": "address",
              "name": "bidder",
              "type": "address"
            },
            {
              "internalType": "bool",
              "name": "revealed",
              "type": "bool"
            },
            {
              "internalType": "uint256",
              "name": "revealedBid",
              "type": "uint256"
            },
            {
              "internalType": "uint256",
              "name": "start",
              "type": "uint256"
            },
            {
              "internalType": "uint256",
              "name": "end",
              "type": "uint256"
            }
          ],
          "internalType": "struct IDns.Bid",
          "name": "",
          "type": "tuple"
        }
      ],
      "stateMutability": "view",
      "type": "function"
    },
    {
      "inputs": [
        {
          "internalType": "address",
          "name": "_user",
          "type": "address"
        }
      ],
      "name": "getBiddings",
      "outputs": [
        {
          "components": [
            {
              "internalType": "string",
              "name": "name",
              "type": "string"
            },
            {
              "internalType": "address",
              "name": "bidder",
              "type": "address"
            },
            {
              "internalType": "bool",
              "name": "revealed",
              "type": "bool"
            },
            {
              "internalType": "uint256",
              "name": "revealedBid",
              "type": "uint256"
            },
            {
              "internalType": "uint256",
              "name": "start",
              "type": "uint256"
            },
            {
              "internalType": "uint256",
              "name": "end",
              "type": "uint256"
            }
          ],
          "internalType": "struct IDns.Bid[]",
          "name": "",
          "type": "tuple[]"
        }
      ],
      "stateMutability": "view",
      "type": "function"
    },
    {
      "inputs": [
        {
          "internalType": "address",
          "name": "_owner",
          "type": "address"
        },
        {
          "internalType": "string",
          "name": "_name",
          "type": "string"
        }
      ],
      "name": "getBytecode",
      "outputs": [
        {
          "internalType": "bytes",
          "name": "",
          "type": "bytes"
        }
      ],
      "stateMutability": "pure",
      "type": "function"
    },
    {
      "inputs": [
        {
          "internalType": "address",
          "name": "ownerAddress",
          "type": "address"
        }
      ],
      "name": "getDomains",
      "outputs": [
        {
          "components": [
            {
              "internalType": "string",
              "name": "domainName",
              "type": "string"
            },
            {
              "internalType": "address",
              "name": "contractAddress",
              "type": "address"
            }
          ],
          "internalType": "struct IDns.EthDomain[]",
          "name": "",
          "type": "tuple[]"
        }
      ],
      "stateMutability": "view",
      "type": "function"
    },
    {
      "inputs": [
        {
          "internalType": "address",
          "name": "owner",
          "type": "address"
        },
        {
          "internalType": "address",
          "name": "operator",
          "type": "address"
        }
      ],
      "name": "isApprovedForAll",
      "outputs": [
        {
          "internalType": "bool",
          "name": "",
          "type": "bool"
        }
      ],
      "stateMutability": "view",
      "type": "function"
    },
    {
      "inputs": [
        {
          "internalType": "address",
          "name": "",
          "type": "address"
        },
        {
          "internalType": "uint256",
          "name": "",
          "type": "uint256"
        }
      ],
      "name": "myBiddings",
      "outputs": [
        {
          "internalType": "string",
          "name": "name",
          "type": "string"
        },
        {
          "internalType": "address",
          "name": "bidder",
          "type": "address"
        },
        {
          "internalType": "bool",
          "name": "revealed",
          "type": "bool"
        },
        {
          "internalType": "uint256",
          "name": "revealedBid",
          "type": "uint256"
        },
        {
          "internalType": "uint256",
          "name": "start",
          "type": "uint256"
        },
        {
          "internalType": "uint256",
          "name": "end",
          "type": "uint256"
        }
      ],
      "stateMutability": "view",
      "type": "function"
    },
    {
      "inputs": [],
      "name": "name",
      "outputs": [
        {
          "internalType": "string",
          "name": "",
          "type": "string"
        }
      ],
      "stateMutability": "view",
      "type": "function"
    },
    {
      "inputs": [],
      "name": "owner",
      "outputs": [
        {
          "internalType": "address",
          "name": "",
          "type": "address"
        }
      ],
      "stateMutability": "view",
      "type": "function"
    },
    {
      "inputs": [
        {
          "internalType": "uint256",
          "name": "tokenId",
          "type": "uint256"
        }
      ],
      "name": "ownerOf",
      "outputs": [
        {
          "internalType": "address",
          "name": "",
          "type": "address"
        }
      ],
      "stateMutability": "view",
      "type": "function"
    },
    {
      "inputs": [
        {
          "internalType": "string",
          "name": "name",
          "type": "string"
        },
        {
          "internalType": "address",
          "name": "_owner",
          "type": "address"
        }
      ],
      "name": "registerName",
      "outputs": [
        {
          "internalType": "address",
          "name": "domainEthAddr",
          "type": "address"
        }
      ],
      "stateMutability": "nonpayable",
      "type": "function"
    },
    {
      "inputs": [
        {
          "internalType": "address",
          "name": "ownerAddress",
          "type": "address"
        },
        {
          "internalType": "string",
          "name": "name",
          "type": "string"
        }
      ],
      "name": "resolveAddress",
      "outputs": [
        {
          "internalType": "address",
          "name": "",
          "type": "address"
        }
      ],
      "stateMutability": "view",
      "type": "function"
    },
    {
      "inputs": [
        {
          "internalType": "address",
          "name": "from",
          "type": "address"
        },
        {
          "internalType": "address",
          "name": "to",
          "type": "address"
        },
        {
          "internalType": "uint256",
          "name": "tokenId",
          "type": "uint256"
        }
      ],
      "name": "safeTransferFrom",
      "outputs": [],
      "stateMutability": "nonpayable",
      "type": "function"
    },
    {
      "inputs": [
        {
          "internalType": "address",
          "name": "from",
          "type": "address"
        },
        {
          "internalType": "address",
          "name": "to",
          "type": "address"
        },
        {
          "internalType": "uint256",
          "name": "tokenId",
          "type": "uint256"
        },
        {
          "internalType": "bytes",
          "name": "_data",
          "type": "bytes"
        }
      ],
      "name": "safeTransferFrom",
      "outputs": [],
      "stateMutability": "nonpayable",
      "type": "function"
    },
    {
      "inputs": [
        {
          "internalType": "address",
          "name": "operator",
          "type": "address"
        },
        {
          "internalType": "bool",
          "name": "approved",
          "type": "bool"
        }
      ],
      "name": "setApprovalForAll",
      "outputs": [],
      "stateMutability": "nonpayable",
      "type": "function"
    },
    {
      "inputs": [
        {
          "internalType": "string",
          "name": "_name",
          "type": "string"
        },
        {
          "internalType": "uint256",
          "name": "_bidDuration",
          "type": "uint256"
        },
        {
          "internalType": "uint256",
          "name": "_revealDuration",
          "type": "uint256"
        }
      ],
      "name": "startAuction",
      "outputs": [],
      "stateMutability": "nonpayable",
      "type": "function"
    },
    {
      "inputs": [
        {
          "internalType": "bytes4",
          "name": "interfaceId",
          "type": "bytes4"
        }
      ],
      "name": "supportsInterface",
      "outputs": [
        {
          "internalType": "bool",
          "name": "",
          "type": "bool"
        }
      ],
      "stateMutability": "view",
      "type": "function"
    },
    {
      "inputs": [],
      "name": "symbol",
      "outputs": [
        {
          "internalType": "string",
          "name": "",
          "type": "string"
        }
      ],
      "stateMutability": "view",
      "type": "function"
    },
    {
      "inputs": [
        {
          "internalType": "uint256",
          "name": "tokenId",
          "type": "uint256"
        }
      ],
      "name": "tokenURI",
      "outputs": [
        {
          "internalType": "string",
          "name": "",
          "type": "string"
        }
      ],
      "stateMutability": "view",
      "type": "function"
    },
    {
      "inputs": [
        {
          "internalType": "address",
          "name": "from",
          "type": "address"
        },
        {
          "internalType": "address",
          "name": "to",
          "type": "address"
        },
        {
          "internalType": "uint256",
          "name": "tokenId",
          "type": "uint256"
        }
      ],
      "name": "transferFrom",
      "outputs": [],
      "stateMutability": "nonpayable",
      "type": "function"
    },
    {
      "stateMutability": "payable",
      "type": "receive"
    }
  ],
  "bytecode": "0x60806040526000600d553480156200001657600080fd5b50604080518082018252601481527f4e545520646f6d61696e207265676973747261720000000000000000000000006020808301918252835180850190945260038452624e545560e81b908401528151919291620000779160009162000164565b5080516200008d90600190602084019062000164565b5050600680546001600160a01b031916331790555060408051808201909152601d81527f4e545520646f6d61696e20726567697374726172206465706c6f796564000000602080830191909152620000ef91906200235d620000f5821b17901c565b6200029d565b62000140816040516024016200010c91906200020a565b60408051601f198184030181529190526020810180516001600160e01b0390811663104c13eb60e21b179091526200014316565b50565b80516a636f6e736f6c652e6c6f67602083016000808483855afa5050505050565b828054620001729062000260565b90600052602060002090601f016020900481019282620001965760008555620001e1565b82601f10620001b157805160ff1916838001178555620001e1565b82800160010185558215620001e1579182015b82811115620001e1578251825591602001919060010190620001c4565b50620001ef929150620001f3565b5090565b5b80821115620001ef5760008155600101620001f4565b6000602080835283518082850152825b8181101562000238578581018301518582016040015282016200021a565b818111156200024a5783604083870101525b50601f01601f1916929092016040019392505050565b600181811c908216806200027557607f821691505b602082108114156200029757634e487b7160e01b600052602260045260246000fd5b50919050565b61455680620002ad6000396000f3fe6080604052600436106200021a5760003560e01c80637b59af161162000123578063b88d4fde11620000ad578063c87b56dd1162000078578063c87b56dd14620006be578063d7c0691914620006e3578063e6116a59146200070a578063e80d842c146200072f578063e985e9c5146200076357600080fd5b8063b88d4fde1462000607578063ba2dd51f146200062c578063c32618a71462000665578063c4c31194146200068a57600080fd5b806399726b1011620000ee57806399726b10146200053d578063a22cb4651462000562578063a693e4cb1462000587578063b76b161814620005cc57600080fd5b80637b59af1614620004b95780638da5cb5b14620004de57806394ca2cb5146200050057806395d89b41146200052557600080fd5b80632ac63f9911620001a557806353e20453116200017057806353e2045314620004165780635a983745146200043b5780636352211e146200046f57806370a08231146200049457600080fd5b80632ac63f99146200038257806335ff502e14620003a757806342842e0e14620003cc5780634f15aeb814620003f157600080fd5b8063081812fc11620001e6578063081812fc14620002db578063095ea7b3146200031957806312065fe0146200033e57806323b872dd146200035d57600080fd5b80621d741e146200022757806301ffc9a714620002655780630369567f146200029b57806306fdde0314620002b457600080fd5b366200022257005b600080fd5b3480156200023457600080fd5b506200024c6200024636600462002fb2565b620007b0565b6040516200025c9291906200361c565b60405180910390f35b3480156200027257600080fd5b506200028a6200028436600462002fe0565b6200088b565b60405190151581526020016200025c565b620002b2620002ac36600462003065565b620008df565b005b348015620002c157600080fd5b50620002cc62000988565b6040516200025c9190620035d8565b348015620002e857600080fd5b5062000300620002fa3660046200327d565b62000a22565b6040516001600160a01b0390911681526020016200025c565b3480156200032657600080fd5b50620002b26200033836600462002fb2565b62000abd565b3480156200034b57600080fd5b50475b6040519081526020016200025c565b3480156200036a57600080fd5b50620002b26200037c36600462002e72565b62000bde565b3480156200038f57600080fd5b50620002b2620003a1366004620030d6565b62000c16565b348015620003b457600080fd5b506200028a620003c636600462003155565b62000fbc565b348015620003d957600080fd5b50620002b2620003eb36600462002e72565b6200100a565b348015620003fe57600080fd5b50620002cc6200041036600462002f5e565b62001027565b3480156200042357600080fd5b50620003006200043536600462002f5e565b620010a1565b3480156200044857600080fd5b50620004606200045a36600462002df7565b6200127d565b6040516200025c9190620034ff565b3480156200047c57600080fd5b50620003006200048e3660046200327d565b620013d8565b348015620004a157600080fd5b506200034e620004b336600462002df7565b62001451565b348015620004c657600080fd5b5062000300620004d836600462003208565b620014da565b348015620004eb57600080fd5b5060065462000300906001600160a01b031681565b3480156200050d57600080fd5b50620003006200051f3660046200301e565b6200165f565b3480156200053257600080fd5b50620002cc620016bb565b3480156200054a57600080fd5b50620002b26200055c36600462003065565b620016cc565b3480156200056f57600080fd5b50620002b26200058136600462002f29565b62001aed565b3480156200059457600080fd5b5062000300620005a636600462003155565b80516020818301810180516007825292820191909301209152546001600160a01b031681565b348015620005d957600080fd5b50620005f1620005eb36600462003155565b62001afe565b6040516200025c98979695949392919062003747565b3480156200061457600080fd5b50620002b26200062636600462002eb7565b62001be4565b3480156200063957600080fd5b50620006516200064b36600462003253565b62001c23565b6040516200025c9695949392919062003648565b3480156200067257600080fd5b50620006516200068436600462002fb2565b62001d2c565b3480156200069757600080fd5b50620006af620006a936600462003208565b62001d49565b6040516200025c919062003732565b348015620006cb57600080fd5b50620002cc620006dd3660046200327d565b62001fc0565b348015620006f057600080fd5b50620006fb620020b1565b6040516200025c91906200343f565b3480156200071757600080fd5b50620005f1620007293660046200327d565b62002202565b3480156200073c57600080fd5b50620007546200074e36600462002df7565b62002244565b6040516200025c919062003564565b3480156200077057600080fd5b506200028a6200078236600462002e35565b6001600160a01b03918216600090815260056020908152604080832093909416825291909152205460ff1690565b60086020528160005260406000208181548110620007cd57600080fd5b906000526020600020906002020160009150915050806000018054620007f39062003878565b80601f0160208091040260200160405190810160405280929190818152602001828054620008219062003878565b8015620008725780601f10620008465761010080835404028352916020019162000872565b820191906000526020600020905b8154815290600101906020018083116200085457829003601f168201915b505050600190930154919250506001600160a01b031682565b60006001600160e01b031982166380ac58cd60e01b1480620008bd57506001600160e01b03198216635b5e139f60e01b145b80620008d957506301ffc9a760e01b6001600160e01b03198316145b92915050565b8060006001600160a01b0316600782604051620008fd91906200337e565b908152604051908190036020019020546001600160a01b0316146200092157600080fd5b60008385516020870134f59050803b6200093a57600080fd5b620009463384620023a7565b7f92eb767245ca8829c6919f3fab91e97b9e2cc7f3e2f71ed25b74e5e23bffc6fe338460405162000979929190620033db565b60405180910390a15050505050565b606060008054620009999062003878565b80601f0160208091040260200160405190810160405280929190818152602001828054620009c79062003878565b801562000a185780601f10620009ec5761010080835404028352916020019162000a18565b820191906000526020600020905b815481529060010190602001808311620009fa57829003601f168201915b5050505050905090565b6000818152600260205260408120546001600160a01b031662000aa15760405162461bcd60e51b815260206004820152602c60248201527f4552433732313a20617070726f76656420717565727920666f72206e6f6e657860448201526b34b9ba32b73a103a37b5b2b760a11b60648201526084015b60405180910390fd5b506000908152600460205260409020546001600160a01b031690565b600062000aca82620013d8565b9050806001600160a01b0316836001600160a01b0316141562000b3a5760405162461bcd60e51b815260206004820152602160248201527f4552433732313a20617070726f76616c20746f2063757272656e74206f776e656044820152603960f91b606482015260840162000a98565b336001600160a01b038216148062000b59575062000b59813362000782565b62000bcd5760405162461bcd60e51b815260206004820152603860248201527f4552433732313a20617070726f76652063616c6c6572206973206e6f74206f7760448201527f6e6572206e6f7220617070726f76656420666f7220616c6c0000000000000000606482015260840162000a98565b62000bd98383620025a1565b505050565b62000bea338262002611565b62000c095760405162461bcd60e51b815260040162000a9890620036e1565b62000bd983838362002710565b6009848460405162000c2a9291906200336e565b90815260200160405180910390206003015460001462000c8d5760405162461bcd60e51b815260206004820152601f60248201527f41756374696f6e20666f72207468697320616c72656164792065786973747300604482015260640162000a98565b60006001600160a01b03166007858560405162000cac9291906200336e565b908152604051908190036020019020546001600160a01b03161462000d1e5760405162461bcd60e51b815260206004820152602160248201527f5468697320646f6d61696e206e616d6520697320616c7265616479206f776e656044820152601960fa1b606482015260840162000a98565b600d805490600062000d3083620038b5565b91905055506000604051806101000160405280844262000d519190620037fd565b81526020018362000d638642620037fd565b62000d6f9190620037fd565b815260200186868080601f01602080910402602001604051908101604052809392919081815260200183838082843760009201829052509385525050600d54602084015250604082018190526060820152426080820181905260a090910190849062000ddd908790620037fd565b62000de99190620037fd565b8152509050806009868660405162000e039291906200336e565b90815260200160405180910390206000820151816000015560208201518160010155604082015181600201908051906020019062000e4392919062002cde565b50606082015160038201556080820151600482015560a08201516005820180546001600160a01b0319166001600160a01b0390921691909117905560c0820151600682015560e090910151600790910155600a805460018101825560009190915281517fc65a7bb8d6351c1cf70c95a316cc6a92839c986682d98bc35f958f4883f9d2a860089092029182019081556020808401517fc65a7bb8d6351c1cf70c95a316cc6a92839c986682d98bc35f958f4883f9d2a984015560408401518051859462000f37937fc65a7bb8d6351c1cf70c95a316cc6a92839c986682d98bc35f958f4883f9d2aa90910192019062002cde565b50606082015160038201556080820151600482015560a08201516005820180546001600160a01b0319166001600160a01b0390921691909117905560c0820151600682015560e0909101516007909101556040517f50aa32fed87143a12f31f64ad9199a4cdc7b35635008b92f753d4c66dafdb42390620009799087908790620035ed565b6000806001600160a01b031660078360405162000fda91906200337e565b908152604051908190036020019020546001600160a01b031614156200100257506000919050565b506001919050565b62000bd98383836040518060200160405280600081525062001be4565b60606000604051806020016200103d9062002d6d565b6020820181038252601f19601f82011660405250905080848460405160200162001069929190620033db565b60408051601f19818403018152908290526200108992916020016200333b565b60405160208183030381529060405291505092915050565b6000805b6001600160a01b03841660009081526008602052604090205481101562001273576001600160a01b0384166000908152600860205260408120805483908110620010ff57634e487b7160e01b600052603260045260246000fd5b906000526020600020906002020160000180546200111d9062003878565b80601f01602080910402602001604051908101604052809291908181526020018280546200114b9062003878565b80156200119c5780601f1062001170576101008083540402835291602001916200119c565b820191906000526020600020905b8154815290600101906020018083116200117e57829003601f168201915b5050505050905083604051602001620011b691906200337e565b6040516020818303038152906040528051906020012081604051602001620011df91906200337e565b6040516020818303038152906040528051906020012014156200125d576001600160a01b03851660009081526008602052604090208054839081106200123557634e487b7160e01b600052603260045260246000fd5b60009182526020909120600160029092020101546001600160a01b03169250620008d9915050565b50806200126a81620038b5565b915050620010a5565b5060009392505050565b6001600160a01b0381166000908152600c60209081526040808320805482518185028101850190935280835260609492939192909184015b82821015620013cd57838290600052602060002090600502016040518060c0016040529081600082018054620012eb9062003878565b80601f0160208091040260200160405190810160405280929190818152602001828054620013199062003878565b80156200136a5780601f106200133e576101008083540402835291602001916200136a565b820191906000526020600020905b8154815290600101906020018083116200134c57829003601f168201915b50505091835250506001828101546001600160a01b038116602080850191909152600160a01b90910460ff1615156040840152600284015460608401526003840154608084015260049093015460a09092019190915291835292019101620012b5565b505050509050919050565b6000818152600260205260408120546001600160a01b031680620008d95760405162461bcd60e51b815260206004820152602960248201527f4552433732313a206f776e657220717565727920666f72206e6f6e657869737460448201526832b73a103a37b5b2b760b91b606482015260840162000a98565b60006001600160a01b038216620014be5760405162461bcd60e51b815260206004820152602a60248201527f4552433732313a2062616c616e636520717565727920666f7220746865207a65604482015269726f206164647265737360b01b606482015260840162000a98565b506001600160a01b031660009081526003602052604090205490565b60008260006001600160a01b0316600782604051620014fa91906200337e565b908152604051908190036020019020546001600160a01b0316146200151e57600080fd5b60008484604051620015309062002d7b565b6200153d9291906200361c565b604051809103906000f0801580156200155a573d6000803e3d6000fd5b509050809250836007866040516200157391906200337e565b908152604080516020928190038301812080546001600160a01b0319166001600160a01b03958616179055808201825288815286841683820152928716600090815260088352908120805460018101825590825290829020835180518594600290940290920192620015eb9284929091019062002cde565b5060209190910151600190910180546001600160a01b0319166001600160a01b0392831617905560405190861690620016269088906200337e565b604051908190038120907f70f2ff07e8136617cdfb0433423063c9dd697c507560d7860cce09fa86874a1290600090a350505092915050565b8151602092830120604080516001600160f81b0319818601523060601b6bffffffffffffffffffffffff191660218201526035810193909352605580840192909252805180840390920182526075909201909152805191012090565b606060018054620009999062003878565b6000600b82604051620016e091906200337e565b90815260200160405180910390209050600080620016ff86866200165f565b905060008190506000816001600160a01b031663f496d8826040518163ffffffff1660e01b815260040160206040518083038186803b1580156200174257600080fd5b505afa15801562001757573d6000803e3d6000fd5b505050506040513d601f19601f820116820180604052508101906200177d919062002e16565b90506000826001600160a01b03166306fdde036040518163ffffffff1660e01b815260040160006040518083038186803b158015620017bb57600080fd5b505afa158015620017d0573d6000803e3d6000fd5b505050506040513d6000823e601f3d908101601f19168201604052620017fa91908101906200318c565b90506000836001600160a01b03166312065fe06040518163ffffffff1660e01b815260040160206040518083038186803b1580156200183857600080fd5b505afa1580156200184d573d6000803e3d6000fd5b505050506040513d601f19601f8201168201806040525081019062001873919062003296565b90506001600160a01b0383163314620018c95760405162461bcd60e51b815260206004820152601760248201527611985a5b1959081d1bc81d995c9a599e4818dbdb5b5a5d604a1b604482015260640162000a98565b87604051602001620018dc91906200337e565b60405160208183030381529060405280519060200120826040516020016200190591906200337e565b6040516020818303038152906040528051906020012014620019645760405162461bcd60e51b815260206004820152601760248201527611985a5b1959081d1bc81d995c9a599e4818dbdb5b5a5d604a1b604482015260640162000a98565b60005b875481101562001ae057336001600160a01b03168882815481106200199c57634e487b7160e01b600052603260045260246000fd5b60009182526020909120600160059092020101546001600160a01b0316141562001acb57878181548110620019e157634e487b7160e01b600052603260045260246000fd5b6000918252602082206001600590920201908101805460ff60a01b1916600160a01b1790556002810184905560408051633ccfd60b60e01b815290519199506001600160a01b03881692633ccfd60b9260048084019382900301818387803b15801562001a4d57600080fd5b505af115801562001a62573d6000803e3d6000fd5b5050505062001a7789338960020154620028bc565b50600287015460018801546040517fe7b9400614ae8d3fb96a8ed036e790d12c0466fe2df292c92a44c602bb1c20d59262001ac2928892889291600160a01b900460ff169062003401565b60405180910390a15b8062001ad781620038b5565b91505062001967565b5050505050505050505050565b62001afa33838362002969565b5050565b80516020818301810180516009825292820191909301209152805460018201546002830180549293919262001b339062003878565b80601f016020809104026020016040519081016040528092919081815260200182805462001b619062003878565b801562001bb25780601f1062001b865761010080835404028352916020019162001bb2565b820191906000526020600020905b81548152906001019060200180831162001b9457829003601f168201915b5050506003840154600485015460058601546006870154600790970154959692959194506001600160a01b0316925088565b62001bf0338362002611565b62001c0f5760405162461bcd60e51b815260040162000a9890620036e1565b62001c1d8484848462002a3a565b50505050565b8151602081840181018051600b82529282019185019190912091905280548290811062001c4f57600080fd5b90600052602060002090600502016000915091505080600001805462001c759062003878565b80601f016020809104026020016040519081016040528092919081815260200182805462001ca39062003878565b801562001cf45780601f1062001cc85761010080835404028352916020019162001cf4565b820191906000526020600020905b81548152906001019060200180831162001cd657829003601f168201915b5050505060018301546002840154600385015460049095015493946001600160a01b03831694600160a01b90930460ff169350909186565b600c602052816000526040600020818154811062001c4f57600080fd5b62001d8e6040518060c001604052806060815260200160006001600160a01b031681526020016000151581526020016000815260200160008152602001600081525090565b6000600b8460405162001da291906200337e565b9081526020016040518091039020805480602002602001604051908101604052809291908181526020016000905b8282101562001ee857838290600052602060002090600502016040518060c001604052908160008201805462001e069062003878565b80601f016020809104026020016040519081016040528092919081815260200182805462001e349062003878565b801562001e855780601f1062001e595761010080835404028352916020019162001e85565b820191906000526020600020905b81548152906001019060200180831162001e6757829003601f168201915b50505091835250506001828101546001600160a01b038116602080850191909152600160a01b90910460ff1615156040840152600284015460608401526003840154608084015260049093015460a0909201919091529183529201910162001dd0565b50505050905060005b815181101562001f8a57836001600160a01b031682828151811062001f2657634e487b7160e01b600052603260045260246000fd5b6020026020010151602001516001600160a01b0316141562001f755781818151811062001f6357634e487b7160e01b600052603260045260246000fd5b602002602001015192505050620008d9565b8062001f8181620038b5565b91505062001ef1565b5060405162461bcd60e51b8152602060048201526009602482015268139bdd08199bdd5b9960ba1b604482015260640162000a98565b6000818152600260205260409020546060906001600160a01b0316620020415760405162461bcd60e51b815260206004820152602f60248201527f4552433732314d657461646174613a2055524920717565727920666f72206e6f60448201526e3732bc34b9ba32b73a103a37b5b2b760891b606482015260840162000a98565b60006200205960408051602081019091526000815290565b905060008151116200207b5760405180602001604052806000815250620020aa565b80620020878462002a74565b6040516020016200209a9291906200333b565b6040516020818303038152906040525b9392505050565b6060600a805480602002602001604051908101604052809291908181526020016000905b82821015620021f95783829060005260206000209060080201604051806101000160405290816000820154815260200160018201548152602001600282018054620021209062003878565b80601f01602080910402602001604051908101604052809291908181526020018280546200214e9062003878565b80156200219f5780601f1062002173576101008083540402835291602001916200219f565b820191906000526020600020905b8154815290600101906020018083116200218157829003601f168201915b505050918352505060038201546020808301919091526004830154604083015260058301546001600160a01b031660608301526006830154608083015260079092015460a0909101529082526001929092019101620020d5565b50505050905090565b600a81815481106200221357600080fd5b906000526020600020906008020160009150905080600001549080600101549080600201805462001b339062003878565b6001600160a01b0381166000908152600860209081526040808320805482518185028101850190935280835260609492939192909184015b82821015620013cd5783829060005260206000209060020201604051806040016040529081600082018054620022b29062003878565b80601f0160208091040260200160405190810160405280929190818152602001828054620022e09062003878565b8015620023315780601f10620023055761010080835404028352916020019162002331565b820191906000526020600020905b8154815290600101906020018083116200231357829003601f168201915b50505091835250506001918201546001600160a01b03166020918201529183529290920191016200227c565b620023a481604051602401620023749190620035d8565b60408051601f198184030181529190526020810180516001600160e01b031663104c13eb60e21b17905262002ba2565b50565b6000600982604051620023bb91906200337e565b90815260200160405180910390206006015490506000600983604051620023e391906200337e565b908152604080519182900360209081018320600701546001600160a01b0388166000818152600c845284812060c08701865289875286850192909252938501849052606085018490526080850187905260a0850182905280546001810182559084529282902084518051929650600590940201926200246792849291019062002cde565b5060208201516001820180546040808601511515600160a01b026001600160a81b03199092166001600160a01b0390941693909317179055606083015160028301556080830151600383015560a09092015160049091015551600b90620024d09085906200337e565b90815260408051918290036020908101832060c0840183528684526001600160a01b038816848301526000928401839052606084018390526080840186905260a084018590528054600181018255908352918190208351805160059094029091019262002541928492019062002cde565b50602082015160018201805460408501511515600160a01b026001600160a81b03199091166001600160a01b0390931692909217919091179055606082015160028201556080820151600382015560a09091015160049091015550505050565b600081815260046020526040902080546001600160a01b0319166001600160a01b0384169081179091558190620025d882620013d8565b6001600160a01b03167f8c5be1e5ebec7d5bd14f71427d1e84f3dd0314c0f7b2291e5b200ac8c7c3b92560405160405180910390a45050565b6000818152600260205260408120546001600160a01b03166200268c5760405162461bcd60e51b815260206004820152602c60248201527f4552433732313a206f70657261746f7220717565727920666f72206e6f6e657860448201526b34b9ba32b73a103a37b5b2b760a11b606482015260840162000a98565b60006200269983620013d8565b9050806001600160a01b0316846001600160a01b03161480620026d75750836001600160a01b0316620026cc8462000a22565b6001600160a01b0316145b806200270857506001600160a01b0380821660009081526005602090815260408083209388168352929052205460ff165b949350505050565b826001600160a01b03166200272582620013d8565b6001600160a01b0316146200278f5760405162461bcd60e51b815260206004820152602960248201527f4552433732313a207472616e73666572206f6620746f6b656e2074686174206960448201526839903737ba1037bbb760b91b606482015260840162000a98565b6001600160a01b038216620027f35760405162461bcd60e51b8152602060048201526024808201527f4552433732313a207472616e7366657220746f20746865207a65726f206164646044820152637265737360e01b606482015260840162000a98565b62002800600082620025a1565b6001600160a01b03831660009081526003602052604081208054600192906200282b9084906200382f565b90915550506001600160a01b03821660009081526003602052604081208054600192906200285b908490620037fd565b909155505060008181526002602052604080822080546001600160a01b0319166001600160a01b0386811691821790925591518493918716917fddf252ad1be2c89b69c2b068fc378daa952ba7f163c4a11628f55a4df523b3ef91a4505050565b6000600984604051620028d091906200337e565b9081526020016040518091039020600401548211620028f257506000620020aa565b816009856040516200290591906200337e565b908152602001604051809103902060040181905550826009856040516200292d91906200337e565b90815260405190819003602001902060050180546001600160a01b03929092166001600160a01b03199092169190911790555060019392505050565b816001600160a01b0316836001600160a01b03161415620029cd5760405162461bcd60e51b815260206004820152601960248201527f4552433732313a20617070726f766520746f2063616c6c657200000000000000604482015260640162000a98565b6001600160a01b03838116600081815260056020908152604080832094871680845294825291829020805460ff191686151590811790915591519182527f17307eab39ab6107e8899845ad3d59bd9653f200f220920489ca2b5937696c31910160405180910390a3505050565b62002a4784848462002710565b62002a558484848462002bc3565b62001c1d5760405162461bcd60e51b815260040162000a98906200368f565b60608162002a995750506040805180820190915260018152600360fc1b602082015290565b8160005b811562002ac9578062002ab081620038b5565b915062002ac19050600a8362003818565b915062002a9d565b60008167ffffffffffffffff81111562002af357634e487b7160e01b600052604160045260246000fd5b6040519080825280601f01601f19166020018201604052801562002b1e576020820181803683370190505b5090505b8415620027085762002b366001836200382f565b915062002b45600a86620038d3565b62002b52906030620037fd565b60f81b81838151811062002b7657634e487b7160e01b600052603260045260246000fd5b60200101906001600160f81b031916908160001a90535062002b9a600a8662003818565b945062002b22565b80516a636f6e736f6c652e6c6f67602083016000808483855afa5050505050565b60006001600160a01b0384163b1562002cd357604051630a85bd0160e11b81526001600160a01b0385169063150b7a029062002c0a9033908990889088906004016200339c565b602060405180830381600087803b15801562002c2557600080fd5b505af192505050801562002c58575060408051601f3d908101601f1916820190925262002c559181019062002fff565b60015b62002cb8573d80801562002c89576040519150601f19603f3d011682016040523d82523d6000602084013e62002c8e565b606091505b50805162002cb05760405162461bcd60e51b815260040162000a98906200368f565b805181602001fd5b6001600160e01b031916630a85bd0160e11b14905062002708565b506001949350505050565b82805462002cec9062003878565b90600052602060002090601f01602090048101928262002d10576000855562002d5b565b82601f1062002d2b57805160ff191683800117855562002d5b565b8280016001018555821562002d5b579182015b8281111562002d5b57825182559160200191906001019062002d3e565b5062002d6992915062002d89565b5090565b6104ee806200395a83390190565b6106d98062003e4883390190565b5b8082111562002d69576000815560010162002d8a565b600082601f83011262002db1578081fd5b813562002dc862002dc282620037d2565b6200379e565b81815284602083860101111562002ddd578283fd5b816020850160208301379081016020019190915292915050565b60006020828403121562002e09578081fd5b8135620020aa816200392c565b60006020828403121562002e28578081fd5b8151620020aa816200392c565b6000806040838503121562002e48578081fd5b823562002e55816200392c565b9150602083013562002e67816200392c565b809150509250929050565b60008060006060848603121562002e87578081fd5b833562002e94816200392c565b9250602084013562002ea6816200392c565b929592945050506040919091013590565b6000806000806080858703121562002ecd578081fd5b843562002eda816200392c565b9350602085013562002eec816200392c565b925060408501359150606085013567ffffffffffffffff81111562002f0f578182fd5b62002f1d8782880162002da0565b91505092959194509250565b6000806040838503121562002f3c578182fd5b823562002f49816200392c565b91506020830135801515811462002e67578182fd5b6000806040838503121562002f71578182fd5b823562002f7e816200392c565b9150602083013567ffffffffffffffff81111562002f9a578182fd5b62002fa88582860162002da0565b9150509250929050565b6000806040838503121562002fc5578182fd5b823562002fd2816200392c565b946020939093013593505050565b60006020828403121562002ff2578081fd5b8135620020aa8162003942565b60006020828403121562003011578081fd5b8151620020aa8162003942565b6000806040838503121562003031578081fd5b823567ffffffffffffffff81111562003048578182fd5b620030568582860162002da0565b95602094909401359450505050565b6000806000606084860312156200307a578081fd5b833567ffffffffffffffff8082111562003092578283fd5b620030a08783880162002da0565b9450602086013593506040860135915080821115620030bd578283fd5b50620030cc8682870162002da0565b9150509250925092565b60008060008060608587031215620030ec578182fd5b843567ffffffffffffffff8082111562003104578384fd5b818701915087601f83011262003118578384fd5b81358181111562003127578485fd5b88602082850101111562003139578485fd5b6020928301999098509187013596604001359550909350505050565b60006020828403121562003167578081fd5b813567ffffffffffffffff8111156200317e578182fd5b620027088482850162002da0565b6000602082840312156200319e578081fd5b815167ffffffffffffffff811115620031b5578182fd5b8201601f81018413620031c6578182fd5b8051620031d762002dc282620037d2565b818152856020838501011115620031ec578384fd5b620031ff82602083016020860162003849565b95945050505050565b600080604083850312156200321b578182fd5b823567ffffffffffffffff81111562003232578283fd5b620032408582860162002da0565b925050602083013562002e67816200392c565b6000806040838503121562003266578182fd5b823567ffffffffffffffff81111562003048578283fd5b6000602082840312156200328f578081fd5b5035919050565b600060208284031215620032a8578081fd5b5051919050565b60008151808452620032c981602086016020860162003849565b601f01601f19169290920160200192915050565b6000815160c08452620032f460c0850182620032af565b6020848101516001600160a01b031690860152604080850151151590860152606080850151908601526080808501519086015260a093840151949093019390935250919050565b600083516200334f81846020880162003849565b8351908301906200336581836020880162003849565b01949350505050565b8183823760009101908152919050565b600082516200339281846020870162003849565b9190910192915050565b6001600160a01b0385811682528416602082015260408101839052608060608201819052600090620033d190830184620032af565b9695505050505050565b6001600160a01b03831681526040602082018190526000906200270890830184620032af565b6001600160a01b03851681526080602082018190526000906200342790830186620032af565b60408301949094525090151560609091015292915050565b60006020808301818452808551808352604092508286019150828160051b870101848801865b83811015620034f157603f1989840301855281516101008151855288820151898601528782015181898701526200349f82870182620032af565b606084810151908801526080808501519088015260a0808501516001600160a01b03169088015260c0808501519088015260e09384015193909601929092525050938601939086019060010162003465565b509098975050505050505050565b6000602080830181845280855180835260408601915060408160051b8701019250838701855b828110156200355757603f1988860301845262003544858351620032dd565b9450928501929085019060010162003525565b5092979650505050505050565b60006020808301818452808551808352604092508286019150828160051b870101848801865b83811015620034f157888303603f1901855281518051878552620035b188860182620032af565b918901516001600160a01b031694890194909452948701949250908601906001016200358a565b602081526000620020aa6020830184620032af565b60208152816020820152818360408301376000818301604090810191909152601f909201601f19160101919050565b604081526000620036316040830185620032af565b905060018060a01b03831660208301529392505050565b60c0815260006200365d60c0830189620032af565b6001600160a01b039790971660208301525093151560408501526060840192909252608083015260a090910152919050565b60208082526032908201527f4552433732313a207472616e7366657220746f206e6f6e20455243373231526560408201527131b2b4bb32b91034b6b83632b6b2b73a32b960711b606082015260800190565b60208082526031908201527f4552433732313a207472616e736665722063616c6c6572206973206e6f74206f6040820152701ddb995c881b9bdc88185c1c1c9bdd9959607a1b606082015260800190565b602081526000620020aa6020830184620032dd565b60006101008a8352896020840152806040840152620037698184018a620032af565b6060840198909852505060808101949094526001600160a01b039290921660a084015260c083015260e0909101529392505050565b604051601f8201601f1916810167ffffffffffffffff81118282101715620037ca57620037ca62003916565b604052919050565b600067ffffffffffffffff821115620037ef57620037ef62003916565b50601f01601f191660200190565b60008219821115620038135762003813620038ea565b500190565b6000826200382a576200382a62003900565b500490565b600082821015620038445762003844620038ea565b500390565b60005b83811015620038665781810151838201526020016200384c565b8381111562001c1d5750506000910152565b600181811c908216806200388d57607f821691505b60208210811415620038af57634e487b7160e01b600052602260045260246000fd5b50919050565b6000600019821415620038cc57620038cc620038ea565b5060010190565b600082620038e557620038e562003900565b500690565b634e487b7160e01b600052601160045260246000fd5b634e487b7160e01b600052601260045260246000fd5b634e487b7160e01b600052604160045260246000fd5b6001600160a01b0381168114620023a457600080fd5b6001600160e01b031981168114620023a457600080fdfe60806040526040516104ee3803806104ee833981016040819052610022916100f1565b600080546001600160a01b0319166001600160a01b0384161790558051610050906001906020840190610058565b50505061022d565b828054610064906101dc565b90600052602060002090601f01602090048101928261008657600085556100cc565b82601f1061009f57805160ff19168380011785556100cc565b828001600101855582156100cc579182015b828111156100cc5782518255916020019190600101906100b1565b506100d89291506100dc565b5090565b5b808211156100d857600081556001016100dd565b60008060408385031215610103578182fd5b82516001600160a01b0381168114610119578283fd5b602084810151919350906001600160401b0380821115610137578384fd5b818601915086601f83011261014a578384fd5b81518181111561015c5761015c610217565b604051601f8201601f19908116603f0116810190838211818310171561018457610184610217565b81604052828152898684870101111561019b578687fd5b8693505b828410156101bc578484018601518185018701529285019261019f565b828411156101cc57868684830101525b8096505050505050509250929050565b600181811c908216806101f057607f821691505b6020821081141561021157634e487b7160e01b600052602260045260246000fd5b50919050565b634e487b7160e01b600052604160045260246000fd5b6102b28061023c6000396000f3fe608060405234801561001057600080fd5b506004361061004c5760003560e01c806306fdde031461005157806312065fe01461006f5780633ccfd60b1461007d578063f496d88214610087575b600080fd5b6100596100b2565b60405161006691906101ee565b60405180910390f35b604051478152602001610066565b610085610140565b005b60005461009a906001600160a01b031681565b6040516001600160a01b039091168152602001610066565b600180546100bf90610241565b80601f01602080910402602001604051908101604052809291908181526020018280546100eb90610241565b80156101385780601f1061010d57610100808354040283529160200191610138565b820191906000526020600020905b81548152906001019060200180831161011b57829003601f168201915b505050505081565b604051600090339047908381818185875af1925050503d8060008114610182576040519150601f19603f3d011682016040523d82523d6000602084013e610187565b606091505b50509050806101eb5760405162461bcd60e51b815260206004820152602660248201527f4661696c656420746f2073656e64204574686572206261636b20746f207468656044820152651037bbb732b960d11b606482015260840160405180910390fd5b50565b6000602080835283518082850152825b8181101561021a578581018301518582016040015282016101fe565b8181111561022b5783604083870101525b50601f01601f1916929092016040019392505050565b600181811c9082168061025557607f821691505b6020821081141561027657634e487b7160e01b600052602260045260246000fd5b5091905056fea2646970667358221220268c70ac1dcbed0e36dc77a229f71210a643bfa8b6a5c5c9f7bda33e2da41c8e64736f6c63430008040033608060405234801561001057600080fd5b506040516106d93803806106d983398101604081905261002f9161011a565b600080546001600160a01b0319166001600160a01b038316179055815161005d906001906020850190610065565b505050610247565b828054610071906101f6565b90600052602060002090601f01602090048101928261009357600085556100d9565b82601f106100ac57805160ff19168380011785556100d9565b828001600101855582156100d9579182015b828111156100d95782518255916020019190600101906100be565b506100e59291506100e9565b5090565b5b808211156100e557600081556001016100ea565b80516001600160a01b038116811461011557600080fd5b919050565b6000806040838503121561012c578182fd5b82516001600160401b0380821115610142578384fd5b818501915085601f830112610155578384fd5b81518181111561016757610167610231565b604051601f8201601f19908116603f0116810190838211818310171561018f5761018f610231565b816040528281526020935088848487010111156101aa578687fd5b8691505b828210156101cb57848201840151818301850152908301906101ae565b828211156101db57868484830101525b95506101eb9150508582016100fe565b925050509250929050565b600181811c9082168061020a57607f821691505b6020821081141561022b57634e487b7160e01b600052602260045260246000fd5b50919050565b634e487b7160e01b600052604160045260246000fd5b610483806102566000396000f3fe6080604052600436106100565760003560e01c806312065fe01461005f578063598526861461007f5780638da5cb5b14610087578063ad38fba5146100bf578063d4cbd6a7146100ef578063f2fde38b146100f757005b3661005d57005b005b34801561006b57600080fd5b506040514781526020015b60405180910390f35b61005d610117565b34801561009357600080fd5b506000546100a7906001600160a01b031681565b6040516001600160a01b039091168152602001610076565b3480156100cb57600080fd5b506100df6100da3660046103b7565b61014c565b6040519015158152602001610076565b6100df61028d565b34801561010357600080fd5b506100df610112366004610396565b610330565b6000546001600160a01b0316331461014a5760405162461bcd60e51b8152600401610141906103e0565b60405180910390fd5b565b600080546001600160a01b031633146101775760405162461bcd60e51b8152600401610141906103e0565b81478111156101c85760405162461bcd60e51b815260206004820152601860248201527f496e76616c696420616d6f756e7420617661696c61626c6500000000000000006044820152606401610141565b836001600160a01b0381166102115760405162461bcd60e51b815260206004820152600f60248201526e496e76616c6964206164647265737360881b6044820152606401610141565b6000856001600160a01b03168560405160006040518083038185875af1925050503d806000811461025e576040519150601f19603f3d011682016040523d82523d6000602084013e610263565b606091505b50509050806102845760405162461bcd60e51b815260040161014190610407565b95945050505050565b600080546001600160a01b031633146102b85760405162461bcd60e51b8152600401610141906103e0565b600080546040516001600160a01b039091169047908381818185875af1925050503d8060008114610305576040519150601f19603f3d011682016040523d82523d6000602084013e61030a565b606091505b505090508061032b5760405162461bcd60e51b815260040161014190610407565b905090565b600080546001600160a01b0316331461035b5760405162461bcd60e51b8152600401610141906103e0565b50600080546001600160a01b0319166001600160a01b03831617905560015b919050565b80356001600160a01b038116811461037a57600080fd5b6000602082840312156103a7578081fd5b6103b08261037f565b9392505050565b600080604083850312156103c9578081fd5b6103d28361037f565b946020939093013593505050565b6020808252600d908201526c24b73b30b634b21037bbb732b960991b604082015260600190565b60208082526026908201527f4661696c656420746f2073656e64204574686572206261636b20746f207468656040820152651037bbb732b960d11b60608201526080019056fea2646970667358221220b1fc7afb7644e7db6f2c57c56e55c3246991f6abda9d94522200294b4411decc64736f6c63430008040033a2646970667358221220be99283d0deb6b6012455de8e7fb0aa814e610df3c0fd37264a584d394acaf8064736f6c63430008040033",
  "linkReferences": {},
  "deployedLinkReferences": {}
}