{
  "_format": "hh-sol-artifact-1",
  "contractName": "Dns",
  "sourceName": "contracts/Dns.sol",
  "abi": [
    {
      "inputs": [],
      "stateMutability": "nonpayable",
      "type": "constructor"
    },
    {
      "anonymous": false,
      "inputs": [
        {
          "indexed": true,
          "internalType": "address",
          "name": "owner",
          "type": "address"
        },
        {
          "indexed": true,
          "internalType": "address",
          "name": "approved",
          "type": "address"
        },
        {
          "indexed": true,
          "internalType": "uint256",
          "name": "tokenId",
          "type": "uint256"
        }
      ],
      "name": "Approval",
      "type": "event"
    },
    {
      "anonymous": false,
      "inputs": [
        {
          "indexed": true,
          "internalType": "address",
          "name": "owner",
          "type": "address"
        },
        {
          "indexed": true,
          "internalType": "address",
          "name": "operator",
          "type": "address"
        },
        {
          "indexed": false,
          "internalType": "bool",
          "name": "approved",
          "type": "bool"
        }
      ],
      "name": "ApprovalForAll",
      "type": "event"
    },
    {
      "anonymous": false,
      "inputs": [
        {
          "indexed": false,
          "internalType": "string",
          "name": "name",
          "type": "string"
        }
      ],
      "name": "AuctionEnded",
      "type": "event"
    },
    {
      "anonymous": false,
      "inputs": [
        {
          "indexed": false,
          "internalType": "string",
          "name": "name",
          "type": "string"
        }
      ],
      "name": "AuctionStarted",
      "type": "event"
    },
    {
      "anonymous": false,
      "inputs": [
        {
          "indexed": false,
          "internalType": "address",
          "name": "bidder",
          "type": "address"
        },
        {
          "indexed": false,
          "internalType": "string",
          "name": "name",
          "type": "string"
        }
      ],
      "name": "BidMade",
      "type": "event"
    },
    {
      "anonymous": false,
      "inputs": [
        {
          "indexed": false,
          "internalType": "address",
          "name": "bidder",
          "type": "address"
        },
        {
          "indexed": false,
          "internalType": "string",
          "name": "name",
          "type": "string"
        },
        {
          "indexed": false,
          "internalType": "uint256",
          "name": "value",
          "type": "uint256"
        },
        {
          "indexed": false,
          "internalType": "bool",
          "name": "revealed",
          "type": "bool"
        }
      ],
      "name": "BidRevealed",
      "type": "event"
    },
    {
      "anonymous": false,
      "inputs": [
        {
          "indexed": true,
          "internalType": "string",
          "name": "name",
          "type": "string"
        },
        {
          "indexed": true,
          "internalType": "address",
          "name": "owner",
          "type": "address"
        }
      ],
      "name": "DomainRegistered",
      "type": "event"
    },
    {
      "anonymous": false,
      "inputs": [
        {
          "indexed": true,
          "internalType": "address",
          "name": "from",
          "type": "address"
        },
        {
          "indexed": true,
          "internalType": "address",
          "name": "to",
          "type": "address"
        },
        {
          "indexed": true,
          "internalType": "uint256",
          "name": "tokenId",
          "type": "uint256"
        }
      ],
      "name": "Transfer",
      "type": "event"
    },
    {
      "inputs": [
        {
          "internalType": "address",
          "name": "to",
          "type": "address"
        },
        {
          "internalType": "uint256",
          "name": "tokenId",
          "type": "uint256"
        }
      ],
      "name": "approve",
      "outputs": [],
      "stateMutability": "nonpayable",
      "type": "function"
    },
    {
      "inputs": [
        {
          "internalType": "string",
          "name": "",
          "type": "string"
        }
      ],
      "name": "auctions",
      "outputs": [
        {
          "internalType": "uint256",
          "name": "biddingEnd",
          "type": "uint256"
        },
        {
          "internalType": "uint256",
          "name": "revealEnd",
          "type": "uint256"
        },
        {
          "internalType": "string",
          "name": "name",
          "type": "string"
        },
        {
          "internalType": "uint256",
          "name": "auctionId",
          "type": "uint256"
        },
        {
          "internalType": "uint256",
          "name": "highestBid",
          "type": "uint256"
        },
        {
          "internalType": "address",
          "name": "highestBidder",
          "type": "address"
        }
      ],
      "stateMutability": "view",
      "type": "function"
    },
    {
      "inputs": [
        {
          "internalType": "uint256",
          "name": "",
          "type": "uint256"
        }
      ],
      "name": "auctionsArray",
      "outputs": [
        {
          "internalType": "uint256",
          "name": "biddingEnd",
          "type": "uint256"
        },
        {
          "internalType": "uint256",
          "name": "revealEnd",
          "type": "uint256"
        },
        {
          "internalType": "string",
          "name": "name",
          "type": "string"
        },
        {
          "internalType": "uint256",
          "name": "auctionId",
          "type": "uint256"
        },
        {
          "internalType": "uint256",
          "name": "highestBid",
          "type": "uint256"
        },
        {
          "internalType": "address",
          "name": "highestBidder",
          "type": "address"
        }
      ],
      "stateMutability": "view",
      "type": "function"
    },
    {
      "inputs": [
        {
          "internalType": "address",
          "name": "owner",
          "type": "address"
        }
      ],
      "name": "balanceOf",
      "outputs": [
        {
          "internalType": "uint256",
          "name": "",
          "type": "uint256"
        }
      ],
      "stateMutability": "view",
      "type": "function"
    },
    {
      "inputs": [
        {
          "internalType": "bytes",
          "name": "bytecode",
          "type": "bytes"
        },
        {
          "internalType": "uint256",
          "name": "_salt",
          "type": "uint256"
        },
        {
          "internalType": "string",
          "name": "_name",
          "type": "string"
        }
      ],
      "name": "bid",
      "outputs": [],
      "stateMutability": "payable",
      "type": "function"
    },
    {
      "inputs": [
        {
          "internalType": "string",
          "name": "",
          "type": "string"
        },
        {
          "internalType": "uint256",
          "name": "",
          "type": "uint256"
        }
      ],
      "name": "biddingsForAuctions",
      "outputs": [
        {
          "internalType": "string",
          "name": "name",
          "type": "string"
        },
        {
          "internalType": "address",
          "name": "bidder",
          "type": "address"
        },
        {
          "internalType": "bool",
          "name": "revealed",
          "type": "bool"
        },
        {
          "internalType": "uint256",
          "name": "revealedBid",
          "type": "uint256"
        }
      ],
      "stateMutability": "view",
      "type": "function"
    },
    {
      "inputs": [
        {
          "internalType": "bytes",
          "name": "bytecode",
          "type": "bytes"
        },
        {
          "internalType": "uint256",
          "name": "salt",
          "type": "uint256"
        },
        {
          "internalType": "string",
          "name": "_name",
          "type": "string"
        }
      ],
      "name": "check",
      "outputs": [],
      "stateMutability": "nonpayable",
      "type": "function"
    },
    {
      "inputs": [
        {
          "internalType": "string",
          "name": "",
          "type": "string"
        }
      ],
      "name": "domainsToEthAddr",
      "outputs": [
        {
          "internalType": "address",
          "name": "",
          "type": "address"
        }
      ],
      "stateMutability": "view",
      "type": "function"
    },
    {
      "inputs": [
        {
          "internalType": "address",
          "name": "",
          "type": "address"
        },
        {
          "internalType": "uint256",
          "name": "",
          "type": "uint256"
        }
      ],
      "name": "ethAddrToDomain",
      "outputs": [
        {
          "internalType": "string",
          "name": "domainName",
          "type": "string"
        },
        {
          "internalType": "address",
          "name": "contractAddress",
          "type": "address"
        }
      ],
      "stateMutability": "view",
      "type": "function"
    },
    {
      "inputs": [
        {
          "internalType": "bytes",
          "name": "bytecode",
          "type": "bytes"
        },
        {
          "internalType": "uint256",
          "name": "_salt",
          "type": "uint256"
        }
      ],
      "name": "getAddress",
      "outputs": [
        {
          "internalType": "address",
          "name": "",
          "type": "address"
        }
      ],
      "stateMutability": "view",
      "type": "function"
    },
    {
      "inputs": [
        {
          "internalType": "uint256",
          "name": "tokenId",
          "type": "uint256"
        }
      ],
      "name": "getApproved",
      "outputs": [
        {
          "internalType": "address",
          "name": "",
          "type": "address"
        }
      ],
      "stateMutability": "view",
      "type": "function"
    },
    {
      "inputs": [],
      "name": "getAuctions",
      "outputs": [
        {
          "components": [
            {
              "internalType": "uint256",
              "name": "biddingEnd",
              "type": "uint256"
            },
            {
              "internalType": "uint256",
              "name": "revealEnd",
              "type": "uint256"
            },
            {
              "internalType": "string",
              "name": "name",
              "type": "string"
            },
            {
              "internalType": "uint256",
              "name": "auctionId",
              "type": "uint256"
            },
            {
              "internalType": "uint256",
              "name": "highestBid",
              "type": "uint256"
            },
            {
              "internalType": "address",
              "name": "highestBidder",
              "type": "address"
            }
          ],
          "internalType": "struct IDns.Auction[]",
          "name": "",
          "type": "tuple[]"
        }
      ],
      "stateMutability": "view",
      "type": "function"
    },
    {
      "inputs": [],
      "name": "getBalance",
      "outputs": [
        {
          "internalType": "uint256",
          "name": "",
          "type": "uint256"
        }
      ],
      "stateMutability": "view",
      "type": "function"
    },
    {
      "inputs": [
        {
          "internalType": "string",
          "name": "_name",
          "type": "string"
        },
        {
          "internalType": "address",
          "name": "user",
          "type": "address"
        }
      ],
      "name": "getBidding",
      "outputs": [
        {
          "components": [
            {
              "internalType": "string",
              "name": "name",
              "type": "string"
            },
            {
              "internalType": "address",
              "name": "bidder",
              "type": "address"
            },
            {
              "internalType": "bool",
              "name": "revealed",
              "type": "bool"
            },
            {
              "internalType": "uint256",
              "name": "revealedBid",
              "type": "uint256"
            }
          ],
          "internalType": "struct IDns.Bid",
          "name": "",
          "type": "tuple"
        }
      ],
      "stateMutability": "view",
      "type": "function"
    },
    {
      "inputs": [
        {
          "internalType": "address",
          "name": "_user",
          "type": "address"
        }
      ],
      "name": "getBiddings",
      "outputs": [
        {
          "components": [
            {
              "internalType": "string",
              "name": "name",
              "type": "string"
            },
            {
              "internalType": "address",
              "name": "bidder",
              "type": "address"
            },
            {
              "internalType": "bool",
              "name": "revealed",
              "type": "bool"
            },
            {
              "internalType": "uint256",
              "name": "revealedBid",
              "type": "uint256"
            }
          ],
          "internalType": "struct IDns.Bid[]",
          "name": "",
          "type": "tuple[]"
        }
      ],
      "stateMutability": "view",
      "type": "function"
    },
    {
      "inputs": [
        {
          "internalType": "address",
          "name": "_owner",
          "type": "address"
        },
        {
          "internalType": "string",
          "name": "_name",
          "type": "string"
        }
      ],
      "name": "getBytecode",
      "outputs": [
        {
          "internalType": "bytes",
          "name": "",
          "type": "bytes"
        }
      ],
      "stateMutability": "pure",
      "type": "function"
    },
    {
      "inputs": [
        {
          "internalType": "address",
          "name": "ownerAddress",
          "type": "address"
        }
      ],
      "name": "getDomains",
      "outputs": [
        {
          "components": [
            {
              "internalType": "string",
              "name": "domainName",
              "type": "string"
            },
            {
              "internalType": "address",
              "name": "contractAddress",
              "type": "address"
            }
          ],
          "internalType": "struct IDns.EthDomain[]",
          "name": "",
          "type": "tuple[]"
        }
      ],
      "stateMutability": "view",
      "type": "function"
    },
    {
      "inputs": [
        {
          "internalType": "address",
          "name": "owner",
          "type": "address"
        },
        {
          "internalType": "address",
          "name": "operator",
          "type": "address"
        }
      ],
      "name": "isApprovedForAll",
      "outputs": [
        {
          "internalType": "bool",
          "name": "",
          "type": "bool"
        }
      ],
      "stateMutability": "view",
      "type": "function"
    },
    {
      "inputs": [
        {
          "internalType": "address",
          "name": "",
          "type": "address"
        },
        {
          "internalType": "uint256",
          "name": "",
          "type": "uint256"
        }
      ],
      "name": "myBiddings",
      "outputs": [
        {
          "internalType": "string",
          "name": "name",
          "type": "string"
        },
        {
          "internalType": "address",
          "name": "bidder",
          "type": "address"
        },
        {
          "internalType": "bool",
          "name": "revealed",
          "type": "bool"
        },
        {
          "internalType": "uint256",
          "name": "revealedBid",
          "type": "uint256"
        }
      ],
      "stateMutability": "view",
      "type": "function"
    },
    {
      "inputs": [],
      "name": "name",
      "outputs": [
        {
          "internalType": "string",
          "name": "",
          "type": "string"
        }
      ],
      "stateMutability": "view",
      "type": "function"
    },
    {
      "inputs": [],
      "name": "owner",
      "outputs": [
        {
          "internalType": "address",
          "name": "",
          "type": "address"
        }
      ],
      "stateMutability": "view",
      "type": "function"
    },
    {
      "inputs": [
        {
          "internalType": "uint256",
          "name": "tokenId",
          "type": "uint256"
        }
      ],
      "name": "ownerOf",
      "outputs": [
        {
          "internalType": "address",
          "name": "",
          "type": "address"
        }
      ],
      "stateMutability": "view",
      "type": "function"
    },
    {
      "inputs": [
        {
          "internalType": "string",
          "name": "name",
          "type": "string"
        },
        {
          "internalType": "address",
          "name": "_owner",
          "type": "address"
        }
      ],
      "name": "registerName",
      "outputs": [
        {
          "internalType": "address",
          "name": "domainEthAddr",
          "type": "address"
        }
      ],
      "stateMutability": "nonpayable",
      "type": "function"
    },
    {
      "inputs": [
        {
          "internalType": "address",
          "name": "ownerAddress",
          "type": "address"
        },
        {
          "internalType": "string",
          "name": "name",
          "type": "string"
        }
      ],
      "name": "resolveAddress",
      "outputs": [
        {
          "internalType": "address",
          "name": "",
          "type": "address"
        }
      ],
      "stateMutability": "view",
      "type": "function"
    },
    {
      "inputs": [
        {
          "internalType": "address",
          "name": "from",
          "type": "address"
        },
        {
          "internalType": "address",
          "name": "to",
          "type": "address"
        },
        {
          "internalType": "uint256",
          "name": "tokenId",
          "type": "uint256"
        }
      ],
      "name": "safeTransferFrom",
      "outputs": [],
      "stateMutability": "nonpayable",
      "type": "function"
    },
    {
      "inputs": [
        {
          "internalType": "address",
          "name": "from",
          "type": "address"
        },
        {
          "internalType": "address",
          "name": "to",
          "type": "address"
        },
        {
          "internalType": "uint256",
          "name": "tokenId",
          "type": "uint256"
        },
        {
          "internalType": "bytes",
          "name": "_data",
          "type": "bytes"
        }
      ],
      "name": "safeTransferFrom",
      "outputs": [],
      "stateMutability": "nonpayable",
      "type": "function"
    },
    {
      "inputs": [
        {
          "internalType": "address",
          "name": "operator",
          "type": "address"
        },
        {
          "internalType": "bool",
          "name": "approved",
          "type": "bool"
        }
      ],
      "name": "setApprovalForAll",
      "outputs": [],
      "stateMutability": "nonpayable",
      "type": "function"
    },
    {
      "inputs": [
        {
          "internalType": "string",
          "name": "_name",
          "type": "string"
        },
        {
          "internalType": "uint256",
          "name": "_bidDuration",
          "type": "uint256"
        },
        {
          "internalType": "uint256",
          "name": "_revealDuration",
          "type": "uint256"
        }
      ],
      "name": "startAuction",
      "outputs": [],
      "stateMutability": "nonpayable",
      "type": "function"
    },
    {
      "inputs": [
        {
          "internalType": "bytes4",
          "name": "interfaceId",
          "type": "bytes4"
        }
      ],
      "name": "supportsInterface",
      "outputs": [
        {
          "internalType": "bool",
          "name": "",
          "type": "bool"
        }
      ],
      "stateMutability": "view",
      "type": "function"
    },
    {
      "inputs": [],
      "name": "symbol",
      "outputs": [
        {
          "internalType": "string",
          "name": "",
          "type": "string"
        }
      ],
      "stateMutability": "view",
      "type": "function"
    },
    {
      "inputs": [
        {
          "internalType": "uint256",
          "name": "tokenId",
          "type": "uint256"
        }
      ],
      "name": "tokenURI",
      "outputs": [
        {
          "internalType": "string",
          "name": "",
          "type": "string"
        }
      ],
      "stateMutability": "view",
      "type": "function"
    },
    {
      "inputs": [
        {
          "internalType": "address",
          "name": "from",
          "type": "address"
        },
        {
          "internalType": "address",
          "name": "to",
          "type": "address"
        },
        {
          "internalType": "uint256",
          "name": "tokenId",
          "type": "uint256"
        }
      ],
      "name": "transferFrom",
      "outputs": [],
      "stateMutability": "nonpayable",
      "type": "function"
    },
    {
      "stateMutability": "payable",
      "type": "receive"
    }
  ],
  "bytecode": "0x60806040526000600d553480156200001657600080fd5b50604080518082018252601481527f4e545520646f6d61696e207265676973747261720000000000000000000000006020808301918252835180850190945260038452624e545560e81b908401528151919291620000779160009162000164565b5080516200008d90600190602084019062000164565b5050600680546001600160a01b031916331790555060408051808201909152601d81527f4e545520646f6d61696e20726567697374726172206465706c6f796564000000602080830191909152620000ef91906200219e620000f5821b17901c565b6200029d565b62000140816040516024016200010c91906200020a565b60408051601f198184030181529190526020810180516001600160e01b0390811663104c13eb60e21b179091526200014316565b50565b80516a636f6e736f6c652e6c6f67602083016000808483855afa5050505050565b828054620001729062000260565b90600052602060002090601f016020900481019282620001965760008555620001e1565b82601f10620001b157805160ff1916838001178555620001e1565b82800160010185558215620001e1579182015b82811115620001e1578251825591602001919060010190620001c4565b50620001ef929150620001f3565b5090565b5b80821115620001ef5760008155600101620001f4565b6000602080835283518082850152825b8181101562000238578581018301518582016040015282016200021a565b818111156200024a5783604083870101525b50601f01601f1916929092016040019392505050565b600181811c908216806200027557607f821691505b602082108114156200029757634e487b7160e01b600052602260045260246000fd5b50919050565b6142c080620002ad6000396000f3fe6080604052600436106200020e5760003560e01c80638da5cb5b1162000117578063ba2dd51f11620000a1578063d7c06919116200006c578063d7c0691914620006ae578063e6116a5914620006d5578063e80d842c14620006fa578063e985e9c5146200072e57600080fd5b8063ba2dd51f14620005f9578063c32618a71462000630578063c4c311941462000655578063c87b56dd146200068957600080fd5b8063a22cb46511620000e2578063a22cb4651462000531578063a693e4cb1462000556578063b76b1618146200059b578063b88d4fde14620005d457600080fd5b80638da5cb5b14620004ad57806394ca2cb514620004cf57806395d89b4114620004f457806399726b10146200050c57600080fd5b80632ac63f9911620001995780635a98374511620001645780635a983745146200040a5780636352211e146200043e57806370a0823114620004635780637b59af16146200048857600080fd5b80632ac63f99146200037657806342842e0e146200039b5780634f15aeb814620003c057806353e2045314620003e557600080fd5b8063081812fc11620001da578063081812fc14620002cf578063095ea7b3146200030d57806312065fe0146200033257806323b872dd146200035157600080fd5b80621d741e146200021b57806301ffc9a714620002595780630369567f146200028f57806306fdde0314620002a857600080fd5b366200021657005b600080fd5b3480156200022857600080fd5b50620002406200023a36600462002d60565b6200077b565b60405162000250929190620033a2565b60405180910390f35b3480156200026657600080fd5b506200027e6200027836600462002d8e565b62000856565b604051901515815260200162000250565b620002a6620002a036600462002e13565b620008aa565b005b348015620002b557600080fd5b50620002c0620008d5565b6040516200025091906200335e565b348015620002dc57600080fd5b50620002f4620002ee3660046200302b565b6200096f565b6040516001600160a01b03909116815260200162000250565b3480156200031a57600080fd5b50620002a66200032c36600462002d60565b62000a0a565b3480156200033f57600080fd5b50475b60405190815260200162000250565b3480156200035e57600080fd5b50620002a66200037036600462002c20565b62000b2b565b3480156200038357600080fd5b50620002a66200039536600462002e84565b62000b63565b348015620003a857600080fd5b50620002a6620003ba36600462002c20565b62000ec6565b348015620003cd57600080fd5b50620002c0620003df36600462002d0c565b62000ee3565b348015620003f257600080fd5b50620002f46200040436600462002d0c565b62000f5d565b3480156200041757600080fd5b506200042f6200042936600462002ba5565b62001139565b60405162000250919062003285565b3480156200044b57600080fd5b50620002f46200045d3660046200302b565b62001280565b3480156200047057600080fd5b50620003426200048236600462002ba5565b620012f9565b3480156200049557600080fd5b50620002f4620004a736600462002fb6565b62001382565b348015620004ba57600080fd5b50600654620002f4906001600160a01b031681565b348015620004dc57600080fd5b50620002f4620004ee36600462002dcc565b62001507565b3480156200050157600080fd5b50620002c062001563565b3480156200051957600080fd5b50620002a66200052b36600462002e13565b62001574565b3480156200053e57600080fd5b50620002a66200055036600462002cd7565b62001995565b3480156200056357600080fd5b50620002f46200057536600462002f03565b80516020818301810180516007825292820191909301209152546001600160a01b031681565b348015620005a857600080fd5b50620005c0620005ba36600462002f03565b620019a6565b6040516200025096959493929190620034c0565b348015620005e157600080fd5b50620002a6620005f336600462002c65565b62001a81565b3480156200060657600080fd5b506200061e6200061836600462003001565b62001aba565b604051620002509493929190620033ce565b3480156200063d57600080fd5b506200061e6200064f36600462002d60565b62001bb7565b3480156200066257600080fd5b506200067a6200067436600462002fb6565b62001bd4565b604051620002509190620034ab565b3480156200069657600080fd5b50620002c0620006a83660046200302b565b62001e16565b348015620006bb57600080fd5b50620006c662001f07565b604051620002509190620031da565b348015620006e257600080fd5b50620005c0620006f43660046200302b565b62002043565b3480156200070757600080fd5b506200071f6200071936600462002ba5565b62002085565b604051620002509190620032ea565b3480156200073b57600080fd5b506200027e6200074d36600462002be3565b6001600160a01b03918216600090815260056020908152604080832093909416825291909152205460ff1690565b600860205281600052604060002081815481106200079857600080fd5b906000526020600020906002020160009150915050806000018054620007be90620035e2565b80601f0160208091040260200160405190810160405280929190818152602001828054620007ec90620035e2565b80156200083d5780601f1062000811576101008083540402835291602001916200083d565b820191906000526020600020905b8154815290600101906020018083116200081f57829003601f168201915b505050600190930154919250506001600160a01b031682565b60006001600160e01b031982166380ac58cd60e01b14806200088857506001600160e01b03198216635b5e139f60e01b145b80620008a457506301ffc9a760e01b6001600160e01b03198316145b92915050565b60008284516020860134f59050803b620008c357600080fd5b620008cf3383620021e8565b50505050565b606060008054620008e690620035e2565b80601f01602080910402602001604051908101604052809291908181526020018280546200091490620035e2565b8015620009655780601f10620009395761010080835404028352916020019162000965565b820191906000526020600020905b8154815290600101906020018083116200094757829003601f168201915b5050505050905090565b6000818152600260205260408120546001600160a01b0316620009ee5760405162461bcd60e51b815260206004820152602c60248201527f4552433732313a20617070726f76656420717565727920666f72206e6f6e657860448201526b34b9ba32b73a103a37b5b2b760a11b60648201526084015b60405180910390fd5b506000908152600460205260409020546001600160a01b031690565b600062000a178262001280565b9050806001600160a01b0316836001600160a01b0316141562000a875760405162461bcd60e51b815260206004820152602160248201527f4552433732313a20617070726f76616c20746f2063757272656e74206f776e656044820152603960f91b6064820152608401620009e5565b336001600160a01b038216148062000aa6575062000aa681336200074d565b62000b1a5760405162461bcd60e51b815260206004820152603860248201527f4552433732313a20617070726f76652063616c6c6572206973206e6f74206f7760448201527f6e6572206e6f7220617070726f76656420666f7220616c6c00000000000000006064820152608401620009e5565b62000b2683836200234f565b505050565b62000b373382620023bf565b62000b565760405162461bcd60e51b8152600401620009e5906200345a565b62000b26838383620024be565b6009848460405162000b7792919062003109565b90815260200160405180910390206003015460001462000bda5760405162461bcd60e51b815260206004820152601f60248201527f41756374696f6e20666f72207468697320616c726561647920657869737473006044820152606401620009e5565b60006001600160a01b03166007858560405162000bf992919062003109565b908152604051908190036020019020546001600160a01b03161462000c6b5760405162461bcd60e51b815260206004820152602160248201527f5468697320646f6d61696e206e616d6520697320616c7265616479206f776e656044820152601960fa1b6064820152608401620009e5565b600d805490600062000c7d836200361f565b919050555060006040518060c00160405280844262000c9d919062003567565b81526020018362000caf864262003567565b62000cbb919062003567565b815260200186868080601f01602080910402602001604051908101604052809392919081815260200183838082843760009201829052509385525050600d54602084015250604080830182905260609092015251909150819060099062000d26908890889062003109565b90815260200160405180910390206000820151816000015560208201518160010155604082015181600201908051906020019062000d6692919062002a8c565b50606082015160038201556080820151600482015560a090910151600590910180546001600160a01b0319166001600160a01b03909216919091179055600a805460018101825560009190915281517fc65a7bb8d6351c1cf70c95a316cc6a92839c986682d98bc35f958f4883f9d2a860069092029182019081556020808401517fc65a7bb8d6351c1cf70c95a316cc6a92839c986682d98bc35f958f4883f9d2a984015560408401518051859462000e46937fc65a7bb8d6351c1cf70c95a316cc6a92839c986682d98bc35f958f4883f9d2aa90910192019062002a8c565b50606082015160038201556080820151600482015560a090910151600590910180546001600160a01b0319166001600160a01b039092169190911790556040517f50aa32fed87143a12f31f64ad9199a4cdc7b35635008b92f753d4c66dafdb4239062000eb7908790879062003373565b60405180910390a15050505050565b62000b268383836040518060200160405280600081525062001a81565b606060006040518060200162000ef99062002b1b565b6020820181038252601f19601f82011660405250905080848460405160200162000f2592919062003176565b60408051601f198184030181529082905262000f459291602001620030d6565b60405160208183030381529060405291505092915050565b6000805b6001600160a01b0384166000908152600860205260409020548110156200112f576001600160a01b038416600090815260086020526040812080548390811062000fbb57634e487b7160e01b600052603260045260246000fd5b9060005260206000209060020201600001805462000fd990620035e2565b80601f01602080910402602001604051908101604052809291908181526020018280546200100790620035e2565b8015620010585780601f106200102c5761010080835404028352916020019162001058565b820191906000526020600020905b8154815290600101906020018083116200103a57829003601f168201915b505050505090508360405160200162001072919062003119565b60405160208183030381529060405280519060200120816040516020016200109b919062003119565b60405160208183030381529060405280519060200120141562001119576001600160a01b0385166000908152600860205260409020805483908110620010f157634e487b7160e01b600052603260045260246000fd5b60009182526020909120600160029092020101546001600160a01b03169250620008a4915050565b508062001126816200361f565b91505062000f61565b5060009392505050565b6001600160a01b0381166000908152600c60209081526040808320805482518185028101850190935280835260609492939192909184015b82821015620012755783829060005260206000209060030201604051806080016040529081600082018054620011a790620035e2565b80601f0160208091040260200160405190810160405280929190818152602001828054620011d590620035e2565b8015620012265780601f10620011fa5761010080835404028352916020019162001226565b820191906000526020600020905b8154815290600101906020018083116200120857829003601f168201915b50505091835250506001828101546001600160a01b038116602080850191909152600160a01b90910460ff16151560408401526002909301546060909201919091529183529201910162001171565b505050509050919050565b6000818152600260205260408120546001600160a01b031680620008a45760405162461bcd60e51b815260206004820152602960248201527f4552433732313a206f776e657220717565727920666f72206e6f6e657869737460448201526832b73a103a37b5b2b760b91b6064820152608401620009e5565b60006001600160a01b038216620013665760405162461bcd60e51b815260206004820152602a60248201527f4552433732313a2062616c616e636520717565727920666f7220746865207a65604482015269726f206164647265737360b01b6064820152608401620009e5565b506001600160a01b031660009081526003602052604090205490565b60008260006001600160a01b0316600782604051620013a2919062003119565b908152604051908190036020019020546001600160a01b031614620013c657600080fd5b60008484604051620013d89062002b29565b620013e5929190620033a2565b604051809103906000f08015801562001402573d6000803e3d6000fd5b509050809250836007866040516200141b919062003119565b908152604080516020928190038301812080546001600160a01b0319166001600160a01b03958616179055808201825288815286841683820152928716600090815260088352908120805460018101825590825290829020835180518594600290940290920192620014939284929091019062002a8c565b5060209190910151600190910180546001600160a01b0319166001600160a01b0392831617905560405190861690620014ce90889062003119565b604051908190038120907f70f2ff07e8136617cdfb0433423063c9dd697c507560d7860cce09fa86874a1290600090a350505092915050565b8151602092830120604080516001600160f81b0319818601523060601b6bffffffffffffffffffffffff191660218201526035810193909352605580840192909252805180840390920182526075909201909152805191012090565b606060018054620008e690620035e2565b6000600b8260405162001588919062003119565b90815260200160405180910390209050600080620015a7868662001507565b905060008190506000816001600160a01b031663f496d8826040518163ffffffff1660e01b815260040160206040518083038186803b158015620015ea57600080fd5b505afa158015620015ff573d6000803e3d6000fd5b505050506040513d601f19601f8201168201806040525081019062001625919062002bc4565b90506000826001600160a01b03166306fdde036040518163ffffffff1660e01b815260040160006040518083038186803b1580156200166357600080fd5b505afa15801562001678573d6000803e3d6000fd5b505050506040513d6000823e601f3d908101601f19168201604052620016a2919081019062002f3a565b90506000836001600160a01b03166312065fe06040518163ffffffff1660e01b815260040160206040518083038186803b158015620016e057600080fd5b505afa158015620016f5573d6000803e3d6000fd5b505050506040513d601f19601f820116820180604052508101906200171b919062003044565b90506001600160a01b0383163314620017715760405162461bcd60e51b815260206004820152601760248201527611985a5b1959081d1bc81d995c9a599e4818dbdb5b5a5d604a1b6044820152606401620009e5565b8760405160200162001784919062003119565b6040516020818303038152906040528051906020012082604051602001620017ad919062003119565b60405160208183030381529060405280519060200120146200180c5760405162461bcd60e51b815260206004820152601760248201527611985a5b1959081d1bc81d995c9a599e4818dbdb5b5a5d604a1b6044820152606401620009e5565b60005b87548110156200198857336001600160a01b03168882815481106200184457634e487b7160e01b600052603260045260246000fd5b60009182526020909120600160039092020101546001600160a01b0316141562001973578781815481106200188957634e487b7160e01b600052603260045260246000fd5b6000918252602082206001600390920201908101805460ff60a01b1916600160a01b1790556002810184905560408051633ccfd60b60e01b815290519199506001600160a01b03881692633ccfd60b9260048084019382900301818387803b158015620018f557600080fd5b505af11580156200190a573d6000803e3d6000fd5b505050506200191f893389600201546200266a565b50600287015460018801546040517fe7b9400614ae8d3fb96a8ed036e790d12c0466fe2df292c92a44c602bb1c20d5926200196a928892889291600160a01b900460ff16906200319c565b60405180910390a15b806200197f816200361f565b9150506200180f565b5050505050505050505050565b620019a233838362002717565b5050565b805160208183018101805160098252928201919093012091528054600182015460028301805492939192620019db90620035e2565b80601f016020809104026020016040519081016040528092919081815260200182805462001a0990620035e2565b801562001a5a5780601f1062001a2e5761010080835404028352916020019162001a5a565b820191906000526020600020905b81548152906001019060200180831162001a3c57829003601f168201915b5050505060038301546004840154600590940154929390929091506001600160a01b031686565b62001a8d3383620023bf565b62001aac5760405162461bcd60e51b8152600401620009e5906200345a565b620008cf84848484620027e8565b8151602081840181018051600b82529282019185019190912091905280548290811062001ae657600080fd5b90600052602060002090600302016000915091505080600001805462001b0c90620035e2565b80601f016020809104026020016040519081016040528092919081815260200182805462001b3a90620035e2565b801562001b8b5780601f1062001b5f5761010080835404028352916020019162001b8b565b820191906000526020600020905b81548152906001019060200180831162001b6d57829003601f168201915b50505050600183015460029093015491926001600160a01b03811692600160a01b90910460ff16915084565b600c602052816000526040600020818154811062001ae657600080fd5b6040805160808101825260608082526000602083018190529282018390528101919091526000600b8460405162001c0c919062003119565b9081526020016040518091039020805480602002602001604051908101604052809291908181526020016000905b8282101562001d3e578382906000526020600020906003020160405180608001604052908160008201805462001c7090620035e2565b80601f016020809104026020016040519081016040528092919081815260200182805462001c9e90620035e2565b801562001cef5780601f1062001cc35761010080835404028352916020019162001cef565b820191906000526020600020905b81548152906001019060200180831162001cd157829003601f168201915b50505091835250506001828101546001600160a01b038116602080850191909152600160a01b90910460ff16151560408401526002909301546060909201919091529183529201910162001c3a565b50505050905060005b815181101562001de057836001600160a01b031682828151811062001d7c57634e487b7160e01b600052603260045260246000fd5b6020026020010151602001516001600160a01b0316141562001dcb5781818151811062001db957634e487b7160e01b600052603260045260246000fd5b602002602001015192505050620008a4565b8062001dd7816200361f565b91505062001d47565b5060405162461bcd60e51b8152602060048201526009602482015268139bdd08199bdd5b9960ba1b6044820152606401620009e5565b6000818152600260205260409020546060906001600160a01b031662001e975760405162461bcd60e51b815260206004820152602f60248201527f4552433732314d657461646174613a2055524920717565727920666f72206e6f60448201526e3732bc34b9ba32b73a103a37b5b2b760891b6064820152608401620009e5565b600062001eaf60408051602081019091526000815290565b9050600081511162001ed1576040518060200160405280600081525062001f00565b8062001edd8462002822565b60405160200162001ef0929190620030d6565b6040516020818303038152906040525b9392505050565b6060600a805480602002602001604051908101604052809291908181526020016000905b828210156200203a57838290600052602060002090600602016040518060c0016040529081600082015481526020016001820154815260200160028201805462001f7590620035e2565b80601f016020809104026020016040519081016040528092919081815260200182805462001fa390620035e2565b801562001ff45780601f1062001fc85761010080835404028352916020019162001ff4565b820191906000526020600020905b81548152906001019060200180831162001fd657829003601f168201915b50505091835250506003820154602080830191909152600483015460408301526005909201546001600160a01b0316606090910152908252600192909201910162001f2b565b50505050905090565b600a81815481106200205457600080fd5b9060005260206000209060060201600091509050806000015490806001015490806002018054620019db90620035e2565b6001600160a01b0381166000908152600860209081526040808320805482518185028101850190935280835260609492939192909184015b82821015620012755783829060005260206000209060020201604051806040016040529081600082018054620020f390620035e2565b80601f01602080910402602001604051908101604052809291908181526020018280546200212190620035e2565b8015620021725780601f10620021465761010080835404028352916020019162002172565b820191906000526020600020905b8154815290600101906020018083116200215457829003601f168201915b50505091835250506001918201546001600160a01b0316602091820152918352929092019101620020bd565b620021e581604051602401620021b591906200335e565b60408051601f198184030181529190526020810180516001600160e01b031663104c13eb60e21b17905262002950565b50565b6001600160a01b0382166000818152600c6020908152604080832081516080810183528681528084019590955290840183905260608401839052805460018101825590835291819020835180516003909402909101926200224d928492019062002a8c565b5060208201516001820180546040808601511515600160a01b026001600160a81b03199092166001600160a01b039094169390931717905560609092015160029091015551600b90620022a290839062003119565b9081526040805191829003602090810183206080840183528484526001600160a01b038616848301526000928401839052606084018390528054600181018255908352918190208351805160039094029091019262002305928492019062002a8c565b50602082015160018201805460408501511515600160a01b026001600160a81b03199091166001600160a01b03909316929092179190911790556060909101516002909101555050565b600081815260046020526040902080546001600160a01b0319166001600160a01b0384169081179091558190620023868262001280565b6001600160a01b03167f8c5be1e5ebec7d5bd14f71427d1e84f3dd0314c0f7b2291e5b200ac8c7c3b92560405160405180910390a45050565b6000818152600260205260408120546001600160a01b03166200243a5760405162461bcd60e51b815260206004820152602c60248201527f4552433732313a206f70657261746f7220717565727920666f72206e6f6e657860448201526b34b9ba32b73a103a37b5b2b760a11b6064820152608401620009e5565b6000620024478362001280565b9050806001600160a01b0316846001600160a01b03161480620024855750836001600160a01b03166200247a846200096f565b6001600160a01b0316145b80620024b657506001600160a01b0380821660009081526005602090815260408083209388168352929052205460ff165b949350505050565b826001600160a01b0316620024d38262001280565b6001600160a01b0316146200253d5760405162461bcd60e51b815260206004820152602960248201527f4552433732313a207472616e73666572206f6620746f6b656e2074686174206960448201526839903737ba1037bbb760b91b6064820152608401620009e5565b6001600160a01b038216620025a15760405162461bcd60e51b8152602060048201526024808201527f4552433732313a207472616e7366657220746f20746865207a65726f206164646044820152637265737360e01b6064820152608401620009e5565b620025ae6000826200234f565b6001600160a01b0383166000908152600360205260408120805460019290620025d990849062003599565b90915550506001600160a01b03821660009081526003602052604081208054600192906200260990849062003567565b909155505060008181526002602052604080822080546001600160a01b0319166001600160a01b0386811691821790925591518493918716917fddf252ad1be2c89b69c2b068fc378daa952ba7f163c4a11628f55a4df523b3ef91a4505050565b60006009846040516200267e919062003119565b9081526020016040518091039020600401548211620026a05750600062001f00565b81600985604051620026b3919062003119565b90815260200160405180910390206004018190555082600985604051620026db919062003119565b90815260405190819003602001902060050180546001600160a01b03929092166001600160a01b03199092169190911790555060019392505050565b816001600160a01b0316836001600160a01b031614156200277b5760405162461bcd60e51b815260206004820152601960248201527f4552433732313a20617070726f766520746f2063616c6c6572000000000000006044820152606401620009e5565b6001600160a01b03838116600081815260056020908152604080832094871680845294825291829020805460ff191686151590811790915591519182527f17307eab39ab6107e8899845ad3d59bd9653f200f220920489ca2b5937696c31910160405180910390a3505050565b620027f5848484620024be565b620028038484848462002971565b620008cf5760405162461bcd60e51b8152600401620009e59062003408565b606081620028475750506040805180820190915260018152600360fc1b602082015290565b8160005b81156200287757806200285e816200361f565b91506200286f9050600a8362003582565b91506200284b565b60008167ffffffffffffffff811115620028a157634e487b7160e01b600052604160045260246000fd5b6040519080825280601f01601f191660200182016040528015620028cc576020820181803683370190505b5090505b8415620024b657620028e460018362003599565b9150620028f3600a866200363d565b6200290090603062003567565b60f81b8183815181106200292457634e487b7160e01b600052603260045260246000fd5b60200101906001600160f81b031916908160001a90535062002948600a8662003582565b9450620028d0565b80516a636f6e736f6c652e6c6f67602083016000808483855afa5050505050565b60006001600160a01b0384163b1562002a8157604051630a85bd0160e11b81526001600160a01b0385169063150b7a0290620029b890339089908890889060040162003137565b602060405180830381600087803b158015620029d357600080fd5b505af192505050801562002a06575060408051601f3d908101601f1916820190925262002a039181019062002dad565b60015b62002a66573d80801562002a37576040519150601f19603f3d011682016040523d82523d6000602084013e62002a3c565b606091505b50805162002a5e5760405162461bcd60e51b8152600401620009e59062003408565b805181602001fd5b6001600160e01b031916630a85bd0160e11b149050620024b6565b506001949350505050565b82805462002a9a90620035e2565b90600052602060002090601f01602090048101928262002abe576000855562002b09565b82601f1062002ad957805160ff191683800117855562002b09565b8280016001018555821562002b09579182015b8281111562002b0957825182559160200191906001019062002aec565b5062002b1792915062002b37565b5090565b6104ee80620036c483390190565b6106d98062003bb283390190565b5b8082111562002b17576000815560010162002b38565b600082601f83011262002b5f578081fd5b813562002b7662002b70826200353c565b62003508565b81815284602083860101111562002b8b578283fd5b816020850160208301379081016020019190915292915050565b60006020828403121562002bb7578081fd5b813562001f008162003696565b60006020828403121562002bd6578081fd5b815162001f008162003696565b6000806040838503121562002bf6578081fd5b823562002c038162003696565b9150602083013562002c158162003696565b809150509250929050565b60008060006060848603121562002c35578081fd5b833562002c428162003696565b9250602084013562002c548162003696565b929592945050506040919091013590565b6000806000806080858703121562002c7b578081fd5b843562002c888162003696565b9350602085013562002c9a8162003696565b925060408501359150606085013567ffffffffffffffff81111562002cbd578182fd5b62002ccb8782880162002b4e565b91505092959194509250565b6000806040838503121562002cea578182fd5b823562002cf78162003696565b91506020830135801515811462002c15578182fd5b6000806040838503121562002d1f578182fd5b823562002d2c8162003696565b9150602083013567ffffffffffffffff81111562002d48578182fd5b62002d568582860162002b4e565b9150509250929050565b6000806040838503121562002d73578182fd5b823562002d808162003696565b946020939093013593505050565b60006020828403121562002da0578081fd5b813562001f0081620036ac565b60006020828403121562002dbf578081fd5b815162001f0081620036ac565b6000806040838503121562002ddf578081fd5b823567ffffffffffffffff81111562002df6578182fd5b62002e048582860162002b4e565b95602094909401359450505050565b60008060006060848603121562002e28578081fd5b833567ffffffffffffffff8082111562002e40578283fd5b62002e4e8783880162002b4e565b945060208601359350604086013591508082111562002e6b578283fd5b5062002e7a8682870162002b4e565b9150509250925092565b6000806000806060858703121562002e9a578182fd5b843567ffffffffffffffff8082111562002eb2578384fd5b818701915087601f83011262002ec6578384fd5b81358181111562002ed5578485fd5b88602082850101111562002ee7578485fd5b6020928301999098509187013596604001359550909350505050565b60006020828403121562002f15578081fd5b813567ffffffffffffffff81111562002f2c578182fd5b620024b68482850162002b4e565b60006020828403121562002f4c578081fd5b815167ffffffffffffffff81111562002f63578182fd5b8201601f8101841362002f74578182fd5b805162002f8562002b70826200353c565b81815285602083850101111562002f9a578384fd5b62002fad826020830160208601620035b3565b95945050505050565b6000806040838503121562002fc9578182fd5b823567ffffffffffffffff81111562002fe0578283fd5b62002fee8582860162002b4e565b925050602083013562002c158162003696565b6000806040838503121562003014578182fd5b823567ffffffffffffffff81111562002df6578283fd5b6000602082840312156200303d578081fd5b5035919050565b60006020828403121562003056578081fd5b5051919050565b6000815180845262003077816020860160208601620035b3565b601f01601f19169290920160200192915050565b6000815160808452620030a260808501826200305d565b6020848101516001600160a01b03169086015260408085015115159086015260609384015193909401929092525090919050565b60008351620030ea818460208801620035b3565b83519083019062003100818360208801620035b3565b01949350505050565b8183823760009101908152919050565b600082516200312d818460208701620035b3565b9190910192915050565b6001600160a01b03858116825284166020820152604081018390526080606082018190526000906200316c908301846200305d565b9695505050505050565b6001600160a01b0383168152604060208201819052600090620024b6908301846200305d565b6001600160a01b0385168152608060208201819052600090620031c2908301866200305d565b60408301949094525090151560609091015292915050565b60006020808301818452808551808352604092508286019150828160051b870101848801865b838110156200327757603f19898403018552815160c081518552888201518986015287820151818987015262003239828701826200305d565b606084810151908801526080808501519088015260a0938401516001600160a01b031693909601929092525050938601939086019060010162003200565b509098975050505050505050565b6000602080830181845280855180835260408601915060408160051b8701019250838701855b82811015620032dd57603f19888603018452620032ca8583516200308b565b94509285019290850190600101620032ab565b5092979650505050505050565b60006020808301818452808551808352604092508286019150828160051b870101848801865b838110156200327757888303603f190185528151805187855262003337888601826200305d565b918901516001600160a01b0316948901949094529487019492509086019060010162003310565b60208152600062001f0060208301846200305d565b60208152816020820152818360408301376000818301604090810191909152601f909201601f19160101919050565b604081526000620033b760408301856200305d565b905060018060a01b03831660208301529392505050565b608081526000620033e360808301876200305d565b6001600160a01b03959095166020830152509115156040830152606090910152919050565b60208082526032908201527f4552433732313a207472616e7366657220746f206e6f6e20455243373231526560408201527131b2b4bb32b91034b6b83632b6b2b73a32b960711b606082015260800190565b60208082526031908201527f4552433732313a207472616e736665722063616c6c6572206973206e6f74206f6040820152701ddb995c881b9bdc88185c1c1c9bdd9959607a1b606082015260800190565b60208152600062001f0060208301846200308b565b86815285602082015260c060408201526000620034e160c08301876200305d565b60608301959095525060808101929092526001600160a01b031660a0909101529392505050565b604051601f8201601f1916810167ffffffffffffffff8111828210171562003534576200353462003680565b604052919050565b600067ffffffffffffffff82111562003559576200355962003680565b50601f01601f191660200190565b600082198211156200357d576200357d62003654565b500190565b6000826200359457620035946200366a565b500490565b600082821015620035ae57620035ae62003654565b500390565b60005b83811015620035d0578181015183820152602001620035b6565b83811115620008cf5750506000910152565b600181811c90821680620035f757607f821691505b602082108114156200361957634e487b7160e01b600052602260045260246000fd5b50919050565b600060001982141562003636576200363662003654565b5060010190565b6000826200364f576200364f6200366a565b500690565b634e487b7160e01b600052601160045260246000fd5b634e487b7160e01b600052601260045260246000fd5b634e487b7160e01b600052604160045260246000fd5b6001600160a01b0381168114620021e557600080fd5b6001600160e01b031981168114620021e557600080fdfe60806040526040516104ee3803806104ee833981016040819052610022916100f1565b600080546001600160a01b0319166001600160a01b0384161790558051610050906001906020840190610058565b50505061022d565b828054610064906101dc565b90600052602060002090601f01602090048101928261008657600085556100cc565b82601f1061009f57805160ff19168380011785556100cc565b828001600101855582156100cc579182015b828111156100cc5782518255916020019190600101906100b1565b506100d89291506100dc565b5090565b5b808211156100d857600081556001016100dd565b60008060408385031215610103578182fd5b82516001600160a01b0381168114610119578283fd5b602084810151919350906001600160401b0380821115610137578384fd5b818601915086601f83011261014a578384fd5b81518181111561015c5761015c610217565b604051601f8201601f19908116603f0116810190838211818310171561018457610184610217565b81604052828152898684870101111561019b578687fd5b8693505b828410156101bc578484018601518185018701529285019261019f565b828411156101cc57868684830101525b8096505050505050509250929050565b600181811c908216806101f057607f821691505b6020821081141561021157634e487b7160e01b600052602260045260246000fd5b50919050565b634e487b7160e01b600052604160045260246000fd5b6102b28061023c6000396000f3fe608060405234801561001057600080fd5b506004361061004c5760003560e01c806306fdde031461005157806312065fe01461006f5780633ccfd60b1461007d578063f496d88214610087575b600080fd5b6100596100b2565b60405161006691906101ee565b60405180910390f35b604051478152602001610066565b610085610140565b005b60005461009a906001600160a01b031681565b6040516001600160a01b039091168152602001610066565b600180546100bf90610241565b80601f01602080910402602001604051908101604052809291908181526020018280546100eb90610241565b80156101385780601f1061010d57610100808354040283529160200191610138565b820191906000526020600020905b81548152906001019060200180831161011b57829003601f168201915b505050505081565b604051600090339047908381818185875af1925050503d8060008114610182576040519150601f19603f3d011682016040523d82523d6000602084013e610187565b606091505b50509050806101eb5760405162461bcd60e51b815260206004820152602660248201527f4661696c656420746f2073656e64204574686572206261636b20746f207468656044820152651037bbb732b960d11b606482015260840160405180910390fd5b50565b6000602080835283518082850152825b8181101561021a578581018301518582016040015282016101fe565b8181111561022b5783604083870101525b50601f01601f1916929092016040019392505050565b600181811c9082168061025557607f821691505b6020821081141561027657634e487b7160e01b600052602260045260246000fd5b5091905056fea2646970667358221220268c70ac1dcbed0e36dc77a229f71210a643bfa8b6a5c5c9f7bda33e2da41c8e64736f6c63430008040033608060405234801561001057600080fd5b506040516106d93803806106d983398101604081905261002f9161011a565b600080546001600160a01b0319166001600160a01b038316179055815161005d906001906020850190610065565b505050610247565b828054610071906101f6565b90600052602060002090601f01602090048101928261009357600085556100d9565b82601f106100ac57805160ff19168380011785556100d9565b828001600101855582156100d9579182015b828111156100d95782518255916020019190600101906100be565b506100e59291506100e9565b5090565b5b808211156100e557600081556001016100ea565b80516001600160a01b038116811461011557600080fd5b919050565b6000806040838503121561012c578182fd5b82516001600160401b0380821115610142578384fd5b818501915085601f830112610155578384fd5b81518181111561016757610167610231565b604051601f8201601f19908116603f0116810190838211818310171561018f5761018f610231565b816040528281526020935088848487010111156101aa578687fd5b8691505b828210156101cb57848201840151818301850152908301906101ae565b828211156101db57868484830101525b95506101eb9150508582016100fe565b925050509250929050565b600181811c9082168061020a57607f821691505b6020821081141561022b57634e487b7160e01b600052602260045260246000fd5b50919050565b634e487b7160e01b600052604160045260246000fd5b610483806102566000396000f3fe6080604052600436106100565760003560e01c806312065fe01461005f578063598526861461007f5780638da5cb5b14610087578063ad38fba5146100bf578063d4cbd6a7146100ef578063f2fde38b146100f757005b3661005d57005b005b34801561006b57600080fd5b506040514781526020015b60405180910390f35b61005d610117565b34801561009357600080fd5b506000546100a7906001600160a01b031681565b6040516001600160a01b039091168152602001610076565b3480156100cb57600080fd5b506100df6100da3660046103b7565b61014c565b6040519015158152602001610076565b6100df61028d565b34801561010357600080fd5b506100df610112366004610396565b610330565b6000546001600160a01b0316331461014a5760405162461bcd60e51b8152600401610141906103e0565b60405180910390fd5b565b600080546001600160a01b031633146101775760405162461bcd60e51b8152600401610141906103e0565b81478111156101c85760405162461bcd60e51b815260206004820152601860248201527f496e76616c696420616d6f756e7420617661696c61626c6500000000000000006044820152606401610141565b836001600160a01b0381166102115760405162461bcd60e51b815260206004820152600f60248201526e496e76616c6964206164647265737360881b6044820152606401610141565b6000856001600160a01b03168560405160006040518083038185875af1925050503d806000811461025e576040519150601f19603f3d011682016040523d82523d6000602084013e610263565b606091505b50509050806102845760405162461bcd60e51b815260040161014190610407565b95945050505050565b600080546001600160a01b031633146102b85760405162461bcd60e51b8152600401610141906103e0565b600080546040516001600160a01b039091169047908381818185875af1925050503d8060008114610305576040519150601f19603f3d011682016040523d82523d6000602084013e61030a565b606091505b505090508061032b5760405162461bcd60e51b815260040161014190610407565b905090565b600080546001600160a01b0316331461035b5760405162461bcd60e51b8152600401610141906103e0565b50600080546001600160a01b0319166001600160a01b03831617905560015b919050565b80356001600160a01b038116811461037a57600080fd5b6000602082840312156103a7578081fd5b6103b08261037f565b9392505050565b600080604083850312156103c9578081fd5b6103d28361037f565b946020939093013593505050565b6020808252600d908201526c24b73b30b634b21037bbb732b960991b604082015260600190565b60208082526026908201527f4661696c656420746f2073656e64204574686572206261636b20746f207468656040820152651037bbb732b960d11b60608201526080019056fea2646970667358221220b1fc7afb7644e7db6f2c57c56e55c3246991f6abda9d94522200294b4411decc64736f6c63430008040033a2646970667358221220f24aa30f45b28bc3d3d2cd3241e694c20eb97b92629795fc1ab48ec9cebca5e264736f6c63430008040033",
  "linkReferences": {},
  "deployedLinkReferences": {}
}