{
  "_format": "hh-sol-artifact-1",
  "contractName": "Dns",
  "sourceName": "contracts/Dns.sol",
  "abi": [
    {
      "inputs": [],
      "stateMutability": "nonpayable",
      "type": "constructor"
    },
    {
      "anonymous": false,
      "inputs": [
        {
          "indexed": true,
          "internalType": "address",
          "name": "owner",
          "type": "address"
        },
        {
          "indexed": true,
          "internalType": "address",
          "name": "approved",
          "type": "address"
        },
        {
          "indexed": true,
          "internalType": "uint256",
          "name": "tokenId",
          "type": "uint256"
        }
      ],
      "name": "Approval",
      "type": "event"
    },
    {
      "anonymous": false,
      "inputs": [
        {
          "indexed": true,
          "internalType": "address",
          "name": "owner",
          "type": "address"
        },
        {
          "indexed": true,
          "internalType": "address",
          "name": "operator",
          "type": "address"
        },
        {
          "indexed": false,
          "internalType": "bool",
          "name": "approved",
          "type": "bool"
        }
      ],
      "name": "ApprovalForAll",
      "type": "event"
    },
    {
      "anonymous": false,
      "inputs": [
        {
          "indexed": false,
          "internalType": "string",
          "name": "name",
          "type": "string"
        }
      ],
      "name": "AuctionEnded",
      "type": "event"
    },
    {
      "anonymous": false,
      "inputs": [
        {
          "indexed": false,
          "internalType": "string",
          "name": "name",
          "type": "string"
        }
      ],
      "name": "AuctionStarted",
      "type": "event"
    },
    {
      "anonymous": false,
      "inputs": [
        {
          "indexed": false,
          "internalType": "address",
          "name": "bidder",
          "type": "address"
        },
        {
          "indexed": false,
          "internalType": "string",
          "name": "name",
          "type": "string"
        }
      ],
      "name": "BidMade",
      "type": "event"
    },
    {
      "anonymous": false,
      "inputs": [
        {
          "indexed": false,
          "internalType": "address",
          "name": "bidder",
          "type": "address"
        },
        {
          "indexed": false,
          "internalType": "string",
          "name": "name",
          "type": "string"
        },
        {
          "indexed": false,
          "internalType": "uint256",
          "name": "value",
          "type": "uint256"
        },
        {
          "indexed": false,
          "internalType": "bool",
          "name": "revealed",
          "type": "bool"
        }
      ],
      "name": "BidRevealed",
      "type": "event"
    },
    {
      "anonymous": false,
      "inputs": [
        {
          "indexed": true,
          "internalType": "string",
          "name": "name",
          "type": "string"
        },
        {
          "indexed": true,
          "internalType": "address",
          "name": "owner",
          "type": "address"
        }
      ],
      "name": "DomainRegistered",
      "type": "event"
    },
    {
      "anonymous": false,
      "inputs": [
        {
          "indexed": true,
          "internalType": "address",
          "name": "from",
          "type": "address"
        },
        {
          "indexed": true,
          "internalType": "address",
          "name": "to",
          "type": "address"
        },
        {
          "indexed": true,
          "internalType": "uint256",
          "name": "tokenId",
          "type": "uint256"
        }
      ],
      "name": "Transfer",
      "type": "event"
    },
    {
      "inputs": [
        {
          "internalType": "address",
          "name": "to",
          "type": "address"
        },
        {
          "internalType": "uint256",
          "name": "tokenId",
          "type": "uint256"
        }
      ],
      "name": "approve",
      "outputs": [],
      "stateMutability": "nonpayable",
      "type": "function"
    },
    {
      "inputs": [
        {
          "internalType": "string",
          "name": "",
          "type": "string"
        }
      ],
      "name": "auctions",
      "outputs": [
        {
          "internalType": "uint256",
          "name": "biddingEnd",
          "type": "uint256"
        },
        {
          "internalType": "uint256",
          "name": "revealEnd",
          "type": "uint256"
        },
        {
          "internalType": "string",
          "name": "name",
          "type": "string"
        },
        {
          "internalType": "uint256",
          "name": "auctionId",
          "type": "uint256"
        },
        {
          "internalType": "uint256",
          "name": "highestBid",
          "type": "uint256"
        },
        {
          "internalType": "address",
          "name": "highestBidder",
          "type": "address"
        },
        {
          "internalType": "uint256",
          "name": "start",
          "type": "uint256"
        },
        {
          "internalType": "uint256",
          "name": "end",
          "type": "uint256"
        }
      ],
      "stateMutability": "view",
      "type": "function"
    },
    {
      "inputs": [
        {
          "internalType": "uint256",
          "name": "",
          "type": "uint256"
        }
      ],
      "name": "auctionsArray",
      "outputs": [
        {
          "internalType": "uint256",
          "name": "biddingEnd",
          "type": "uint256"
        },
        {
          "internalType": "uint256",
          "name": "revealEnd",
          "type": "uint256"
        },
        {
          "internalType": "string",
          "name": "name",
          "type": "string"
        },
        {
          "internalType": "uint256",
          "name": "auctionId",
          "type": "uint256"
        },
        {
          "internalType": "uint256",
          "name": "highestBid",
          "type": "uint256"
        },
        {
          "internalType": "address",
          "name": "highestBidder",
          "type": "address"
        },
        {
          "internalType": "uint256",
          "name": "start",
          "type": "uint256"
        },
        {
          "internalType": "uint256",
          "name": "end",
          "type": "uint256"
        }
      ],
      "stateMutability": "view",
      "type": "function"
    },
    {
      "inputs": [
        {
          "internalType": "address",
          "name": "owner",
          "type": "address"
        }
      ],
      "name": "balanceOf",
      "outputs": [
        {
          "internalType": "uint256",
          "name": "",
          "type": "uint256"
        }
      ],
      "stateMutability": "view",
      "type": "function"
    },
    {
      "inputs": [
        {
          "internalType": "bytes",
          "name": "bytecode",
          "type": "bytes"
        },
        {
          "internalType": "uint256",
          "name": "_salt",
          "type": "uint256"
        },
        {
          "internalType": "string",
          "name": "_name",
          "type": "string"
        }
      ],
      "name": "bid",
      "outputs": [],
      "stateMutability": "payable",
      "type": "function"
    },
    {
      "inputs": [
        {
          "internalType": "string",
          "name": "",
          "type": "string"
        },
        {
          "internalType": "uint256",
          "name": "",
          "type": "uint256"
        }
      ],
      "name": "biddingsForAuctions",
      "outputs": [
        {
          "internalType": "string",
          "name": "name",
          "type": "string"
        },
        {
          "internalType": "address",
          "name": "bidder",
          "type": "address"
        },
        {
          "internalType": "bool",
          "name": "revealed",
          "type": "bool"
        },
        {
          "internalType": "uint256",
          "name": "revealedBid",
          "type": "uint256"
        },
        {
          "internalType": "uint256",
          "name": "start",
          "type": "uint256"
        },
        {
          "internalType": "uint256",
          "name": "end",
          "type": "uint256"
        }
      ],
      "stateMutability": "view",
      "type": "function"
    },
    {
      "inputs": [
        {
          "internalType": "bytes",
          "name": "bytecode",
          "type": "bytes"
        },
        {
          "internalType": "uint256",
          "name": "salt",
          "type": "uint256"
        },
        {
          "internalType": "string",
          "name": "_name",
          "type": "string"
        }
      ],
      "name": "check",
      "outputs": [],
      "stateMutability": "nonpayable",
      "type": "function"
    },
    {
      "inputs": [
        {
          "internalType": "string",
          "name": "_name",
          "type": "string"
        }
      ],
      "name": "checkIfAuctionExists",
      "outputs": [
        {
          "internalType": "bool",
          "name": "",
          "type": "bool"
        }
      ],
      "stateMutability": "view",
      "type": "function"
    },
    {
      "inputs": [
        {
          "internalType": "string",
          "name": "",
          "type": "string"
        }
      ],
      "name": "domainsToEthAddr",
      "outputs": [
        {
          "internalType": "address",
          "name": "",
          "type": "address"
        }
      ],
      "stateMutability": "view",
      "type": "function"
    },
    {
      "inputs": [
        {
          "internalType": "address",
          "name": "",
          "type": "address"
        },
        {
          "internalType": "uint256",
          "name": "",
          "type": "uint256"
        }
      ],
      "name": "ethAddrToDomain",
      "outputs": [
        {
          "internalType": "string",
          "name": "domainName",
          "type": "string"
        },
        {
          "internalType": "address",
          "name": "contractAddress",
          "type": "address"
        }
      ],
      "stateMutability": "view",
      "type": "function"
    },
    {
      "inputs": [
        {
          "internalType": "bytes",
          "name": "bytecode",
          "type": "bytes"
        },
        {
          "internalType": "uint256",
          "name": "_salt",
          "type": "uint256"
        }
      ],
      "name": "getAddress",
      "outputs": [
        {
          "internalType": "address",
          "name": "",
          "type": "address"
        }
      ],
      "stateMutability": "view",
      "type": "function"
    },
    {
      "inputs": [
        {
          "internalType": "uint256",
          "name": "tokenId",
          "type": "uint256"
        }
      ],
      "name": "getApproved",
      "outputs": [
        {
          "internalType": "address",
          "name": "",
          "type": "address"
        }
      ],
      "stateMutability": "view",
      "type": "function"
    },
    {
      "inputs": [],
      "name": "getAuctions",
      "outputs": [
        {
          "components": [
            {
              "internalType": "uint256",
              "name": "biddingEnd",
              "type": "uint256"
            },
            {
              "internalType": "uint256",
              "name": "revealEnd",
              "type": "uint256"
            },
            {
              "internalType": "string",
              "name": "name",
              "type": "string"
            },
            {
              "internalType": "uint256",
              "name": "auctionId",
              "type": "uint256"
            },
            {
              "internalType": "uint256",
              "name": "highestBid",
              "type": "uint256"
            },
            {
              "internalType": "address",
              "name": "highestBidder",
              "type": "address"
            },
            {
              "internalType": "uint256",
              "name": "start",
              "type": "uint256"
            },
            {
              "internalType": "uint256",
              "name": "end",
              "type": "uint256"
            }
          ],
          "internalType": "struct IDns.Auction[]",
          "name": "",
          "type": "tuple[]"
        }
      ],
      "stateMutability": "view",
      "type": "function"
    },
    {
      "inputs": [],
      "name": "getBalance",
      "outputs": [
        {
          "internalType": "uint256",
          "name": "",
          "type": "uint256"
        }
      ],
      "stateMutability": "view",
      "type": "function"
    },
    {
      "inputs": [
        {
          "internalType": "string",
          "name": "_name",
          "type": "string"
        },
        {
          "internalType": "address",
          "name": "user",
          "type": "address"
        }
      ],
      "name": "getBidding",
      "outputs": [
        {
          "components": [
            {
              "internalType": "string",
              "name": "name",
              "type": "string"
            },
            {
              "internalType": "address",
              "name": "bidder",
              "type": "address"
            },
            {
              "internalType": "bool",
              "name": "revealed",
              "type": "bool"
            },
            {
              "internalType": "uint256",
              "name": "revealedBid",
              "type": "uint256"
            },
            {
              "internalType": "uint256",
              "name": "start",
              "type": "uint256"
            },
            {
              "internalType": "uint256",
              "name": "end",
              "type": "uint256"
            }
          ],
          "internalType": "struct IDns.Bid",
          "name": "",
          "type": "tuple"
        }
      ],
      "stateMutability": "view",
      "type": "function"
    },
    {
      "inputs": [
        {
          "internalType": "address",
          "name": "_user",
          "type": "address"
        }
      ],
      "name": "getBiddings",
      "outputs": [
        {
          "components": [
            {
              "internalType": "string",
              "name": "name",
              "type": "string"
            },
            {
              "internalType": "address",
              "name": "bidder",
              "type": "address"
            },
            {
              "internalType": "bool",
              "name": "revealed",
              "type": "bool"
            },
            {
              "internalType": "uint256",
              "name": "revealedBid",
              "type": "uint256"
            },
            {
              "internalType": "uint256",
              "name": "start",
              "type": "uint256"
            },
            {
              "internalType": "uint256",
              "name": "end",
              "type": "uint256"
            }
          ],
          "internalType": "struct IDns.Bid[]",
          "name": "",
          "type": "tuple[]"
        }
      ],
      "stateMutability": "view",
      "type": "function"
    },
    {
      "inputs": [
        {
          "internalType": "address",
          "name": "_owner",
          "type": "address"
        },
        {
          "internalType": "string",
          "name": "_name",
          "type": "string"
        }
      ],
      "name": "getBytecode",
      "outputs": [
        {
          "internalType": "bytes",
          "name": "",
          "type": "bytes"
        }
      ],
      "stateMutability": "pure",
      "type": "function"
    },
    {
      "inputs": [
        {
          "internalType": "address",
          "name": "ownerAddress",
          "type": "address"
        }
      ],
      "name": "getDomains",
      "outputs": [
        {
          "components": [
            {
              "internalType": "string",
              "name": "domainName",
              "type": "string"
            },
            {
              "internalType": "address",
              "name": "contractAddress",
              "type": "address"
            }
          ],
          "internalType": "struct IDns.EthDomain[]",
          "name": "",
          "type": "tuple[]"
        }
      ],
      "stateMutability": "view",
      "type": "function"
    },
    {
      "inputs": [
        {
          "internalType": "address",
          "name": "owner",
          "type": "address"
        },
        {
          "internalType": "address",
          "name": "operator",
          "type": "address"
        }
      ],
      "name": "isApprovedForAll",
      "outputs": [
        {
          "internalType": "bool",
          "name": "",
          "type": "bool"
        }
      ],
      "stateMutability": "view",
      "type": "function"
    },
    {
      "inputs": [
        {
          "internalType": "address",
          "name": "",
          "type": "address"
        },
        {
          "internalType": "uint256",
          "name": "",
          "type": "uint256"
        }
      ],
      "name": "myBiddings",
      "outputs": [
        {
          "internalType": "string",
          "name": "name",
          "type": "string"
        },
        {
          "internalType": "address",
          "name": "bidder",
          "type": "address"
        },
        {
          "internalType": "bool",
          "name": "revealed",
          "type": "bool"
        },
        {
          "internalType": "uint256",
          "name": "revealedBid",
          "type": "uint256"
        },
        {
          "internalType": "uint256",
          "name": "start",
          "type": "uint256"
        },
        {
          "internalType": "uint256",
          "name": "end",
          "type": "uint256"
        }
      ],
      "stateMutability": "view",
      "type": "function"
    },
    {
      "inputs": [],
      "name": "name",
      "outputs": [
        {
          "internalType": "string",
          "name": "",
          "type": "string"
        }
      ],
      "stateMutability": "view",
      "type": "function"
    },
    {
      "inputs": [],
      "name": "owner",
      "outputs": [
        {
          "internalType": "address",
          "name": "",
          "type": "address"
        }
      ],
      "stateMutability": "view",
      "type": "function"
    },
    {
      "inputs": [
        {
          "internalType": "uint256",
          "name": "tokenId",
          "type": "uint256"
        }
      ],
      "name": "ownerOf",
      "outputs": [
        {
          "internalType": "address",
          "name": "",
          "type": "address"
        }
      ],
      "stateMutability": "view",
      "type": "function"
    },
    {
      "inputs": [
        {
          "internalType": "string",
          "name": "name",
          "type": "string"
        },
        {
          "internalType": "address",
          "name": "_owner",
          "type": "address"
        }
      ],
      "name": "registerName",
      "outputs": [
        {
          "internalType": "address",
          "name": "domainEthAddr",
          "type": "address"
        }
      ],
      "stateMutability": "nonpayable",
      "type": "function"
    },
    {
      "inputs": [
        {
          "internalType": "address",
          "name": "ownerAddress",
          "type": "address"
        },
        {
          "internalType": "string",
          "name": "name",
          "type": "string"
        }
      ],
      "name": "resolveAddress",
      "outputs": [
        {
          "internalType": "address",
          "name": "",
          "type": "address"
        }
      ],
      "stateMutability": "view",
      "type": "function"
    },
    {
      "inputs": [
        {
          "internalType": "address",
          "name": "from",
          "type": "address"
        },
        {
          "internalType": "address",
          "name": "to",
          "type": "address"
        },
        {
          "internalType": "uint256",
          "name": "tokenId",
          "type": "uint256"
        }
      ],
      "name": "safeTransferFrom",
      "outputs": [],
      "stateMutability": "nonpayable",
      "type": "function"
    },
    {
      "inputs": [
        {
          "internalType": "address",
          "name": "from",
          "type": "address"
        },
        {
          "internalType": "address",
          "name": "to",
          "type": "address"
        },
        {
          "internalType": "uint256",
          "name": "tokenId",
          "type": "uint256"
        },
        {
          "internalType": "bytes",
          "name": "_data",
          "type": "bytes"
        }
      ],
      "name": "safeTransferFrom",
      "outputs": [],
      "stateMutability": "nonpayable",
      "type": "function"
    },
    {
      "inputs": [
        {
          "internalType": "address",
          "name": "operator",
          "type": "address"
        },
        {
          "internalType": "bool",
          "name": "approved",
          "type": "bool"
        }
      ],
      "name": "setApprovalForAll",
      "outputs": [],
      "stateMutability": "nonpayable",
      "type": "function"
    },
    {
      "inputs": [
        {
          "internalType": "string",
          "name": "_name",
          "type": "string"
        },
        {
          "internalType": "uint256",
          "name": "_bidDuration",
          "type": "uint256"
        },
        {
          "internalType": "uint256",
          "name": "_revealDuration",
          "type": "uint256"
        }
      ],
      "name": "startAuction",
      "outputs": [],
      "stateMutability": "nonpayable",
      "type": "function"
    },
    {
      "inputs": [
        {
          "internalType": "bytes4",
          "name": "interfaceId",
          "type": "bytes4"
        }
      ],
      "name": "supportsInterface",
      "outputs": [
        {
          "internalType": "bool",
          "name": "",
          "type": "bool"
        }
      ],
      "stateMutability": "view",
      "type": "function"
    },
    {
      "inputs": [],
      "name": "symbol",
      "outputs": [
        {
          "internalType": "string",
          "name": "",
          "type": "string"
        }
      ],
      "stateMutability": "view",
      "type": "function"
    },
    {
      "inputs": [
        {
          "internalType": "uint256",
          "name": "tokenId",
          "type": "uint256"
        }
      ],
      "name": "tokenURI",
      "outputs": [
        {
          "internalType": "string",
          "name": "",
          "type": "string"
        }
      ],
      "stateMutability": "view",
      "type": "function"
    },
    {
      "inputs": [
        {
          "internalType": "address",
          "name": "from",
          "type": "address"
        },
        {
          "internalType": "address",
          "name": "to",
          "type": "address"
        },
        {
          "internalType": "uint256",
          "name": "tokenId",
          "type": "uint256"
        }
      ],
      "name": "transferFrom",
      "outputs": [],
      "stateMutability": "nonpayable",
      "type": "function"
    },
    {
      "stateMutability": "payable",
      "type": "receive"
    }
  ],
  "bytecode": "0x60806040526000600d553480156200001657600080fd5b50604080518082018252601481527f4e545520646f6d61696e207265676973747261720000000000000000000000006020808301918252835180850190945260038452624e545560e81b908401528151919291620000779160009162000164565b5080516200008d90600190602084019062000164565b5050600680546001600160a01b031916331790555060408051808201909152601d81527f4e545520646f6d61696e20726567697374726172206465706c6f796564000000602080830191909152620000ef91906200240b620000f5821b17901c565b6200029d565b62000140816040516024016200010c91906200020a565b60408051601f198184030181529190526020810180516001600160e01b0390811663104c13eb60e21b179091526200014316565b50565b80516a636f6e736f6c652e6c6f67602083016000808483855afa5050505050565b828054620001729062000260565b90600052602060002090601f016020900481019282620001965760008555620001e1565b82601f10620001b157805160ff1916838001178555620001e1565b82800160010185558215620001e1579182015b82811115620001e1578251825591602001919060010190620001c4565b50620001ef929150620001f3565b5090565b5b80821115620001ef5760008155600101620001f4565b6000602080835283518082850152825b8181101562000238578581018301518582016040015282016200021a565b818111156200024a5783604083870101525b50601f01601f1916929092016040019392505050565b600181811c908216806200027557607f821691505b602082108114156200029757634e487b7160e01b600052602260045260246000fd5b50919050565b61471680620002ad6000396000f3fe6080604052600436106200021a5760003560e01c80637b59af161162000123578063b88d4fde11620000ad578063c87b56dd1162000078578063c87b56dd14620006be578063d7c0691914620006e3578063e6116a59146200070a578063e80d842c146200072f578063e985e9c5146200076357600080fd5b8063b88d4fde1462000607578063ba2dd51f146200062c578063c32618a71462000665578063c4c31194146200068a57600080fd5b806399726b1011620000ee57806399726b10146200053d578063a22cb4651462000562578063a693e4cb1462000587578063b76b161814620005cc57600080fd5b80637b59af1614620004b95780638da5cb5b14620004de57806394ca2cb5146200050057806395d89b41146200052557600080fd5b80632ac63f9911620001a557806353e20453116200017057806353e2045314620004165780635a983745146200043b5780636352211e146200046f57806370a08231146200049457600080fd5b80632ac63f99146200038257806335ff502e14620003a757806342842e0e14620003cc5780634f15aeb814620003f157600080fd5b8063081812fc11620001e6578063081812fc14620002db578063095ea7b3146200031957806312065fe0146200033e57806323b872dd146200035d57600080fd5b80621d741e146200022757806301ffc9a714620002655780630369567f146200029b57806306fdde0314620002b457600080fd5b366200022257005b600080fd5b3480156200023457600080fd5b506200024c62000246366004620030cf565b620007b0565b6040516200025c929190620037dc565b60405180910390f35b3480156200027257600080fd5b506200028a62000284366004620030fd565b6200088b565b60405190151581526020016200025c565b620002b2620002ac36600462003182565b620008df565b005b348015620002c157600080fd5b50620002cc620009b8565b6040516200025c919062003798565b348015620002e857600080fd5b5062000300620002fa3660046200339a565b62000a52565b6040516001600160a01b0390911681526020016200025c565b3480156200032657600080fd5b50620002b262000338366004620030cf565b62000ae9565b3480156200034b57600080fd5b50475b6040519081526020016200025c565b3480156200036a57600080fd5b50620002b26200037c36600462002f8f565b62000c0a565b3480156200038f57600080fd5b50620002b2620003a1366004620031f3565b62000c42565b348015620003b457600080fd5b506200028a620003c636600462003272565b62000ff7565b348015620003d957600080fd5b50620002b2620003eb36600462002f8f565b620010b8565b348015620003fe57600080fd5b50620002cc620004103660046200307b565b620010d5565b3480156200042357600080fd5b5062000300620004353660046200307b565b6200114f565b3480156200044857600080fd5b50620004606200045a36600462002f14565b6200132b565b6040516200025c9190620036bf565b3480156200047c57600080fd5b50620003006200048e3660046200339a565b62001486565b348015620004a157600080fd5b506200034e620004b336600462002f14565b620014ff565b348015620004c657600080fd5b5062000300620004d836600462003325565b62001588565b348015620004eb57600080fd5b5060065462000300906001600160a01b031681565b3480156200050d57600080fd5b50620003006200051f3660046200313b565b6200170d565b3480156200053257600080fd5b50620002cc62001769565b3480156200054a57600080fd5b50620002b26200055c36600462003182565b6200177a565b3480156200056f57600080fd5b50620002b26200058136600462003046565b62001b9b565b3480156200059457600080fd5b5062000300620005a636600462003272565b80516020818301810180516007825292820191909301209152546001600160a01b031681565b348015620005d957600080fd5b50620005f1620005eb36600462003272565b62001bac565b6040516200025c98979695949392919062003907565b3480156200061457600080fd5b50620002b26200062636600462002fd4565b62001c92565b3480156200063957600080fd5b50620006516200064b36600462003370565b62001cd1565b6040516200025c9695949392919062003808565b3480156200067257600080fd5b506200065162000684366004620030cf565b62001dda565b3480156200069757600080fd5b50620006af620006a936600462003325565b62001df7565b6040516200025c9190620038f2565b348015620006cb57600080fd5b50620002cc620006dd3660046200339a565b6200206e565b348015620006f057600080fd5b50620006fb6200215f565b6040516200025c9190620035ff565b3480156200071757600080fd5b50620005f1620007293660046200339a565b620022b0565b3480156200073c57600080fd5b50620007546200074e36600462002f14565b620022f2565b6040516200025c919062003724565b3480156200077057600080fd5b506200028a6200078236600462002f52565b6001600160a01b03918216600090815260056020908152604080832093909416825291909152205460ff1690565b60086020528160005260406000208181548110620007cd57600080fd5b906000526020600020906002020160009150915050806000018054620007f39062003a38565b80601f0160208091040260200160405190810160405280929190818152602001828054620008219062003a38565b8015620008725780601f10620008465761010080835404028352916020019162000872565b820191906000526020600020905b8154815290600101906020018083116200085457829003601f168201915b505050600190930154919250506001600160a01b031682565b60006001600160e01b031982166380ac58cd60e01b1480620008bd57506001600160e01b03198216635b5e139f60e01b145b80620008d957506301ffc9a760e01b6001600160e01b03198316145b92915050565b600981604051620008f191906200349b565b90815260200160405180910390206006015460001415620009525760405162461bcd60e51b8152602060048201526016602482015275185d58dd1a5bdb88191bd95cc81b9bdd08195e1a5cdd60521b60448201526064015b60405180910390fd5b60008284516020860134f59050803b6200096b57600080fd5b62000977338362002455565b7f92eb767245ca8829c6919f3fab91e97b9e2cc7f3e2f71ed25b74e5e23bffc6fe3383604051620009aa9291906200359b565b60405180910390a150505050565b606060008054620009c99062003a38565b80601f0160208091040260200160405190810160405280929190818152602001828054620009f79062003a38565b801562000a485780601f1062000a1c5761010080835404028352916020019162000a48565b820191906000526020600020905b81548152906001019060200180831162000a2a57829003601f168201915b5050505050905090565b6000818152600260205260408120546001600160a01b031662000acd5760405162461bcd60e51b815260206004820152602c60248201527f4552433732313a20617070726f76656420717565727920666f72206e6f6e657860448201526b34b9ba32b73a103a37b5b2b760a11b606482015260840162000949565b506000908152600460205260409020546001600160a01b031690565b600062000af68262001486565b9050806001600160a01b0316836001600160a01b0316141562000b665760405162461bcd60e51b815260206004820152602160248201527f4552433732313a20617070726f76616c20746f2063757272656e74206f776e656044820152603960f91b606482015260840162000949565b336001600160a01b038216148062000b85575062000b85813362000782565b62000bf95760405162461bcd60e51b815260206004820152603860248201527f4552433732313a20617070726f76652063616c6c6572206973206e6f74206f7760448201527f6e6572206e6f7220617070726f76656420666f7220616c6c0000000000000000606482015260840162000949565b62000c058383620026be565b505050565b62000c1633826200272e565b62000c355760405162461bcd60e51b81526004016200094990620038a1565b62000c058383836200282d565b6009848460405162000c569291906200348b565b90815260200160405180910390206003015460001462000cb95760405162461bcd60e51b815260206004820152601f60248201527f41756374696f6e20666f72207468697320616c72656164792065786973747300604482015260640162000949565b60006001600160a01b03166007858560405162000cd89291906200348b565b908152604051908190036020019020546001600160a01b03161462000d4a5760405162461bcd60e51b815260206004820152602160248201527f5468697320646f6d61696e206e616d6520697320616c7265616479206f776e656044820152601960fa1b606482015260840162000949565b600d805490600062000d5c8362003a75565b91905055506000604051806101000160405280844262000d7d9190620039bd565b81526020018362000d8f8642620039bd565b62000d9b9190620039bd565b815260200186868080601f01602080910402602001604051908101604052809392919081815260200183838082843760009201829052509385525050600d54602084015250604082018190526060820152426080820181905260a090910190849062000e09908790620039bd565b62000e159190620039bd565b8152509050806009868660405162000e2f9291906200348b565b90815260200160405180910390206000820151816000015560208201518160010155604082015181600201908051906020019062000e6f92919062002dfb565b50606082015160038201556080820151600482015560a08201516005820180546001600160a01b0319166001600160a01b0390921691909117905560c0820151600682015560e090910151600790910155600a805460018101825560009190915281517fc65a7bb8d6351c1cf70c95a316cc6a92839c986682d98bc35f958f4883f9d2a860089092029182019081556020808401517fc65a7bb8d6351c1cf70c95a316cc6a92839c986682d98bc35f958f4883f9d2a984015560408401518051859462000f63937fc65a7bb8d6351c1cf70c95a316cc6a92839c986682d98bc35f958f4883f9d2aa90910192019062002dfb565b50606082015160038201556080820151600482015560a08201516005820180546001600160a01b0319166001600160a01b0390921691909117905560c0820151600682015560e0909101516007909101556040517f50aa32fed87143a12f31f64ad9199a4cdc7b35635008b92f753d4c66dafdb4239062000fe89087908790620037ad565b60405180910390a15050505050565b6000805b600a54811015620010af57826040516020016200101991906200349b565b60405160208183030381529060405280519060200120600a82815481106200105157634e487b7160e01b600052603260045260246000fd5b9060005260206000209060080201600201604051602001620010749190620034b9565b6040516020818303038152906040528051906020012014156200109a5750600192915050565b80620010a68162003a75565b91505062000ffb565b50600092915050565b62000c058383836040518060200160405280600081525062001c92565b6060600060405180602001620010eb9062002e8a565b6020820181038252601f19601f820116604052509050808484604051602001620011179291906200359b565b60408051601f198184030181529082905262001137929160200162003458565b60405160208183030381529060405291505092915050565b6000805b6001600160a01b03841660009081526008602052604090205481101562001321576001600160a01b0384166000908152600860205260408120805483908110620011ad57634e487b7160e01b600052603260045260246000fd5b90600052602060002090600202016000018054620011cb9062003a38565b80601f0160208091040260200160405190810160405280929190818152602001828054620011f99062003a38565b80156200124a5780601f106200121e576101008083540402835291602001916200124a565b820191906000526020600020905b8154815290600101906020018083116200122c57829003601f168201915b50505050509050836040516020016200126491906200349b565b60405160208183030381529060405280519060200120816040516020016200128d91906200349b565b6040516020818303038152906040528051906020012014156200130b576001600160a01b0385166000908152600860205260409020805483908110620012e357634e487b7160e01b600052603260045260246000fd5b60009182526020909120600160029092020101546001600160a01b03169250620008d9915050565b5080620013188162003a75565b91505062001153565b5060009392505050565b6001600160a01b0381166000908152600c60209081526040808320805482518185028101850190935280835260609492939192909184015b828210156200147b57838290600052602060002090600502016040518060c0016040529081600082018054620013999062003a38565b80601f0160208091040260200160405190810160405280929190818152602001828054620013c79062003a38565b8015620014185780601f10620013ec5761010080835404028352916020019162001418565b820191906000526020600020905b815481529060010190602001808311620013fa57829003601f168201915b50505091835250506001828101546001600160a01b038116602080850191909152600160a01b90910460ff1615156040840152600284015460608401526003840154608084015260049093015460a0909201919091529183529201910162001363565b505050509050919050565b6000818152600260205260408120546001600160a01b031680620008d95760405162461bcd60e51b815260206004820152602960248201527f4552433732313a206f776e657220717565727920666f72206e6f6e657869737460448201526832b73a103a37b5b2b760b91b606482015260840162000949565b60006001600160a01b0382166200156c5760405162461bcd60e51b815260206004820152602a60248201527f4552433732313a2062616c616e636520717565727920666f7220746865207a65604482015269726f206164647265737360b01b606482015260840162000949565b506001600160a01b031660009081526003602052604090205490565b60008260006001600160a01b0316600782604051620015a891906200349b565b908152604051908190036020019020546001600160a01b031614620015cc57600080fd5b60008484604051620015de9062002e98565b620015eb929190620037dc565b604051809103906000f08015801562001608573d6000803e3d6000fd5b509050809250836007866040516200162191906200349b565b908152604080516020928190038301812080546001600160a01b0319166001600160a01b03958616179055808201825288815286841683820152928716600090815260088352908120805460018101825590825290829020835180518594600290940290920192620016999284929091019062002dfb565b5060209190910151600190910180546001600160a01b0319166001600160a01b0392831617905560405190861690620016d49088906200349b565b604051908190038120907f70f2ff07e8136617cdfb0433423063c9dd697c507560d7860cce09fa86874a1290600090a350505092915050565b8151602092830120604080516001600160f81b0319818601523060601b6bffffffffffffffffffffffff191660218201526035810193909352605580840192909252805180840390920182526075909201909152805191012090565b606060018054620009c99062003a38565b6000600b826040516200178e91906200349b565b90815260200160405180910390209050600080620017ad86866200170d565b905060008190506000816001600160a01b031663f496d8826040518163ffffffff1660e01b815260040160206040518083038186803b158015620017f057600080fd5b505afa15801562001805573d6000803e3d6000fd5b505050506040513d601f19601f820116820180604052508101906200182b919062002f33565b90506000826001600160a01b03166306fdde036040518163ffffffff1660e01b815260040160006040518083038186803b1580156200186957600080fd5b505afa1580156200187e573d6000803e3d6000fd5b505050506040513d6000823e601f3d908101601f19168201604052620018a89190810190620032a9565b90506000836001600160a01b03166312065fe06040518163ffffffff1660e01b815260040160206040518083038186803b158015620018e657600080fd5b505afa158015620018fb573d6000803e3d6000fd5b505050506040513d601f19601f82011682018060405250810190620019219190620033b3565b90506001600160a01b0383163314620019775760405162461bcd60e51b815260206004820152601760248201527611985a5b1959081d1bc81d995c9a599e4818dbdb5b5a5d604a1b604482015260640162000949565b876040516020016200198a91906200349b565b6040516020818303038152906040528051906020012082604051602001620019b391906200349b565b604051602081830303815290604052805190602001201462001a125760405162461bcd60e51b815260206004820152601760248201527611985a5b1959081d1bc81d995c9a599e4818dbdb5b5a5d604a1b604482015260640162000949565b60005b875481101562001b8e57336001600160a01b031688828154811062001a4a57634e487b7160e01b600052603260045260246000fd5b60009182526020909120600160059092020101546001600160a01b0316141562001b795787818154811062001a8f57634e487b7160e01b600052603260045260246000fd5b6000918252602082206001600590920201908101805460ff60a01b1916600160a01b1790556002810184905560408051633ccfd60b60e01b815290519199506001600160a01b03881692633ccfd60b9260048084019382900301818387803b15801562001afb57600080fd5b505af115801562001b10573d6000803e3d6000fd5b5050505062001b2589338960020154620029d9565b50600287015460018801546040517fe7b9400614ae8d3fb96a8ed036e790d12c0466fe2df292c92a44c602bb1c20d59262001b70928892889291600160a01b900460ff1690620035c1565b60405180910390a15b8062001b858162003a75565b91505062001a15565b5050505050505050505050565b62001ba833838362002a86565b5050565b80516020818301810180516009825292820191909301209152805460018201546002830180549293919262001be19062003a38565b80601f016020809104026020016040519081016040528092919081815260200182805462001c0f9062003a38565b801562001c605780601f1062001c345761010080835404028352916020019162001c60565b820191906000526020600020905b81548152906001019060200180831162001c4257829003601f168201915b5050506003840154600485015460058601546006870154600790970154959692959194506001600160a01b0316925088565b62001c9e33836200272e565b62001cbd5760405162461bcd60e51b81526004016200094990620038a1565b62001ccb8484848462002b57565b50505050565b8151602081840181018051600b82529282019185019190912091905280548290811062001cfd57600080fd5b90600052602060002090600502016000915091505080600001805462001d239062003a38565b80601f016020809104026020016040519081016040528092919081815260200182805462001d519062003a38565b801562001da25780601f1062001d765761010080835404028352916020019162001da2565b820191906000526020600020905b81548152906001019060200180831162001d8457829003601f168201915b5050505060018301546002840154600385015460049095015493946001600160a01b03831694600160a01b90930460ff169350909186565b600c602052816000526040600020818154811062001cfd57600080fd5b62001e3c6040518060c001604052806060815260200160006001600160a01b031681526020016000151581526020016000815260200160008152602001600081525090565b6000600b8460405162001e5091906200349b565b9081526020016040518091039020805480602002602001604051908101604052809291908181526020016000905b8282101562001f9657838290600052602060002090600502016040518060c001604052908160008201805462001eb49062003a38565b80601f016020809104026020016040519081016040528092919081815260200182805462001ee29062003a38565b801562001f335780601f1062001f075761010080835404028352916020019162001f33565b820191906000526020600020905b81548152906001019060200180831162001f1557829003601f168201915b50505091835250506001828101546001600160a01b038116602080850191909152600160a01b90910460ff1615156040840152600284015460608401526003840154608084015260049093015460a0909201919091529183529201910162001e7e565b50505050905060005b81518110156200203857836001600160a01b031682828151811062001fd457634e487b7160e01b600052603260045260246000fd5b6020026020010151602001516001600160a01b0316141562002023578181815181106200201157634e487b7160e01b600052603260045260246000fd5b602002602001015192505050620008d9565b806200202f8162003a75565b91505062001f9f565b5060405162461bcd60e51b8152602060048201526009602482015268139bdd08199bdd5b9960ba1b604482015260640162000949565b6000818152600260205260409020546060906001600160a01b0316620020ef5760405162461bcd60e51b815260206004820152602f60248201527f4552433732314d657461646174613a2055524920717565727920666f72206e6f60448201526e3732bc34b9ba32b73a103a37b5b2b760891b606482015260840162000949565b60006200210760408051602081019091526000815290565b9050600081511162002129576040518060200160405280600081525062002158565b80620021358462002b91565b6040516020016200214892919062003458565b6040516020818303038152906040525b9392505050565b6060600a805480602002602001604051908101604052809291908181526020016000905b82821015620022a75783829060005260206000209060080201604051806101000160405290816000820154815260200160018201548152602001600282018054620021ce9062003a38565b80601f0160208091040260200160405190810160405280929190818152602001828054620021fc9062003a38565b80156200224d5780601f1062002221576101008083540402835291602001916200224d565b820191906000526020600020905b8154815290600101906020018083116200222f57829003601f168201915b505050918352505060038201546020808301919091526004830154604083015260058301546001600160a01b031660608301526006830154608083015260079092015460a090910152908252600192909201910162002183565b50505050905090565b600a8181548110620022c157600080fd5b906000526020600020906008020160009150905080600001549080600101549080600201805462001be19062003a38565b6001600160a01b0381166000908152600860209081526040808320805482518185028101850190935280835260609492939192909184015b828210156200147b5783829060005260206000209060020201604051806040016040529081600082018054620023609062003a38565b80601f01602080910402602001604051908101604052809291908181526020018280546200238e9062003a38565b8015620023df5780601f10620023b357610100808354040283529160200191620023df565b820191906000526020600020905b815481529060010190602001808311620023c157829003601f168201915b50505091835250506001918201546001600160a01b03166020918201529183529290920191016200232a565b620024528160405160240162002422919062003798565b60408051601f198184030181529190526020810180516001600160e01b031663104c13eb60e21b17905262002cbf565b50565b6009816040516200246791906200349b565b90815260200160405180910390206006015460001415620024c45760405162461bcd60e51b8152602060048201526016602482015275185d58dd1a5bdb88191bd95cc81b9bdd08195e1a5cdd60521b604482015260640162000949565b6000600982604051620024d891906200349b565b908152602001604051809103902060060154905060006009836040516200250091906200349b565b908152604080519182900360209081018320600701546001600160a01b0388166000818152600c845284812060c08701865289875286850192909252938501849052606085018490526080850187905260a0850182905280546001810182559084529282902084518051929650600590940201926200258492849291019062002dfb565b5060208201516001820180546040808601511515600160a01b026001600160a81b03199092166001600160a01b0390941693909317179055606083015160028301556080830151600383015560a09092015160049091015551600b90620025ed9085906200349b565b90815260408051918290036020908101832060c0840183528684526001600160a01b038816848301526000928401839052606084018390526080840186905260a08401859052805460018101825590835291819020835180516005909402909101926200265e928492019062002dfb565b50602082015160018201805460408501511515600160a01b026001600160a81b03199091166001600160a01b0390931692909217919091179055606082015160028201556080820151600382015560a09091015160049091015550505050565b600081815260046020526040902080546001600160a01b0319166001600160a01b0384169081179091558190620026f58262001486565b6001600160a01b03167f8c5be1e5ebec7d5bd14f71427d1e84f3dd0314c0f7b2291e5b200ac8c7c3b92560405160405180910390a45050565b6000818152600260205260408120546001600160a01b0316620027a95760405162461bcd60e51b815260206004820152602c60248201527f4552433732313a206f70657261746f7220717565727920666f72206e6f6e657860448201526b34b9ba32b73a103a37b5b2b760a11b606482015260840162000949565b6000620027b68362001486565b9050806001600160a01b0316846001600160a01b03161480620027f45750836001600160a01b0316620027e98462000a52565b6001600160a01b0316145b806200282557506001600160a01b0380821660009081526005602090815260408083209388168352929052205460ff165b949350505050565b826001600160a01b0316620028428262001486565b6001600160a01b031614620028ac5760405162461bcd60e51b815260206004820152602960248201527f4552433732313a207472616e73666572206f6620746f6b656e2074686174206960448201526839903737ba1037bbb760b91b606482015260840162000949565b6001600160a01b038216620029105760405162461bcd60e51b8152602060048201526024808201527f4552433732313a207472616e7366657220746f20746865207a65726f206164646044820152637265737360e01b606482015260840162000949565b6200291d600082620026be565b6001600160a01b038316600090815260036020526040812080546001929062002948908490620039ef565b90915550506001600160a01b038216600090815260036020526040812080546001929062002978908490620039bd565b909155505060008181526002602052604080822080546001600160a01b0319166001600160a01b0386811691821790925591518493918716917fddf252ad1be2c89b69c2b068fc378daa952ba7f163c4a11628f55a4df523b3ef91a4505050565b6000600984604051620029ed91906200349b565b908152602001604051809103902060040154821162002a0f5750600062002158565b8160098560405162002a2291906200349b565b9081526020016040518091039020600401819055508260098560405162002a4a91906200349b565b90815260405190819003602001902060050180546001600160a01b03929092166001600160a01b03199092169190911790555060019392505050565b816001600160a01b0316836001600160a01b0316141562002aea5760405162461bcd60e51b815260206004820152601960248201527f4552433732313a20617070726f766520746f2063616c6c657200000000000000604482015260640162000949565b6001600160a01b03838116600081815260056020908152604080832094871680845294825291829020805460ff191686151590811790915591519182527f17307eab39ab6107e8899845ad3d59bd9653f200f220920489ca2b5937696c31910160405180910390a3505050565b62002b648484846200282d565b62002b728484848462002ce0565b62001ccb5760405162461bcd60e51b815260040162000949906200384f565b60608162002bb65750506040805180820190915260018152600360fc1b602082015290565b8160005b811562002be6578062002bcd8162003a75565b915062002bde9050600a83620039d8565b915062002bba565b60008167ffffffffffffffff81111562002c1057634e487b7160e01b600052604160045260246000fd5b6040519080825280601f01601f19166020018201604052801562002c3b576020820181803683370190505b5090505b8415620028255762002c53600183620039ef565b915062002c62600a8662003a93565b62002c6f906030620039bd565b60f81b81838151811062002c9357634e487b7160e01b600052603260045260246000fd5b60200101906001600160f81b031916908160001a90535062002cb7600a86620039d8565b945062002c3f565b80516a636f6e736f6c652e6c6f67602083016000808483855afa5050505050565b60006001600160a01b0384163b1562002df057604051630a85bd0160e11b81526001600160a01b0385169063150b7a029062002d279033908990889088906004016200355c565b602060405180830381600087803b15801562002d4257600080fd5b505af192505050801562002d75575060408051601f3d908101601f1916820190925262002d72918101906200311c565b60015b62002dd5573d80801562002da6576040519150601f19603f3d011682016040523d82523d6000602084013e62002dab565b606091505b50805162002dcd5760405162461bcd60e51b815260040162000949906200384f565b805181602001fd5b6001600160e01b031916630a85bd0160e11b14905062002825565b506001949350505050565b82805462002e099062003a38565b90600052602060002090601f01602090048101928262002e2d576000855562002e78565b82601f1062002e4857805160ff191683800117855562002e78565b8280016001018555821562002e78579182015b8281111562002e7857825182559160200191906001019062002e5b565b5062002e8692915062002ea6565b5090565b6104ee8062003b1a83390190565b6106d9806200400883390190565b5b8082111562002e86576000815560010162002ea7565b600082601f83011262002ece578081fd5b813562002ee562002edf8262003992565b6200395e565b81815284602083860101111562002efa578283fd5b816020850160208301379081016020019190915292915050565b60006020828403121562002f26578081fd5b8135620021588162003aec565b60006020828403121562002f45578081fd5b8151620021588162003aec565b6000806040838503121562002f65578081fd5b823562002f728162003aec565b9150602083013562002f848162003aec565b809150509250929050565b60008060006060848603121562002fa4578081fd5b833562002fb18162003aec565b9250602084013562002fc38162003aec565b929592945050506040919091013590565b6000806000806080858703121562002fea578081fd5b843562002ff78162003aec565b93506020850135620030098162003aec565b925060408501359150606085013567ffffffffffffffff8111156200302c578182fd5b6200303a8782880162002ebd565b91505092959194509250565b6000806040838503121562003059578182fd5b8235620030668162003aec565b91506020830135801515811462002f84578182fd5b600080604083850312156200308e578182fd5b82356200309b8162003aec565b9150602083013567ffffffffffffffff811115620030b7578182fd5b620030c58582860162002ebd565b9150509250929050565b60008060408385031215620030e2578182fd5b8235620030ef8162003aec565b946020939093013593505050565b6000602082840312156200310f578081fd5b8135620021588162003b02565b6000602082840312156200312e578081fd5b8151620021588162003b02565b600080604083850312156200314e578081fd5b823567ffffffffffffffff81111562003165578182fd5b620031738582860162002ebd565b95602094909401359450505050565b60008060006060848603121562003197578081fd5b833567ffffffffffffffff80821115620031af578283fd5b620031bd8783880162002ebd565b9450602086013593506040860135915080821115620031da578283fd5b50620031e98682870162002ebd565b9150509250925092565b6000806000806060858703121562003209578182fd5b843567ffffffffffffffff8082111562003221578384fd5b818701915087601f83011262003235578384fd5b81358181111562003244578485fd5b88602082850101111562003256578485fd5b6020928301999098509187013596604001359550909350505050565b60006020828403121562003284578081fd5b813567ffffffffffffffff8111156200329b578182fd5b620028258482850162002ebd565b600060208284031215620032bb578081fd5b815167ffffffffffffffff811115620032d2578182fd5b8201601f81018413620032e3578182fd5b8051620032f462002edf8262003992565b81815285602083850101111562003309578384fd5b6200331c82602083016020860162003a09565b95945050505050565b6000806040838503121562003338578182fd5b823567ffffffffffffffff8111156200334f578283fd5b6200335d8582860162002ebd565b925050602083013562002f848162003aec565b6000806040838503121562003383578182fd5b823567ffffffffffffffff81111562003165578283fd5b600060208284031215620033ac578081fd5b5035919050565b600060208284031215620033c5578081fd5b5051919050565b60008151808452620033e681602086016020860162003a09565b601f01601f19169290920160200192915050565b6000815160c084526200341160c0850182620033cc565b6020848101516001600160a01b031690860152604080850151151590860152606080850151908601526080808501519086015260a093840151949093019390935250919050565b600083516200346c81846020880162003a09565b8351908301906200348281836020880162003a09565b01949350505050565b8183823760009101908152919050565b60008251620034af81846020870162003a09565b9190910192915050565b600080835482600182811c915080831680620034d657607f831692505b6020808410821415620034f757634e487b7160e01b87526022600452602487fd5b8180156200350e576001811462003520576200354e565b60ff198616895284890196506200354e565b60008a815260209020885b86811015620035465781548b8201529085019083016200352b565b505084890196505b509498975050505050505050565b6001600160a01b03858116825284166020820152604081018390526080606082018190526000906200359190830184620033cc565b9695505050505050565b6001600160a01b03831681526040602082018190526000906200282590830184620033cc565b6001600160a01b0385168152608060208201819052600090620035e790830186620033cc565b60408301949094525090151560609091015292915050565b60006020808301818452808551808352604092508286019150828160051b870101848801865b83811015620036b157603f1989840301855281516101008151855288820151898601528782015181898701526200365f82870182620033cc565b606084810151908801526080808501519088015260a0808501516001600160a01b03169088015260c0808501519088015260e09384015193909601929092525050938601939086019060010162003625565b509098975050505050505050565b6000602080830181845280855180835260408601915060408160051b8701019250838701855b828110156200371757603f1988860301845262003704858351620033fa565b94509285019290850190600101620036e5565b5092979650505050505050565b60006020808301818452808551808352604092508286019150828160051b870101848801865b83811015620036b157888303603f19018552815180518785526200377188860182620033cc565b918901516001600160a01b031694890194909452948701949250908601906001016200374a565b602081526000620021586020830184620033cc565b60208152816020820152818360408301376000818301604090810191909152601f909201601f19160101919050565b604081526000620037f16040830185620033cc565b905060018060a01b03831660208301529392505050565b60c0815260006200381d60c0830189620033cc565b6001600160a01b039790971660208301525093151560408501526060840192909252608083015260a090910152919050565b60208082526032908201527f4552433732313a207472616e7366657220746f206e6f6e20455243373231526560408201527131b2b4bb32b91034b6b83632b6b2b73a32b960711b606082015260800190565b60208082526031908201527f4552433732313a207472616e736665722063616c6c6572206973206e6f74206f6040820152701ddb995c881b9bdc88185c1c1c9bdd9959607a1b606082015260800190565b602081526000620021586020830184620033fa565b60006101008a8352896020840152806040840152620039298184018a620033cc565b6060840198909852505060808101949094526001600160a01b039290921660a084015260c083015260e0909101529392505050565b604051601f8201601f1916810167ffffffffffffffff811182821017156200398a576200398a62003ad6565b604052919050565b600067ffffffffffffffff821115620039af57620039af62003ad6565b50601f01601f191660200190565b60008219821115620039d357620039d362003aaa565b500190565b600082620039ea57620039ea62003ac0565b500490565b60008282101562003a045762003a0462003aaa565b500390565b60005b8381101562003a2657818101518382015260200162003a0c565b8381111562001ccb5750506000910152565b600181811c9082168062003a4d57607f821691505b6020821081141562003a6f57634e487b7160e01b600052602260045260246000fd5b50919050565b600060001982141562003a8c5762003a8c62003aaa565b5060010190565b60008262003aa55762003aa562003ac0565b500690565b634e487b7160e01b600052601160045260246000fd5b634e487b7160e01b600052601260045260246000fd5b634e487b7160e01b600052604160045260246000fd5b6001600160a01b03811681146200245257600080fd5b6001600160e01b0319811681146200245257600080fdfe60806040526040516104ee3803806104ee833981016040819052610022916100f1565b600080546001600160a01b0319166001600160a01b0384161790558051610050906001906020840190610058565b50505061022d565b828054610064906101dc565b90600052602060002090601f01602090048101928261008657600085556100cc565b82601f1061009f57805160ff19168380011785556100cc565b828001600101855582156100cc579182015b828111156100cc5782518255916020019190600101906100b1565b506100d89291506100dc565b5090565b5b808211156100d857600081556001016100dd565b60008060408385031215610103578182fd5b82516001600160a01b0381168114610119578283fd5b602084810151919350906001600160401b0380821115610137578384fd5b818601915086601f83011261014a578384fd5b81518181111561015c5761015c610217565b604051601f8201601f19908116603f0116810190838211818310171561018457610184610217565b81604052828152898684870101111561019b578687fd5b8693505b828410156101bc578484018601518185018701529285019261019f565b828411156101cc57868684830101525b8096505050505050509250929050565b600181811c908216806101f057607f821691505b6020821081141561021157634e487b7160e01b600052602260045260246000fd5b50919050565b634e487b7160e01b600052604160045260246000fd5b6102b28061023c6000396000f3fe608060405234801561001057600080fd5b506004361061004c5760003560e01c806306fdde031461005157806312065fe01461006f5780633ccfd60b1461007d578063f496d88214610087575b600080fd5b6100596100b2565b60405161006691906101ee565b60405180910390f35b604051478152602001610066565b610085610140565b005b60005461009a906001600160a01b031681565b6040516001600160a01b039091168152602001610066565b600180546100bf90610241565b80601f01602080910402602001604051908101604052809291908181526020018280546100eb90610241565b80156101385780601f1061010d57610100808354040283529160200191610138565b820191906000526020600020905b81548152906001019060200180831161011b57829003601f168201915b505050505081565b604051600090339047908381818185875af1925050503d8060008114610182576040519150601f19603f3d011682016040523d82523d6000602084013e610187565b606091505b50509050806101eb5760405162461bcd60e51b815260206004820152602660248201527f4661696c656420746f2073656e64204574686572206261636b20746f207468656044820152651037bbb732b960d11b606482015260840160405180910390fd5b50565b6000602080835283518082850152825b8181101561021a578581018301518582016040015282016101fe565b8181111561022b5783604083870101525b50601f01601f1916929092016040019392505050565b600181811c9082168061025557607f821691505b6020821081141561027657634e487b7160e01b600052602260045260246000fd5b5091905056fea2646970667358221220268c70ac1dcbed0e36dc77a229f71210a643bfa8b6a5c5c9f7bda33e2da41c8e64736f6c63430008040033608060405234801561001057600080fd5b506040516106d93803806106d983398101604081905261002f9161011a565b600080546001600160a01b0319166001600160a01b038316179055815161005d906001906020850190610065565b505050610247565b828054610071906101f6565b90600052602060002090601f01602090048101928261009357600085556100d9565b82601f106100ac57805160ff19168380011785556100d9565b828001600101855582156100d9579182015b828111156100d95782518255916020019190600101906100be565b506100e59291506100e9565b5090565b5b808211156100e557600081556001016100ea565b80516001600160a01b038116811461011557600080fd5b919050565b6000806040838503121561012c578182fd5b82516001600160401b0380821115610142578384fd5b818501915085601f830112610155578384fd5b81518181111561016757610167610231565b604051601f8201601f19908116603f0116810190838211818310171561018f5761018f610231565b816040528281526020935088848487010111156101aa578687fd5b8691505b828210156101cb57848201840151818301850152908301906101ae565b828211156101db57868484830101525b95506101eb9150508582016100fe565b925050509250929050565b600181811c9082168061020a57607f821691505b6020821081141561022b57634e487b7160e01b600052602260045260246000fd5b50919050565b634e487b7160e01b600052604160045260246000fd5b610483806102566000396000f3fe6080604052600436106100565760003560e01c806312065fe01461005f578063598526861461007f5780638da5cb5b14610087578063ad38fba5146100bf578063d4cbd6a7146100ef578063f2fde38b146100f757005b3661005d57005b005b34801561006b57600080fd5b506040514781526020015b60405180910390f35b61005d610117565b34801561009357600080fd5b506000546100a7906001600160a01b031681565b6040516001600160a01b039091168152602001610076565b3480156100cb57600080fd5b506100df6100da3660046103b7565b61014c565b6040519015158152602001610076565b6100df61028d565b34801561010357600080fd5b506100df610112366004610396565b610330565b6000546001600160a01b0316331461014a5760405162461bcd60e51b8152600401610141906103e0565b60405180910390fd5b565b600080546001600160a01b031633146101775760405162461bcd60e51b8152600401610141906103e0565b81478111156101c85760405162461bcd60e51b815260206004820152601860248201527f496e76616c696420616d6f756e7420617661696c61626c6500000000000000006044820152606401610141565b836001600160a01b0381166102115760405162461bcd60e51b815260206004820152600f60248201526e496e76616c6964206164647265737360881b6044820152606401610141565b6000856001600160a01b03168560405160006040518083038185875af1925050503d806000811461025e576040519150601f19603f3d011682016040523d82523d6000602084013e610263565b606091505b50509050806102845760405162461bcd60e51b815260040161014190610407565b95945050505050565b600080546001600160a01b031633146102b85760405162461bcd60e51b8152600401610141906103e0565b600080546040516001600160a01b039091169047908381818185875af1925050503d8060008114610305576040519150601f19603f3d011682016040523d82523d6000602084013e61030a565b606091505b505090508061032b5760405162461bcd60e51b815260040161014190610407565b905090565b600080546001600160a01b0316331461035b5760405162461bcd60e51b8152600401610141906103e0565b50600080546001600160a01b0319166001600160a01b03831617905560015b919050565b80356001600160a01b038116811461037a57600080fd5b6000602082840312156103a7578081fd5b6103b08261037f565b9392505050565b600080604083850312156103c9578081fd5b6103d28361037f565b946020939093013593505050565b6020808252600d908201526c24b73b30b634b21037bbb732b960991b604082015260600190565b60208082526026908201527f4661696c656420746f2073656e64204574686572206261636b20746f207468656040820152651037bbb732b960d11b60608201526080019056fea2646970667358221220b1fc7afb7644e7db6f2c57c56e55c3246991f6abda9d94522200294b4411decc64736f6c63430008040033a264697066735822122048c0538a67e4adfa36db7382008f42c317b92c29b558a2280ee1b66f0f6356f964736f6c63430008040033",
  "linkReferences": {},
  "deployedLinkReferences": {}
}